:020000041004E6
:1000000000600020AD110410BD0F0410BF0F0410DC
:1000100000000000000000000000000000000000E0
:10002000000000000000000000000000C10F0410EC
:100030000000000000000000C30F0410C50F0410F2
:10004000111204101112041011120410AD0B04103F
:100050000000000000000000000000001112041069
:10006000990C0410890C04106D0C0410111204106A
:1000700011120410111204100000000011120410DB
:100080001112041011120410DD0F04100000000002
:10009000D50F04100000000000000000CD0F041078
:1000A00011120410E50F04101112041011120410A3
:1000B0000000000000000000000000000000000040
:1000C00010B5904216D98AB2030C090C0C4659435C
:1000D00080B25343444350431B191A041B0C10189D
:1000E000594180225203002312184B41520DD8026D
:1000F000104310BD4843802252031218520D10467F
:1001000010BDC0460023C25C0133002AFBD1581E3B
:100110007047000002B4714649084900095C490073
:100120008E4402BC7047C04603B471464908400083
:100130004900095E49008E4403BC70470022430811
:100140008B4274D303098B425FD3030A8B4244D39F
:10015000030B8B4228D3030C8B420DD3FF220902E1
:1001600012BA030C8B4202D31212090265D0030BA0
:100170008B4219D300E0090AC30B8B4201D3CB0396
:10018000C01A5241830B8B4201D38B03C01A5241D8
:10019000430B8B4201D34B03C01A5241030B8B42DA
:1001A00001D30B03C01A5241C30A8B4201D3CB02C5
:1001B000C01A5241830A8B4201D38B02C01A5241AA
:1001C000430A8B4201D34B02C01A5241030A8B42AD
:1001D00001D30B02C01A5241CDD2C3098B4201D3C5
:1001E000CB01C01A524183098B4201D38B01C01A43
:1001F000524143098B4201D34B01C01A52410309BA
:100200008B4201D30B01C01A5241C3088B4201D368
:10021000CB00C01A524183088B4201D38B00C01A15
:10022000524143088B4201D34B00C01A5241411A3C
:1002300000D20146524110467047FFE701B5002049
:1002400000F0F0F802BDC0460029F7D076E770470D
:1002500003460B437FD4002243088B4274D3030927
:100260008B425FD3030A8B4244D3030B8B4228D3C8
:10027000030C8B420DD3FF22090212BA030C8B42EE
:1002800002D31212090265D0030B8B4219D300E08E
:10029000090AC30B8B4201D3CB03C01A5241830B13
:1002A0008B4201D38B03C01A5241430B8B4201D3C3
:1002B0004B03C01A5241030B8B4201D30B03C01AEC
:1002C0005241C30A8B4201D3CB02C01A5241830A66
:1002D0008B4201D38B02C01A5241430A8B4201D395
:1002E0004B02C01A5241030A8B4201D30B02C01ABF
:1002F0005241CDD2C3098B4201D3CB01C01A524126
:1003000083098B4201D38B01C01A524143098B42AE
:1003100001D34B01C01A524103098B4201D30B0197
:10032000C01A5241C3088B4201D3CB00C01A5241BC
:1003300083088B4201D38B00C01A524143088B4281
:1003400001D34B00C01A5241411A00D2014652411A
:10035000104670475DE0CA0F00D04942031000D339
:100360004042534000229C4603098B422DD3030A8E
:100370008B4212D3FC22890112BA030A8B420CD39E
:10038000890192118B4208D3890192118B4204D3C7
:1003900089013AD0921100E08909C3098B4201D347
:1003A000CB01C01A524183098B4201D38B01C01A81
:1003B000524143098B4201D34B01C01A52410309F8
:1003C0008B4201D30B01C01A5241C3088B4201D3A7
:1003D000CB00C01A524183088B4201D38B00C01A54
:1003E0005241D9D243088B4201D34B00C01A52412B
:1003F000411A00D20146634652415B10104601D3B8
:100400004042002B00D54942704763465B1000D341
:10041000404201B5002000F005F802BD0029F8D0E7
:1004200016E770477047C046002B11D1002A0FD144
:10043000002900D1002802D00021C943080007B4D8
:10044000024802A14018029003BDC046D9FFFFFF39
:1004500003B4684601B5029800F006F8019B9E4679
:1004600002B00CBC7047C046F0B557464E464546F4
:10047000DE46E0B504000D009246994683B08B42FB
:1004800030D82DD04946504600F0BAF82900060071
:10049000200000F0B5F8331A9846203B34D49B4630
:1004A00053465A46934042461F00534693401E000F
:1004B000AF423BD8AF4200D179E05B46A41BBD41BF
:1004C000002B00DA76E00022002300920193012342
:1004D0005A4693400193012342469340009329E0FA
:1004E0008242CFD900220023009201930C9B002B63
:1004F00001D01C605D600098019903B0F0BCBB4660
:10050000B246A946A046F0BD42469B4620239B1A10
:100510005246DA40414613004A468A401700424696
:100520001F43534693401E00AF42C3D9002200230D
:10053000009201934346002BD8D0FB0772081A4360
:1005400046467B080EE0AB4201D1A2420CD8A41A69
:100550009D41012024196D410021013E24184D4187
:10056000002E06D0AB42EED9013E24196D41002E7B
:10057000F8D1009801995B4600196941002B24DBF2
:100580002B005A464446D3402A00E2401C005B46FA
:100590001500002B2ADB26009E403300260047462C
:1005A000BE403200801A9941009001919EE7A3421B
:1005B000BCD882E74246202300219B1A00220091EA
:1005C00001920122DA40019285E7424620239B1ADC
:1005D0002A0046469A402300F340444613432A002B
:1005E000E2401C005B461500002BD4DA42462F0087
:1005F0002023260097409B1ADE403B003343CDE783
:1006000010B5002903D100F007F8203002E00800FF
:1006100000F002F810BDC0461C2101231B049842C3
:1006200001D3000C10391B0A984201D3000A083983
:100630001B09984201D30009043902A2105C40183A
:100640007047C046040302020101010100000000DE
:100650000000000000B589B01022002104A803F0BA
:100660000FF808220021684603F00AF805230293D8
:1006700080235B020393042302A8069301F09CFEEF
:1006800003000020834207D10090019010216846AA
:1006900001F0CEFF4342584109B000BD7FB51022A2
:1006A000002101A802F0ECFF02230093802368469A
:1006B0005B01059302F062F84342584107B000BD68
:1006C00010B500F0FBFEFFF7E9FF0400FFF7C2FFE3
:1006D000002802D02000431E984110BD72B6FEE7EC
:1006E00072B6FEE707B5034B0100186800F068F921
:1006F00007BDC046A0010020002213B50124064B0F
:100700001A70064B186001AB1C705A800198FFF7F5
:10071000E9FF200016BDC046A4010020A001002072
:10072000F7B500F071FB0400252822D0062601272A
:10073000124B01AD1B78012B0CD100F0B1FB00284E
:1007400008D00F4B186807232B7000236B8001998A
:1007500000F036F9002F07D0094B18686B461E7061
:100760005C80009900F02CF92E7028882404204326
:10077000FEBD002426002700DAE7C0469C010020C9
:10078000A001002030B5714D43B2020C287893B01F
:100790000F2812D8FFF7BEFC080C2A30373B4A5707
:1007A0005B65808C9EB0BCCB012B06D1012415E08B
:1007B000022B05D10022664B1A70012013B030BD08
:1007C000062BFAD1052AF8D81000FFF7ADFC060079
:1007D000BD00B700F6FFB900BB0002240320FFF7FD
:1007E000D1FF02202C70FFF7CDFFE6E75948062B1A
:1007F000E3D100F0CBF8D9E7062BDED1564800F064
:10080000C5F80424EAE75548062BD6D1F1E7022BB8
:10081000D3D1012200204E4B1A70514B186000F0CA
:1008200015FBBA2000F012FB0624D7E7072BC4D132
:100830003C2280204A4980000B68D21A8242B5D9F6
:100840001B180B60F0E74748062BB6D1D1E7022B07
:10085000B3D1454800F09AF80023444A09241370A4
:10086000BCE7062BA9D10D2A01D14148C1E73F4B76
:100870001B78B42B07D93F4800F088F80D2000F012
:10088000E5FA0F24AAE73C4905A802F0D9FE05A81D
:1008900000F07CF80A24A1E7062B00D08DE7374949
:1008A00005A802F0CDFE05A800F070F80B2495E72E
:1008B000062B00D081E70321093311404B431F2150
:1008C00005A80A402E4902F0BBFE05A800F05EF81C
:1008D0000C2483E7062B00D06FE703210933114076
:1008E0004B431F2105A80A40254902F0A9FE05A88F
:1008F00000F04CF80D2471E7062B00D05DE721498C
:1009000005A802F09DFE05A800F040F80E2465E75A
:10091000062B00D051E71C4905A802F091FE05A85E
:1009200000F034F8114B1B780133DBB295E7062B4E
:1009300000D042E70D2A00D03FE737E705244DE716
:1009400007244BE7082449E7032447E7A4010020D4
:100950009C010020D83D0410E73D0410FF3D041029
:1009600098010020163E0410293E04109401002036
:100970003C3E04104E3E04106A3E0410743E0410C7
:100980007C3E04108E3E04109A3E041070B50500A3
:10099000FFF7B8FB00240600B44201DB012070BD64
:1009A000285D00F053FA0134F6E710B50C2002F090
:1009B00081FD002803D0002303604360038110BD44
:1009C00013B5041E019101D1002016BD082002F0CC
:1009D00071FD0028F8D0019B036000234360636829
:1009E000002B06D0586023896060013301202381E9
:1009F000EBE72060F7E7F7B5040001AD002807D169
:100A0000FF2368802B706B8828881B041843FEBD69
:100A10000068002803D1606028706880F3E74368AD
:100A20002360002B00D1636000274688C75702F07F
:100A30004BFD23892F70013B23816E80E3E7008902
:100A4000431E9841C0B2704710B5082488B02200F8
:100A5000002106A802F014FE124B04211A6D90200A
:100A600022431A651A6DC005224000240292029AA0
:100A70001A6D0A431A651B6D04940B400193019B88
:100A8000094B03A90393059400F0D5FD074B0848D3
:100A900003A903930494059400F0CDFD012008B050
:100AA00010BDC046000040480C040000103000009B
:100AB00000001048902070B50121C00500F056FEDE
:100AC0000A4D06002021280000F050FE72425641D7
:100AD000444244418021B3002800C90164001C4302
:100AE00000F044FE43425841204370BD00001048CE
:100AF00070B5002405000E4B20001C7000F09EFB1A
:100B0000012000F09BFB022000F098FB2100200058
:100B100000F0E0FB2100012000F0DCFB21000220BE
:100B200000F0D8FB034B1D60FFF78EFFC0B270BD15
:100B3000AC010020A801002037B5FFF7BBFF00245F
:100B40000C4A2500137883420ED043400102DBB2E9
:100B50000B439CB2084B107018686B4604351D702F
:100B60005C800099FFF72CFF01AB1D7018882404EE
:100B700020433EBDAC010020A801002037B5040C85
:100B800040B2042810D101252C4202D0002000F0F0
:100B900091FB63082B4202D0012000F08BFB64071D
:100BA00002D5022000F086FB01203EBD064810B5AC
:100BB00003689A69E023DB001A4202D000F090FF3C
:100BC00010BD00F019FEFBE7B0010020F7B5FFF7FC
:100BD00077FD012801D0FFF781FD00F0B3F801286F
:100BE00001D0FFF77BFDFFF7E0FE1C4F1C4C386087
:100BF00023689847FFF7D9FE636878609847194CD7
:100C00002368984740B2013001D1FFF767FD636860
:100C10009847019040B2013001D1FFF75FFD3C00E1
:100C20000026012500E004262068FFF7E4FE00907E
:100C30002068FFF704FF434258416B461B7840424F
:100C40005BB20540002B03D0074B00989B59984797
:100C50000434042EE7D1002DE1D0D0E704020020B7
:100C6000F8090020F0090020E809002010B5044A26
:100C7000044813680133136001F03BFE10BDC04609
:100C80000C0200201002002010B5024801F00EFFF7
:100C900010BDC046CC060020F8B5244E3468E36988
:100CA0009B0617D5224D234BEB5C002B39D1224FED
:100CB000636AE85B21492B54013080B2FFF7C4FA24
:100CC000812389B2E9539B00EB5A8B4202D1012365
:100CD000184AAB544023E2691A421BD08122184DB6
:100CE0009200A85A134AAF5C134AAA5A824201D111
:100CF000002F18D02B5C0130A362104980B2FFF79F
:100D0000A3FA81239B00E952002F03D00022084B55
:100D100008495A54022000F0CDFA300002F0D2FA0D
:100D2000F8BD636AD6E72362F4E7C0466C0600208C
:100D30004C02002006020000020200000102000036
:100D40005404002070B5274B274C962523600023C0
:100D5000A360E3602361A36123626362A3628023D3
:100D60000C229B052000AD0165606261636602F0A4
:100D7000F1F9011E01D0002070BD200002F049FAF7
:100D8000011EF8D1200002F065FA0028F3D11749BE
:100D9000174C184B0D60236048608860888100F014
:100DA00013FB002801D0FFF79BFC01220820110053
:100DB00000F0A8FB082000F0CFFB6023226881240C
:100DC00011680D480B43136000230C4A0C49A40022
:100DD0001352135353540B4A1352135301205354B9
:100DE000CAE7C04600500041CC0600205C06002047
:100DF0006C06002000400041020200005404002064
:100E0000060200004C020020812370B50B4C9B00B1
:100E1000E05A0B4BE35A834204D10A4B2525E35C8D
:100E2000002B08D0255C0130074980B2FFF70CFA8F
:100E300081239B00E152280070BDC0464C02002077
:100E400002020000060200000102000070B50F4B14
:100E50000F4C0200E35C2520002B0DD181210D4DAC
:100E60008900635B615A994207D10B490968C869D7
:100E7000000602D58A62002070BDE25401330749A2
:100E800098B2FFF7E1F96153F5E7C04606020000AA
:100E900054040020020200006C0600200102000041
:100EA000064B074A0020995A02329A5A914203D1BE
:100EB000044A01309B5C5840C0B270475404002083
:100EC0000202000006020000034B9A6A82439A6203
:100ED000DA6A8243DA62704700005048054B82B0FC
:100EE0001A6D02431A651B6D18400190019B02B0F8
:100EF0007047C046000040488021064B49005A6DAB
:100F000082B00A435A655B6D0B400193019B02B0AE
:100F10007047C0460000404870B504008CB01422F1
:100F2000002101A802F0ACFB1822002106A802F063
:100F3000A7FB1F4B22689A4238D1102306A80693BC
:100F400001F01CFC002801D0FFF7CAFB8021194BDF
:100F500049009A6D08200A439A659B6D00240B4056
:100F6000009302260125009BFFF7B8FF08231248D3
:100F700001A90193029603940494059500F05BFB8C
:100F8000802301A90C4801937D3B059302960394AD
:100F9000049400F050FB8820FFF796FF0920220000
:100FA000290000F0AFFA092000F0D6FA0CB070BDAD
:100FB000005000410000404800001048FEE7FEE7F6
:100FC0007047704710B500F085FA10BD10B501F0FC
:100FD000C2F910BD10B501F0C4F910BD10B500F094
:100FE0005BFF10BD10B500F0F5FF10BD0B490C4ABA
:100FF0000300521A0B4910B50868002801D10A48AD
:1010000008600868C318934206D902F053FB0C230A
:1010100003600120404210BD0B60FCE7000C0000A3
:1010200000600020600700205C0A0020074B9A68DF
:101030009B685B055B0F920706D5054A013BDA40CA
:101040001300044A13607047034AF8E70000404861
:101050000048E801000A00200090D003704700001B
:10106000F8B5424B424A1968424C434B002911D112
:101070001969002902D1996B00290BD001239360D3
:10108000FFF7ECFFBFF34F8F3C4BE360BFF34F8F95
:10109000C046FDE73A49A160A16811612022596864
:1010A0000A435A605A6837490A405A60042259690B
:1010B0001142FCD03021DA6933488A4310390A439F
:1010C000DA61DA690240DA618022D86952000243AB
:1010D000DA612E4B1A682E4B9A422DD01E222D4BD0
:1010E000D86890430E3A0243DA600122D86802437E
:1010F000DA60D868284A1040F82252050243DA60C4
:101100008022D86812040243DA60244B244A18680B
:101110001040A022920002431A601A68114319601D
:101120001968204A1140C02252010A431A608022E5
:101130001968D2000A431A60C02000220326FF2546
:10114000800017002C003740FF00BC401649930870
:101150009B005B1819580132A143C024BC402143B5
:101160001950202AEDD162B6F8BDC046940040481F
:101170000400002000ED00E0000050480400FA05E3
:1011800000000410FFFEFFFFFFFBFFFFF81E001032
:10119000CCECBCFC00004048FFFFFFC0940050486E
:1011A0003FFCFFFFFFC7FFFF00E100E0104885465E
:1011B000FFF756FF002103E00E4B5B58435004310C
:1011C0000D480E4B42189A42F6D30D4A02E0002316
:1011D000136004320B4B9A42F9D30B4A02E000230E
:1011E00013600432094B9A42F9D3FFF7EFFCFEE794
:1011F00000600020343F0410E80900205C0A002051
:1012000094010020E8090020C00000209401002083
:10121000FEE743688B43436003680B4303607047FA
:10122000054B82B01A6D02431A651B6D1840019080
:10123000019B02B07047C0460000404830B5040032
:1012400087B00820FFF7ECFF144B6200D55A01234A
:1012500002930393DB180493114BA400E45801A9F3
:101260002000019500F0E7F90E4B1B68DB0607D55F
:101270009023DB059C420BD101990B48FFF7C9FF76
:1012800020000122290000F077FA002007B030BDCD
:10129000064B9C42F4D101990548EFE7C83E041083
:1012A000BC3E041000005048200050480000104888
:1012B00028005048054B10B54200D15A044B80001D
:1012C000C05800F05FFA002010BDC046C83E0410B0
:1012D000BC3E041030B504000D00042087B0002C83
:1012E00000D00820FFF79CFF244B6200D35A0193E3
:1012F00001230393DB180493002D18D1204BA20087
:10130000D05801A9029500F096F91E4B1B68DB0628
:101310000AD590221A4BA400E358D205934226D155
:1013200001991948FFF775FF002007B030BD012D66
:10133000EBD18021154B49005A6D0A435A655B6D0C
:10134000A2000B400093009B80235B0202930C4B96
:1013500001A9D05800F06FF90D4B00221D57032151
:10136000280000F0CFF8280000F0F6F8CDE7094A91
:101370009342D9D101990848D4E7C046B43E04103D
:10138000A83E04100000504820005048000040488B
:10139000A53E041000001048280050480B6810B506
:1013A00043604B6883600B89C3604B8903610C23E6
:1013B00043618B89836180231B02C3610023036225
:1013C000436201F0C7FE10BD30B502000C0087B0CB
:1013D000002939D0942050431E4B1F4AC518C250D3
:1013E0000420FFF71DFF0820FFF71AFF80211B4B89
:1013F000C9009A6D90200A439A659B6D01220B40AB
:101400000093009B022301A9C0050193029304935A
:101410000593039200F00FF9114B1B68DB0603D50F
:1014200001991048FFF7F5FE0123019300230E48B0
:1014300001A9059300F0FFF821002800FFF7AEFF97
:10144000002804D107B030BD02204042FAE7042052
:10145000FBE7C04664070020004000410000404810
:1014600000005048200050480000104870B5114E50
:1014700005003378002B01D1012070BD01F078F90F
:101480000400FA2031788000FEF758FE01002000A9
:10149000FEF754FE00F06CF8041EEDD1032DEBD8DE
:1014A000020001202900404200F02CF8024B2000ED
:1014B0001D60E2E7040A0020080A002010B503209E
:1014C000FFF7D4FF041E03D1FFF716FD200010BD67
:1014D0000124FBE7034A044B11681B785B18136077
:1014E0007047C046F8070020040A0020014B186826
:1014F0007047C046F8070020014B18687047C04687
:10150000080A002010B5FF2403220B00210002402E
:10151000D20091409B012340C943934000280ADB3D
:10152000C0240B4A800880008018A40002590A4099
:101530001343035110BD0F2210400838054A80089C
:1015400080008018C26911401943C161F2E7C046AA
:1015500000E100E000ED00E0002805DB1F2318405B
:101560001E3B8340014A13607047C04600E100E023
:101570008022431E5204012093420DD2C021074A0B
:1015800007485360036A09061B021B0A0B430362E8
:1015900000200723906013607047C04610E000E011
:1015A00000ED00E030B5002808D0851DEB7F441D1C
:1015B000022B05D00423C3630023E377012030BD51
:1015C0000E2103681A688A431A6001221968914340
:1015D0001960436C016C3C20034010009840486047
:1015E0000020EA77E077EAE770B5841DE37F022BFD
:1015F00003D00423C363012070BD0E2103683C2582
:101600001A688A431A600122196891431960436C71
:10161000016C2B4015009D404D60E2770022431D78
:10162000DA77836B934200D098470020E4E70630D6
:10163000C07FC0B270470023F7B50A681400DC40D1
:1016400000D1F7BD01269E40324200D184E0032440
:101650005D00AC400322E4434F6800943A40541EBE
:10166000012C31D88568009C2540AC46CC685D00D3
:10167000AC4065462C43846045683C09B54301266F
:1016800034409C402C434460C568009C5E0025406B
:101690008C68B4402C43C460022A17D107250F265A
:1016A0001D40AD00AE40B446DC08A400041901940E
:1016B000246A26006446A643B4460E696446AE40DA
:1016C0002643019C266201E0032ADDD10468009DC7
:1016D00025402C005D00AA4022430260C0229202F5
:1016E000174239D08022D20217420BD08025012226
:1016F0009026ED059A40EC68F605B0422ED1944351
:101700002243EA60FA020BD5802501229026ED05DE
:101710009A402C69F605B04222D1944322432A61B3
:101720007A020BD5802501229026ED059A406C693E
:10173000F605B04216D1944322436A61FF030BD5EC
:10174000802501229026ED059A40AC69F605B0424D
:101750000AD194432243AA6101336EE71204CEE713
:101760001204DAE71204E6E71204F2E7006908401F
:10177000431E9841C0B27047002A01D08161704772
:101780008162FCE7426913000B401B0491430B4349
:101790008361704703689A69920701D500229A62B3
:1017A00001229969114202D199690A439A617047ED
:1017B000002310B5CA0708D5030041331A7828233F
:1017C0001A40CA33282A00D1B03B8A0708D5020044
:1017D0002824413212782240A2420BD144221343E2
:1017E00009B2002901DAB822134301680A689A4352
:1017F0000A6010BDF422F2E7036810B599691A680F
:10180000436B002B00D0984710BD70477047000015
:101810000100036810B5040000201A684231087006
:10182000510418D51A6818490A401A602300413338
:101830001A78292A14D1013A1A702123200023632F
:101840000121FFF7B5FF23000022403320001A706A
:10185000FFF7DBFF10BD1204E8D51A680B49E3E778
:101860001A782A2AF6D1023A1A702223200023631A
:101870000221FFF79DFF23000022403320001A7051
:10188000FFF7C4FFE6E7C046FFBFFFFFFF7FFFFF94
:1018900070470300F7B5282241331B780400016824
:1018A000134093423CD1FE278D698E698B68CA68CC
:1018B000ED030192C268360CED0F3E40022A25D19D
:1018C0009B059A0D5B0F734018000626304033428B
:1018D00010D1A36C0133A364A36C022B09D19B1913
:1018E000A064CB6123004033187029002000FFF76B
:1018F000CFFFF7BD802120000902FFF759FF230029
:10190000002240331A70019A3A40EEE78021090222
:10191000FFF74EFF2300002240331A703200E4E745
:101920000823CB61002340342370E2E770470000B6
:10193000184B10B5C362002302000363040020208B
:1019400041321070537004226363114212D0236835
:10195000596A636A1970636A01336362238D002BCD
:1019600008D0013B2385638D013B9BB26385636C8B
:101970001A43626420000849FFF71AFF1022236807
:101980002000DA612300002240331A70FFF7CEFFF7
:1019900010BDC0460000FFFF038000007047704785
:1019A0000100020010B541310C7800234032602C58
:1019B00006D1403C0C7003631370FFF7F0FF10BDBD
:1019C00003631370FFF7EAFFF9E7000070B5050045
:1019D00000220400413542302B7802703A48283BFF
:1019E000E0626285626C0A436264022B2BD8032199
:1019F0002000FFF7DDFE28232B70344BA06B6363C0
:101A0000236B002840D01A001021113A8A433BD1A1
:101A100023681A68520403D51A682D490A401A60CF
:101A2000FFF705FE01282BD0A06B2A4B0022836311
:101A3000230040331A70FFF7D7FD002823D0A06B96
:101A4000836B98471FE020002349FFF7B1FE200079
:101A5000FFF7A0FE2B78602B10D020222A7023687D
:101A6000996911420AD09969103A114204D0DA6199
:101A7000616C0C3A0A4362642022DA610023BDE7FC
:101A80002000FFF78DFF70BDE06B0028F8D010221A
:101A9000123B9343F4D123681A68120403D51A68E1
:101AA0000E490A401A60FFF7C2FD0128E8D0E06B3A
:101AB000084B00228363230040331A70FFF794FD24
:101AC0000028E0D0E06BBBE70000FFFF091D041019
:101AD000FFBFFFFF251E041003800000FF7FFFFFF4
:101AE00070B5802503686D0099691A68294206D08F
:101AF000140604D50124466C34434464DD6180251A
:101B0000ED00294206D0140604D50824466C34435F
:101B10004464DD618024A400214206D0120604D56D
:101B20000222416C0A434264DC610B23416C19427E
:101B300001D0FFF74BFF70BDF7B506002022056806
:101B400041362B6804000093C36A0F000193337879
:101B5000EA61D8B2212B09D0223808280CD8FEF728
:101B6000D9FA680B0B0B0B0B6E05680020005E4961
:101B7000FFF71EFE2123236380226B6812021343AA
:101B80006B606B68594A200013406B60FFF702FEE0
:101B9000009B5B0459D52B68554A13402B60A36BFF
:101BA000002B03D01B685B689BB263857B0710D555
:101BB000636A6A6A1A70636A01336362238D002B59
:101BC00005D0013B2385638D013B9BB263850423D4
:101BD0009F43638D002B03D00423626C1343636423
:101BE00010231F4211D0009A1A420ED0628D002A93
:101BF00049D13378282B33D18023019A9B049A4210
:101C00002ED139002000FFF793FE2300002242333B
:101C10001A70656C6263954244D02000616CFFF7D6
:101C2000D5FE3378282B03D139002000FFF780FE42
:101C3000F7BD20002F49FFF7BBFD22239BE72000C3
:101C40002D49FFF7B5FD002395E78022009B120286
:101C50001342ABD02B68294A13402B60E36B9FE7FC
:101C600031781022236829290BD12549019888420F
:101C700007D02000DA61FFF78DFD2000FFF7C8FDD7
:101C8000C3E7DA61C1E72268D3610423626C1343BE
:101C90006364019A1B4B1A42B7D12000616CFFF7B5
:101CA00095FEB2E72700E36A154A403793420CD00D
:101CB0002000FFF7ADFD2023114A2000E2623370BF
:101CC00025633D70FFF732FEB2E720233278200013
:101CD000337025633D70222A02D1FFF797FDA7E7F5
:101CE000FFF793FDA4E7C0460180000000E800FE76
:101CF000FFBFFFFF0280000003800000FF7FFFFFA7
:101D00000000FFFFFFFFFFFE70B5050040352E7895
:101D10000400C36A0220012E0BD0013828701F3046
:101D2000014207D0024205D02000FFF705FF002046
:101D3000287070BD102001422FD002422DD0628D3C
:101D4000002A1CD1220041321078282807D1802097
:101D50008004834203D12000FFF7EAFDE7E710216A
:101D600010782268D1612928E1D12C488342DED045
:101D70002000FFF70FFD2000FFF74AFDD7E722689C
:101D8000D0610422616C0A436264254A1342CED1B9
:101D90002000616CFFF71AFEC9E70420014219D048
:101DA000024217D0628D002A0DD02268516A626A01
:101DB0001170626A01326262228D013A2285628D5F
:101DC000013A92B26285628D002AB0D1134A9342E1
:101DD000ADD0D0E70820014205D0024203D0200058
:101DE000FFF757FDA3E702200142A0D002429ED098
:101DF000628D002A0DD0636A2268197801339162DE
:101E00006362638D013B9BB26385238D013B238518
:101E10008DE7034A134200D089E7ACE70000FFFFDB
:101E2000FFFFFFFE806A10B5836B002B01D00022FC
:101E30009A63C36B002B01D000229A63FFF7B0FDB9
:101E400010BD0000A923114A9B00D1580433D35878
:101E5000C9B21B061B0C0B43AB2189007F205158D4
:101E6000002B0DD00B290BD806224A43773A1E2BA4
:101E700008D8A220FF305843054BC018800A8018AC
:101E800040B2704706325B08F1E7C04600140060BC
:101E9000A046000070477047F7B5C024E405E56927
:101EA00066686660354300F0FFF8AB0134D5402228
:101EB000E369424C1340A0682B43C360036B98470F
:101EC000A368012831D19C6A3D4A002C2FD1C02340
:101ED0000320DB05D9688143D960D9688143D96083
:101EE000384939488B6A03408B627F2113790B4054
:101EF0001371324EB768002D01DB6B0057D5FFF729
:101F0000A1FF7861684600F0AFF8B3681861B06867
:101F10002100436BB46098472800FFF7BBFF00F037
:101F2000C1F8C023DB055B68F7BDDC6ACCE7802322
:101F3000217826000B4313715C237F274B43234AF0
:101F400038369818027831783A400A4302702200F5
:101F50001832426082601E48A2781B181A7062789C
:101F60005307C6D5C023DB05D8687C3FB843D8608B
:101F7000D868B843D860930611D500F0A4F80700DC
:101F8000606800F097F801233178627880391A4050
:101F90004B425941C019C9B200F084F9A9E70123A5
:101FA00080391A404B4259416068C9B2F4E76B016D
:101FB000ADD5FFF747FF7861A9E7C046FC070020D1
:101FC000C000002000180060FFFFFFBFDC00002001
:101FD0000701002010B5FFF75EFF10BD06490B7822
:101FE000002B06D00122054B186902431A6100221A
:101FF0009A6001230B7270470808002000100060EF
:10200000F8B5EFF3108772B6144B154E1B69346F99
:10201000756F321D0360D06FF169124A181AFEF70E
:102020004FF800230200A4185D41F36FAB4203D8C0
:102030000CD1B36FA34209D901200A4AF169404289
:10204000FEF73EF800230200A4185D41B467F5676F
:1020500087F3108829002000F8BDC04600180060F2
:102060000808002035060000C02337B5DB05040052
:1020700001A85D69FFF7C4FF084B2060616001980B
:10208000D969074A401BFEF71BF8002302002068AD
:102090006168801A994103B030BDC046080800202D
:1020A00035060000704700000022014B1A7070478F
:1020B0006B080020682302004343DB2050431B0AC7
:1020C000000C1818704707B501A8FFF799FF03B077
:1020D00000BD00000023F0B56A4C89B0626804902E
:1020E000A06AE16A12184B4102920393EFF3108346
:1020F000059372B6FFF7E7FFA26DE36D00920193BF
:10210000C8220023920206000F00029803991218B9
:102110004B4101998B420FD802D100998A420BD8CA
:1021200002980399B92200235200801859418F4226
:1021300002D874D1864272D9009A019B4C20404249
:10214000C117801859410A22002392197B419942F4
:1021500004D800D08FE0904200D88CE022003C32BE
:102160001678220023006432127860331B78002A2C
:102170005CD0002B58D0383407A82478FFF740FFF4
:10218000009B404D1F1A404A3800A969FDF798FF8F
:10219000AB6E3E4AC8339B199F424DD907253C4E32
:1021A000079973790327C31A1B1B59185162916A47
:1021B000A9439162C021C905CD68BD43CD60CD68FA
:1021C000BD43CD608021956AC90529439162802174
:1021D000956A89052943916275792D1907992D4EC4
:1021E000091831605B19691D264C8B4239D2C02316
:1021F0000320DB05D9688143D960D9688143D96060
:10220000936A25490B4093620123049A13702300BB
:10221000012261331A70802362345B002380059BA6
:1022200083F3108809B0F0BD3934A5E7002B01D045
:102230003A34A1E73B349FE73D352978C025079E16
:10224000431A1B1BED059E192E61966A124F3E40E4
:1022500096620326EF68B743013E3E43EE60651881
:10226000BCE728000D4AE169FDF72AFF230084330B
:1022700018700023C9E70022094B1A700123049A41
:102280001370CCE708080020260300000018006047
:10229000C000002090080020FFFFFFBF35060000AF
:1022A0006A080020F7B54B1E9941144C144BA66ADE
:1022B000E76A1970531E9A412300002160331A7097
:1022C0000B00821B92197B41A265E36523006133F9
:1022D00019702300012562331D806B469034D81D90
:1022E000D971FFF7F7FE2378002B03D10548FFF7DC
:1022F00075FE25706B46D879FEBDC04608080020E3
:102300006C08002048080020002313B50193019BAE
:102310000C4B0D491A6B0A401A630C4A0C49140005
:10232000097892342478481CA04200D0C1B291327E
:1023300011700121DA6C0A43DA64DB6C0B40019303
:1023400013BDC04600180060FFFFFFBF0808002053
:1023500099080020704710B5FFF7D6FFFFF7FAFF86
:1023600010BD002382B00193019BC0230122DB0535
:10237000596F0A435A675B6F019302B070470000C0
:10238000024B18688003C00F7047C04600004048E9
:102390000421044B9A688A439A609A6802398A43F6
:1023A0009A60704700004048024B18684005C00F13
:1023B0007047C04600004048F8B505000120002DD8
:1023C00000D193E02B68DB0665D42B68DB0723D5AF
:1023D000904B91491868914A084080218901014336
:1023E00019608021186801431960702118688843BA
:1023F00040390143196080216B6849028B4200D04B
:1024000075E011680B431360FFF770F80400FFF7E5
:10241000B7FF002800D17FE004222B68134200D0D0
:1024200081E02B689B0700D4C9E004227B4C236821
:102430009343236023680C32934323602023226854
:102440001A42FCD1764A7748916A01409162D16A7A
:102450000140D162A168744A1140802212020A43ED
:102460006021A260E2688A431343E360EB6822685C
:10247000102B00D090E013432360FFF737F820279C
:10248000060023683B4200D099E0FFF72FF8801B3D
:102490006428F6D929E0A96800290ED1FFF778FF52
:1024A000FFF724F80400FFF77FFF01288DD0FFF726
:1024B0001DF8001B6428F6D917E00222574B9868D4
:1024C00002439A600422986802439A600429E7D183
:1024D000FFF70CF80400FFF767FF012800D074E74E
:1024E000FFF704F8001B6428F5D90320F8BD116834
:1024F0004E4801401160002B00D085E7FEF7F6FF43
:102500000400FFF73DFF002800D185E7FEF7EEFF4E
:10251000001B6428F5D9E8E7FEF7E8FF001B6428F4
:1025200000D874E7E1E72B693C4C002B23D02368EB
:1025300093432360082322681A42FCD110222368A7
:10254000082793432360A268374B1A4080235B021D
:102550001343A3600423226813432360FEF7C6FFDE
:10256000060023683B4200D05BE7FEF7BFFF801BFD
:102570000228F6D9B9E72368082793432360FEF7BA
:10258000B5FF060023683B4200D14AE7FEF7AEFFE5
:10259000801B0228F6D9A8E710218A432260002B6D
:1025A00000D06AE7FEF7A2FF2027060023683B421F
:1025B00005D0FEF79BFF801B6428F7D995E72B68B1
:1025C0001B0701D4002091E7144C6B692268402B53
:1025D0000ED113432360FEF789FF402605002368D0
:1025E0003342EFD1FEF782FF401B6428F7D97CE726
:1025F0004025AA432260002BEDD1FEF777FF0600AD
:1026000023682B42DED0FEF771FF801B6428F7D9C8
:102610006BE7C04698004048FFC0FFFF00004048FD
:1026200000005048FFCFFFFFFF7FFEFFFFFFFEFFD0
:10263000F0B504000D0085B0002802D1012005B0DE
:10264000F0BD3022474E736893430B4373600368B9
:10265000022B21D1FFF79CFEFFF7A6FE0028EDD04C
:10266000414A424913680B40E021136093688B4351
:1026700061680B439360302473682340AB425CD1A4
:1026800000230293029B052B68DDFEF7CFFCFEF7CB
:1026900033FFFEF7EBFED2E7002B23D1FFF784FEDA
:1026A0000028CBD0FFF76CFE0028C7D080232E4F28
:1026B0009B013A6813433B60FEF718FF01908022AC
:1026C0003B68D201134207D1FEF710FF019BC01AED
:1026D0000228F4D90320B2E7E022BB689343626882
:1026E0001343BB602368012BC5D180231E4F9B027F
:1026F0003A681A42FCD00223BA681343BB60002335
:102700000393039B052B14DD0423BA681343BB60BA
:10271000FFF74AFE002800D090E7FFF731FE0028BF
:1027200000D18BE7E022BB68934362681343BB6030
:10273000A1E7C046039B0133E2E77368A3432B4341
:102740007360FEF7D3FE070073682340AB4297D057
:10275000FEF7CCFEC01B0228F6D9BBE7C046029BA1
:1027600001338EE70010004000004048FFDFFFFF0C
:10277000014B18687047C046000A0020036810B576
:10278000DA0706D5042416490A6EA24304692243D7
:102790000A669A0706D51249124C8A682240446993
:1027A00022438A601A0706D50D490F4C8A682240D9
:1027B000446822438A60DB0606D5094A0B499368C0
:1027C0000B40C1680B43936081688B0605D5044AB2
:1027D0000748936803400B439360002010BDC04638
:1027E00000004048FFEFFFFFFFFF3FFFFFDFFFFF5D
:1027F000FF7FFEFF082830D005D8012818D0022816
:1028000021D000207047102849D02028F9D12C4B26
:1028100080229868C0235B021840520290424AD03E
:1028200098424BD0274BC01843425841C003E9E7B8
:10283000234B186E0423184043425841224B404218
:102840001840C018DEE71E4B986880235B011840D3
:10285000434258411D4B4042F2E7194B9A681968B0
:10286000024219D080229202080010401142C9D0C1
:102870009A68C02310001B0418401A4217D0802306
:10288000DB03984215D0124BC018431E9841114BE0
:1028900040421840104BD4E78022D201E4E7084BB5
:1028A00098680E4B8004C0171840074BC9E70648CC
:1028B000A8E70B48A6E7FA20C001A3E70948A1E76B
:1028C000000040480080FFFF0024F40000093D00A4
:1028D000000080FF00702FFC0090D003005C0CFF14
:1028E0000048E801127A000070477047704770474F
:1028F00070470222036870B5DD681E690400164245
:102900000DD015420BD0053A1A61043202779B694B
:102910009B0700D171E0FFF7E9FF00232377042331
:102920001E4211D01D420FD00522236852421A6167
:10293000073222779A69C0239B0020001A4262D096
:10294000FFF7D4FF0023237708231E420FD01D4238
:102950000DD00922236852421A610D322277DB69B9
:1029600020009B0755D0FFF7C1FF002323771023DA
:102970001E4211D01D420FD01122236852421A610B
:1029800019322277DA69C0239B0020001A4246D010
:10299000FFF7ACFF0023237701231E4208D01D421E
:1029A00006D002222368524220001A61FFF79CFFE2
:1029B00080231E4208D01D4206D081222368524245
:1029C00020001A6100F032F840231E4208D01D4258
:1029D00006D041222368524220001A61FFF788FF87
:1029E00020231E4208D01D4206D0212223685242D5
:1029F00020001A6100F019F870BDFFF776FF200083
:102A0000FFF775FF89E7FFF770FF2000FFF76FFF03
:102A100098E7FFF76AFF2000FFF769FFA5E7FFF7D8
:102A200064FF2000FFF763FFB4E7704770470000C2
:102A300030B5EFF31084012282F310880168134D42
:102A40000B682B400B6084F31088EFF3108182F346
:102A5000108802680E4C93682340936081F31088BD
:102A6000C36E012B0AD1EFF3108183F31088102479
:102A700002681368A343136081F3108803002022C7
:102A80008C331A600023C366436730BDDFFEFFFF4F
:102A9000FEFFFFEF70477047806A0022030010B509
:102AA0005E331A80FFF7F7FF10BD7047F7B5016876
:102AB000C34DCB6904000A6888682B4210D12025D9
:102AC0002B4200D19BE08026760515400640354319
:102AD00000D194E0636F2000002B00D085E085E0FA
:102AE000B84D05400095B84D009E1540354300D1C6
:102AF00085E0250001269035334205D0D70503D562
:102B00000E622F683E432E60022633420CD0C70768
:102B10000AD527000E6290373E680197B446042616
:102B200067463E43019F3E60042633420CD0C707F0
:102B30000AD527000E6290373E680197B4460226F8
:102B400067463E43019F3E600826B446334209D0A3
:102B50002027009E1740374304D066460E622F6838
:102B60003E432E6080263601334206D0570104D5FD
:102B70000E6220212E68314329602968002935D052
:102B800020210B420AD080235B05114003401943EA
:102B900004D0636F002B01D02000984722682B6877
:102BA0004027966828223E40134020001E4322D032
:102BB000FFF73EFF23689B683B4218D0EFF310817C
:102BC000012383F31088250004CD9368BB439360F1
:102BD00081F31088E86F002809D07C4B8363FEF7EF
:102BE00003FD002802D0E86F836B9847F7BD2000F3
:102BF000FFF751FFFAE7FFF74EFF2E60F6E7E56EAD
:102C0000012D00D0A4E01026334200D1A0E03242D2
:102C100000D19DE023000E6289685C3308001A88A9
:102C20004023184019425ED0201DC16F0F6879689B
:102C300089B200294DD091424BD222005E321180E0
:102C400020218C463A681140009161460A4232D1F7
:102C5000EFF3108785F3108821685D4E0A683240D3
:102C60000A6087F31088EFF3108785F310882168D6
:102C70008A68AA438A6087F31088EFF3108785F388
:102C8000108821688A689A438A6087F31088230035
:102C900062468C331A60009BE366EFF3108185F384
:102CA000108822680F351368AB43136081F31088D6
:102CB000C06FFEF777FC02232200236723005C32FB
:102CC0005E331B881188C91A89B22000FFF7EDFE18
:102CD0008CE7914200D089E73B689B0600D485E7EA
:102CE00002232367F1E721005E310B8809889BB23C
:102CF000002900D17AE7D21A91B2002900D175E7F4
:102D0000EFF3108785F310882268324E1368334042
:102D1000136087F31088EFF3108785F3108822681B
:102D20002D4E93683340936087F310882300202250
:102D30008C331A60E0666067EFF3108085F31088CB
:102D4000102522681368AB43136080F31088C7E72F
:102D500080256D032B4206D0460204D520000D626B
:102D600000F054FA42E780210B4207D080252D0461
:102D700011402840014301D0A36FACE640210B4233
:102D800016D00A4214D0EFF31080012383F3108889
:102D9000226813688B43136080F31088230020227D
:102DA00088331A6000232000A367FFF773FE1DE736
:102DB000190213D5510011D5200000F029FA15E7AA
:102DC0000F0800000100001020010004992A0410DF
:102DD000FFFEFFFFDFFEFFFFFEFFFFEFDB0100D482
:102DE00004E7002A00DB01E7200000F010FAFDE60E
:102DF000F8B50169836805680B4341692A68C769AA
:102E00000B433F493B430A4013432B606B683D4AE9
:102E100004001340C268816913433B4A6B609542CA
:102E200001D0036A19430F26AB68384803400B43AF
:102E3000AB60EB6A616AB3430B43EB62954237D1F7
:102E40001020FFF7D7FC061E30D0626A304B5200CC
:102E5000D75A3900FDF772F9032365686B43834243
:102E600006D901202B4BA36600236367A367F8BD37
:102E70002B038342F5D300233A0030001900FDF7FD
:102E8000D3FA0027060E0B02334302026E08921992
:102E90007B41100019002A003B00FDF7C5FA1E4BCC
:102EA000C2181E4B9A42DCD82368D8600020D9E7AC
:102EB000174B4900C95A1A48FDF740F9802261684A
:102EC00012024B08974210D14000C018FDF736F9A6
:102ED0000300144A103B9342C3D803000007B343D6
:102EE0009BB2400F0343EB60E0E71818FDF726F9AB
:102EF00003000C4A103B9342B3D8E860D6E7C046C3
:102F0000F369FFCFFFCFFFFF00500041FFF4FF1137
:102F1000CE3E04100100010000FDFFFFFFFC0F008A
:102F20000024F400EFFF0000836A30B51A0706D5CD
:102F30000168284C4A682240846B22434A60DA07C1
:102F400006D50168244C4A682240C46A22434A607C
:102F50009A0706D50168214C4A682240046B224337
:102F60004A605A0706D501681D4C4A682240446BE6
:102F700022434A60DA0606D501681A4C8A68224064
:102F8000C46B22438A609A0606D50168164C8A688B
:102F90002240046C22438A605A0610D50168134D02
:102FA0004A68446C2A4022434A6080225203944279
:102FB00005D14A680E4C2240846C22434A601B06AD
:102FC00006D502680B4953680B40C16C0B43536034
:102FD00030BDC046FF7FFFFFFFFFFDFFFFFFFEFF8D
:102FE000FFFFFBFFFFEFFFFFFFDFFFFFFFFFEFFF35
:102FF000FFFF9FFFFFFFF7FFF7B504000D0017006D
:1030000000932268D3692B405B1B59424B41BB4262
:1030100001D0002026E0089B0133F3D0FEF766FACA
:10302000009BC01A089B98422DD8002B2BD02368F8
:103030001A685207E5D52A004021403A8A43E0D079
:10304000DA69082611003140019132420BD020008C
:103050001E62FFF7EDFC230090331E600023012069
:1030600084342370FEBD8022D96912011142C8D078
:103070001A622000FFF7DCFC2300202290331A6044
:10308000019B843423700320ECE70000030073B538
:103090000026040090331E60FEF728FA236805001E
:1030A0001B681B071FD58021284B32000093890322
:1030B00003002000FFF7A0FFB04214D0EFF310810F
:1030C000012383F3108880202268136883431360F0
:1030D00081F310882300202288331A600320002304
:1030E0008434237076BD260023688C361B685B070A
:1030F00023D58021154B0022009320002B00C9030B
:10310000FFF77AFF002818D0EFF31080012282F336
:10311000108821680E4D0B682B400B6080F31088DF
:10312000EFF3108082F3108821688B6893438B60E3
:1031300080F3108820233360D0E723002022002072
:1031400088331A603260E0662067C8E7FFFFFF013E
:10315000DFFEFFFF70B5041E01D1012070BD050028
:1031600088352B68002B04D1020084321370FDF7E0
:10317000D3FE2423012122682B6013688B43136044
:10318000A36A002B02D02000FFF7CEFE2000FFF73D
:103190002FFE0128E1D0236807495A6820000A4021
:1031A0002A215A609A688A439A60012219680A4360
:1031B0001A60FFF76BFFD1E7FFB7FFFFF7B5070016
:1031C000436E04006A37002B04D101203880683434
:1031D0002080F7BD03680B4E9A689B680A4D5B0F11
:1031E000F05CE95CC0000192FDF732F8019B388089
:1031F0001B015B0FF05CE95CC000FDF729F880B2B1
:10320000E5E7C046EE3E0410E63E04107047704706
:103210007047F8B5050084350B0029780222012992
:1032200015D00600012104688836223232602768F2
:1032300022688A432260A168C900C9081943A160B5
:10324000FFF7BCFF20230022276033602A701000A4
:10325000F8BD0000F8B5050084350A00297802237E
:10326000012915D006000121046888362233336015
:10327000276823688B432360A168064B19401143DC
:10328000A160FFF79BFF20232760336000232B7092
:103290001800F8BDFFFFFFF1036806491A685930AE
:1032A0000A401A609A6804490A409A600123037030
:1032B0007047C0461FFEFFFFFEFF7FEF704770475D
:1032C00070470000F8B50368724DDA6904001968A8
:1032D00098682A4210D120252A4200D197E0802602
:1032E00076050D400640354300D190E0A36C2000E8
:1032F000002B00D081E046E09025674F6D0007402D
:103300000D403D4300D182E001252A4205D0CE0583
:1033100003D51D62E66D3543E56502252A4206D0D8
:10332000C60704D51D62E66D6D193543E5650425B4
:103330002A4206D0C60704D51D62E66D023D35431C
:10334000E56508252A4207D020260E403E4303D0DB
:103350001D62E66D3543E56580252D012A4206D0C4
:103360004E0104D51D628025E66D3543E565802557
:10337000AD012A420CD0C6070AD526005936367848
:103380001D62222E00D1F8BD2023E56D2B43E3659D
:10339000E36D002BF7D020231A420AD08022520579
:1033A0000B400240134304D0A36C002B01D020003B
:1033B0009847402708222668E36DB56813403D40D2
:1033C00020001D431FD0FFF767FFB3683B4216D0B4
:1033D000B368206DBB43B360002803D00023836330
:1033E000FEF702F9606D002809D02C4B8363FEF7CD
:1033F000FBF80028C7D0606D836B9847C3E72000B7
:10340000FFF75EFFBFE7FFF75BFFE565BBE78025E2
:103410002A4207D0802636040D403040054301D0B3
:10342000E36C64E74020024222D0014220D01A68B7
:10343000210082431A609A683F3882439A600022D2
:103440005931E2640A78122A09D10A3A1A629D694E
:103450002A439A6108702000FFF730FF93E7E38E5C
:10346000002B00D08FE708702000FFF728FF8AE7C5
:10347000130205D54B0003D5200000F01AF882E7AF
:10348000D20100D47FE7002900DB7CE7200000F0B8
:103490000FF878E70F28000001000010A134041095
:1034A000002310B5806AC386C385FFF709FF10BDEE
:1034B0007047704710B5034B0100186800F030F8F2
:1034C00010BDC0460C0A002010B5034B010018685F
:1034D00000F002F910BDC0460C0A002070B50F4E76
:1034E0000D0031680400002902D100F0D1F83060ED
:1034F0002900200000F0CCF8431C03D101256D42C7
:10350000280070BD0323C51C9D43A842F8D0291A8A
:10351000200000F0BDF80130F2D1EFE7A008002054
:10352000F7B50322CB1C9343083305001F000C2B77
:1035300034D20C27B94233D8280000F071F8374E46
:1035400033681C00002C2FD139002800FFF7C6FF7C
:103550000400431C5FD134680094009B002B4AD1C7
:10356000002C52D023682800E3180099019300F042
:103570008FF8019B834248D123682800FF1A390045
:10358000FFF7ACFF013040D02368DB1923603368BC
:103590005A68002A33D1009B336019E0002BC9DA46
:1035A0000C232B600020FEBD2168C91B20D40B29F1
:1035B0000AD9E2192760A34204D13260636811601E
:1035C000536005E05A60F9E76268A3420ED13260A9
:1035D000280000F02DF8200007220B30231D904317
:1035E000C21A9842DFD01B1AA350DCE75A60EFE7FB
:1035F00023006468A6E7009C63680093ADE71A00A7
:103600005B68A342FBD10023DAE70C2328002B6080
:1036100000F00EF8C6E70760DAE7C046A40800200D
:1036200010B5024800F04CF810BDC046E409002077
:1036300010B5024800F045F810BDC046E40900206E
:103640000EB400B50B499CB01DAB029006900791DB
:1036500004910948094904CB0591006802A9019326
:1036600000F0E4F80022029B1A701CB008BC03B002
:103670001847C046FFFFFF7F0C0A00200802FFFF2B
:1036800003008218934200D1704719700133F9E7A3
:10369000002370B5064D040008002B60FDF7A6FC62
:1036A000431C03D12B68002B00D0236070BDC046A3
:1036B000E0090020014B18687047C0460C0A002042
:1036C00070477047002310B59A4200D110BDCC5C02
:1036D000C4540133F8E7000070B505000C1E10D08B
:1036E000043C2368002B00DAE4182800FFF798FF59
:1036F0001D4A1368002B05D1636014602800FFF792
:1037000097FF70BDA34208D9206821188B42F3D1DE
:1037100019685B6809182160EEE71A005B68002BE6
:1037200001D0A342F9D911685018A0420BD12068EA
:103730000918501811608342E0D118685B6841187D
:1037400011605360DAE7A04202D90C232B60D5E761
:10375000206821188B4203D119685B680918216021
:1037600063605460CAE7C046A4080020F0B58E68C4
:1037700085B01F000C000B6802900392BE4230D847
:103780000C21625E9021C9000A4228D003202169E1
:103790005B1A0193636943430198DD0FED187B1CAD
:1037A0001B186D10AB4200D91D00520528D5290009
:1037B0000298FFF7B5FE061E2CD0019A2169FFF78B
:1037C00081FFA289184B1A4080231343A381019BD8
:1037D0002661F61826603E006561ED1AA560BE42BE
:1037E00000D93E0032000399206800F09BFA0020C7
:1037F000A3689B1BA36023689B19236005B0F0BDE1
:103800002A00029800F0ACFA061EE0D12169029865
:10381000FFF762FF0C230120029A40421360A28945
:1038200034331343A381E9E77FFBFFFFF0B5A1B079
:1038300003901D008B890F0016001B0611D50B6924
:10384000002B0ED14021FFF76BFE38603861002855
:1038500005D10C23039A136001204042CFE040239E
:103860007B61002308AC6361203363761033A37659
:10387000079535002B78002B01D0252B48D1AB1BA9
:103880000593B5420BD0320039000398FFF76EFF65
:10389000013000D1AEE06369059A9B1863612B7813
:1038A000002B00D1A6E0012200235242626004A94D
:1038B000543252186E1C2360E360A3601370A3653A
:1038C000544B052218003178059300F03EFA751C20
:1038D00000281FD12268D30604D5532304A95B18FE
:1038E00020211970130704D5532304A95B182B2139
:1038F000197033782A2B16D0350000210A20E3688E
:103900002A786E1C303A092A50D9002911D117E0C3
:103910000135AFE7059B2268C01A0123834013439A
:103920002E002360CCE7079B191D1B680791002B15
:1039300001DB0B9304E05B42E3600223134323604B
:103940002B782E2B0CD16B782A2B34D1079B023588
:103950001A1D1B680792002B01DA01235B420993B1
:103960002D4E03223000297800F0EFF9002806D010
:103970004023801B8340226801351343236029784C
:10398000062226486E1C217600F0DFF9002838D088
:10399000234B002B22D10722079B07339343083385
:1039A00007936369049A9B18636162E74343350098
:1039B00001219B18A4E700230A2019000135636048
:1039C0002A786E1C303A092A03D9002BC8D00991F5
:1039D000C6E74143350001238918F1E707AA0092A1
:1039E00021003A000F4B039800E000BF0490049BB5
:1039F0000133D6D1BB890D985B0600D52CE721B0E9
:103A0000F0BD07AA009221003A00064B039800F08F
:103A10007BF8EBE7F63E0410FC3E0410003F041078
:103A2000000000006D370410F7B5160001938A6896
:103A30000B690C000090934200DA130022003360FF
:103A400043321278002A01D00133336023689B0689
:103A500002D53368023333602268062315001D4007
:103A60001A4227D0230043331B785A1E9341226801
:103A7000920630D4220001990098089D4332A8474D
:103A8000013025D00622236800251340042B05D1E0
:103A90003368E568ED1AEB43DB171D40A368226924
:103AA000934201DD9B1AED180026B54220D100207B
:103AB00010E00135E36832689B1AAB42D2DD220088
:103AC000012301990098089F1932B8470130F0D1BD
:103AD00001204042FEBD3020E11843310870210032
:103AE0005A1C45310978A218433202331170C1E7DC
:103AF0002200012301990098089F1A32B84701302B
:103B0000E6D00136D1E70000F0B58BB006920A008E
:103B100043320793059003920A7E0C00109B782A8B
:103B200009D8622A0BD8002A00D1BCE07B49049155
:103B3000582A00D190E0250042352A7022E010007A
:103B400063381528F7D8FCF7EFFA16001F00F6FFC8
:103B5000F6FFF6FFF6FF1F00F6FFF6FFF6FFF6FF93
:103B6000A10036008000F6FFF6FFB200F6FF360037
:103B7000F6FFF6FF840025001A684235111D196012
:103B800013682B700123A0E018680968021D0D0658
:103B90000BD506681A60002E03DA2D23039A7642AD
:103BA00013705E4B0A27049318E006681A604906F2
:103BB000F1D536B2EFE70868196840C9050602D4A6
:103BC000400600D5B6B21960544B0A2704936F2AF9
:103BD00000D1023F2300002243331A706368A360C0
:103BE000002B03DB042122688A432260002E02D1CD
:103BF000039D002B0CD0039D30003900FCF724FB03
:103C0000049B013D5B5C2B70330006009F42F3D99F
:103C1000082F09D12368DB0706D5626823699A4219
:103C200002DC3023013D2B70039B5B1B2361079B50
:103C3000210000930598069B09AAFFF7F5FE0130C5
:103C400048D1012040420BB0F0BD202209680A4350
:103C50002260782232490491210045310A701968A6
:103C6000226840C9100602D4500600D5B6B21960C9
:103C7000D30702D5202313432360002E01D0102741
:103C8000A8E72022236893432360F8E71A680D68A9
:103C9000101D4969186013682E0601D5196002E0ED
:103CA0006D06FBD519800023039D2361BFE71A68C9
:103CB000111D1960156800212800626800F045F8A0
:103CC000002801D0401B6060636823610023039AD1
:103CD0001370ACE72A00236906990598079DA84749
:103CE0000130AED023689B0715D4099BE068984249
:103CF000A9DA1800A7E72200012306990598079E74
:103D00001932B04701309CD00135E368099A9B1AFB
:103D1000AB42F0DCE9E70025F7E7C046073F0410B7
:103D2000183F041010B5884206D800239A4208D0E4
:103D3000CC5CC4540133F9E78B189842F5D2013AB0
:103D400000D210BD8B5C8354F9E7C9B2821890424F
:103D500001D10020704703788B42FBD00130F6E799
:103D6000F7B506000C001500002905D11100FFF77A
:103D7000D7FB04002000FEBD002A03D1FFF7ACFCF6
:103D80000024F7E700F01BF80700854202D843083B
:103D9000AB42EFD329003000FFF7C2FB01900028AF
:103DA000EED02A00BD4200D93A0021000198FFF769
:103DB00089FC21003000FFF78FFC019CDAE70B1F24
:103DC0001B68181F002B01DA0B58C0187047000041
:043DD000F8B5C0463C
:043DD400F8B5C04638
:103DD80053746F72696E6720766F6C756D650053EA
:103DE800656E64696E6720666F6C646572207365C2
:103DF8006C6563746F720053656E64696E672074D6
:103E08007261636B2073656C6563746F72007374A1
:103E18006F72696E672064757479206379636C6565
:103E280000726563656976696E67207363686564A7
:103E3800756C65007363686564756C6520636F6D88
:103E4800706C657465007363686564756C6520667D
:103E58006F7263656420746F20636F6D706C657436
:103E680065004D6F6E74683A202564004461793AA4
:103E78002025640073746172742074696D653A203A
:103E880025643A256400666F6C646572233A2025C0
:103E98006400747261636B233A202564000F10106C
:103EA80000000048000010480000104801002000F1
:103EB80000400000000010480000104800001048B2
:103EC80002001000040001000200040006000800BF
:103ED8000A000C00100020004000800000010804C7
:103EE8000204080101010101010307010000232D5B
:103EF800302B2000686C4C006566674546470030EB
:103F08003132333435363738394142434445460037
:103F18003031323334353637383961626364656637
:043F28000000000095
:083F2C003CC5FF7F010000000D
:103F34007D0B041085070410390B041021070410AD
:103F4400F10A0410F90604100024F4000100000032
:103F540004000000100A002000000000A80800204F
:103F64001009002078090020000000000000000073
:103F7400000000000000000000000000000000003D
:103F8400000000000000000000000000000000002D
:103F9400000000000000000000000000000000001D
:043FA4000000000019
:04000005100411AD25
:00000001FF
