:020000041004E6
:10000000006000202D0B04107D0904107F090410EE
:1000100000000000000000000000000000000000E0
:100020000000000000000000000000008109041032
:10003000000000000000000083090410850904107E
:10004000910B0410910B0410910B0410BD060410C9
:10005000000000000000000000000000910B0410F0
:1000600009070410F9060410DD060410910B0410B2
:10007000910B0410910B041000000000910B041070
:10008000910B0410910B04109D0904100000000056
:100090009509041000000000000000008D09041004
:1000A000910B0410A5090410910B0410910B04107E
:1000B0000000000000000000000000000000000040
:1000C00010B5904216D98AB2030C090C0C4659435C
:1000D00080B25343444350431B191A041B0C10189D
:1000E000594180225203002312184B41520DD8026D
:1000F000104310BD4843802252031218520D10467F
:1001000010BDC04602B4714649084900095C490067
:100110008E4402BC7047C046002243088B4274D311
:1001200003098B425FD3030A8B4244D3030B8B42F8
:1001300028D3030C8B420DD3FF22090212BA030C01
:100140008B4202D31212090265D0030B8B4219D3E2
:1001500000E0090AC30B8B4201D3CB03C01A524102
:10016000830B8B4201D38B03C01A5241430B8B424A
:1001700001D34B03C01A5241030B8B4201D30B0333
:10018000C01A5241C30A8B4201D3CB02C01A52415A
:10019000830A8B4201D38B02C01A5241430A8B421D
:1001A00001D34B02C01A5241030A8B4201D30B0206
:1001B000C01A5241CDD2C3098B4201D3CB01C01A20
:1001C000524183098B4201D38B01C01A524143092A
:1001D0008B4201D34B01C01A524103098B4201D318
:1001E0000B01C01A5241C3088B4201D3CB00C01A85
:1001F000524183088B4201D38B00C01A52414308FD
:100200008B4201D34B00C01A5241411A00D2014621
:10021000524110467047FFE701B5002000F0F0F8AA
:1002200002BDC0460029F7D076E7704703460B436E
:100230007FD4002243088B4274D303098B425FD3DF
:10024000030A8B4244D3030B8B4228D3030C8B420B
:100250000DD3FF22090212BA030C8B4202D31212F1
:10026000090265D0030B8B4219D300E0090AC30BC6
:100270008B4201D3CB03C01A5241830B8B4201D373
:100280008B03C01A5241430B8B4201D34B03C01A5C
:100290005241030B8B4201D30B03C01A5241C30AD4
:1002A0008B4201D3CB02C01A5241830A8B4201D345
:1002B0008B02C01A5241430A8B4201D34B02C01A2F
:1002C0005241030A8B4201D30B02C01A5241CDD2D4
:1002D000C3098B4201D3CB01C01A524183098B421F
:1002E00001D38B01C01A524143098B4201D34B0108
:1002F000C01A524103098B4201D30B01C01A52416B
:10030000C3088B4201D3CB00C01A524183088B42F1
:1003100001D38B00C01A524143088B4201D34B00DA
:10032000C01A5241411A00D201465241104670474C
:100330005DE0CA0F00D04942031000D34042534051
:1003400000229C4603098B422DD3030A8B4212D311
:10035000FC22890112BA030A8B420CD38901921143
:100360008B4208D3890192118B4204D389013AD080
:10037000921100E08909C3098B4201D3CB01C01A55
:10038000524183098B4201D38B01C01A5241430968
:100390008B4201D34B01C01A524103098B4201D356
:1003A0000B01C01A5241C3088B4201D3CB00C01AC3
:1003B000524183088B4201D38B00C01A5241D9D2DB
:1003C00043088B4201D34B00C01A5241411A00D25C
:1003D0000146634652415B10104601D34042002B58
:1003E00000D54942704763465B1000D3404201B5D7
:1003F000002000F005F802BD0029F8D016E770478C
:100400007047C046002B11D1002A0FD1002900D11E
:10041000002802D00021C943080007B4024802A105
:100420004018029003BDC046D9FFFFFF03B46846E1
:1004300001B5029800F006F8019B9E4602B00CBC84
:100440007047C046F0B557464E464546DE46E0B5D5
:1004500004000D009246994683B08B4230D82DD0CF
:100460004946504600F0BAF829000600200000F086
:10047000B5F8331A9846203B34D49B4653465A4627
:10048000934042461F00534693401E00AF423BD864
:10049000AF4200D179E05B46A41BBD41002B00DADE
:1004A00076E0002200230092019301235A469340F4
:1004B0000193012342469340009329E08242CFD921
:1004C00000220023009201930C9B002B01D01C60A2
:1004D0005D600098019903B0F0BCBB46B246A946E6
:1004E000A046F0BD42469B4620239B1A5246DA4066
:1004F000414613004A468A40170042461F4353466E
:1005000093401E00AF42C3D9002200230092019302
:100510004346002BD8D0FB0772081A4346467B0897
:100520000EE0AB4201D1A2420CD8A41A9D41012099
:1005300024196D410021013E24184D41002E06D0A2
:10054000AB42EED9013E24196D41002EF8D100983E
:1005500001995B4600196941002B24DB2B005A46A8
:100560004446D3402A00E2401C005B461500002BA5
:100570002ADB26009E40330026004746BE4032005C
:10058000801A9941009001919EE7A342BCD882E76E
:100590004246202300219B1A002200910192012251
:1005A000DA40019285E7424620239B1A2A004646FC
:1005B0009A402300F340444613432A00E2401C00C3
:1005C0005B461500002BD4DA42462F00202326007C
:1005D00097409B1ADE403B003343CDE710B500291E
:1005E00003D100F007F8203002E0080000F002F824
:1005F00010BDC0461C2101231B04984201D3000CEE
:1006000010391B0A984201D3000A08391B09984285
:1006100001D30009043902A2105C40187047C0469B
:1006200004030202010101010000000000000000BB
:1006300000B589B01022002104A802F0A3FB082213
:100640000021684602F09EFB0523029380235B0293
:100650000393042302A8069301F016FB0300002075
:10066000834207D1009001901021684601F048FCB8
:100670004342584109B000BD7FB51022002101A8B6
:1006800002F080FB02230093802368465B01059300
:1006900001F0DCFC4342584107B000BD10B500F04A
:1006A00069FBFFF7E9FF0400FFF7C2FF002802D053
:1006B0002000431E984110BD72B6FEE7064810B5F3
:1006C00003689A69E023DB001A4202D000F070FE52
:1006D00010BD00F0F9FCFBE79401002010B5044ABE
:1006E000044813680133136001F06BFD10BDC04670
:1006F000E8010020EC01002010B5024801F03EFEA8
:1007000010BDC046A40A0020F8B51E4C2268D3696B
:100710009B0613D51C491D480B5C002B2ED1802550
:10072000ED004B5B566ACE5401339B059B0D4B533A
:10073000174D4D5B9D4201D101230B544027D369D6
:100740003B4214D013491148114E0D5C04388B5BA9
:10075000085A984201D1002D12D001339B059B0D00
:100760008B53002D03D00022074B08495A54022016
:1007700000F060FA200002F00DFAF8BD536ADDE7E0
:100780001762F4E7440A0020280200200404000055
:10079000020400002E06002070B5274B274C96253A
:1007A00023600023A360E3602361A361236263628B
:1007B000A36280230C229B052000AD01656062616D
:1007C000636602F02FF9011E01D0002070BD2000E9
:1007D00002F087F9011EF8D1200002F0A3F90028E9
:1007E000F3D11749174C184B0D602360486088609F
:1007F000888100F045FA002801D0FFF75DFF012253
:100800000820110000F0ECFA082000F013FB602330
:100810002268802011680D4C0B43136000230C4AA2
:100820000C49C0001352135353540B4A1352135321
:1008300001205354CAE7C04600500041A40A0020DA
:10084000340A0020440A0020004000410204000055
:100850002E060020040400002802002010B500F03D
:1008600089FAFFF71BFF002000F0A8F9FA24022004
:1008700000F0A4F9FFF790FF6400002000F0DAF91F
:10088000200000F09BFAF8E7034B9A6A82439A62D1
:10089000DA6A8243DA62704700005048054B82B042
:1008A0001A6D02431A651B6D18400190019B02B03E
:1008B0007047C046000040488021064B49005A6DF1
:1008C00082B00A435A655B6D0B400193019B02B0F5
:1008D0007047C0460000404870B504008CB0142238
:1008E000002101A802F04EFA1822002106A802F009
:1008F00049FA1F4B22689A4238D1102306A8069362
:1009000001F0A4FB002801D0FFF7D6FE8021194B8F
:1009100049009A6D08200A439A659B6D00240B409C
:10092000009302260125009BFFF7B8FF0823124819
:1009300001A90193029603940494059500F0E9FA45
:10094000802301A90C4801937D3B059302960394F3
:10095000049400F0DEFA8820FFF796FF09202200B9
:10096000290000F03DFA092000F064FA0CB070BDD7
:10097000005000410000404800001048FEE7FEE73C
:100980007047704710B500F001FA10BD10B501F0C6
:100990004AF910BD10B501F04CF910BD10B500F0CA
:1009A000E3FE10BD10B500F07DFF10BD074B9A6847
:1009B0009B685B055B0F920706D5054A013BDA4051
:1009C0001300044A13607047034AF8E700004048E8
:1009D0000048E801780C00200090D0037047000028
:1009E000F8B5424B424A1968424C434B002911D199
:1009F0001969002902D1996B00290BD0012393605A
:100A0000FFF7ECFFBFF34F8F3C4BE360BFF34F8F1B
:100A1000C046FDE73A49A160A168116120225968EA
:100A20000A435A605A6837490A405A600422596991
:100A30001142FCD03021DA6933488A4310390A4325
:100A4000DA61DA690240DA618022D8695200024331
:100A5000DA612E4B1A682E4B9A422DD01E222D4B56
:100A6000D86890430E3A0243DA600122D868024304
:100A7000DA60D868284A1040F82252050243DA604A
:100A80008022D86812040243DA60244B244A186892
:100A90001040A022920002431A601A6811431960A4
:100AA0001968204A1140C02252010A431A6080226C
:100AB0001968D2000A431A60C02000220326FF25CD
:100AC000800017002C003740FF00BC4016499308F7
:100AD0009B005B1819580132A143C024BC4021433C
:100AE0001950202AEDD162B6F8BDC04694004048A6
:100AF0000400002000ED00E0000050480400FA056A
:100B000000000410FFFEFFFFFFFBFFFFF81E0010B8
:100B1000CCECBCFC00004048FFFFFFC094005048F4
:100B20003FFCFFFFFFC7FFFF00E100E010488546E4
:100B3000FFF756FF002103E00E4B5B584350043192
:100B40000D480E4B42189A42F6D30D4A02E000239C
:100B5000136004320B4B9A42F9D30B4A02E0002394
:100B600013600432094B9A42F9D3FFF777FEFEE790
:100B700000600020E02D0410780C0020840C002080
:100B800094010020780C0020C00000209401002077
:100B9000FEE743688B43436003680B430360704781
:100BA000054B82B01A6D02431A651B6D1840019007
:100BB000019B02B07047C0460000404830B50400B9
:100BC00087B00820FFF7ECFF144B6200D55A0123D1
:100BD00002930393DB180493114BA400E45801A97A
:100BE0002000019500F095F90E4B1B68DB0607D538
:100BF0009023DB059C420BD101990B48FFF7C9FFFD
:100C000020000122290000F01FFA002007B030BDAB
:100C1000064B9C42F4D101990548EFE7A82D04103A
:100C20009C2D04100000504820005048000010483F
:100C300028005048054B10B54200D15A044B8000A3
:100C4000C05800F007FA002010BDC046A82D0410BF
:100C50009C2D04100B6810B543604B6883600B89B2
:100C6000C3604B8903610C2343618B8983618023BB
:100C70001B02C36100230362436201F0D3FE10BD77
:100C800030B502000C0087B0002939D094205043C1
:100C90001E4B1F4AC518C2500420FFF781FF0820D1
:100CA000FFF77EFF80211B4BC9009A6D90200A43FD
:100CB0009A659B6D01220B400093009B022301A9C2
:100CC000C0050193029304930593039200F021F968
:100CD000114B1B68DB0603D501991048FFF759FF3C
:100CE0000123019300230E4801A9059300F011F997
:100CF00021002800FFF7AEFF002804D107B030BD67
:100D000002204042FAE70420FBE7C046380B0020EF
:100D1000004000410000404800005048200050487A
:100D20000000104870B5114E05003378002B01D13A
:100D3000012070BD01F084F90400FA2031788000B0
:100D4000FFF7EAF901002000FFF7E6F900F07EF86E
:100D5000041EEDD1032DEBD80200012029004042F2
:100D600000F03EF8024B20001D60E2E77C0C002002
:100D7000800C002010B50320FFF7D4FF041E03D120
:100D8000FFF79AFD200010BD0124FBE7034A044B46
:100D900011681B785B1813607047C046CC0B0020AD
:100DA0007C0C0020014B18687047C046CC0B00201B
:100DB000014B18687047C046800C002070B50400D5
:100DC000FFF7F0FF0500631C02D0044B1B78E4180A
:100DD000FFF7E8FF401BA042FAD370BD7C0C002057
:100DE00010B5FF2403220B0021000240D2009140E5
:100DF0009B012340C943934000280ADBC0240B4ACF
:100E0000800880008018A40002590A40134303514F
:100E100010BD0F2210400838054A80088000801855
:100E2000C26911401943C161F2E7C04600E100E028
:100E300000ED00E0002805DB1F2318401E3B834027
:100E4000014A13607047C04600E100E08022431E63
:100E50005204012093420DD2C021074A0748536033
:100E6000036A09061B021B0A0B43036200200723C7
:100E7000906013607047C04610E000E000ED00E0B5
:100E800030B5002808D0851DEB7F441D022B05D00E
:100E90000423C3630023E377012030BD0E210368E0
:100EA0001A688A431A600122196891431960436CD9
:100EB000016C3C2003401000984048600020EA7715
:100EC000E077EAE770B5841DE37F022B03D00423AB
:100ED000C363012070BD0E2103683C251A688A4354
:100EE0001A600122196891431960436C016C2B4010
:100EF00015009D404D60E2770022431DDA77836B39
:100F0000934200D098470020E4E70630C07FC0B28B
:100F100070470023F7B50A681400DC4000D1F7BD24
:100F200001269E40324200D184E003245D00AC40A3
:100F30000322E4434F6800943A40541E012C31D8F8
:100F40008568009C2540AC46CC685D00AC40654699
:100F50002C43846045683C09B543012634409C40DD
:100F60002C434460C568009C5E0025408C68B440FA
:100F70002C43C460022A17D107250F261D40AD005F
:100F8000AE40B446DC08A40004190194246A26008B
:100F90006446A643B4460E696446AE402643019CAF
:100FA000266201E0032ADDD10468009D25402C0063
:100FB0005D00AA4022430260C0229202174239D04B
:100FC0008022D20217420BD0802501229026ED0507
:100FD0009A40EC68F605B0422ED194432243EA6071
:100FE000FA020BD5802501229026ED059A402C6946
:100FF000F605B04222D1944322432A617A020BD5EE
:10100000802501229026ED059A406C69F605B042D4
:1010100016D1944322436A61FF030BD58025012238
:101020009026ED059A40AC69F605B0420AD194438A
:101030002243AA6101336EE71204CEE71204DAE715
:101040001204E6E71204F2E7002A01D0816170473A
:101050008162FCE7426913000B401B0491430B4380
:101060008361704703689A69920701D500229A62EA
:1010700001229969114202D199690A439A61704724
:10108000002310B5CA0708D5030041331A78282376
:101090001A40CA33282A00D1B03B8A0708D502007B
:1010A0002824413212782240A2420BD14422134319
:1010B00009B2002901DAB822134301680A689A4389
:1010C0000A6010BDF422F2E7036810B599691A6846
:1010D000436B002B00D0984710BD7047704700004D
:1010E0000100036810B5040000201A68423108703E
:1010F000510418D51A6818490A401A602300413370
:101100001A78292A14D1013A1A7021232000236366
:101110000121FFF7B5FF23000022403320001A70A1
:10112000FFF7DBFF10BD1204E8D51A680B49E3E7AF
:101130001A782A2AF6D1023A1A7022232000236351
:101140000221FFF79DFF23000022403320001A7088
:10115000FFF7C4FFE6E7C046FFBFFFFFFF7FFFFFCB
:1011600070470300F7B5282241331B78040001685B
:10117000134093423CD1FE278D698E698B68CA6803
:10118000ED030192C268360CED0F3E40022A25D1D4
:101190009B059A0D5B0F73401800062630403342C2
:1011A00010D1A36C0133A364A36C022B09D19B194A
:1011B000A064CB6123004033187029002000FFF7A2
:1011C000CFFFF7BD802120000902FFF759FF230060
:1011D000002240331A70019A3A40EEE7802109025A
:1011E000FFF74EFF2300002240331A703200E4E77D
:1011F0000823CB61002340342370E2E770470000EE
:10120000184B10B5C36200230200036304002020C2
:1012100041321070537004226363114212D023686C
:10122000596A636A1970636A01336362238D002B04
:1012300008D0013B2385638D013B9BB26385636CC2
:101240001A43626420000849FFF71AFF102223683E
:101250002000DA612300002240331A70FFF7CEFF2E
:1012600010BDC0460000FFFF0380000070477047BC
:101270000100020010B541310C7800234032602C8F
:1012800006D1403C0C7003631370FFF7F0FF10BDF4
:1012900003631370FFF7EAFFF9E7000070B505007C
:1012A00000220400413542302B7802703A48283B36
:1012B000E0626285626C0A436264022B2BD80321D0
:1012C0002000FFF7DDFE28232B70344BA06B6363F7
:1012D000236B002840D01A001021113A8A433BD1D9
:1012E00023681A68520403D51A682D490A401A6007
:1012F000FFF70BFE01282BD0A06B2A4B0022836343
:10130000230040331A70FFF7DDFD002823D0A06BC7
:10131000836B98471FE020002349FFF7B1FE2000B0
:10132000FFF7A0FE2B78602B10D020222A702368B4
:10133000996911420AD09969103A114204D0DA61D0
:10134000616C0C3A0A4362642022DA610023BDE733
:101350002000FFF78DFF70BDE06B0028F8D0102251
:10136000123B9343F4D123681A68120403D51A6818
:101370000E490A401A60FFF7C8FD0128E8D0E06B6B
:10138000084B00228363230040331A70FFF79AFD55
:101390000028E0D0E06BBBE70000FFFFD915041088
:1013A000FFBFFFFFF516041003800000FF7FFFFF63
:1013B00070B5802503686D0099691A68294206D0C6
:1013C000140604D50124466C34434464DD61802551
:1013D000ED00294206D0140604D50824466C344397
:1013E0004464DD618024A400214206D0120604D5A5
:1013F0000222416C0A434264DC610B23416C1942B6
:1014000001D0FFF74BFF70BDF7B50600202205683D
:1014100041362B6804000093C36A0F0001933378B0
:10142000EA61D8B2212B09D0223808280CD8FEF75F
:1014300069FE680B0B0B0B0B6E05680020005E4904
:10144000FFF71EFE2123236380226B6812021343E1
:101450006B606B68594A200013406B60FFF702FE17
:10146000009B5B0459D52B68554A13402B60A36B36
:10147000002B03D01B685B689BB263857B0710D58C
:10148000636A6A6A1A70636A01336362238D002B90
:1014900005D0013B2385638D013B9BB2638504230B
:1014A0009F43638D002B03D00423626C134363645A
:1014B00010231F4211D0009A1A420ED0628D002ACA
:1014C00049D13378282B33D18023019A9B049A4247
:1014D0002ED139002000FFF793FE23000022423373
:1014E0001A70656C6263954244D02000616CFFF70E
:1014F000D5FE3378282B03D139002000FFF780FE7A
:10150000F7BD20002F49FFF7BBFD22239BE72000FA
:101510002D49FFF7B5FD002395E78022009B1202BD
:101520001342ABD02B68294A13402B60E36B9FE733
:1015300031781022236829290BD125490198884246
:1015400007D02000DA61FFF78DFD2000FFF7C8FD0E
:10155000C3E7DA61C1E72268D3610423626C1343F5
:101560006364019A1B4B1A42B7D12000616CFFF7EC
:1015700095FEB2E72700E36A154A403793420CD044
:101580002000FFF7ADFD2023114A2000E2623370F6
:1015900025633D70FFF732FEB2E72023327820004A
:1015A000337025633D70222A02D1FFF797FDA7E72C
:1015B000FFF793FDA4E7C0460180000000E800FEAD
:1015C000FFBFFFFF0280000003800000FF7FFFFFDE
:1015D0000000FFFFFFFFFFFE70B5050040352E78CD
:1015E0000400C36A0220012E0BD0013828701F307E
:1015F000014207D0024205D02000FFF705FF00207E
:10160000287070BD102001422FD002422DD0628D73
:10161000002A1CD1220041321078282807D18020CE
:101620008004834203D12000FFF7EAFDE7E71021A1
:1016300010782268D1612928E1D12C488342DED07C
:101640002000FFF70FFD2000FFF74AFDD7E72268D3
:10165000D0610422616C0A436264254A1342CED1F0
:101660002000616CFFF71AFEC9E70420014219D07F
:10167000024217D0628D002A0DD02268516A626A38
:101680001170626A01326262228D013A2285628D96
:10169000013A92B26285628D002AB0D1134A934218
:1016A000ADD0D0E70820014205D0024203D020008F
:1016B000FFF757FDA3E702200142A0D002429ED0CF
:1016C000628D002A0DD0636A226819780133916215
:1016D0006362638D013B9BB26385238D013B238550
:1016E0008DE7034A134200D089E7ACE70000FFFF13
:1016F000FFFFFFFE806A10B5836B002B01D0002234
:101700009A63C36B002B01D000229A63FFF7B0FDF0
:1017100010BD0000A923114A9B00D1580433D358AF
:10172000C9B21B061B0C0B43AB2189007F2051580B
:10173000002B0DD00B290BD806224A43773A1E2BDB
:1017400008D8A220FF305843054BC018800A8018E3
:1017500040B2704706325B08F1E7C04600140060F3
:10176000A046000070477047F7B5C024E405E5695E
:1017700066686660354300F0FFF8AB0134D540225F
:10178000E369424C1340A0682B43C360036B984746
:10179000A368012831D19C6A3D4A002C2FD1C02377
:1017A0000320DB05D9688143D960D9688143D960BA
:1017B000384939488B6A03408B627F2113790B408B
:1017C0001371324EB768002D01DB6B0057D5FFF760
:1017D000A1FF7861684600F0AFF8B3681861B0689F
:1017E0002100436BB46098472800FFF7BBFF00F06F
:1017F000C1F8C023DB055B68F7BDDC6ACCE780235A
:10180000217826000B4313715C237F274B43234A27
:1018100038369818027831783A400A43027022002C
:101820001832426082601E48A2781B181A706278D3
:101830005307C6D5C023DB05D8687C3FB843D860C2
:10184000D868B843D860930611D500F0A4F8070013
:10185000606800F097F801233178627880391A4087
:101860004B425941C019C9B200F084F9A9E70123DC
:1018700080391A404B4259416068C9B2F4E76B01A4
:10188000ADD5FFF747FF7861A9E7C046D00B002030
:10189000C000002000180060FFFFFFBFDC00002038
:1018A0000701002010B5FFF75EFF10BD06490B7859
:1018B000002B06D00122054B186902431A61002251
:1018C0009A6001230B727047E00B0020001000604B
:1018D000F8B5EFF3108772B6144B154E1B69346FD1
:1018E000756F321D0360D06FF169124A181AFEF746
:1018F000E7FB00230200A4185D41F36FAB4203D85D
:101900000CD1B36FA34209D901200A4AF1694042C0
:10191000FEF7D6FB00230200A4185D41B467F5670B
:1019200087F3108829002000F8BDC0460018006029
:10193000E00B002035060000C02337B5DB050400AE
:1019400001A85D69FFF7C4FF084B20606160019842
:10195000D969074A401BFEF7B3FB00230200206849
:101960006168801A994103B030BDC046E00B002089
:1019700035060000704700000022014B1A707047C6
:10198000430C0020682302004343DB2050431B0A22
:10199000000C1818704707B501A8FFF799FF03B0AE
:1019A00000BD00000023F0B56A4C89B06268049065
:1019B000A06AE16A12184B4102920393EFF310837D
:1019C000059372B6FFF7E7FFA26DE36D00920193F6
:1019D000C8220023920206000F00029803991218F1
:1019E0004B4101998B420FD802D100998A420BD802
:1019F00002980399B92200235200801859418F425E
:101A000002D874D1864272D9009A019B4C20404280
:101A1000C117801859410A22002392197B4199422B
:101A200004D800D08FE0904200D88CE022003C32F5
:101A30001678220023006432127860331B78002A63
:101A40005CD0002B58D0383407A82478FFF740FF2B
:101A5000009B404D1F1A404A3800A969FEF730FB31
:101A6000AB6E3E4AC8339B199F424DD907253C4E69
:101A7000079973790327C31A1B1B59185162916A7E
:101A8000A9439162C021C905CD68BD43CD60CD6831
:101A9000BD43CD608021956AC905294391628021AB
:101AA000956A89052943916275792D1907992D4EFB
:101AB000091831605B19691D264C8B4239D2C0234D
:101AC0000320DB05D9688143D960D9688143D96097
:101AD000936A25490B4093620123049A13702300F3
:101AE000012261331A70802362345B002380059BDE
:101AF00083F3108809B0F0BD3934A5E7002B01D07D
:101B00003A34A1E73B349FE73D352978C025079E4D
:101B1000431A1B1BED059E192E61966A124F3E401B
:101B200096620326EF68B743013E3E43EE606518B8
:101B3000BCE728000D4AE169FEF7C2FA23008433AE
:101B400018700023C9E70022094B1A700123049A78
:101B50001370CCE7E00B00202603000000180060A3
:101B6000C0000020680C0020FFFFFFBF350600000A
:101B7000420C0020F7B54B1E9941144C144BA66A39
:101B8000E76A1970531E9A412300002160331A70CE
:101B90000B00821B92197B41A265E3652300613330
:101BA00019702300012562331D806B469034D81DC7
:101BB000D971FFF7F7FE2378002B03D10548FFF713
:101BC00075FE25706B46D879FEBDC046E00B00203F
:101BD000440C0020200C0020002313B50193019B2E
:101BE0000C4B0D491A6B0A401A630C4A0C4914003D
:101BF000097892342478481CA04200D0C1B29132B6
:101C000011700121DA6C0A43DA64DB6C0B4001933A
:101C100013BDC04600180060FFFFFFBFE00B0020AF
:101C2000710C0020704710B5FFF7D6FFFFF7FAFFE1
:101C300010BD002382B00193019BC0230122DB056C
:101C4000596F0A435A675B6F019302B070470000F7
:101C5000024B18688003C00F7047C0460000404820
:101C60000421044B9A688A439A609A6802398A432D
:101C70009A60704700004048024B18684005C00F4A
:101C80007047C04600004048F8B505000120002D0F
:101C900000D193E02B68DB0665D42B68DB0723D5E6
:101CA000904B91491868914A08408021890101436D
:101CB00019608021186801431960702118688843F1
:101CC00040390143196080216B6849028B4200D082
:101CD00075E011680B431360FFF764F80400FFF729
:101CE000B7FF002800D17FE004222B68134200D008
:101CF00081E02B689B0700D4C9E004227B4C236859
:101D00009343236023680C3293432360202322688B
:101D10001A42FCD1764A7748916A01409162D16AB1
:101D20000140D162A168744A1140802212020A4324
:101D30006021A260E2688A431343E360EB68226893
:101D4000102B00D090E013432360FFF72BF82027DF
:101D5000060023683B4200D099E0FFF723F8801B80
:101D60006428F6D929E0A96800290ED1FFF778FF89
:101D7000FFF718F80400FFF77FFF01288DD0FFF769
:101D800011F8001B6428F6D917E00222574B986817
:101D900002439A600422986802439A600429E7D1BA
:101DA000FFF700F80400FFF767FF012800D074E791
:101DB000FEF7F8FF001B6428F5D90320F8BD116871
:101DC0004E4801401160002B00D085E7FEF7EAFF86
:101DD0000400FFF73DFF002800D185E7FEF7E2FF92
:101DE000001B6428F5D9E8E7FEF7DCFF001B642838
:101DF00000D874E7E1E72B693C4C002B23D0236823
:101E000093432360082322681A42FCD110222368DE
:101E1000082793432360A268374B1A4080235B0254
:101E20001343A3600423226813432360FEF7BAFF21
:101E3000060023683B4200D05BE7FEF7B3FF801B40
:101E40000228F6D9B9E72368082793432360FEF7F1
:101E5000A9FF060023683B4200D14AE7FEF7A2FF34
:101E6000801B0228F6D9A8E710218A432260002BA4
:101E700000D06AE7FEF796FF2027060023683B4262
:101E800005D0FEF78FFF801B6428F7D995E72B68F4
:101E90001B0701D4002091E7144C6B692268402B8A
:101EA0000ED113432360FEF77DFF40260500236813
:101EB0003342EFD1FEF776FF401B6428F7D97CE769
:101EC0004025AA432260002BEDD1FEF76BFF0600F0
:101ED00023682B42DED0FEF765FF801B6428F7D90C
:101EE0006BE7C04698004048FFC0FFFF0000404835
:101EF00000005048FFCFFFFFFF7FFEFFFFFFFEFF08
:101F0000F0B504000D0085B0002802D1012005B015
:101F1000F0BD3022474E736893430B4373600368F0
:101F2000022B21D1FFF79CFEFFF7A6FE0028EDD083
:101F3000414A424913680B40E021136093688B4388
:101F400061680B439360302473682340AB425CD1DB
:101F500000230293029B052B68DDFEF727FDFEF7A9
:101F600027FFFEF7DFFED2E7002B23D1FFF784FE29
:101F70000028CBD0FFF76CFE0028C7D080232E4F5F
:101F80009B013A6813433B60FEF70CFF01908022EF
:101F90003B68D201134207D1FEF704FF019BC01A30
:101FA0000228F4D90320B2E7E022BB6893436268B9
:101FB0001343BB602368012BC5D180231E4F9B02B6
:101FC0003A681A42FCD00223BA681343BB6000236C
:101FD0000393039B052B14DD0423BA681343BB60F2
:101FE000FFF74AFE002800D090E7FFF731FE0028F7
:101FF00000D18BE7E022BB68934362681343BB6068
:10200000A1E7C046039B0133E2E77368A3432B4378
:102010007360FEF7C7FE070073682340AB4297D09A
:10202000FEF7C0FEC01B0228F6D9BBE7C046029BE4
:1020300001338EE70010004000004048FFDFFFFF43
:10204000014B18687047C046780C0020036810B533
:10205000DA0706D5042416490A6EA243046922430E
:102060000A669A0706D51249124C8A6822404469CA
:1020700022438A601A0706D50D490F4C8A68224010
:10208000446822438A60DB0606D5094A0B499368F7
:102090000B40C1680B43936081688B0605D5044AE9
:1020A0000748936803400B439360002010BDC0466F
:1020B00000004048FFEFFFFFFFFF3FFFFFDFFFFF94
:1020C000FF7FFEFF082830D005D8012818D002284D
:1020D00021D000207047102849D02028F9D12C4B5E
:1020E00080229868C0235B021840520290424AD076
:1020F00098424BD0274BC01843425841C003E9E7F0
:10210000234B186E0423184043425841224B40424F
:102110001840C018DEE71E4B986880235B0118400A
:10212000434258411D4B4042F2E7194B9A681968E7
:10213000024219D080229202080010401142C9D0F8
:102140009A68C02310001B0418401A4217D080233D
:10215000DB03984215D0124BC018431E9841114B17
:1021600040421840104BD4E78022D201E4E7084BEC
:1021700098680E4B8004C0171840074BC9E7064803
:10218000A8E70B48A6E7FA20C001A3E70948A1E7A2
:10219000000040480080FFFF0024F40000093D00DB
:1021A000000080FF00702FFC0090D003005C0CFF4B
:1021B0000048E801127A0000704770477047704786
:1021C00070470222036870B5DD681E69040016427C
:1021D0000DD015420BD0053A1A61043202779B6983
:1021E0009B0700D171E0FFF7E9FF00232377042369
:1021F0001E4211D01D420FD00522236852421A619F
:10220000073222779A69C0239B0020001A4262D0CD
:10221000FFF7D4FF0023237708231E420FD01D426F
:102220000DD00922236852421A610D322277DB69F0
:1022300020009B0755D0FFF7C1FF00232377102311
:102240001E4211D01D420FD01122236852421A6142
:1022500019322277DA69C0239B0020001A4246D047
:10226000FFF7ACFF0023237701231E4208D01D4255
:1022700006D002222368524220001A61FFF79CFF19
:1022800080231E4208D01D4206D08122236852427C
:1022900020001A6100F032F840231E4208D01D428F
:1022A00006D041222368524220001A61FFF788FFBE
:1022B00020231E4208D01D4206D02122236852420C
:1022C00020001A6100F019F870BDFFF776FF2000BA
:1022D000FFF775FF89E7FFF770FF2000FFF76FFF3B
:1022E00098E7FFF76AFF2000FFF769FFA5E7FFF710
:1022F00064FF2000FFF763FFB4E7704770470000FA
:1023000030B5EFF31084012282F310880168134D79
:102310000B682B400B6084F31088EFF3108182F37D
:10232000108802680E4C93682340936081F31088F4
:10233000C36E012B0AD1EFF3108183F310881024B0
:1023400002681368A343136081F3108803002022FE
:102350008C331A600023C366436730BDDFFEFFFF86
:10236000FEFFFFEF70477047806A0022030010B540
:102370005E331A80FFF7F7FF10BD7047F7B50168AD
:10238000C34DCB6904000A6888682B4210D1202510
:102390002B4200D19BE08026760515400640354350
:1023A00000D194E0636F2000002B00D085E085E031
:1023B000B84D05400095B84D009E1540354300D1FD
:1023C00085E0250001269035334205D0D70503D599
:1023D0000E622F683E432E60022633420CD0C707A0
:1023E0000AD527000E6290373E680197B44604264E
:1023F00067463E43019F3E60042633420CD0C70728
:102400000AD527000E6290373E680197B44602262F
:1024100067463E43019F3E600826B446334209D0DA
:102420002027009E1740374304D066460E622F686F
:102430003E432E6080263601334206D0570104D534
:102440000E6220212E68314329602968002935D089
:1024500020210B420AD080235B0511400340194321
:1024600004D0636F002B01D02000984722682B68AE
:102470004027966828223E40134020001E4322D069
:10248000FFF73EFF23689B683B4218D0EFF31081B3
:10249000012383F31088250004CD9368BB43936028
:1024A00081F31088E86F002809D07C4B8363FEF726
:1024B00009FD002802D0E86F836B9847F7BD200024
:1024C000FFF751FFFAE7FFF74EFF2E60F6E7E56EE4
:1024D000012D00D0A4E01026334200D1A0E032420A
:1024E00000D19DE023000E6289685C3308001A88E1
:1024F0004023184019425ED0201DC16F0F687968D3
:1025000089B200294DD091424BD222005E32118017
:1025100020218C463A681140009161460A4232D12E
:10252000EFF3108785F3108821685D4E0A6832400A
:102530000A6087F31088EFF3108785F3108821680D
:102540008A68AA438A6087F31088EFF3108785F3BF
:10255000108821688A689A438A6087F3108823006C
:1025600062468C331A60009BE366EFF3108185F3BB
:10257000108822680F351368AB43136081F310880D
:10258000C06FFEF77DFC02232200236723005C322C
:102590005E331B881188C91A89B22000FFF7EDFE4F
:1025A0008CE7914200D089E73B689B0600D485E721
:1025B00002232367F1E721005E310B8809889BB273
:1025C000002900D17AE7D21A91B2002900D175E72B
:1025D000EFF3108785F310882268324E136833407A
:1025E000136087F31088EFF3108785F31088226853
:1025F0002D4E93683340936087F310882300202288
:102600008C331A60E0666067EFF3108085F3108802
:10261000102522681368AB43136080F31088C7E766
:1026200080256D032B4206D0460204D520000D62A2
:1026300000F054FA42E780210B4207D080252D0498
:1026400011402840014301D0A36FACE640210B426A
:1026500016D00A4214D0EFF31080012383F31088C0
:10266000226813688B43136080F3108823002022B4
:1026700088331A6000232000A367FFF773FE1DE76D
:10268000190213D5510011D5200000F029FA15E7E1
:102690000F0800000100001020010004692304104D
:1026A000FFFEFFFFDFFEFFFFFEFFFFEFDB0100D4B9
:1026B00004E7002A00DB01E7200000F010FAFDE645
:1026C000F8B50169836805680B4341692A68C769E1
:1026D0000B433F493B430A4013432B606B683D4A21
:1026E00004001340C268816913433B4A6B60954202
:1026F00001D0036A19430F26AB68384803400B43E7
:10270000AB60EB6A616AB3430B43EB62954237D12E
:102710001020FFF7D7FC061E30D0626A304B520003
:10272000D75A3900FDF7F8FC032365686B438342F1
:1027300006D901202B4BA36600236367A367F8BD6E
:102740002B038342F5D300233A0030001900FDF734
:1027500059FE0027060E0B02334302026E0892193F
:102760007B41100019002A003B00FDF74BFE1E4B79
:10277000C2181E4B9A42DCD82368D8600020D9E7E3
:10278000174B4900C95A1A48FDF7C6FC80226168F8
:1027900012024B08974210D14000C018FDF7BCFC54
:1027A0000300144A103B9342C3D803000007B3430D
:1027B0009BB2400F0343EB60E0E71818FDF7ACFC59
:1027C00003000C4A103B9342B3D8E860D6E7C046FA
:1027D000F369FFCFFFCFFFFF00500041FFF4FF116F
:1027E000AE2D04100100010000FDFFFFFFFC0F00F3
:1027F0000024F400EFFF0000836A30B51A0706D505
:102800000168284C4A682240846B22434A60DA07F8
:1028100006D50168244C4A682240C46A22434A60B3
:102820009A0706D50168214C4A682240046B22436E
:102830004A605A0706D501681D4C4A682240446B1D
:1028400022434A60DA0606D501681A4C8A6822409B
:10285000C46B22438A609A0606D50168164C8A68C2
:102860002240046C22438A605A0610D50168134D39
:102870004A68446C2A4022434A60802252039442B0
:1028800005D14A680E4C2240846C22434A601B06E4
:1028900006D502680B4953680B40C16C0B4353606B
:1028A00030BDC046FF7FFFFFFFFFFDFFFFFFFEFFC4
:1028B000FFFFFBFFFFEFFFFFFFDFFFFFFFFFEFFF6C
:1028C000FFFF9FFFFFFFF7FFF7B504000D001700A4
:1028D00000932268D3692B405B1B59424B41BB429A
:1028E00001D0002026E0089B0133F3D0FEF75AFA0E
:1028F000009BC01A089B98422DD8002B2BD0236830
:102900001A685207E5D52A004021403A8A43E0D0B0
:10291000DA69082611003140019132420BD02000C3
:102920001E62FFF7EDFC230090331E6000230120A0
:1029300084342370FEBD8022D96912011142C8D0AF
:102940001A622000FFF7DCFC2300202290331A607B
:10295000019B843423700320ECE70000030073B56F
:102960000026040090331E60FEF71CFA2368050061
:102970001B681B071FD58021284B32000093890359
:1029800003002000FFF7A0FFB04214D0EFF3108146
:10299000012383F310888020226813688343136027
:1029A00081F310882300202288331A60032000233B
:1029B0008434237076BD260023688C361B685B0741
:1029C00023D58021154B0022009320002B00C90342
:1029D000FFF77AFF002818D0EFF31080012282F36E
:1029E000108821680E4D0B682B400B6080F3108817
:1029F000EFF3108082F3108821688B6893438B601B
:102A000080F3108820233360D0E7230020220020A9
:102A100088331A603260E0662067C8E7FFFFFF0175
:102A2000DFFEFFFF70B5041E01D1012070BD05005F
:102A300088352B68002B04D1020084321370FDF717
:102A40004BFF2423012122682B6013688B43136002
:102A5000A36A002B02D02000FFF7CEFE2000FFF774
:102A60002FFE0128E1D0236807495A6820000A4058
:102A70002A215A609A688A439A60012219680A4397
:102A80001A60FFF76BFFD1E7FFB7FFFFF7B507004D
:102A9000436E04006A37002B04D10120388068346B
:102AA0002080F7BD03680B4E9A689B680A4D5B0F48
:102AB000F05CE95CC0000192FDF7B8FB019B388037
:102AC0001B015B0FF05CE95CC000FDF7AFFB80B25F
:102AD000E5E7C046CE2D0410C62D041070477047A0
:102AE0007047F8B5050084350B00297802220129CA
:102AF00015D006000121046888362232326027682A
:102B000022688A432260A168C900C9081943A160EC
:102B1000FFF7BCFF20230022276033602A701000DB
:102B2000F8BD0000F8B5050084350A0029780223B5
:102B3000012915D00600012104688836223333604C
:102B4000276823688B432360A168064B1940114313
:102B5000A160FFF79BFF20232760336000232B70C9
:102B60001800F8BDFFFFFFF1036806491A685930E5
:102B70000A401A609A6804490A409A600123037067
:102B80007047C0461FFEFFFFFEFF7FEF7047704794
:102B900070470000F8B50368724DDA6904001968DF
:102BA00098682A4210D120252A4200D197E0802639
:102BB00076050D400640354300D190E0A36C20001F
:102BC000002B00D081E046E09025674F6D00074064
:102BD0000D403D4300D182E001252A4205D0CE05BB
:102BE00003D51D62E66D3543E56502252A4206D010
:102BF000C60704D51D62E66D6D193543E5650425EC
:102C00002A4206D0C60704D51D62E66D023D354353
:102C1000E56508252A4207D020260E403E4303D012
:102C20001D62E66D3543E56580252D012A4206D0FB
:102C30004E0104D51D628025E66D3543E56580258E
:102C4000AD012A420CD0C6070AD52600593636787F
:102C50001D62222E00D1F8BD2023E56D2B43E365D4
:102C6000E36D002BF7D020231A420AD080225205B0
:102C70000B400240134304D0A36C002B01D0200072
:102C80009847402708222668E36DB56813403D4009
:102C900020001D431FD0FFF767FFB3683B4216D0EB
:102CA000B368206DBB43B360002803D00023836367
:102CB000FEF708F9606D002809D02C4B8363FEF7FE
:102CC00001F90028C7D0606D836B9847C3E72000E7
:102CD000FFF75EFFBFE7FFF75BFFE565BBE780251A
:102CE0002A4207D0802636040D403040054301D0EB
:102CF000E36C64E74020024222D0014220D01A68EF
:102D0000210082431A609A683F3882439A60002209
:102D10005931E2640A78122A09D10A3A1A629D6985
:102D20002A439A6108702000FFF730FF93E7E38E93
:102D3000002B00D08FE708702000FFF728FF8AE7FC
:102D4000130205D54B0003D5200000F01AF882E7E6
:102D5000D20100D47FE7002900DB7CE7200000F0EF
:102D60000FF878E70F28000001000010712D041003
:102D7000002310B5806AC386C385FFF709FF10BD25
:102D80007047704703008218934200D17047197052
:042D90000133F9E72B
:042D9400F8B5C04688
:042D9800F8B5C04684
:102D9C00000010480000104800001048020010000D
:102DAC000400010002000400060008000A000C00E8
:102DBC0010002000400080000001080402040801FB
:0C2DCC00010101010103070100000000EB
:082DD8006CD6FF7F0100000032
:0C2DE0000024F4000100000004000000CA
:0400000510040B2DAB
:00000001FF
