:020000041004E6
:100000000060002029080410E1050410E305041035
:1000100000000000000000000000000000000000E0
:10002000000000000000000000000000E5050410D2
:100030000000000000000000E7050410E9050410BE
:100040008D0804108D0804108D0804108D0804100C
:100050000000000000000000000000008D080410F7
:100060008D0804108D0804108D0804108D080410EC
:100070008D0804108D08041000000000F105041024
:10008000010604108D0804108D0804100000000003
:100090008D08041000000000000000008D0804100E
:1000A0008D0804108D0804108D0804108D080410AC
:1000B0000000000000000000000000000000000040
:1000C00003B47146490840004900095E49008E4466
:1000D00003BC7047002243088B4274D303098B4250
:1000E0005FD3030A8B4244D3030B8B4228D3030C08
:1000F0008B420DD3FF22090212BA030C8B4202D3AA
:100100001212090265D0030B8B4219D300E0090AD1
:10011000C30B8B4201D3CB03C01A5241830B8B42DA
:1001200001D38B03C01A5241430B8B4201D34B03C3
:10013000C01A5241030B8B4201D30B03C01A524128
:10014000C30A8B4201D3CB02C01A5241830A8B42AD
:1001500001D38B02C01A5241430A8B4201D34B0296
:10016000C01A5241030A8B4201D30B02C01A5241FA
:10017000CDD2C3098B4201D3CB01C01A52418309AE
:100180008B4201D38B01C01A524143098B4201D3E8
:100190004B01C01A524103098B4201D30B01C01A13
:1001A0005241C3088B4201D3CB00C01A524183088D
:1001B0008B4201D38B00C01A524143088B4201D3BA
:1001C0004B00C01A5241411A00D20146524110461A
:1001D0007047FFE701B5002000F006F802BDC046F9
:1001E0000029F7D076E770477047C046002B11D141
:1001F000002A0FD1002900D1002802D00021C943D4
:10020000080007B4024802A14018029003BDC0468E
:10021000D9FFFFFF03B4684601B5029800F006F865
:10022000019B9E4602B00CBC7047C046F0B55746D5
:100230004E464546DE46E0B504000D00924699461E
:1002400083B08B4230D82DD04946504600F0BAF8E2
:1002500029000600200000F0B5F8331A9846203B2C
:1002600034D49B4653465A46934042461F00534659
:1002700093401E00AF423BD8AF4200D179E05B46CD
:10028000A41BBD41002B00DA76E00022002300927F
:10029000019301235A469340019301234246934020
:1002A000009329E08242CFD90022002300920193DB
:1002B0000C9B002B01D01C605D600098019903B07D
:1002C000F0BCBB46B246A946A046F0BD42469B469E
:1002D00020239B1A5246DA40414613004A468A4080
:1002E000170042461F43534693401E00AF42C3D9F6
:1002F00000220023009201934346002BD8D0FB0735
:1003000072081A4346467B080EE0AB4201D1A24276
:100310000CD8A41A9D41012024196D410021013EF1
:1003200024184D41002E06D0AB42EED9013E2419CF
:100330006D41002EF8D1009801995B460019694182
:10034000002B24DB2B005A464446D3402A00E240CF
:100350001C005B461500002B2ADB26009E40330064
:1003600026004746BE403200801A99410090019114
:100370009EE7A342BCD882E74246202300219B1A75
:100380000022009101920122DA40019285E7424663
:1003900020239B1A2A0046469A402300F3404446F5
:1003A00013432A00E2401C005B461500002BD4DA00
:1003B00042462F002023260097409B1ADE403B0038
:1003C0003343CDE710B5002903D100F007F8203002
:1003D00002E0080000F002F810BDC0461C21012315
:1003E0001B04984201D3000C10391B0A984201D318
:1003F000000A08391B09984201D30009043902A2F6
:10040000105C40187047C04604030202010101015C
:100410000000000000000000002307B51021019338
:1004200068460233009300F00FFD002801D072B639
:10043000FEE707BD7FB51022002101A801F004FAF4
:1004400002230093802368465B01059300F0A2FD20
:10045000002801D072B6FEE707B000BD70B588B0C5
:1004600000F092FBFFF7D8FFFFF7E4FF0821424BB3
:1004700000241A6D02250A431A651A6D03260A40E4
:100480000292029A0422186D104318651B6D3B48B6
:1004900013400193039103A90792019B05940495CE
:1004A000069600F0F7FBB02390201B0103A9C005BE
:1004B0000393059404950696079600F0EBFBC02382
:1004C0002E48039303A9AE3B049305940794069624
:1004D00000F0E0FBC8212A4B20009A6A8A439A6206
:1004E000DA6A8A43DA621A6A26490A401A625A6A42
:1004F0000A405A6200F0E0F9012000F0DDF928001E
:1005000000F0DAF90121200000F032FA01210800A0
:1005100000F02EFA0121280000F02AFAE1231A49FE
:1005200020005B024C608C608C810B6000F0B2FAA2
:10053000041E01D072B6FEE7144801F029F920002C
:1005400000F0F6F9012000F0F3F9280000F0F0F9CE
:10055000002000F0FDF90E4C206800F039FB01206E
:1005600000F0F6F9206800F033FB022000F0F0F90B
:10057000206800F02DFBEBE7000040480000104829
:1005800000005048FFF4FFFFC00000208C2404103E
:10059000BC020020202909D08023DB01994209D028
:1005A000012902D16422054B1A607047FA22034BDD
:1005B0005200F9E7FA22014B9200F5E7BC02002055
:1005C0008021064B49005A6D82B00A435A655B6D23
:1005D0000B400193019B02B07047C04600004048A9
:1005E000FEE7FEE77047704710B500F0D9FA10BD7E
:1005F000902010B50121C00500F01EFA10BD0000CA
:10060000802110B5044CC901200000F015FA20210A
:10061000200000F011FA10BD0000104870B50E0067
:1006200014000025A54201DB200070BD00E000BFE2
:1006300070550135F6E770B50E0014000025A5428F
:1006400001DB200070BD705D00F0FAF90135F6E7BE
:1006500001204042704780239B0100204B6070477F
:1006600001207047002070470B490C4A0300521AC2
:100670000B4910B50868002801D10A4808600868CD
:10068000C318934206D901F035F90C230360012009
:10069000404210BD0B60FCE7000C00000060002031
:1006A000D000002028030020074B9A689B685B0558
:1006B0005B0F920706D5054A013BDA401300044A56
:1006C00013607047034AF8E7000040480048E8011B
:1006D000C00200200090D00370470000F8B5424BE4
:1006E000424A1968424C434B002911D1196900292B
:1006F00002D1996B00290BD001239360FFF7ECFF27
:10070000BFF34F8F3C4BE360BFF34F8FC046FDE715
:100710003A49A160A1681161202259680A435A60D0
:100720005A6837490A405A60042259691142FCD07C
:100730003021DA6933488A4310390A43DA61DA69C9
:100740000240DA618022D86952000243DA612E4BFE
:100750001A682E4B9A422DD01E222D4BD8689043FA
:100760000E3A0243DA600122D8680243DA60D868A0
:10077000284A1040F82252050243DA608022D868E5
:1007800012040243DA60244B244A18681040A02265
:10079000920002431A601A68114319601968204ACE
:1007A0001140C02252010A431A6080221968D20007
:1007B0000A431A60C02000220326FF25800017008C
:1007C0002C003740FF00BC40164993089B005B1883
:1007D00019580132A143C024BC4021431950202A9A
:1007E000EDD162B6F8BDC046940040480400002038
:1007F00000ED00E0000050480400FA05000004107D
:10080000FFFEFFFFFFFBFFFFF81E0010CCECBCFC5F
:1008100000004048FFFFFFC0940050483FFCFFFF2E
:10082000FFC7FFFF00E100E010488546FFF756FFD5
:10083000002103E00E4B5B58435004310D480E4B32
:1008400042189A42F6D30D4A02E0002313600432A4
:100850000B4B9A42F9D30B4A02E000231360043297
:10086000094B9A42F9D3FFF7F9FDFEE7006000203B
:1008700028250410BC02002028030020C00000200E
:10088000BC020020C0000020C0000020FEE743683A
:100890008B43436003680B4303607047054B82B092
:1008A0001A6D02431A651B6D18400190019B02B03E
:1008B0007047C0460000404830B5040087B00820AB
:1008C000FFF7ECFF144B6200D55A01230293039308
:1008D000DB180493114BA400E45801A920000195F2
:1008E00000F0D8F90E4B1B68DB0607D59023DB051B
:1008F0009C420BD101990B48FFF7C9FF2000012250
:10090000290000F062FA002007B030BD064B9C427F
:10091000F4D101990548EFE7CC240410C024041059
:10092000000050482000504800001048280050485F
:10093000054B10B54200D15A044B8000C05800222C
:1009400000F043FA002010BDCC240410C024041091
:10095000054B10B54200D15A044B8000C05800F03E
:100960003AFA002010BDC046CC240410C024041064
:1009700030B504000D00042087B0002C00D0082002
:10098000FFF78CFF244B6200D35A0193012303939A
:10099000DB180493002D18D1204BA200D05801A9D8
:1009A000029500F077F91E4B1B68DB060AD59022F2
:1009B0001A4BA400E358D205934226D10199194855
:1009C000FFF765FF002007B030BD012DEBD180217E
:1009D000154B49005A6D0A435A655B6DA2000B40E6
:1009E0000093009B80235B0202930C4B01A9D0581B
:1009F00000F050F90D4B00221D570321280000F094
:100A0000F9F8280000F020F9CDE7094A9342D9D13E
:100A100001990848D4E7C046B8240410AC24041057
:100A2000000050482000504800004048A72404100F
:100A3000000010482800504810B500F0D4F910BD4F
:100A400007B501909420FA23054A9B00127801A96A
:100A50005043044A8018012200F0D3FC01980EBDD7
:100A6000D4000020D80000200B6810B543604B680C
:100A700083600B89C3604B8903610C2343618B89BD
:100A8000836180231B02C36100230362436200F081
:100A900087FD10BD30B502000C0087B0002939D0A9
:100AA000942050431E4B1F4AC518C2500420FFF724
:100AB000F5FE0820FFF7F2FE80211B4BC9009A6D5E
:100AC00090200A439A659B6D01220B400093009B86
:100AD000022301A9C0050193029304930593039295
:100AE00000F0D8F8114B1B68DB0603D501991048BC
:100AF000FFF7CDFE0123019300230E4801A90593C2
:100B000000F0C8F821002800FFF7AEFF002804D14C
:100B100007B030BD02204042FAE70420FBE7C046A0
:100B2000D80000200040004100004048000050482C
:100B3000200050480000104870B5114E0500337871
:100B4000002B01D1012070BD00F01EFA0400FA2034
:100B500031788000FFF7BEFA01002000FFF7BAFAF3
:100B600000F07EF8041EEDD1032DEBD80200012029
:100B70002900404200F03EF8024B20001D60E2E7F1
:100B8000C4020020C802002010B50320FFF7D4FFE4
:100B9000041E03D1FFF714FD200010BD0124FBE764
:100BA000034A044B11681B785B1813607047C046FA
:100BB0006C010020C4020020014B18687047C04639
:100BC0006C010020014B18687047C046C802002025
:100BD00070B50400FFF7F0FF0500631C02D0044B62
:100BE0001B78E418FFF7E8FF401BA042FAD370BD62
:100BF000C402002010B5FF2403220B002100024094
:100C0000D20091409B012340C943934000280ADB56
:100C1000C0240B4A800880008018A40002590A40B2
:100C20001343035110BD0F2210400838054A8008B5
:100C300080008018C26911401943C161F2E7C046C3
:100C400000E100E000ED00E0002805DB1F23184074
:100C50001E3B8340014A13607047C04600E100E03C
:100C60008022431E5204012093420DD2C021074A24
:100C700007485360036A09061B021B0A0B43036201
:100C800000200723906013607047C04610E000E02A
:100C900000ED00E00023F7B50A681400DC4000D145
:100CA000F7BD01269E40324200D184E003245D005E
:100CB000AC400322E4434F6800943A40541E012C98
:100CC00031D88568009C2540AC46CC685D00AC40BE
:100CD00065462C43846045683C09B5430126344091
:100CE0009C402C434460C568009C5E0025408C6895
:100CF000B4402C43C460022A17D107250F261D409B
:100D0000AD00AE40B446DC08A40004190194246A86
:100D100026006446A643B4460E696446AE402643A8
:100D2000019C266201E0032ADDD10468009D254074
:100D30002C005D00AA4022430260C02292021742AA
:100D400039D08022D20217420BD080250122902672
:100D5000ED059A40EC68F605B0422ED1944322434B
:100D6000EA60FA020BD5802501229026ED059A4013
:100D70002C69F605B04222D1944322432A617A02BB
:100D80000BD5802501229026ED059A406C69F60569
:100D9000B04216D1944322436A61FF030BD58025EC
:100DA00001229026ED059A40AC69F605B0420AD1C1
:100DB00094432243AA6101336EE71204CEE7120482
:100DC000DAE71204E6E71204F2E7002A01D08161B3
:100DD00070478162FCE7426913000B401B0491439A
:100DE0000B43836170479022802310B5D205DB0549
:100DF000904203D1DA69114206D110BDDC690A04C0
:100E00002242FAD0DA6100E0D961FFF7C3FBF4E7D0
:100E1000024B18688003C00F7047C046000040486E
:100E20000421044B9A688A439A609A6802398A437B
:100E30009A60704700004048024B18684005C00F98
:100E40007047C04600004048F0B504000D0085B072
:100E5000002802D1012005B0F0BD3022474E736852
:100E600093430B4373600368022B21D1FFF7D8FF34
:100E7000FFF7E2FF0028EDD0414A424913680B40DA
:100E8000E021136093688B4361680B4393603024C7
:100E900073682340AB425CD100230293029B052B75
:100EA00068DDFFF701FCFFF78DFEFFF745FED2E797
:100EB000002B23D1FFF7C0FF0028CBD0FFF7A8FFFE
:100EC0000028C7D080232E4F9B013A6813433B6014
:100ED000FFF772FE019080223B68D201134207D1D6
:100EE000FFF76AFE019BC01A0228F4D90320B2E77B
:100EF000E022BB68934362681343BB602368012B05
:100F0000C5D180231E4F9B023A681A42FCD00223AF
:100F1000BA681343BB6000230393039B052B14DDC6
:100F20000423BA681343BB60FFF786FF002800D094
:100F300090E7FFF76DFF002800D18BE7E022BB6848
:100F4000934362681343BB60A1E7C046039B013330
:100F5000E2E77368A3432B437360FFF72DFE07009E
:100F600073682340AB4297D0FFF726FEC01B0228D0
:100F7000F6D9BBE7C046029B01338EE70010004064
:100F800000004048FFDFFFFF014B18687047C04674
:100F9000C0020020036810B5DA0706D504241649FC
:100FA0000A6EA243046922430A669A0706D51249CB
:100FB000124C8A682240446922438A601A0706D587
:100FC0000D490F4C8A682240446822438A60DB0640
:100FD00006D5094A0B4993680B40C1680B439360DF
:100FE00081688B0605D5044A0748936803400B4384
:100FF0009360002010BDC04600004048FFEFFFFF97
:10100000FFFF3FFFFFDFFFFFFF7FFEFF082830D01D
:1010100005D8012818D0022821D0002070471028B8
:1010200049D02028F9D12C4B80229868C0235B023C
:101030001840520290424AD098424BD0274BC018D9
:1010400043425841C003E9E7234B186E042318407C
:1010500043425841224B40421840C018DEE71E4B25
:10106000986880235B011840434258411D4B404221
:10107000F2E7194B9A681968024219D0802292024D
:10108000080010401142C9D09A68C02310001B0408
:1010900018401A4217D08023DB03984215D0124B18
:1010A000C018431E9841114B40421840104BD4E7E2
:1010B0008022D201E4E7084B98680E4B8004C017E9
:1010C0001840074BC9E70648A8E70B48A6E7FA20EF
:1010D000C001A3E70948A1E7000040480080FFFFE6
:1010E0000024F40000093D00000080FF00702FFC88
:1010F0000090D003005C0CFF0048E801127A000069
:1011000030B5EFF31084012282F310880168134D8B
:101110000B682B400B6084F31088EFF3108182F38F
:10112000108802680E4C93682340936081F3108806
:10113000C36E012B0AD1EFF3108183F310881024C2
:1011400002681368A343136081F310880300202210
:101150008C331A600023C366436730BDDFFEFFFF98
:10116000FEFFFFEF70470000F8B50169836805686E
:101170000B4341692A68C7690B433F493B430A4017
:1011800013432B606B683D4A04001340C2688169B9
:1011900013433B4A6B60954201D0036A19430F2603
:1011A000AB68384803400B43AB60EB6A616AB343FA
:1011B0000B43EB62954237D11020FFF727FF061E45
:1011C00030D0626A304B5200D75A3900FEF782FFA6
:1011D000032365686B43834206D901202B4BA3662A
:1011E00000236367A367F8BD2B038342F5D3002375
:1011F0003A0030001900FEF7F9FF0027060E0B0237
:10120000334302026E0892197B41100019002A0034
:101210003B00FEF7EBFF1E4BC2181E4B9A42DCD878
:101220002368D8600020D9E7174B4900C95A1A48EB
:10123000FEF750FF8022616812024B08974210D1DE
:101240004000C018FEF746FF0300144A103B9342CB
:10125000C3D803000007B3439BB2400F0343EB60C6
:10126000E0E71818FEF736FF03000C4A103B9342E4
:10127000B3D8E860D6E7C046F369FFCFFFCFFFFFE2
:1012800000500041FFF4FF11D224041001000100BE
:1012900000FDFFFFFFFC0F000024F400EFFF000043
:1012A000836A30B51A0706D50168284C4A6822407F
:1012B000846B22434A60DA0706D50168244C4A68E9
:1012C0002240C46A22434A609A0706D50168214C2D
:1012D0004A682240046B22434A605A0706D50168D7
:1012E0001D4C4A682240446B22434A60DA0606D508
:1012F00001681A4C8A682240C46B22438A609A06AD
:1013000006D50168164C8A682240046C22438A6024
:101310005A0610D50168134D4A68446C2A4022438E
:101320004A6080225203944205D14A680E4C224002
:10133000846C22434A601B0606D502680B49536839
:101340000B40C16C0B43536030BDC046FF7FFFFFB5
:10135000FFFFFDFFFFFFFEFFFFFFFBFFFFEFFFFFB4
:10136000FFDFFFFFFFFFEFFFFFFF9FFFFFFFF7FF25
:10137000F7B504000D00170000932268D3692B40D5
:101380005B1B59424B41BB4201D0002026E0089B29
:101390000133F3D0FFF710FC009BC01A089B984262
:1013A0002DD8002B2BD023681A685207E5D52A00C8
:1013B0004021403A8A43E0D0DA69082611003140E2
:1013C000019132420BD020001E62FFF799FE2300EC
:1013D00090331E600023012084342370FEBD8022E0
:1013E000D96912011142C8D01A622000FFF788FEA5
:1013F0002300202290331A60019B84342370032041
:10140000ECE7F0B51700020087B088320593136847
:1014100004000D000220202B39D10138002936D0DC
:10142000002F34D08023A1685B01994204D1236945
:10143000002B01D105422AD12300002690331E60E3
:1014400021231360FFF7B8FB230054331F800233BE
:1014500003931F808023A26804905B019A4204D109
:101460002369B34201D12E001D00230056331B888F
:101470009AB2002B0DD1059B200000934021049BC4
:10148000FFF776FF20238834236000280ED107B0B1
:10149000F0BD059B0022009380212000049BFFF7F4
:1014A00067FF002804D02023883423600320EEE760
:1014B0002268002D0BD133880236DB05DB0D9362E9
:1014C000039B039A1B88013B9BB21380CDE72B78CB
:1014D00001359362F4E70000030073B500260400B1
:1014E00090331E60FFF768FB236805001B681B072D
:1014F0001FD58021284B3200009389030300200070
:10150000FFF736FFB04214D0EFF31081012383F3CD
:1015100010888020226813688343136081F3108849
:101520002300202288331A60032000238434237090
:1015300076BD260023688C361B685B0723D5802187
:10154000154B0022009320002B00C903FFF710FF6A
:10155000002818D0EFF31080012282F31088216850
:101560000E4D0B682B400B6080F31088EFF310805A
:1015700082F3108821688B6893438B6080F3108816
:1015800020233360D0E723002022002088331A6014
:101590003260E0662067C8E7FFFFFF01DFFEFFFF64
:1015A00070B5041E01D1012070BD050088352B687F
:1015B000002B04D1020084321370FFF7D3FD2423E3
:1015C000012122682B6013688B431360A36A002BF0
:1015D00002D02000FFF764FE2000FFF7C5FD0128C0
:1015E000E1D0236807495A6820000A402A215A603E
:1015F0009A688A439A60012219680A431A60FFF7C1
:101600006BFFD1E7FFB7FFFF002310B504000360B5
:101610004360836081814366C2810361436183616A
:10162000190008225C3000F00FF90B4B2462636252
:101630000A4BA3620A4BE3620A4B23630A4B9C42A8
:1016400005D00A4B9C4202D0094B9C4203D120009A
:10165000583000F055F910BDB1170410D917041017
:10166000111804103D18041070010020D80100204A
:101670004002002010B5034A0349044800F06CF80A
:1016800010BDC046CC02002091210410DC020020D5
:1016900041680B4B10B50400994201D000F078FD71
:1016A000A168084B994202D0200000F071FDE1686A
:1016B000054B994202D0200000F06AFD10BDC046E3
:1016C00070010020D80100204002002010B5094B15
:1016D000094A04211A6009480022FFF795FF0122F8
:1016E00009210748FFF790FF022212210548FFF762
:1016F0008BFF10BDA8020020751604107001002099
:10170000D80100204002002010B5024800F0F9F88E
:1017100010BDC046B102002010B5024800F0F2F83A
:1017200010BDC046B102002010B50400FFF7ECFF69
:10173000236A002B02D0FFF7EFFF10BD044B23629A
:10174000044B1B68002BF6D1FFF7C0FFF3E7C04640
:1017500091160410A8020020F7B51400002600908E
:101760000191A5686768013F04D52468002CF8D171
:101770003000FEBDAB89012B08D90E22AB5E0133D0
:1017800004D029000098019B984706436835EAE792
:101790000FB407B5054904AB086804CB8168019311
:1017A00000F0D6F903B008BC04B01847D8020020F6
:1017B00070B50C000E25495F00F074F8002803DBBB
:1017C000636D1B18636570BDA389024A1340A38132
:1017D000F9E7C046FFEFFFFFF8B51F008B89050052
:1017E0000C001600DB0505D50E23C95E002202237E
:1017F00000F044F8A389054A28001340A381320071
:101800000E23E15E3B0000F061F8F8BDFFEFFFFF43
:1018100070B50C000E25495F00F030F8A389421C1A
:1018200003D1054A1340A38170BD802252011343A6
:10183000A3816065F8E7C046FFEFFFFF10B50E23F8
:10184000C95E00F009F810BD03008218934200D170
:10185000704719700133F9E7002370B5064D040095
:1018600008002B60FEF7F4FE431C03D12B68002B0D
:1018700000D0236070BDC046AC02002070B50400EB
:10188000080011001A000023054D2B60FEF7EAFE48
:10189000431C03D12B68002B00D0236070BDC046D1
:1018A000AC02002070B50400080011001A000023EB
:1018B000054D2B60FEF7B2FE431C03D12B68002BB5
:1018C00000D0236070BDC046AC02002070B504009B
:1018D000080011001A000023054D2B60FEF7ABFE37
:1018E000431C03D12B68002B00D0236070BDC04681
:1018F000AC020020014B18687047C046D802002097
:10190000704770477047000070B505000C1E10D07E
:10191000043C2368002B00DAE418280000F0E0F80B
:101920001D4A1368002B05D163601460280000F085
:10193000DFF870BDA34208D9206821188B42F3D18B
:1019400019685B6809182160EEE71A005B68002BD4
:1019500001D0A342F9D911685018A0420BD12068D8
:101960000918501811608342E0D118685B6841186B
:1019700011605360DAE7A04202D90C232B60D5E74F
:10198000206821188B4203D119685B68091821600F
:1019900063605460CAE7C046B802002070B50F4EBD
:1019A0000D0031680400002902D100F0BDFC306058
:1019B0002900200000F0B8FC431C03D101256D4232
:1019C000280070BD0323C51C9D43A842F8D0291AE6
:1019D000200000F0A9FC0130F2D1EFE7B4020020B2
:1019E000F7B50322CB1C9343083305001F000C2BD3
:1019F00034D20C27B94233D8280000F071F8374EA2
:101A000033681C00002C2FD139002800FFF7C6FFD7
:101A10000400431C5FD134680094009B002B4AD122
:101A2000002C52D023682800E3180099019300F09D
:101A30007BFC019B834248D123682800FF1A3900B0
:101A4000FFF7ACFF013040D02368DB192360336817
:101A50005A68002A33D1009B336019E0002BC9DAA1
:101A60000C232B600020FEBD2168C91B20D40B294C
:101A70000AD9E2192760A34204D132606368116079
:101A8000536005E05A60F9E76268A3420ED1326004
:101A9000280000F02DF8200007220B30231D904372
:101AA000C21A9842DFD01B1AA350DCE75A60EFE756
:101AB00023006468A6E7009C63680093ADE71A0002
:101AC0005B68A342FBD10023DAE70C2328002B60DC
:101AD00000F00EF8C6E70760DAE7C046B80200205B
:101AE00010B50248FFF70DFF10BDC046B002002040
:101AF00010B50248FFF706FF10BDC046B002002037
:101B0000936810B5013B9360002B04DA9469A342FB
:101B100007DB0A2905D01368581C106019700800EB
:101B200010BD00F060FB0100F9E7F8B506000F00FA
:101B30001400D518AC4201D1002007E021783A000A
:101B40003000FFF7DDFF0134431CF3D1F8BD000086
:101B5000F0B5A1B00F0015001E000390002804D0BE
:101B6000036A002B01D1FFF7DFFD7B6EDB0705D495
:101B7000BB899B0502D4B86DFFF7C3FEBB891B0769
:101B800002D53B69002B13D13900039800F06EFB9E
:101B900000280DD07B6EDB0703D50120404221B029
:101BA000F0BDBB899B05F8D4B86DFFF7ABFEF4E739
:101BB000002308AC6361203363761033A376079665
:101BC0002E003378002B01D0252B48D1731B0593B1
:101BD000AE420BD02A0039000398FFF7A6FF013070
:101BE00000D1AEE06369059A9B1863613378002BDE
:101BF00000D1A6E0012200235242626004A95432BF
:101C00005218751C2360E360A3601370A365594BE1
:101C1000052218002978059300F098FB6E1C002817
:101C20001FD12268D30604D5532304A95B182021B1
:101C30001970130704D5532304A95B182B211970BD
:101C40002B782A2B16D02E0000210A20E368327848
:101C5000751C303A092A50D9002911D117E00136F4
:101C6000AFE7059B2268C01A012383401343350068
:101C70002360CCE7079B191D1B680791002B01DB34
:101C80000B9304E05B42E360022313432360337849
:101C90002E2B0CD173782A2B34D1079B02361A1DB8
:101CA0001B680792002B01DA01235B420993324D36
:101CB00003222800317800F049FB002806D0402399
:101CC000401B83402268013613432360317806228B
:101CD0002A48751C217600F039FB002840D0284B9B
:101CE000002B22D10722079B073393430833079326
:101CF0006369049A9B18636162E743432E000121E4
:101D00009B18A4E700230A2019000136636032788B
:101D1000751C303A092A03D9002BC8D00991C6E7AF
:101D200041432E0001238918F1E707AA0092210000
:101D30003A00144B039800E000BF0490049B013369
:101D4000D6D17B6EDB0705D4BB899B0502D4B86D69
:101D5000FFF7D8FDBB895B0600D51EE70D981EE78F
:101D600007AA009221003A00064B039800F07CF885
:101D7000E3E7C046EA240410F0240410F42404101D
:101D8000000000002B1B0410F7B5160001938A68B1
:101D90000B690C000090934200DA130022003360BC
:101DA00043321278002A01D00133336023689B0646
:101DB00002D53368023333602268062315001D40C4
:101DC0001A4227D0230043331B785A1E93412268BE
:101DD000920630D4220001990098089D4332A8470A
:101DE000013025D00622236800251340042B05D19D
:101DF0003368E568ED1AEB43DB171D40A3682269E1
:101E0000934201DD9B1AED180026B54220D1002037
:101E100010E00135E36832689B1AAB42D2DD220044
:101E2000012301990098089F1932B8470130F0D179
:101E300001204042FEBD3020E118433108702100EE
:101E40005A1C45310978A218433202331170C1E798
:101E50002200012301990098089F1A32B8470130E7
:101E6000E6D00136D1E70000F0B58BB006920A004B
:101E700043320793059003920A7E0C00109B782A48
:101E800009D8622A0BD8002A00D1BCE07B49049112
:101E9000582A00D190E0250042352A7022E0100037
:101EA00063381528F7D8FEF70BF916001F00F6FF68
:101EB000F6FFF6FFF6FF1F00F6FFF6FFF6FFF6FF50
:101EC000A10036008000F6FFF6FFB200F6FF3600F4
:101ED000F6FFF6FF840025001A684235111D1960CF
:101EE00013682B700123A0E018680968021D0D0615
:101EF0000BD506681A60002E03DA2D23039A76426A
:101F000013705E4B0A27049318E006681A604906AE
:101F1000F1D536B2EFE70868196840C9050602D462
:101F2000400600D5B6B21960544B0A2704936F2AB5
:101F300000D1023F2300002243331A706368A3607C
:101F4000002B03DB042122688A432260002E02D189
:101F5000039D002B0CD0039D30003900FEF740F9A3
:101F6000049B013D5B5C2B70330006009F42F3D95C
:101F7000082F09D12368DB0706D5626823699A42D6
:101F800002DC3023013D2B70039B5B1B2361079B0D
:101F9000210000930598069B09AAFFF7F5FE013082
:101FA00048D1012040420BB0F0BD202209680A430D
:101FB0002260782232490491210045310A70196863
:101FC000226840C9100602D4500600D5B6B2196086
:101FD000D30702D5202313432360002E01D01027FE
:101FE000A8E72022236893432360F8E71A680D6866
:101FF000101D4969186013682E0601D5196002E0AA
:102000006D06FBD519800023039D2361BFE71A6885
:10201000111D1960156800212800626800F096F90A
:10202000002801D0401B6060636823610023039A8D
:102030001370ACE72A00236906990598079DA84705
:102040000130AED023689B0715D4099BE068984205
:10205000A9DA1800A7E72200012306990598079E30
:102060001932B04701309CD00135E368099A9B1AB8
:10207000AB42F0DCE9E70025F7E7C046FB2404109B
:102080000C250410F7B50C228B5E05000C001A0716
:1020900056D44A68002A02DC0A6C002A4EDDE76A40
:1020A000002F4BD0002280202E682A601A004001A9
:1020B000216A0240034233D0626DA3895B0706D5D3
:1020C0006368D21A636B002B01D0236CD21A0023F1
:1020D0002800E76A216AB847A289431C06D129680B
:1020E0001D2946D8294B0B41DB0742D400236360EE
:1020F00023692360D20405D5431C02D12B68002B31
:1021000000D16065616B2E60002917D02300443335
:10211000994202D02800FFF7F7FB002363630DE02C
:1021200001232800B8470200431CC6D12B68002BAE
:10213000C3D01D2B01D0162B1AD12E6000201EE01B
:102140000E69002EFAD00F680E60BA1B01920022B1
:102150009B0700D14A69A260019B002BEEDDA36AB8
:1021600032001F002800019B216AB847002807DCC5
:10217000A2894023012013431BB2A3814042FEBD2C
:10218000019B36181B1A0193E6E7C046FEFFBFDF2E
:102190000B6970B505000C00002B02D1002528004A
:1021A00070BD002804D0036A002B01D1FFF7BCFAF0
:1021B0000C22A35E002BF1D0626ED20704D49B05E3
:1021C00002D4A06DFFF79DFB28002100FFF75AFF06
:1021D000636E0500DB07E2D4A3899B05DFD4A06D05
:1021E000FFF790FBDBE7F8B506000D0014000028B0
:1021F00004D0036A002B01D1FFF796FAA369A3600C
:10220000A3891B0702D52369002B09D121003000C7
:1022100000F02CF8002803D001256D422800F8BDFD
:1022200023692068EFB2C01A6369EDB2834205DC0E
:1022300021003000FFF7ACFF0028EDD1A36801308A
:10224000013BA36023685A1C22601F7063698342AC
:1022500004D0A389DB07E1D50A2DDFD121003000AE
:10226000FFF796FF0028D9D0D6E700002D4B70B5B8
:10227000050018680C00002804D0036A002B01D167
:10228000FFF752FA0C23E25E130723D4D30607D4D8
:1022900009232B60402301201343A38140423AE0ED
:1022A000520713D5616B002908D0230044339942AB
:1022B00002D02800FFF728FB002363632422A389B0
:1022C0009343A38100236360236923600823A289C9
:1022D0001343A3812369002B0BD1A0218022A38962
:1022E000890092000B40934203D02100280000F0A7
:1022F00063F80C23E25E012113000B400A420BD06D
:102300000023A36063695B42A361002023698342C9
:1023100001D11306BED470BD910700D46369A360D8
:10232000F3E7C046D8020020002370B5064D040034
:1023300008002B60FEF798F9431C03D12B68002B93
:1023400000D0236070BDC046AC020020C9B2821824
:10235000904201D10020704703788B42FBD00130BE
:10236000F6E7000070B50E001D000E23C95E1400D4
:1023700096B000290CDAB2898023110019401A4264
:1023800014D18023DB0000202960236016B070BDCB
:102390006A4600F053F80028EDDBF02301991B0298
:1023A0001940044BC9184B425941EAE70021402328
:1023B000E9E7C04600E0FFFFF0B502268B89050083
:1023C0000C0085B0334207D02300473323602361DC
:1023D0000123636105B0F0BD03AB02AAFFF7C2FFA2
:1023E000029F019039002800FFF7FAFA002808D16F
:1023F0000C22A35E9A05EDD4032293431E43A681CB
:10240000E2E78023A28920601343A381039B20611C
:102410006761002B0CD028000E23E15E00F020F84D
:10242000002805D00323A2899A43023B1343A381CA
:10243000A389019A1343A381CCE70000002370B560
:10244000064D0400080011002B60FEF704F9431C40
:1024500003D12B68002B00D0236070BDAC0200209C
:10246000002370B5064D040008002B60FEF7F8F855
:10247000431C03D12B68002B00D0236070BDC046E5
:04248000AC0200208A
:04248400F8B5C046A1
:04248800F8B5C0469D
:10248C0057656C636F6D6520746F2053544D3332F8
:10249C0020776F726C6420210A0D000F1010000061
:1024AC000000004800001048000010480100200007
:1024BC0000400000000010480000104800001048C8
:1024CC0002001000040001000200040006000800D5
:1024DC000A000C0010002000400080000001232D99
:1024EC00302B2000686C4C00656667454647003011
:1024FC00313233343536373839414243444546005E
:10250C00303132333435363738396162636465665D
:04251C0000000000BB
:082520000CDDFF7F010000004B
:10252800FA0000000024F40001000000040000008C
:10253800000000000300000070010020DC02002001
:102548000000000070010020D80100204002002097
:102558000000000000000000000000000000000073
:102568000000000000000000000000000000000063
:102578000000000000000000000000000000000053
:0C25880000000000000000000000000047
:0400000510040829B2
:00000001FF
