:020000041004E6
:10000000006000203D830410497E0410517E0410DE
:1000100000000000000000000000000000000000E0
:10002000000000000000000000000000597E0410E5
:100030000000000000000000637E04106D7E0410CC
:10004000A1830410A1830410A18304102D5904106E
:10005000000000000000000000000000A183041068
:10006000817404107D73041059730410A18304106B
:10007000A1830410A1830410000000007B7E041003
:10008000917E0410A1830410D57E041000000000AE
:10009000C77E04100000000000000000B97E0410BC
:1000A000A1830410E37E0410A1830410A183041033
:1000B0000000000000000000000000000000000040
:1000C00010B5904216D98AB2030C090C0C4659435C
:1000D00080B25343444350431B191A041B0C10189D
:1000E000594180225203002312184B41520DD8026D
:1000F000104310BD4843802252031218520D10467F
:1001000010BDC0468B0707D0013A22D30B780131CE
:10011000037001308B07F7D1830730D0DB4219D051
:100120000138043A08D308C943701B0A43801B0CEA
:1001300003710430043AF6D2D20707D30B88437018
:1001400001D08A78C2701B0A8370704701D00B7887
:1001500043707047043A06D308C903801B0C4380E0
:100160000430043AF8D2D20705D30B88038005D0B7
:100170008B788370704701D00B780370704770B430
:10018000103A03D378C978C0103AFBD2530701D391
:1001900018C918C001D508C908C0D20704D30B88F4
:1001A000038002300231002A01D50B78037070BC45
:1001B0007047C046EFF31482EFF30981154880F3CE
:1001C0001488BFF36F8FF0B543464C4655465E46E4
:1001D0006746F8B4104CEFF30883636006B4BFF3CE
:1001E0004F8F30BFC046C0460B4C646884F308880C
:1001F00082B003BCF8BC9846A146AA46B346BC46AA
:10020000F0BC04BC80F3098881F31488BFF36F8FBE
:100210001047C04600000000040000200023C25C1C
:100220000133002AFBD1581E7047000003B4714609
:10023000490840004900095E49008E4403BC7047EC
:10024000002243088B4274D303098B425FD3030A15
:100250008B4244D3030B8B4228D3030C8B420DD328
:10026000FF22090212BA030C8B4202D312120902B6
:1002700065D0030B8B4219D300E0090AC30B8B42F4
:1002800001D3CB03C01A5241830B8B4201D38B03A2
:10029000C01A5241430B8B4201D34B03C01A524147
:1002A000030B8B4201D30B03C01A5241C30A8B428A
:1002B00001D3CB02C01A5241830A8B4201D38B0275
:1002C000C01A5241430A8B4201D34B02C01A524119
:1002D000030A8B4201D30B02C01A5241CDD2C3098B
:1002E0008B4201D3CB01C01A524183098B4201D307
:1002F0008B01C01A524143098B4201D34B01C01AF2
:10030000524103098B4201D30B01C01A5241C30869
:100310008B4201D3CB00C01A524183088B4201D3D8
:100320008B00C01A524143088B4201D34B00C01AC4
:100330005241411A00D20146524110467047FFE730
:1003400001B5002000F0F0F802BDC0460029F7D04A
:1003500076E7704703460B437FD4002243088B4265
:1003600074D303098B425FD3030A8B4244D3030B3C
:100370008B4228D3030C8B420DD3FF22090212BA01
:10038000030C8B4202D31212090265D0030B8B427D
:1003900019D300E0090AC30B8B4201D3CB03C01A67
:1003A0005241830B8B4201D38B03C01A5241430B42
:1003B0008B4201D34B03C01A5241030B8B4201D332
:1003C0000B03C01A5241C30A8B4201D3CB02C01A9D
:1003D0005241830A8B4201D38B02C01A5241430A15
:1003E0008B4201D34B02C01A5241030A8B4201D304
:1003F0000B02C01A5241CDD2C3098B4201D3CB01AB
:10040000C01A524183098B4201D38B01C01A524159
:1004100043098B4201D34B01C01A524103098B425D
:1004200001D30B01C01A5241C3088B4201D3CB0048
:10043000C01A524183088B4201D38B00C01A52412B
:1004400043088B4201D34B00C01A5241411A00D2DB
:1004500001465241104670475DE0CA0F00D0494244
:10046000031000D34042534000229C4603098B42B4
:100470002DD3030A8B4212D3FC22890112BA030A3C
:100480008B420CD3890192118B4208D389019211BE
:100490008B4204D389013AD0921100E08909C30943
:1004A0008B4201D3CB01C01A524183098B4201D345
:1004B0008B01C01A524143098B4201D34B01C01A30
:1004C000524103098B4201D30B01C01A5241C308A8
:1004D0008B4201D3CB00C01A524183088B4201D317
:1004E0008B00C01A5241D9D243088B4201D34B0032
:1004F000C01A5241411A00D20146634652415B1074
:10050000104601D34042002B00D549427047634654
:100510005B1000D3404201B5002000F005F802BD99
:100520000029F8D016E770477047C0469140030095
:1005300090409C46203A9340194352426346D34030
:10054000194370471C2101231B04984201D3000C5E
:1005500010391B0A984201D3000A08391B09984236
:1005600001D30009043902A2105C40187047C0464C
:10057000040302020101010100000000000000006C
:10058000002B11D1002A0FD1002900D1002802D060
:100590000021C943080007B4024802A14018029094
:1005A00003BDC04685FFFFFF03B4684601B502984E
:1005B00000F052F8019B9E4602B00CBC7047C0464A
:1005C000F0B5CE469946030C9C46130447461B0CD7
:1005D0001D000E0061460404240C80B50700100CB9
:1005E0004B436543414360432C0CC01824188C4690
:1005F000A34203D980235B029846C4444946794309
:100600005643230C2D042D0C8919634424046019CE
:10061000C918C0BCB946B046F0BDC04670B500228E
:100620000C4B04000D0001F07FFB002804D12000DA
:10063000290001F0E5FA70BD064B002220002900D8
:1006400000F0D4FE01F0DCFA80231B069C466044D7
:10065000F1E7C0460000E041F0B557464E4645463A
:10066000DE46E0B504000D009246994683B08B4209
:1006700030D82DD04946504601F060FB29000600D5
:10068000200001F05BFB331A9846203B34D49B4694
:1006900053465A46934042461F00534693401E001D
:1006A000AF423BD8AF4200D179E05B46A41BBD41CD
:1006B000002B00DA76E00022002300920193012350
:1006C0005A4693400193012342469340009329E008
:1006D0008242CFD900220023009201930C9B002B71
:1006E00001D01C605D600098019903B0F0BCBB466E
:1006F000B246A946A046F0BD42469B4620239B1A1F
:100700005246DA40414613004A468A4017004246A4
:100710001F43534693401E00AF42C3D9002200231B
:10072000009201934346002BD8D0FB0772081A436E
:1007300046467B080EE0AB4201D1A2420CD8A41A77
:100740009D41012024196D410021013E24184D4195
:10075000002E06D0AB42EED9013E24196D41002E89
:10076000F8D1009801995B4600196941002B24DB00
:100770002B005A464446D3402A00E2401C005B4608
:100780001500002B2ADB26009E403300260047463A
:10079000BE403200801A9941009001919EE7A34229
:1007A000BCD882E74246202300219B1A00220091F8
:1007B00001920122DA40019285E7424620239B1AEA
:1007C0002A0046469A402300F340444613432A0039
:1007D000E2401C005B461500002BD4DA42462F0095
:1007E0002023260097409B1ADE403B003343CDE791
:1007F000F0B5DE46454657464E46E0B587B0009216
:1008000001930B031B0B9B46CA0F4B000400804651
:100810005B0D029200D198E07C4A934237D0594652
:10082000420FC9000A43802109041143C2009046C7
:10083000774A894692469A44002300240393009EF7
:10084000019F3B031B0B9B467B0030005B0DFD0FA4
:10085000002B59D06D4A934248D05946720FC900B7
:100860000A438021090411438B466949F2008C46F2
:1008700051466344CB1A9A460021029E6E40F6B25E
:100880000F2C00D9CEE0634BA4001B599F465A465B
:100890000243914600D090E09A46022390460824F5
:1008A0000393CCE7CB464246029D0399022900D12F
:1008B000DEE1032900D18DE0012900D079E12E008D
:1008C00000220023002490461B052343F6073343F0
:1008D0004046190007B0F0BCBB46B246A946A04648
:1008E000F0BD002200249046484BEDE75A46009B9D
:1008F0001A43494B9C46E244002A59D102231C4327
:10090000002302219B46B8E75A46009B1A4349D070
:100910005B46002B00D19CE15846FFF713FE020016
:1009200003000B3A1D27009EBA1A19005846D640FC
:1009300008398840320002439346009A8A4037497A
:1009400053448A4600219A4497E75B4603439946FD
:1009500021D05B46002B00D169E15846FFF7F2FD3C
:100960000B235B429C460200844466461D239B1B6E
:10097000260011005846DE40083988403300034302
:10098000994623008B409846254B00249B1A9A4693
:100990000023039353E7002398469A460133042427
:1009A00003934CE701231C43002301219B4664E78A
:1009B0000323320003211C435FE79A460323D946F1
:1009C0000C2403933BE700238024984600260F4B1A
:1009D000240379E780245B4624031C4324032E0070
:1009E00090460A4B240B6FE780244B462403234296
:1009F00002D05B462342F0D080244B4624031C43A4
:100A00002403029E014B240B5EE7C046FF07000053
:100A100001FCFFFF049B061001F8FFFFF303000039
:100A20000DFCFFFFCB4500D2F8E000D1F3E001233D
:100A30005B429C46444648460025E2445B46170E0E
:100A40001B021F43190C3B04120200971F0C914616
:100A500002910397FFF77AFC02007A430B04210C02
:100A6000804619438A4209D9009F0123BC465B4254
:100A700061449C46E0448F4200D85CE1881A0299A8
:100A8000FFF764FC039A240442430904240C030086
:100A90000C43A24206D90099013B8C466444A14212
:100AA00000D842E1A01A424612041A4393464B462C
:100AB00059461B0C1F0004930B0449460904090CFA
:100AC0000C001B0C5C43120C7B43884651437A4359
:100AD000270CBC465B186344994203D98021490224
:100AE0008C466244190C24041B04240C8A181C191B
:100AF000904202D316D1A54214D25B46009F013B1F
:100B00004D4405934D459B41BC465B426344C01830
:100B1000874200D302E1824200D929E100D124E1D9
:100B2000059B9B462C1BA542AD41009B801A6D4244
:100B3000401B834200D10FE10299FFF707FC039AA3
:100B40000B044243210C050019438A4200D9CBE033
:100B5000881A0299FFF7FAFB039A24044243090416
:100B6000240C03000C43A24200D9CAE04146A41A57
:100B70002A041A43049F13041B0C594340467B4329
:100B80009C46150C68430B0C844463447D43984297
:100B900003D98020400284466544180C09041B04D4
:100BA000090C40195B18844227D323D00123350058
:100BB0001A43944B5344002B60DD510700D086E06C
:100BC0002E00D1085A46D20106D55A468E4B1A40FD
:100BD00080239346DB0053448C4A934200DD80E639
:100BE0005A4652070A4390465A465B055402240B64
:100BF0005B0D69E63500002BDBD0009D511EAC4635
:100C00006444AC4200D29EE0844200D2E1E000D1D4
:100C1000EEE00A00CAE7424500D908E74B46DC0788
:100C2000580843465B081C434346DD0706E7FFF7C9
:100C300089FC15239C4684440200634620321C2B09
:100C400000DC92E62300083883409946002398464A
:100C50009AE6FFF777FC02000300153220331C2AC6
:100C600000DC5FE600990838814000228B4666E68A
:100C700000222E0000249046654B25E62E0001211F
:100C8000C91A382900DD1BE61F297EDC61481400E3
:100C900050445B4682408340CC40501E82412343F7
:100CA0001A435B46CB40510709D00F21114004295C
:100CB00005D0111D9142924152429B180A0019021F
:100CC00000D49BE00022012300249046FCE50F2184
:100CD0001140042900D173E7111D91429241524203
:100CE0002E00C90893446DE7009B013D9C4661447A
:100CF0008B4200D92CE78A4200D829E7851E61443F
:100D000026E70099013B8C466444A14200D92DE7B7
:100D1000A24200D82AE7831E644427E7874200D016
:100D2000FEE6A94500D9FBE6F5E6A24200D8B9E601
:100D3000831E6444B6E68A4200D89FE6BC46831E02
:100D4000984661449AE60A00844200D02EE74B455B
:100D500000D02BE735002CE72A4B2F4A534492450D
:100D600043DB0122002193442CE7AC4200D8D7E6B4
:100D700002235B429C4600994D444D459B41E34410
:100D80008C465B426344C018CCE61F204042C31A25
:100D90005846D840202904D05946204B5344994006
:100DA0000A43531E9A4107231900024300241140AD
:100DB000134209D008331340042B1DD0131D934256
:100DC00089411A0049424907D2080A439046002344
:100DD0007AE54946009F4D004D458941BC46494250
:100DE0006144A946023A6418AEE70122524246E73E
:100DF0009945EED30A00AAE70021E5E759075B020F
:100E00001C0BE1E7FF030000FFFFFFFEFE070000F1
:100E1000FF0700001E04000002FCFFFF3E0400006C
:100E2000F0B557464E46DE464546E0B51F000B037B
:100E30001B0B16009A46CA0F4B000400914685B062
:100E40005B0D00D1CFE1CD4A934255D05146420FC0
:100E5000C9000A43802109041143C2009046C84AD0
:100E60008A4693469B440023002502933C037B0063
:100E7000FA0F0196240B5B0D009200D188E1BF4A66
:100E8000934200D192E0BE4A944663449B440A2DAB
:100E900042DCE400730F23438024494624041C43AE
:100EA000F3000193009B00205940CBB20393022D25
:100EB00000DC94E00123AB401D00A6232A00DB00E8
:100EC0001A401D4200D029E290239B001D4200D110
:100ED0004DE20023802499462403A84B10004A4683
:100EE0001B052343D2071343190005B0F0BCBB46D2
:100EF000B246A946A046F0BD52460243904600D0F5
:100F0000ACE19B460223924608250293AEE7009B84
:100F1000A2469946019B9846029B022B00D1CAE14A
:100F2000032B00D192E1012B10D1002300240022D9
:100F3000D4E701227B083A4013435246D2071343B9
:100F4000984653465B089A46039B99465B46581C55
:100F50008023DB005B44002B00DCB1E142465207FA
:100F60000BD00F2241460A40042A06D04246111DEA
:100F7000414592418846524292445246D20106D59A
:100F80005246804B1A4080239246DB00C3187E4AAB
:100F9000934200DD8FE14246D108524652070A4390
:100FA00051465B054C02240B5B0D97E7734B2643C0
:100FB0009C46E344002E00D16FE1032349461D43C4
:100FC000009B5940CBB203930A2D00DD33E101238E
:100FD000AB401D000323029388222A4297D1424648
:100FE00043461204120C160001981D0C030C000459
:100FF000000C4643B4461E006E43009616000700E0
:101000005E436146B0466F430E0CB8444644B74257
:1010100005D9802149028846009F474400976146D0
:101020000904090C370C36048C46310061440191E7
:101030001100260C2404240C61438C4621006943D2
:1010400089466146090C884672434A4442447543C6
:10105000914503D98021490288464544110C8846B0
:1010600061460904090C8C4612046244B9180291C5
:101070005146090C8C4651460F043F0C3900414340
:1010800045448846614641438A4641466046090CCC
:10109000894658437B4353444B449A4503D98021A6
:1010A000490289464844190C894641460904090CFD
:1010B0008846390061431B044344884661464C43DB
:1010C00071438C46414677430E0C3F19F61948444C
:1010D000B44203D9802149028946CC440299009F39
:1010E000894631044F4489464146974292410C0457
:1010F000240C4C44FF1852426419A1189F429B4192
:10110000884682465B42994690459241AC42A44152
:10111000C244D14452426442144399459B418245A2
:1011200092415B42524213434A46360CA419E318DB
:1011300063445B02D20D1A43019992467A020A4334
:10114000501E8241FF0D17434A4652021743B846CC
:10115000DB0100D5EDE60D4B039A5B449146002B75
:1011600000DCACE03A00520700D110E70F225846ED
:101170003A40042A00D0F9E609E7C046FF0700001C
:1011800001FCFFFFFFFFFFFEFE070000FF03000062
:10119000220032436FD0002C00D1C2E02000FFF7C4
:1011A000D1F9020003000B3A1D20821A3000190009
:1011B000D04008398C400200224334008C4059460C
:1011C000CB1A86498B469B440A2D00DDA4E649468E
:1011D000009B01945940CBB2140000200393022DD0
:1011E00000DD67E6FBE65346034398463CD0534692
:1011F000002B00D1A3E05046FFF7A4F90B235B427C
:101200009C460200844411005046083988401D2342
:10121000804660461B1A2000D84003004046034326
:101220009A4623008B4098466C4B00259B1A9B46A0
:10123000002302931AE60F2D00D0C9E08023524606
:101240001B031A4202D01C4200D192E08024534674
:1012500024031C4324034246240B3EE69B460323FF
:1012600080460C25029301E600239A469B460133F3
:1012700004250293FAE501210D430A2D00DD4BE61A
:10128000494600984140C9B20391022D00DC96E026
:1012900000230024012001930CE649460223009A12
:1012A0002B435140CAB203920A2B00DD34E6002DD5
:1012B00057D1039B994600240022494B0EE658461D
:1012C0000121C91A382900DD2FE61F2956DD1F220A
:1012D00054465242D31ADC40202907D0414B4246A3
:1012E0009C465346604483401A4390464246072139
:1012F000531E9A410B00224313400024114209D08F
:101300000F231340042B5DD0111D91429B410A0015
:101310005B425B07D2081A430023DFE5039B994633
:10132000FAE50198FFF70EF90200030015322033A9
:101330001C2A00DC38E7019A083882403FE7FFF7B3
:1013400001F915239C4684440200634620321C2B7D
:1013500000DC58E7002398462300083883409A466B
:1013600062E71D000023002402200193A2E5029001
:1013700032E61C43009B019A9946AEE51A4B524651
:10138000C31840469A40C840024340469840030074
:10139000581E834154461A43CC40530709D00F23AB
:1013A0001340042B05D0131D934292415242A418BE
:1013B0001A00230208D50123002400228EE5894665
:1013C00000248BE50023A5E763076402240BA1E753
:1013D000009BA2469946019B984637E70DFCFFFF0C
:1013E000FF0700003E0400001E040000F0B5574651
:1013F0004E464546DE46E0B583B0009001910C03B1
:101400004D00CE0F610A009C5F00640F0C430099F1
:1014100000920193C80019037B0D9946019BCC4FA4
:10142000DB0F9C464B0A00998046490F1943009BED
:101430008B46DA0092466D0DB94500D1BFE001231D
:10144000614659404B468C46EB1A8E4275D0002BB4
:1014500000DCA3E24946002900D1CEE0BD4200D124
:1014600000E20127382B19DC802759463F04394315
:101470008B461F2B00DDFAE12027F91A8C465946CE
:101480006746B9400F001100D9400F4361468A40BA
:10149000511E8A415946D9401743641AC71BB842A6
:1014A00080414042241A230200D440E16402640ACD
:1014B000002C00D154E12000FFF744F80300083B62
:1014C00020213800CA1AD0409C4002009F4022438D
:1014D0009D4200DDA6E1581B0130091A3C008F40F7
:1014E000C4407B1E9F4113008B4027431F43C240D3
:1014F0003B0014000025134300D1F7E17B0700D126
:1015000077E30F2338003B40042B04D0381DB8424A
:10151000BF417F42E419230200D468E38C4B0135BC
:101520009D4200D1F4E08B4B6D051C406D0D6707AB
:10153000C00864020743240BECE0002B00DC29E325
:101540004946002900D0D6E05946114300D12EE18A
:10155000591E012B00D1E6E1BB4200D182E10127F7
:101560000B00382914DC1F2B00DD3CE22027F91A80
:101570008C4659466746B9400F001100D9400F43C9
:1015800061468A40511E8A415946D9401743641822
:101590003F188742804140422418230200D4C6E00D
:1015A0006B4B01359D4200D1B2E00121694B7A08B5
:1015B0001C4039400A43E707174364089EE7664B1F
:1015C00011438A46EB18002928D066452CD0002B01
:1015D0005BD0002D00D12CE15B4666465F07D20848
:1015E0001743DD083B002B4300D1E2E080242403B5
:1015F0002C432403564D240B8CE05946114300D153
:10160000D5E0591E012B00D1B9E1BB4200D1B1E1B7
:1016100001270B00382900DD40E72AE76146012752
:1016200079408C466645D2D1002B00D1C5E0002D13
:1016300000D055E14B462500054300D112E2591E6A
:101640008C46012B00D149E2414DAB4200D18FE2E3
:101650000127382911DC63461F2B00DD5BE2614660
:10166000202327005B1A050098409F40CD40431E71
:101670009841CC402F430743A344BF18974292415F
:1016800052425A4414004D4687E7344F6B1C3B428C
:1016900000D0B6E05946230011430F000343002D4C
:1016A00000D026E1002B00D1C0E1002900D1A1E04B
:1016B000831A98465B464045AD41E31A6D425B1B79
:1016C00080252D042B4200D14BE15B46101A82424B
:1016D00092411C1B0700012663465242A41A27436D
:1016E0001E40002F00D142E12C4200D16DE2194B87
:1016F00001251C401BE7BD4200D13BE10127382BEF
:1017000000DD45E7802759463F0439438B462AE7E9
:10171000002400272D052543F6073543380029000E
:1017200003B0F0BCBB46B246A946A046F0BD7B075D
:1017300004D00F233B40042B00D0E7E62B00F80831
:10174000034A67070743E508934200D14AE7A5E04B
:10175000FF070000FFFF7FFF01F8FFFFFE0700000B
:101760003800FEF7EFFE030018331F2B00DCA7E65E
:101770003A00083882409D4200DD8AE05B1B581C1D
:101780001F2800DCD8E117001F3BDF40202805D0D0
:1017900040231B1A9A40531E9A4117430025002FDD
:1017A00000D1E5E07B0700D0ABE62C00C6E7C0081F
:1017B000C6E700270024D14DACE7D14F6B1C3B425C
:1017C00071D123000343002D00D04EE15746002B7A
:1017D00000D1B5E1002F0DD08318834280415C44D5
:1017E00040422418220200D5C8E11F009846274332
:1017F00000D1BCE043466707DB081F43E508002330
:101800004CE0831A98465B464045BF41E31A7F424D
:10181000DB1B1F027CD447461F4300D1A6E01C00FF
:10182000474645E6B74CED1A14407B0700D080E7E9
:1018300084E74B462500054366D05F1E012B00D18F
:10184000FCE0AE4DAB4200D15EE16646382F00DCD5
:10185000B4E00120171ABA4292415B4652424D460B
:101860009C1A20E66707C0080743E508BAE61F0090
:101870005946203FF9400F00202B05D04021CB1ABC
:10188000594699400A43924653465A1E93411F4374
:1018900004E6EB1A9B4D15406F07ED082C035D0520
:1018A000240B6D0D36E7954DAB4200D1D6E0821882
:1018B000210082428041594440420818C70752081B
:1018C00017434408520700D485E10F221D003A4017
:1018D000042A00D01AE6FF08640727430509DDE75C
:1018E0005B46D2085F071743DD087BE6002700242C
:1018F00010E7002B00D0D6E0002900D02FE1802493
:1019000000267E4D240305E766465C46D00817E7AF
:101910005B46171ABA4292411C1B0126634652428B
:10192000A41A1E40C4E58318834280415C444042AF
:1019300025182A0200D4DAE0724A5B081540EA074B
:101940001A4369085B0700D44AE10F231340042BB4
:1019500000D1FCE0171D9742A4416442022564189F
:10196000ECE647461C001F4300D043E70026002555
:101970000024CFE6C00867070743E50832E6871A68
:101980005B46B8428041E41A4042241A230228D41C
:101990006307FF081F43E50801237FE7002B00D101
:1019A00073E64B465F1B3B00002D00D142E7382F0A
:1019B00000DDECE080230E001B041C431F2F25DC00
:1019C00020252300ED1B0100A840AB40F940451E37
:1019D000A8410B43FC4018435B461B1B9B4639E761
:1019E0006646012562E51F005946203FF9408C46B6
:1019F000202B05D040275946FB1A99400A439246AE
:101A000057467B1E9F4163461F43C1E53B002500AF
:101A1000203BDD40202F04D04023DB1B9C40204393
:101A200080464046431E9841284313E700299DD035
:101A3000012663465C4690461E40DBE6171A5B466D
:101A4000BA4292411C1B5242A41A2302C8D4630713
:101A5000FF081F4366460123E5081FE71D00002419
:101A6000002757E65C46D0086AE6002B00D137E72E
:101A70005346C00867070743E508002B00D1B1E5CE
:101A800080231B031D4208D05946C808184204D1C0
:101A9000D20849070A43170005007B0FFF00FF0823
:101AA0005B071F439EE5C00863071843E50800294C
:101AB00053D080231B031D420AD05946CC081C4238
:101AC00006D1012663462500D008490708431E4079
:101AD000470FC000C0087F07074383E58318934280
:101AE00092415C445242A5182A0200D524E76F07B0
:101AF000DB081F43ED080123D0E6C046FF070000C6
:101B0000FE070000FFFF7FFF5B46D2085F076646C7
:101B10001743DD0866E52500203BDD406346202BAA
:101B200005D0402361465B1A9C40204380464746CF
:101B30007B1E9F412F43A0E520210027091AD2E4F4
:101B4000002F00D113E75C4617000025F6E5D70803
:101B5000490702230F432D09A0E6070042E55B4633
:101B600001265F07DD086346D20817431E4039E5AA
:101B70005B46D2085F071743DD0833E51E4ADB08E2
:101B800022405707520201251F43140BC2E50E00E5
:101B900001205FE6002B0DD04B465B1B9C46002DC1
:101BA00000D148E50127382B00DD66E580231B04C2
:101BB0001C4350E56B1C114D2B4200D073E6594677
:101BC000230011438A46034300E66707C008002349
:101BD0000743E50862E66407FF08274305095DE659
:101BE000D208490711430F0002232D0956E60700CA
:101BF000A4E538008FE4C046FFFF7FFFFE0700002A
:101C00000B00020070B5164D0C0382B04900002095
:101C100000920193240B490DDE0FA94204DD114807
:101C2000814203DD104BF01802B070BD80204003EC
:101C300020430E4C641A1F2C08DD0D4B5B1AD84054
:101C400003005842002EEFD11800EDE7094B009A2F
:101C50009C46030061448B40E2401343F1E7C046D9
:101C6000FE0300001D040000FFFFFF7F330400009F
:101C700013040000EDFBFFFF10B5041E10D0FEF7AB
:101C800061FC0E4B1B1A5B055B0D0A280FDC0B2257
:101C90002100121AD14015300A038440120B01E0D2
:101CA000002300221B0513432000190010BD220051
:101CB0000B38824012030024120BF3E71E040000CD
:101CC0008446100062468C461900634600E0C04618
:101CD0001FB500F0F3F8002801D40021C8421FBD51
:101CE00010B500F037F84042013010BD10B500F0DB
:101CF000E5F8002801DB002010BD012010BDC04622
:101D000010B500F0DBF8002801DD002010BD012037
:101D100010BDC04610B500F061F8002801DC0020BD
:101D200010BD012010BDC04610B500F057F80028C6
:101D300001DA002010BD012010BDC04610B50029F9
:101D400003D1FEF7FFFB203002E00800FEF7FAFBAC
:101D500010BDC046F0B55746DE464E464546E0B596
:101D60000D000400E80F83460903D80F090B8246D3
:101D700019488C461F0369005E00490D3F0B760D24
:101D8000814218D086420FD00120B1420DD1BC450E
:101D90000BD1944209D1D3451CD0002905D160460E
:101DA0002043431E984100E00120F0BCBB46B246F0
:101DB000A946A046F0BD01208E42F6D161463943C6
:101DC0000F0017432743F0D15B465246981A431E33
:101DD0009841EAE70020E8E7FF070000F0B5574622
:101DE0004E464546DE46E0B50D000E034900490D5E
:101DF0008A46DF0FE90FBC4683B02F4F04008046B0
:101E00000191580019039146360B090B400DBA4554
:101E10001DD0B8420DD05746002F2AD13443002898
:101E200024D10A4336D0002C41D1634658000138F2
:101E300015E0114338D15346002B01D12643F4D08D
:101E4000019B634507D1019B5800013807E02643F9
:101E50002AD1504521D00120019B5F42384303B075
:101E6000F0BCBB46B246A946A046F0BD002CDCD073
:101E7000E6E70028EFD0019B6345ECD18245EADC20
:101E8000E1DB8E42E7D8DED1C845E4D80020C84562
:101E9000E5D2D8E7002CE2D0DDE7114304D1019B65
:101EA0006345D8D10020DAE702204042D7E7019B02
:101EB0006345E6D0CFE7C046FF070000F0B55746C0
:101EC0004E464546DE46E0B50D000E034900490D7D
:101ED0008A46DF0FE90FBC4683B02E4F04008046D0
:101EE0000191580019039146360B090B400DBA4574
:101EF0001ED0B8420DD05746002F27D134430028BA
:101F000033D10A4334D0002C40D163465800013805
:101F100015E0114312D15346002B01D12643F4D0D2
:101F2000019B63451DD00120019B5F42384306E0C1
:101F3000264303D15045F6D111431CD0022003B0F3
:101F4000F0BCBB46B246A946A046F0BD0028EAD088
:101F5000019B6345E7D18245E5DC02DB8E42E2D896
:101F60000ED0019B58000138E9E7002CCDD0D7E70F
:101F7000002CE4D0D7E7019B00206345DFD0D2E7F7
:101F8000C845D0D80020C845D9D2EAE7019B6345AF
:101F9000E4D0C8E7FF07000080B500AF074A802300
:101FA0009B000021D154054B054A00219954034B55
:101FB000044A00219954C046BD4680BD94010020CA
:101FC000010200000202000080B582B000AF0200F2
:101FD000FB1D1A701F4B204A9B5C002B34D11D4AFD
:101FE00080239B00D35C19001A4BFA1D12785A54B7
:101FF000184A80239B00D35C0133D9B2154A802351
:102000009B00D154134A80239B00D15C114A80234A
:102010009B00D1540F4A80239B00D35C01330F4AAD
:10202000134003D5013B0E4A134301331900094BFA
:102030000C4A9B5CCB1A5A425341DBB21900054B48
:10204000054A9954012300E000231800BD4602B060
:1020500080BDC0469401002002020000FF01008004
:1020600000FEFFFF0102000080B582B000AFBB1D83
:10207000012252421A80214A80239B00D25C1F4BCE
:102080001F495B5C9A4204D11C4B1E4A9B5C002B8F
:102090002DD01A4B1A4A9B5C1A00184B9A5CBB1D38
:1020A0001A80164B164A9B5C0133D9B2134B144A63
:1020B0009954124B124A995C104B114A99540F4A89
:1020C00080239B00D35C01330F4A134003D5013BAF
:1020D0000E4A134301331900084B094A9B5CCB1A83
:1020E0005A425341DBB21900044B064A9954BB1DB6
:1020F00000229B5E1800BD4602B080BD9401002006
:102100000102000002020000FF01008000FEFFFF4C
:1021100080B500AF0A4A80239B00D25C084B094976
:102120005B5C9A4206D1064B074A9B5C002B01D1AF
:10213000012300E00023DBB21800BD4680BDC0468D
:1021400094010020010200000202000090B589B055
:1021500000AF08243B19180018231A00002126F0AC
:102160007BFB3B00180008231A00002126F074FBBB
:102170003B1905221A603B19802252025A603B1912
:1021800004221A613B1918000BF0A4FB031E01D0B6
:1021900000230FE03B0000221A603B0000225A603F
:1021A0003B00102118000BF0DFFC031E01D00023C0
:1021B00000E001231800BD4609B090BD80B586B08F
:1021C00000AF3B00180018231A00002126F044FB42
:1021D0003B0002221A603B00802252015A613B0000
:1021E00018000BF057FE031E01D0002300E001236E
:1021F0001800BD4606B080BD80B582B000AF0F4B61
:102200001B78002B01D0012313E006F0CDF9012348
:102210007B60FFF7D3FF031E01D100237B60FFF734
:1022200095FF031E01D100237B60044B01221A702D
:102230007B681800BD4602B080BDC04697030020F1
:1022400080B500AF72B6C046C046FDE780B500AFAE
:1022500072B6C046C046FDE7F0B5D6464F46464684
:10226000C0B5B8B00AAF05000C0010001900FB1D86
:102270002A1C1A70BB1D221C1A707B1D021C1A70AE
:102280003B1D0A1C1A70FB1D1E78BB1D1B7898464F
:102290007B1D1C783B1D1D7802F04EFE0300994605
:1022A00004F064F903001B0A9BB29A4604F05EF93D
:1022B00003001A00FF23134013490822B81808939B
:1022C00053460793082306934B460593062304932E
:1022D00001230393032302930195009443463200A4
:1022E00026F09EF9002004F089FA0822BB18180095
:1022F00004F03AFA04F0B8FAC046BD462EB0E0BC8D
:10230000BA46B146A846F0BD90960610F0B59DB00D
:1023100004AF040008001100FB1D221C1A70BB1D35
:10232000021C1A707B1D0A1C1A70FB1D1B78002BE7
:1023300001D1022100E00121FB1D1B78002B01D0FF
:10234000022000E00120BB1D1C787B1D1D78FB1DB9
:102350001B78002B01D1042300E00323FA1D12781F
:10236000002A01D0042200E003220E4EB4460826C3
:10237000BE19039202930195009403000A0061467E
:10238000300026F04DF9002004F038FA0826BB1979
:10239000180004F0E9F904F067FAC046BD4619B028
:1023A000F0BDC04618970610F0B5DE4657464E46BB
:1023B0004546E0B5A5B00AAF02000F23FB181A701E
:1023C0000E23FB180A1C1A700F23FB181B78002B16
:1023D00002D10623994601E0052399460E23FB18F6
:1023E0001B787B600F23FB181B78002B01D1082280
:1023F00000E007220F23FB181B78012B01D10621D7
:1024000000E005210F23FB181B78012B01D10820C8
:1024100000E007200F23FB181B78022B01D10824B2
:1024200000E007240F23FB181B78022B01D106259F
:1024300000E005250F23FB181B78032B01D108268C
:1024400000E007260F23FB181B78032B02D106237D
:102450009C4601E005239C460F23FB181B78042BA8
:1024600002D10823984601E0072398460F23FB1862
:102470001B78042B02D10623BB6001E00523BB605F
:10248000174B3B6008239A4608239B46BB44DA441B
:10249000BB680893434607936346069305960495E5
:1024A00003940290019100927B684A463968504635
:1024B00026F0B6F8002004F0A1F9082308229B18A2
:1024C000DB19180004F050F904F0CEF9C046BD46FF
:1024D0001BB0F0BCBB46B246A946A046F0BDC04604
:1024E00068970610F0B5DE4657464E464546E0B5BD
:1024F000A5B00AAF05000C00100019000F26BB198B
:102500002A1C1A700E23FB18221C1A700D23FB18AC
:10251000021C1A700C23FB180A1C1A70BB191B78BA
:10252000002B02D102239C4601E001239C460F238D
:10253000FB181B78012B02D10223984601E00123EE
:1025400098460F23FB181B78022B01D1022200E0D2
:1025500001220F23FB181B78032B01D1022100E07D
:1025600001210E23FB181B7899460D23FB181B78BD
:102570009A460C23FB181B789B46882308201B18BF
:10258000DB191B78BB600F23FB181B78002B01D1D4
:10259000042400E003240F23FB181B78012B01D136
:1025A000042500E003250F23FB181B78022B01D123
:1025B000042600E003260F23FB181B78032B02D10F
:1025C00004233B6001E003233B6017487860082048
:1025D0000823C018C0193B6809930896079506940C
:1025E000BB6805935B460493534603934B460293A3
:1025F0000191009243466246796826F011F8002066
:1026000004F0FCF808200823C318DB19180004F0B4
:10261000ABF804F029F9C046BD461BB0F0BCBB4680
:10262000B246A946A046F0BDC8970610F0B5DE46F2
:1026300057464E464546E0B5CBB014AF05000C00FA
:10264000100019003723FB182A1C1A7036257B1935
:10265000221C1A703526BB19021C1A7034243B192F
:102660000A1C1A70A62330201B18DA19D0210B1867
:10267000DB191B78DB0813700B18DB191B7803229E
:102680001340DAB2A5231B18DB19111C09018A1AA1
:102690001A70A4231B18DB19D4210A18D219127836
:1026A000D2081A700B18DB191B7803221340DAB218
:1026B000A3231B18DB19111C09018A1A1A70A72100
:1026C0000B18DB197A1912781A703A19BB1912789B
:1026D0001B789A420ED20B18DB197A191278013244
:1026E0001A700B18DB191B780D2B03D10B18DB1993
:1026F00001221A703723FB181B78002B02D102230A
:102700003B6301E001233B633723FB181B78012B5C
:1027100002D10223FB6201E00123FB623723FB1895
:102720001B78022B02D10223BB6201E00123BB62B2
:102730003623FB181B783B613523FB181B78FB60A5
:10274000A72330229B18DB191B78BB603423FB18AE
:102750001B787B603723FB181B78002B02D10423E6
:102760007B6201E003237B623723FB181B78012B7C
:1027700002D104233B6201E003233B623723FB18B1
:102780001B78022B02D10423FB6101E00323FB61D0
:102790003723FB181B78032B02D10223BB6101E016
:1027A0000123BB613723FB181B78042B02D10223C2
:1027B0007B6101E001237B613723FB181B78052B2C
:1027C00002D102239B4601E001239B463723FB18DD
:1027D0001B78062B02D10223994601E0012399467A
:1027E000A62330229B18DB191B789A46A5239B1839
:1027F000DB191B789846A4239B18DB191B789C4691
:10280000A3239B18DB191E783723FB181B78032B97
:1028100001D1042500E003253723FB181B78042B86
:1028200001D1042400E003243723FB181B78052B77
:1028300001D1042200E003223723FB181B78062B6A
:1028400001D1042300E00323214939600C20302109
:102850004018C01913931292119410950F96634665
:102860000E9343460D9353460C934B460B935B4696
:102870000A937B690993BB690893FB6907933B6AD9
:1028800006937B6A05937B680493BB680393FB689C
:1028900002933B690193BB6A0093FB6A3A6B396808
:1028A00025F0BEFE002003F0A9FF0C203023C31842
:1028B000DB19180003F058FF03F0D6FFC046BD46F1
:1028C00037B0F0BCBB46B246A946A046F0BDC046F4
:1028D0000C980610F0B5DE4657464E464546E0B524
:1028E000B7B00AAF02000E23FB181A8002F0DCFC1E
:1028F000031E09D1564A102308215B18DB19110069
:10290000180025F08DFE8DE00E257B1900241C5F3C
:1029100002F0CAFC03009C4200DB7AE07B19002233
:102920009B5E002B75DB7B191A88082308215B1836
:10293000DB191100180002F0CBFC7B1900229B5E12
:10294000002B01DC052500E006250E23FB180024E2
:102950001C5F02F0A9FC0300013B9C4201DB072144
:1029600000E008210E23FB1800229A5E3A6008203E
:1029700008228318DB191B7898468318DB195B78CB
:1029800099468318DB191B799A468318DB199B78C3
:10299000DB08DBB29B4614008318DB199B781A0016
:1029A00003231A4013001B019E1A22008318DB190F
:1029B000DB78DB08DBB2BB6014008318DB19DB7843
:1029C0001A0003231A4013001B019A1A0319DB197A
:1029D0005B797B600319DB199B791E4884461020C4
:1029E0000019C01909937B6808930792BB68069386
:1029F00005965B460493534603934B460293434626
:102A000001933B6800930B002A00614625F008FE05
:102A100008E0114A102308215B18DB191100180087
:102A200025F0FEFD002003F0E9FE102308229B188C
:102A3000DB19180003F098FE03F016FFC046BD46F0
:102A40002DB0F0BCBB46B246A946A046F0BDC0467C
:102A5000B4980610E09806104C99061080B582B024
:102A600000AF78600E4B7A681A600E4B00221A7025
:102A70000D4B01221A7002F0D1FC02F06FFF04F03E
:102A80000DFC02F095F903F083FD002005F0C8FC71
:102A9000022005F0C5FC01231800BD4602B080BD30
:102AA000980300209C0300209D03002080B582B085
:102AB00000AF3B1D1860054B1A683B1D19681000DC
:102AC00002F0E1F8C046BD4602B080BD9803002088
:102AD000B0B584B000AF3B1D00221A703B1D002230
:102AE0005A800F257C1902F0DBFC030023704D4B4C
:102AF0001B787A1912789A422FD04B4B1B683233CD
:102B00001C0004F017FC03009C4226D23B1D04224B
:102B10001A70444B1A787B191B785340DBB21B02A6
:102B20009AB27B191B789BB2D3189AB23B1D5A807C
:102B30003C4B7A1912781A7004F0FCFB02003A4BF5
:102B40001A6004F0F7FB0200384B1A60384B012280
:102B50001A703B1D1868FFF7A9FF354B1B781D0045
:102B6000324B1B68334A9C1804F0E4FB03009C4280
:102B70009B415B42DBB22B400CD03B1D09221A70FB
:102B80003B1D00225A802A4B00221A703B1D1868F8
:102B9000FFF78CFF284B1B78002B2CD1274B1B7881
:102BA000002B28D104F0C6FB0200FA239900100084
:102BB000FDF7CCFB0B1E1ED104F0E4F903005AB262
:102BC0001F4B1A7004F0D0F903005AB21D4B1A7053
:102BD00004F0BCF903005AB21B4B1A7004F0A8F9B8
:102BE00003005AB2194B1A703B1D02221A703B1D8A
:102BF0001868FFF75BFF08217B183A1D12681A60FE
:102C00007A18002311880904090C1B0C1B040B43C0
:102C1000528812041B041B0C13431800BD4604B059
:102C2000B0BDC04614260020A8030020AC0300203D
:102C3000B0030020307500009D0300209C0300209D
:102C4000A1030020A2030020A3030020A40300206E
:102C5000B0B58EB002AF3B1D18602F23FB180022C9
:102C60001A702E23FB18CA4A12781A703B1D1B7863
:102C70005BB2092B08D13B1D5B88002B04D1C54BEF
:102C800001221A7003F0E9FDC24B1B78002B2DD0F6
:102C90003B1D1B785BB2042B01D001F0B7FABD4B92
:102CA00000221A702E23FB1800221A702F23FB1803
:102CB00001221A7003F0CAFD04F064F903005AB24D
:102CC000B54B1A7004F050F903005AB2B34B1A70A6
:102CD00004F03CF903005AB2B14B1A7004F028F921
:102CE00003005AB2AF4B1A7001F090FAA84B1B7850
:102CF000062B01D901F07BFA9A00AB4BD3181B6865
:102D00009F463B1D1B785BB2022B11D1A54B1B7854
:102D10005BB2D8B2A24B1B785BB2D9B29F4B1B7887
:102D20005BB2DAB29C4B1B785BB2DBB2FFF794FA72
:102D30003B1D1B785BB2042B01D001F05AFA3B1DFE
:102D40005B881A0080235B00134014D03B1D5B8816
:102D50001A00012313400ED12E23FB1801221A70F2
:102D60002F23FB1801221A70904B00221A70904BEF
:102D700000221A70B4E03B1D5B881A0080239B0080
:102D8000134014D03B1D5B881A00022313400ED160
:102D90002E23FB1802221A702F23FB1801221A700F
:102DA000824B00221A70824B00221A7098E03B1D61
:102DB0005B881A008023DB0013400ED03B1D5B882C
:102DC0001A000423134008D12E23FB1804221A7082
:102DD0002F23FB1801221A7082E03B1D5B881A002A
:102DE00080231B0113400ED03B1D5B881A00082373
:102DF000134008D12E23FB1805221A702F23FB182D
:102E000001221A706CE03B1D5B881A0080235B0175
:102E100013402AD03B1D5B881A001023134024D195
:102E200002F08AF803001A002B243B19053A1A70A5
:102E300002F098F803001A003B191B7811001800E3
:102E400002F038F8574B1B785BB2D8B2544B1B7862
:102E50005BB2D9B2514B1B785BB2DAB24E4B1B78E6
:102E60005BB2DBB2FFF7F8F93AE03B1D5B881A0072
:102E700080239B01134001D101F0BBF93B1D5B880E
:102E80001A002023134001D001F0B3F902F054F8E6
:102E900003001A002A243B1905321A703B191B78CB
:102EA000642B09D802F05EF803001A003B191B7866
:102EB0001100180001F0FEFF3A4B1B785BB2D8B24C
:102EC000374B1B785BB2D9B2344B1B785BB2DAB2AA
:102ED000314B1B785BB2DBB2FFF7BEF901F089F929
:102EE00001F087F93B1D1B785BB2022B0BD1314BF4
:102EF00000221A702F4B18782C4B19782C4B1B780A
:102F00001A00FFF703FA3B1D1B785BB2042B01D0BC
:102F100001F071F93B1D5B881A0080235B001340B0
:102F20000ED03B1D5B881A000123134008D12E23CD
:102F3000FB1800221A702F23FB1801221A70E8E0F8
:102F40003B1D5B881A0080239B00134034D03B1D3F
:102F50005B881A00022313402ED124217B180B22F8
:102F60001A70124B1B781B029BB2114A12789B18E5
:102F70009AB27B185A807B18186802F0BDFF2E2386
:102F8000FB1800221A702F23FB1801221A70C0E0D0
:102F90009C0300209D030020A1030020A203002029
:102FA000A3030020A403002044A106109F030020D7
:102FB000A00300209E0300203B1D5B881A00802395
:102FC000DB0013402BD03B1D5B881A000423134009
:102FD00025D1D54B1B78002B0DD1D44B1B78013B51
:102FE000DAB2D24B1A70D14B1B78FF2B0DD1CF4BDD
:102FF00064221A7009E0CE4B1B78013BDAB2CC4B4D
:103000001A70CB4B1A78CA4B1A70C74B1878C74B3B
:103010001978C74B1B781A00FFF778F979E03B1D48
:103020005B881A0080231B0113402FD03B1D5B8857
:103030001A000823134029D1BB4B1B78002B10D159
:10304000BA4B1B780133DAB2B84B1A70B74B1B7806
:1030500064211800FDF77AF90B00DAB2B34B1A704D
:1030600009E0B34B1B780133DAB2B14B1A70B04BA5
:103070001A78AF4B1A70AC4B1878AC4B1978AC4B34
:103080001B781A00FFF742F901F0C0F83B1D5B887E
:103090001A0080235B01134017D03B1D5B881A0088
:1030A0001023134011D1A04B1B785A425341DBB27D
:1030B0001A009D4B1A709C4B18789C4B19789C4BAE
:1030C0001B781A00FFF722F923E03B1D5B881A00EA
:1030D00080239B01134001D101F08DF83B1D5B88DB
:1030E0001A002023134001D001F085F88E4B1B7885
:1030F0005A425341DBB21A008B4B1A708A4B187834
:103100008A4B19788A4B1B781A00FFF7FFF801F0F9
:1031100072F801F070F83B1D1B785BB2022B27D1CF
:10312000814B00221A70834B00221A70824B0022BE
:103130001A70824B00221A70814B00221A70814B48
:1031400000221A70784B18787A4B19787A4B1B78D2
:103150000133DCB2794B1B780133DDB2784B1B783D
:10316000784A1278019200932B002200FFF75EFA52
:103170003B1D1B785BB2042B01D001F03EF83B1DD8
:103180005B881A0080235B0013400ED03B1D5B88D8
:103190001A000123134008D12E23FB1800221A70B5
:1031A0002F23FB1801221A7022E23B1D5B881A00B4
:1031B00080239B0013400ED03B1D5B881A00022326
:1031C000134008D12E23FB1803221A702F23FB185B
:1031D00001221A700CE23B1D5B881A008023DB0081
:1031E000134000D1D0E03B1D5B881A00042313403C
:1031F00000D0C9E04C4B1B78062B00D9A6E09A0002
:10320000514BD3181B689F464A4B1B78013BDAB2DF
:10321000484B1A70474B1B78FF2B00D098E0454B6A
:103220000C221A7094E0444B1B78013BDAB2424BFB
:103230001A70414B1B78FF2B00D08BE03E4B1E22B7
:103240001A7087E03D4B1B78013BDAB23B4B1A709A
:103250003A4B1B78FF2B00D07EE0384B1E221A70B1
:103260007AE0374B1B781A00F82313400DD1344B0A
:103270001B785BB2032213405BB2482252421343D5
:103280005BB2DAB22E4B1A7067E02D4B1B78083B0D
:10329000DAB22B4B1A7060E0294B1B78002B03D15C
:1032A000274BBB221A7058E0254B1B78013BDAB242
:1032B000234B1A70224B1B7804229343DAB2204B23
:1032C0001A704AE01F4B1B781A00F82313400DD1E7
:1032D0001C4B1B785BB2032213405BB24822524264
:1032E00013435BB2DAB2174B1A7036E0154B1B78FA
:1032F000083BDAB2134B1A702FE0124B1B78002BED
:1033000003D1104BBB221A7027E00E4B1B78013BF8
:10331000DAB20C4B1A700B4B1B7804229343DAB2CF
:10332000084B1A7019E0C0469E0300209F0300203E
:10333000A0030020B1030020B2030020B30300204B
:10334000B4030020B503002060A10610C04604E0CD
:10335000C04602E0C04600E0C046BD4B1878BD4BF9
:103360001978BD4B1B780133DCB2BC4B1B780133A1
:10337000DDB2BB4B1B78BB4A1278019200932B0045
:103380002200FFF753F933E13B1D5B881A008023CD
:103390001B01134000D1C1E03B1D5B881A000823CC
:1033A000134000D0BAE0AA4B1B78062B00D999E055
:1033B0009A00AD4BD3181B689F46A64B1B78013370
:1033C000DAB2A44B1A70A34B1B780D211800FCF73E
:1033D000BDFF0B00DAB29F4B1A7088E09E4B1B7842
:1033E0000133DAB29C4B1A709B4B1B781F211800DB
:1033F000FCF7ACFF0B00DAB2974B1A7077E0974BF3
:103400001B780133DAB2954B1A70944B1B781F214D
:103410001800FCF79BFF0B00DAB2904B1A7066E0C5
:103420008F4B1B781A00F8231340B82B07D18C4B15
:103430001B7803221340DAB2894B1A7057E0884B8D
:103440001B780833DAB2864B1A7050E0844B1B7835
:10345000BB2B03D1824B00221A7045E0804B1B78B6
:103460000133DAB27E4B1A707D4B1B781A000423AD
:10347000134039D07A4B1B780433DAB2784B1A7088
:1034800032E0784B1B781A00F8231340B82B07D191
:10349000744B1B7803221340DAB2724B1A7026E089
:1034A000704B1B780833DAB26E4B1A701FE06D4B0D
:1034B0001B78BB2B03D16B4B00221A7016E0694BB3
:1034C0001B780133DAB2674B1A70664B1B781A000F
:1034D000042313400AD0634B1B780433DAB2614BE8
:1034E0001A7003E0C04602E0C04600E0C046584BF8
:1034F0001878584B1978584B1B780133DCB2574B6E
:103500001B780133DDB2564B1B78564A1278019274
:1035100000932B002200FFF789F869E03B1D5B88D0
:103520001A0080235B01134029D03B1D5B881A00E1
:103530001023134023D1464B1B78013BDAB2444B96
:103540001A70434B1B78FF2B02D1414B06221A7095
:103550003F4B18783F4B19783F4B1B780133DCB257
:103560003E4B1B780133DDB23D4B1B783D4A127850
:10357000019200932B002200FFF758F838E03B1D22
:103580005B881A0080239B01134001D100F035FEB7
:103590003B1D5B881A002023134001D000F02DFE54
:1035A0002B4B1B780133DAB2294B1A70284B1B784E
:1035B00007211800FCF7CAFE0B00DAB2244B1A7080
:1035C000234B1878234B1978234B1B780133DCB23B
:1035D000224B1B780133DDB2214B1B78214A127834
:1035E000019200932B002200FFF720F800F005FE67
:1035F00000F003FE3B1D1B785BB2022B0BD1144B7A
:1036000000221A70124B1878184B1978184B1B7837
:103610001A00FEF77BFE3B1D1B785BB2042B01D02A
:1036200000F0EDFD3B1D5B881A0080235B0013401A
:1036300020D03B1D5B881A00012313401AD12E2392
:10364000FB1802221A702F23FB1801221A70F5E0D2
:103650009E030020B1030020B2030020B30300202A
:10366000B4030020B50300207CA106109F030020B6
:10367000A00300203B1D5B881A0080239B001340A1
:1036800034D03B1D5B881A00022313402ED1964B89
:103690001A781C217B181A70944B1B780133DAB20C
:1036A0007B185A70924B1B780133DAB27B181A716F
:1036B000904B1A787B189A708F4B1A787B18DA70B7
:1036C0008E4B1A787B189A718D4B1A787B185A7129
:1036D0007B181868596801F077FD2E23FB1800222B
:1036E0001A702F23FB1801221A70A7E03B1D5B887C
:1036F0001A008023DB00134027D03B1D5B881A0093
:103700000423134021D17F4B1B78002B0DD17C4B20
:103710001B78013BDAB27A4B1A70794B1B78FF2B7E
:1037200009D1774B64221A7005E0744B1B78013B7A
:10373000DAB2724B1A70734B1878714B19786F4B61
:103740001B781A00FEF7E2FD78E03B1D5B881A004B
:1037500080231B0113402ED03B1D5B881A000823D9
:10376000134028D1674B1B78002B10D1644B1B787A
:103770000133DAB2624B1A70614B1B786421180076
:10378000FCF7E4FD0B00DAB25D4B1A7009E05B4B0D
:103790001B780133DAB2594B1A70584B1A78574BD1
:1037A0001A70584B1878564B1978544B1B781A00DE
:1037B000FEF7ACFD42E03B1D5B881A0080235B01F5
:1037C000134017D03B1D5B881A001023134011D102
:1037D0004C4B1B785A425341DBB21A00494B1A70CA
:1037E000484B1878464B1978444B1B781A00FEF763
:1037F0008DFD23E03B1D5B881A0080239B01134055
:1038000001D100F0FCFC3B1D5B881A002023134013
:1038100001D000F0F4FC3B4B1B785A425341DBB221
:103820001A00384B1A70374B1878354B1978334BD0
:103830001B781A00FEF76AFD00F0E1FC00F0DFFCE7
:103840003B1D1B785BB2022B30D12E4B00221A702D
:1038500003F098FB03005AB22B4B1A7003F084FB61
:1038600003005AB2294B1A7003F070FB03005AB2DE
:10387000274B1A7003F05CFB03005AB2254B1A70F9
:10388000204B1878234B1B785BB2D9B2204B1B78A6
:103890005BB2DAB21D4B1B785BB2DCB21A4B1B7801
:1038A0005BB2DBB200932300FEF71CFE3B1D1B78CE
:1038B0005BB2042B01D000F0A4FC3B1D5B881A0016
:1038C00080235B00134027D03B1D5B881A00012337
:1038D000134021D12E23FB1800221A702F23FB182E
:1038E00001221A7062E2C046B1030020B203002038
:1038F000B3030020B4030020B5030020A003002080
:103900009F0300209E030020A1030020A2030020AB
:10391000A3030020A40300203B1D5B881A00802322
:103920009B00134000D19FE03B1D5B881A000223DF
:10393000134000D098E0802200216F2002F088F828
:10394000D74B1B785BB20A211800FCF703FD03007C
:103950005BB21B015BB2702213405CB2D04B1B7890
:103960005BB20A211800FCF7DBFD0B005BB22343BE
:103970005BB2DBB21A0001216F2002F069F8C94B7B
:103980001B785BB20A211800FCF7E4FC03005BB271
:103990001B015CB2C34B1B785BB20A211800FCF719
:1039A000BFFD0B005BB223435BB2DBB21A00022106
:1039B0006F2002F04DF8BC4B1B785BB20A21180057
:1039C000FCF7C8FC03005BB21B015CB2B64B1B7872
:1039D0005BB20A211800FCF7A3FD0B005BB2234386
:1039E0005BB2DBB21A0004216F2002F031F8AF4B5A
:1039F0001B785BB20A211800FCF7ACFC03005BB239
:103A00001B015CB2A94B1B785BB20A211800FCF7C2
:103A100087FD0B005BB223435BB2DBB21A000521CA
:103A20006F2002F015F803F0ADFA03005AB29C4B78
:103A30001A7003F099FA03005AB29A4B1A7003F005
:103A400085FA03005AB2984B1A7003F071FA03001A
:103A50005AB2964B1A702E23FB1800221A702F238D
:103A6000FB1801221A70A1E13B1D5B881A0080231C
:103A7000DB00134000D18CE03B1D5B881A0004235F
:103A8000134000D085E08A4B1B78032B3FD000DD2C
:103A900067E0022B29D064DC002B02D0012B12D06E
:103AA0005FE0824B1B785BB2DBB2013BDBB25AB208
:103AB0007E4B1A707D4B1B785BB2002B4ADC7B4B34
:103AC0000C221A7046E0784B1B785BB2DBB2013BEC
:103AD000DBB25AB2744B1A70734B1B785BB2002B7B
:103AE0003ADC714B1F221A7036E06E4B1B785BB2CA
:103AF000DBB2013BDBB25AB26A4B1A70694B1B78DE
:103B00005BB2002B2ADA674B17221A7026E0644B4F
:103B10001B785BB2DBB2013BDBB25AB2604B1A706E
:103B20005F4B1B785BB2002B1ADA5D4B3B221A709D
:103B30005C4B1B785BB2DBB2013BDBB25AB2594B38
:103B40001A70584B1B785BB2002B09DA554B1722C1
:103B50001A7005E0C04604E0C04602E0C04600E03E
:103B6000C046534B1878514B1B785BB2D9B24E4BC1
:103B70001B785BB2DAB24B4B1B785BB2DCB2484BC2
:103B80001B785BB2DBB200932300FEF7ABFC00F0C6
:103B90003DFB3B1D5B881A0080231B01134000D1B5
:103BA000A0E03B1D5B881A000823134000D099E079
:103BB0003F4B1B78032B43D000DD7CE0022B2AD047
:103BC00000DD78E0002B02D0012B12D073E0374BE0
:103BD0001B785BB2DBB20133DBB25AB2334B1A70E3
:103BE000324B1B785BB20C2B58DD304B01221A7024
:103BF00054E02D4B1B785BB2DBB20133DBB25AB21F
:103C0000294B1A70284B1B785BB21F2B52DD264BB9
:103C100001221A704EE0234B1B785BB2DBB20133FA
:103C2000DBB25AB21F4B1A701E4B1B785BB21821C5
:103C30001800FCF775FC0B005AB21A4B1A703AE0E8
:103C4000174B1B785BB2DBB20133DBB25AB2144BB9
:103C50001A70134B1B785BB23C211800FCF760FC18
:103C60000B005AB20E4B1A700D4B1B785BB2002B37
:103C700021D10C4B1B785BB2DBB20133DBB25AB201
:103C8000084B1A70074B1B785BB218211800FCF721
:103C900047FC0B005AB2034B1A700CE0C0460AE016
:103CA000A1030020A2030020A3030020A4030020FE
:103CB0009E030020C046C44B1878C44B1B785BB2EF
:103CC000D9B2C34B1B785BB2DAB2C24B1B785BB282
:103CD000DCB2C14B1B785BB2DBB200932300FEF772
:103CE00001FC63E03B1D5B881A0080235B011340ED
:103CF00029D03B1D5B881A001023134023D1B24BFF
:103D00001B78013BDAB2B04B1A70AF4B1B78FF2B1C
:103D100002D1AD4B03221A70AB4B1878AB4B1B781A
:103D20005BB2D9B2AA4B1B785BB2DAB2A94B1B7853
:103D30005BB2DCB2A84B1B785BB2DBB20093230012
:103D4000FEF7D0FB32E03B1D5B881A0080239B010D
:103D5000134000D155E23B1D5B881A00202313401D
:103D600000D04EE2984B1B780133DAB2964B1A70B2
:103D7000954B1B7803221340DAB2934B1A70924B87
:103D80001878924B1B785BB2D9B2914B1B785BB21F
:103D9000DAB2904B1B785BB2DCB28F4B1B785BB214
:103DA000DBB200932300FEF79DFB2AE229E23B1DD4
:103DB0001B785BB2022B0BD1834B00221A70824B13
:103DC0001C7801F0CFF8030019002000FEF7ECFA90
:103DD0003B1D1B785BB2042B00D014E23B1D5B88BB
:103DE0001A0080235B0013400ED03B1D5B881A0035
:103DF0000123134008D12E23FB1800221A702F2311
:103E0000FB1801221A7047E13B1D5B881A008023D2
:103E10009B00134031D03B1D5B881A0002231340E6
:103E20002BD1694B1B78042B23D89A006B4BD318EA
:103E30001B689F462E23FB1806221A702F23FB189F
:103E400001221A7018E001F0ADFA2E23FB180022AF
:103E50001A702F23FB1801221A700DE001F08EF961
:103E60002E23FB1800221A702F23FB1801221A7030
:103E700002E0C04610E1C0460EE13B1D5B881A001F
:103E80008023DB0013401FD03B1D5B881A000423F6
:103E9000134019D14C4B1B780133DAB24A4B1A70DC
:103EA000494B1B7805211800FCF750FA0B00DAB2D9
:103EB000454B1A70444B1C7801F054F8030019006C
:103EC0002000FEF771FAE7E03B1D5B881A008023B3
:103ED0001B0113401CD03B1D5B881A0008231340B4
:103EE00016D1394B1B78013BDAB2374B1A70364B7F
:103EF0001B78FF2B02D1344B04221A70324B1C78F2
:103F000001F030F8030019002000FEF74DFA7DE1C2
:103F10003B1D5B881A0080235B01134060D03B1D72
:103F20005B881A00102313405AD1274B1B78002BB3
:103F300002D0012B36D045E001F014F80300053B18
:103F4000DAB22D243B191A703B191B787F2B15D937
:103F50003B1900221A7000F0EFFF03001A003B1912
:103F60001B781900100000F0A5FF174B1A783B19B9
:103F70001B7819001000FEF717FA23E000F0DCFFB1
:103F800003001A002D243B191B781900100000F0C3
:103F900091FF0D4B1A783B191B7819001000FEF7A2
:103FA00003FA0FE018243B190B221A7002F0DEFA14
:103FB0000300013B9AB23B195A803B19186801F083
:103FC0009BFFC04668E0C0469E030020A40300207B
:103FD000A3030020A2030020A103002098A1061043
:103FE0003B1D5B881A0080239B01134000D10AE12E
:103FF0003B1D5B881A002023134000D003E1964B41
:104000001B78002B02D0012B36D045E000F0AAFF30
:1040100003001A002C243B1905321A703B191B7837
:10402000642B15D93B1964221A7000F085FF030038
:104030001A003B191B781900100000F03BFF864B5B
:104040001A783B191B7819001000FEF7ADF923E030
:1040500000F072FF03001A002C243B191B78190092
:10406000100000F027FF7C4B1A783B191B781900D1
:104070001000FEF799F90FE014243B190B221A7077
:1040800002F074FA030001339AB23B195A803B19CB
:10409000186801F031FFC046B5E03B1D1B785BB2EC
:1040A000022B08D16D4B00221A806C4B00229B5EC4
:1040B0001800FEF70FFC3B1D1B785BB2042B00D0F1
:1040C000A3E03B1D5B881A0080235B00134011D0E6
:1040D0003B1D5B881A00012313400BD12E23FB18D4
:1040E00005221A702F23FB1801221A705B4B002245
:1040F0001A807BE03B1D5B881A0080239B001340E5
:1041000011D03B1D5B881A00022313400BD12E23D4
:10411000FB1805221A702F23FB1801221A704F4B2F
:1041200000221A8062E03B1D5B881A008023DB00BE
:10413000134005D03B1D5B881A000423134055D063
:104140003B1D5B881A0080231B01134005D03B1DDB
:104150005B881A000823134048D03B1D5B881A0077
:1041600080235B0113401AD03B1D5B881A0010238B
:10417000134014D1394B00229B5E002B36DD374BA8
:1041800000229B5E9BB2013B9BB21AB2334B1A805A
:10419000324B00229B5E1800FEF79CFB26E03B1D85
:1041A0005B881A0080239B0113402ED03B1D5B8847
:1041B0001A002023134028D1284B00229B5E1C00AC
:1041C00001F072F80300013B9C421EDA234B0022EF
:1041D0009B5E9BB201339BB21AB2204B1A801F4BDD
:1041E00000229B5E1800FEF775FB0EE00DE0C04656
:1041F0000CE0C0460AE0C04608E0C04606E0C04603
:1042000004E0C04602E0C04600E0C0462F23FB1891
:104210001B78002B1AD010217B1800221A607B1803
:1042200003221A707B181868FEF712FD0C4B2E2221
:10423000BA1812781A700C217B1800221A607B18A9
:1042400002221A707B181868FEF702FD012318007D
:10425000BD460CB0B0BDC0469E030020B603002092
:104260009C03002080B584B000AF78600C4B002226
:104270001A700C4B7A681A6003F00EF900F098FD82
:104280000C217B1801221A707B1800225A807B189F
:10429000186800F009F801231800BD4604B080BD7D
:1042A000B8030020BC03002080B582B000AF3B1DE6
:1042B0001860054B1A683B1D1968100000F0E3FCFC
:1042C000C046BD4602B080BDBC030020F0B587B03B
:1042D00000AF1723FB1800221A700C257B1900224F
:1042E0001A707B1900225A801626BC1903F0CEF9E9
:1042F0000300237031007B181B78252B0BD017236C
:10430000FB1801221A707B1906221A707B181B7881
:104310009AB27B195A801F4B1B78012B15D103F0E1
:10432000D0F9031E04D1FDF7F3FE0300012B0CD1DD
:10433000194B1A683B1D072119703B1D002159803C
:104340003B1D1968100000F09EFC1723FB181B781A
:10435000002B07D0104B1A680C23FB1819681000AB
:1043600000F091FC10217B180C22BA1812681A6018
:104370007A18002311880904090C1B0C1B040B4339
:10438000528812041B041B0C13431800BD4607B0CF
:10439000F0BDC046C0030020BC030020B0B58EB005
:1043A00000AF3B1D18603723FB1800221A7036231C
:1043B000FB18DE4A12781A70DC4B1B78142B01D9DB
:1043C00000F0A9FB9A00DA4BD3181B689F463B1DEF
:1043D0001B785BB2012B01D000F09FFB3623FB184A
:1043E00001221A703723FB1801221A7000F095FB86
:1043F0003B1D1B785BB2022B02D1CE4B00221A7000
:104400003B1D1B785BB2062B01D000F088FB3B1DE7
:104410005B880F2B3AD89A00C74BD3181B689F466E
:104420003623FB1802221A703723FB1801221A7058
:104430002DE03623FB1803221A703723FB180122C4
:104440001A7024E03623FB1805221A703723FB1854
:1044500001221A701BE03623FB1807221A7037233B
:10446000FB1801221A7012E03623FB1808221A707A
:104470003723FB1801221A7009E03623FB1811229A
:104480001A703723FB1801221A7000E0C04646E379
:104490003B1D1B785BB2062B00D042E33B1D5B88C3
:1044A000DCB200F05FFD03001900200000F002FD07
:1044B000031E03D1A14B180000F082FB3623FB182A
:1044C00001221A703723FB1801221A7029E33B1DC1
:1044D0001B785BB2062B00D025E33B1D5B88DAB26C
:1044E000974B1A703623FB1804221A703723FB18D7
:1044F00001221A7017E33B1D1B785BB2062B00D01C
:1045000013E328217B180B221A708D4B1B781B029A
:104510009AB23B1D5B88D3189AB27B185A807B18DD
:10452000186801F0E9FC3623FB1801221A703723C2
:10453000FB1801221A70F8E23B1D1B785BB2022BBC
:1045400000D0F4E27B4B01221A707E4B00221A60ED
:104550002C257C1900F082FD030023802C003B19E0
:104560001B881B0A9BB2DBB2180003F095F83B19BD
:104570001B88DBB2180003F08FF83623FB180622E5
:104580001A703723FB1801221A70D0E23B1D1B78EA
:104590005BB2072B00D0CCE22E217B1820221A80A0
:1045A000684B1B689AB234243B19080079180988B3
:1045B0008A1A1A803B181A88624B1B68D31A552B2B
:1045C00002D93B1955221A8000233B6344E01C2486
:1045D0003B19180007231A00002124F03DF93B196C
:1045E00001221A703B1901225A703B1949229A7014
:1045F0003B194A22DA703B1901221A713B19012238
:104600005A713B191B78180003F046F83B195B7888
:10461000180003F041F83B199B78180003F03CF8B0
:104620003B191B79180003F037F83B19DB781800A9
:1046300003F032F83B195B79180003F02DF83B19B1
:104640009B79180003F028F83E4B1B685A1C3D4B21
:104650001A603B6B01333B633423FB181B883A6BB6
:104660009A42B4DB2E243B191A88364B1B68D31AA6
:10467000552B00D95DE2032003F00EF83B191B888F
:10468000FE2B03D9304B180000F09AFA2D4B002274
:104690001A60284B00221A703623FB1801221A7068
:1046A0003723FB1801221A7043E23B1D1B785BB2D3
:1046B000062B00D03FE200F03FFC03001A003B1D38
:1046C0005B88DBB21900100000F0F4FB031E03D17D
:1046D0001E4B180000F074FA3623FB1801221A70E2
:1046E0003723FB1801221A7025E23B1D1B785BB2B1
:1046F000022B00D021E2164B180007231A000021DC
:1047000024F0AAF800F04EFE031E03D1114B18004E
:1047100000F056FA3623FB1809221A703723FB18CB
:1047200001221A700C4B00221A7006E2B803002016
:10473000ACA10610C003002000A206107499061058
:10474000C1030020C40300208C990610C4990610F0
:10475000C8030020E0990610CF0300203B1D1B7802
:104760005BB2062B00D0EAE13B1D5B880D2B11D11B
:10477000DB4B180000F024FA3623FB1801221A70D4
:104780003723FB1801221A70D64B1868596800F0BD
:104790001BFDD4E1D44B1B78B42B14D9D34B180098
:1047A00000F00EFACF4B1868596800F00DFD362363
:1047B000FB1810221A703723FB1801221A700D20E3
:1047C00002F06AFFBBE1C84B1B78002B04D0C54B3D
:1047D0001868596800F0F8FC3B1D5B88DAB2C14BE1
:1047E0001A703623FB180A221A703723FB1801228D
:1047F0001A70A4E13B1D1B785BB2062B00D0A0E130
:104800003B1D5B88DAB2B74B5A703623FB180B227C
:104810001A703723FB1801221A7092E13B1D1B7896
:104820005BB2062B00D08EE13B1D5B88DAB2AD4B4C
:104830009A703623FB180C221A703723FB180122BA
:104840001A7080E13B1D1B785BB2062B00D07CE127
:104850003B1D5B88DAB2A34B1A713623FB180D227D
:104860001A703723FB1801221A706EE13B1D1B786A
:104870005BB2062B00D06AE13B1D5B88DAB2994B34
:10488000DA703623FB180E221A703723FB18012228
:104890001A705CE13B1D1B785BB2062B00D058E11F
:1048A0003B1D5B88DAB28F4B5A713623FB180F22FF
:1048B0001A703723FB1801221A704AE13B1D1B783E
:1048C0005BB2062B00D046E13B1D5B88DAB2854B1C
:1048D0009A713623FB1809221A703723FB1801221C
:1048E0001A70814B1B780133DAB27F4B1A7032E1B8
:1048F0003B1D1B785BB2062B00D02EE13B1D5B8875
:104900000D2B00D029E13623FB1801221A70372322
:10491000FB1801221A7020E13B1D1B785BB2062BAD
:1049200000D01CE13B1D5B883B2B24D83B1D5B88E2
:104930000A211800FBF784FC03009BB25BB21B0149
:104940005CB23B1D5B880A211800FBF7FFFC0B00E3
:104950009BB25BB223435BB2DBB21A0001216F2032
:1049600001F076F83623FB1812221A703723FB1851
:1049700001221A70F3E05E4B180000F021F9362393
:10498000FB1801221A703723FB1801221A70E6E087
:104990003B1D1B785BB2062B00D0E2E03B1D5B8821
:1049A000172B24D83B1D5B880A211800FBF748FC15
:1049B00003009BB25BB21B015CB23B1D5B880A210A
:1049C0001800FBF7C3FC0B009BB25BB223435BB246
:1049D000DBB21A0002216F2001F03AF83623FB18EF
:1049E00013221A703723FB1801221A70B9E0414BC9
:1049F000180000F0E5F83623FB1801221A7037235F
:104A0000FB1801221A70ACE03B1D1B785BB2062B31
:104A100000D0A8E03B1D5B881F2B24D83B1D5B8882
:104A20000A211800FBF70CFC03009BB25BB21B01D0
:104A30005CB23B1D5B880A211800FBF787FC0B006A
:104A40009BB25BB223435BB2DBB21A0004216F203E
:104A500000F0FEFF3623FB1814221A703723FB18D0
:104A600001221A707FE0244B180000F0A9F83623C9
:104A7000FB1801221A703723FB1801221A7072E00A
:104A80003B1D1B785BB2062B00D06EE03B1D5B88A4
:104A90000C2B33D83B1D5B880A211800FBF7D0FB99
:104AA00003009BB25BB21B015CB23B1D5B880A2119
:104AB0001800FBF74BFC0B009BB25BB223435BB2CD
:104AC000DBB21A0005216F2000F0C2FF3623FB186D
:104AD00001221A703723FB1801221A7045E0C046E4
:104AE000FC990610C8030020CF030020109A06107E
:104AF000389A0610509A0610689A06102E4B180025
:104B000000F05EF83623FB1801221A703723FB18D9
:104B100001221A7029E0C04628E0C04626E0C046BF
:104B200024E0C04622E0C04620E0C0461EE0C04669
:104B30001CE0C0461AE0C04618E0C04616E0C04679
:104B400014E0C04612E0C04610E0C0460EE0C04689
:104B50000CE0C0460AE0C04608E0C04606E0C04699
:104B600004E0C04602E0C04600E0C0463723FB1820
:104B70001B78002B1AD010217B1800221A607B189A
:104B800003221A707B181868FFF708FC0B4B3622BB
:104B9000BA1812781A700C217B1800221A607B1840
:104BA00002221A707B181868FFF7F8FB012318001F
:104BB000BD460EB0B0BDC046809A0610B8030020B6
:104BC00080B584B000AF78607B681800FBF726FBE7
:104BD0000300BB600E2002F05FFD0023FB6009E0D4
:104BE000FB687A68D3181B78180002F055FDFB6843
:104BF0000133FB60FA68BB689A42F1DB0A2002F0DD
:104C00004BFD01231800BD4604B080BD80B582B0C5
:104C100000AF0C2023F01AFB03007B607B68002BA5
:104C200001D1002309E07B6800221A607B68002222
:104C30005A607B6800221A817B681800BD4602B06A
:104C400080BD80B584B000AF78607B68002B01D157
:104C5000002314E07B681B68FB6008E0FB68BB6016
:104C6000FB685B68FB60BB68180023F0F9FAFB681F
:104C7000002BF3D17B68180023F0F2FA012318000F
:104C8000BD4604B080BD80B584B000AF78603B0005
:104C900019607B68002B01D1002326E0082023F057
:104CA000D5FA0300FB60FB68002B01D100231CE058
:104CB000FB683A0012681A60FB6800225A607B6841
:104CC0005B68002B04D07B685B68FA685A6002E07E
:104CD0007B68FA681A607B68FA685A607B681B898F
:104CE00001339AB27B681A8101231800BD4604B0D3
:104CF00080BD90B589B000AF78607B68002B07D18C
:104D000018217B18FF221A707B1800225A8030E08D
:104D10007B681B68002B0AD17B6800225A6018212F
:104D20007B1800221A707B1800225A8021E07B68D1
:104D30001B68FB61FB695A687B681A607B681B68AB
:104D4000002B02D17B6800225A6014243B19FA69B7
:104D500012681A60FB69180023F082FA7B681B89CD
:104D6000013B9AB27B681A811823FB183A19126822
:104D70001A601823FA18002311880904090C1B0C67
:104D80001B040B43528812041B041B0C1343180012
:104D9000BD4609B090BD80B582B000AF78607B6839
:104DA0001B895A1E9341DBB21800BD4602B080BD7C
:104DB00080B582B000AF394B1B78002B01D00123A6
:104DC00068E0374B1A69364B0C210A431A610023FD
:104DD0007B600FE07B68334A94466344DB001B78BA
:104DE000FF2B04D17B681AB22F4B1A8005E07B6839
:104DF00001337B607B68FF2BECDD00233B600FE021
:104E00003B682A4A94466344DB001B78FF2B04D19D
:104E10003B681AB2264B1A8005E03B6801333B60C1
:104E20003B68FF2BECDD1E4B1A691D4B01210A4329
:104E30001A611A4B01221A7000F07EF80300FF2B52
:104E400004D000F08FF80300FF2B22D100F074F89B
:104E50000300FF2B09D100F085F80300FF2B04D1DC
:104E60002821322000F026F813E000F065F8030056
:104E7000FF2B07D100F076F803001900322000F074
:104E800019F806E000F058F803002821180000F097
:104E900011F801231800BD4602B080BDD4030020E4
:104EA0000010004000DE0002D003002000DD000200
:104EB000D2030020B0B588B000AF0200FB1D1A700D
:104EC000BB1D0A1C1A701A4B1B78002B01D1002342
:104ED0002AE00C217B185C225A607B1801229A6020
:104EE0007B1800221A600823FA187B18110018009A
:104EF00003F010FE00F020F800F034F8BB1D1B7822
:104F00001A02FB1D1B78D318FB611B257C19FB695A
:104F100008491A00002003F023FD030023707B19C9
:104F20001B785A425341DBB21800BD4608B0B0BDF1
:104F3000D403002000E0061080B582B000AF074B1C
:104F40001B78002B01D1002303E0054B7B607B68BD
:104F50001B781800BD4602B080BDC046D4030020B7
:104F600000E0061080B582B000AF074B1B78002B25
:104F700001D1002303E0054B7B607B681B781800A0
:104F8000BD4602B080BDC046D403002001E006103B
:104F900080B584B000AF3B00186059602C4B1B7883
:104FA000002B01D100234FE02A4B00229B5EFF2BF8
:104FB00001DD002348E03B001B781A003B005B78D2
:104FC0001B021A433B009B781B041A433B00DB780F
:104FD0001B061343FB603B001B791A003B005B7907
:104FE0001B021A433B009B791B041343BB60194B04
:104FF00000229B5E184A94466344DB001900FB685C
:105000001A00002003F0ACFC031E01D000231BE0BB
:10501000104B00229B5E104A94466344DB0004332D
:105020001900BB681A00002003F09AFC031E01D08F
:10503000002309E0074B00229B5E9BB201339BB229
:105040001AB2044B1A8001231800BD4604B080BD7B
:10505000D4030020D203002000DD000280B500AFA1
:10506000064B1B78002B01D1002303E0044B0022E8
:105070009B5E9BB21800BD4680BDC046D403002095
:10508000D203002090B587B000AF78600A00BB1C47
:105090001A8010243B19180007231A00002123F05E
:1050A000DBFB334B1B78002B08D17A683B191000CF
:1050B000190007231A0023F044FC55E0BB1C1B8891
:1050C0002C4A0021525E934245DCBB1C1B882A4AB5
:1050D00094466344DB001A7810217B181A70BB1CBD
:1050E0001B88254A94466344DB0001331A787B18F9
:1050F0005A70BB1C1B88204A94466344DB00023371
:105100001A787B189A70BB1C1B881B4A9446634410
:10511000DB0003331A787B18DA70BB1C1B88164A35
:1051200094466344DB0004331A787B181A71BB1C65
:105130001B88114A94466344DB0005331A787B18B8
:105140005A71BB1C1B880C4A94466344DB0006332F
:105150001A787B189A717A681023FB1810001900CE
:1051600007231A0023F0EDFB7868BD4607B090BD19
:10517000D4030020D203002000DD0002B0B586B0C9
:1051800000AF104B00221A8008217B185D225A6064
:105190007B1801229A607B1800221A6017257C195F
:1051A0003A1D7B181100180003F0B4FC03002370B3
:1051B0007B191B785A425341DBB21800BD4606B03A
:1051C000B0BDC046D203002080B586B000AF3B0022
:1051D00018605960304B1B78002B01D1002356E03A
:1051E0002E4B00229B5EFF2B01DD00234FE03B0096
:1051F0001B781A003B005B781B021A433B009B782C
:105200001B041A433B00DB781B0613437B613B0006
:105210001B791A003B005B791B021A433B009B7908
:105220001B0413433B611E4B1B69FB60FB6801229F
:105230001340FB60194B00229B5E1A4A944663445C
:10524000DB0019007B691A00002003F089FB031EB4
:1052500001D000231BE0114B00229B5E114A9446B3
:105260006344DB00043319003B691A00002003F09B
:1052700077FB031E01D0002309E0084B00229B5E50
:105280009BB201339BB21AB2044B1A80012318005F
:10529000BD4606B080BDC046D4030020D003002028
:1052A0000010004000DE000280B500AF064B1B7806
:1052B000002B01D1002303E0044B00229B5E9BB234
:1052C0001800BD4680BDC046D4030020D003002096
:1052D00090B589B000AF78600A00BB1C1A8010241A
:1052E0003B19180007231A00002123F0B5FA2A4BB6
:1052F0001B78002B08D17A683B191000190007238E
:105300001A0023F01EFB42E0BB1C1B88234A00212D
:10531000525E934232DABB1C1B88214A9446634496
:10532000DB001B68FB61BB1C1B881D4A9446634461
:10533000DB0004331B68BB61FB69DAB210217B1808
:105340001A70FB691B0ADAB27B185A70FB691B0CD6
:10535000DAB27B189A70FB691B0EDAB27B18DA702E
:10536000BB69DAB27B181A71BB691B0ADAB27B1807
:105370005A71BB691B0CDAB27B189A717A681023D8
:10538000FB181000190007231A0023F0DAFA7868D6
:10539000BD4609B090BDC046D4030020D003002014
:1053A00000DE0002B0B586B000AF104B00221A80BC
:1053B00008217B185E225A607B1801229A607B18B4
:1053C00000221A6017257C193A1D7B18110018005D
:1053D00003F0A0FB030023707B191B785A42534152
:1053E000DBB21800BD4606B0B0BDC046D0030020F9
:1053F00080B584B000AF7860074B196D064B7A68B2
:105400000A431A65044B1B6D7A681340FB60FB6806
:10541000C046BD4604B080BD0000404880B586B09F
:1054200000AF1D4B1B78002B01D0012330E03B1D4A
:10543000180014231A00002123F00EFA0820FFF7A9
:10544000D7FF0420FFF7D4FF3B1DB02212011A60E2
:105450003B1D00225A603B1D00229A603A1D90239A
:10546000DB051100180003F0D5FB3B1D10221A606C
:105470003B1D00225A603B1D00229A603B1D074ADB
:105480001900100003F0C6FB034B01221A70012320
:105490001800BD4606B080BDD503002000001048AE
:1054A000B0B500AF80231A019023DB05110018006E
:1054B00003F038FE03005BB25B015CB280239A000C
:1054C0009023DB051100180003F02CFE03005BB2F3
:1054D0001B015BB223435CB2194B1021180003F08F
:1054E00021FE03005BB2DB005BB223435CB290237E
:1054F000DB050821180003F015FE03005BB29B00DA
:105500005BB223435CB29023DB050421180003F057
:1055100009FE03005BB2DB185BB223435CB280235D
:105520005A009023DB051100180003F0FBFD030077
:105530005BB223435BB2DBB21800BD46B0BDC046D0
:105540000000104890B585B000AF0200FB1D1A7036
:10555000224B1B69002B3DD0214B40220021995446
:105560001F4B4122202199541E4B1B681A681D4B6A
:105570001B6808218A431A609023DB05022118006A
:1055800003F0EDFC154B12225A60144B00221A61F5
:10559000124A9023DB051100180003F03BFB0121A8
:1055A000002005F007FE0121002005F031FEFB1D63
:1055B0001B78002B0CD001F0BDFE0300FB60C04641
:1055C000FB6814331C0001F0B5FE03009C42F7D8C1
:1055D00000F078FAC046BD4605B090BD1826002000
:1055E0002C2600208426002090B585B002AF78607C
:1055F0007B68DB78002B12D17B681B78DB1899B2B3
:105600007B685B781C007B680233104801220192A2
:1056100000930123220003F0AFFE030011E07B683A
:105620001B78DB1899B27B685B781C007B680233BF
:1056300006480122019200930123220003F03EFF5D
:1056400003001800BD4603B090BDC0462C260020C4
:1056500090B585B000AF3B1D1860494B1B78002BFF
:1056600001D1012387E00F23FB1800221A7001F0FB
:1056700061FE0300BB60C046424B434A9B5A1C007C
:10568000404AC0235B01D35A0133C022D100180025
:10569000FAF746FF0B009C4208D1BB68FA22920041
:1056A0009C1801F047FE03009C42E5D8354B364A72
:1056B0009B5A1C00334AC0235B01D35A0133C022DA
:1056C000D1001800FAF72CFF0B009C4204D10220F5
:1056D00002F01CFF01234EE0022002F035FF294AB0
:1056E000C0235B01D35A274A99003B1D1B688B508E
:1056F000244AC0235B01D35A013399B2214AC02303
:105700005B01D1521F4AC0235B01D35AC022D10092
:105710001800FAF71BFE0B0099B21A4AC0235B016E
:10572000D152184B184A9B5A0133C022D10018009D
:10573000FAF7F6FE0B001900124AC0235B01D35A98
:10574000994215D1114B41229B5CDBB2202B0FD12A
:105750000120FFF7F7FE0B4B0B4A9B5A9A00094BAF
:10576000D3180F22BC181800FFF73EFF0300237068
:105770000F23FB181B781800BD4605B090BDC0462E
:10578000DC1B0020D8030020021800002C2600207B
:1057900080B582B000AF7860164B174A9B5A013330
:1057A00099B2144B144A9952124B134A9B5AC02275
:1057B000D1001800FAF7CAFD0B0099B20D4B0E4A42
:1057C00099520C4B0C4A9A5A0A49C0235B01CB5A96
:1057D0009A420BD00120FFF7B5FE064B064A9B5AB2
:1057E0009A00044BD3181800FFF7FEFEC046BD46D2
:1057F00002B080BDD80300200218000080B584B03C
:1058000000AF78600C203B1805221A702A4B2B4AF7
:105810009B5A294A9B00D31801331B781BB21B02E9
:105820001AB2254B25495B5A23499B00CB180233FA
:105830001B781BB213431BB29AB23B185A801E4B03
:105840001E4A9B5A1C4A9B00D31803331B785A1ECE
:105850001B4B9200D2583B1818689047164B174ABA
:105860009B5A013399B2144B144A9952124B134A62
:105870009B5AC022D1001800FAF768FD0B0099B2BC
:105880000D4B0E4A99520C4B0C4A9A5A0A49C023A6
:105890005B01CB5A9A420BD00120FFF753FE064B17
:1058A000064A9B5A9A00044BD3181800FFF79CFE37
:1058B000C046BD4604B080BDD803002002180000D9
:1058C0008026002090B585B000AF78607B685B6C67
:1058D0000422134021D0134B134A9A5A1149C02372
:1058E0005B01CB5A9A4218D001F024FD0300FB6003
:1058F000C046FB680A331C0001F01CFD03009C42FB
:10590000F7D80120FFF71EFE064B074A9B5A9A0064
:10591000044BD3181800FFF767FEC046BD4605B01C
:1059200090BDC046D80300200218000080B500AF2B
:10593000094B1B689A69E023DB00134004D0064B37
:10594000180003F073FE03E0034B180003F054FE4D
:10595000C046BD4680BDC0462C26002090B583B011
:1059600000AF364B1B78002B01D0012362E001F021
:1059700095FC334B8222D2051A60314B314A5A6072
:105980002F4B00229A602E4B0122DA602C4B002212
:105990001A612B4B00225A61294B00229A61284B35
:1059A0000022DA61264B00221A62254B4122002197
:1059B0009954FC1D224B180003F038FC030023709F
:1059C000FB1D1B78002B01D0002333E0FC1D1C4B7A
:1059D0000021180005F0FAFA03002370FB1D1B7864
:1059E000002B01D0002325E0FC1D154B00211800E1
:1059F00005F038FB03002370FB1D1B78002B01D042
:105A0000002317E0104B114A002199520E4AC0237F
:105A10005B010021D152094B01221A700120FFF7CE
:105A200091FD00220221032002F014FF032002F066
:105A300026FF01231800BD4603B090BDDC1B0020EB
:105A40002C2600205B5B3000D803002002180000E9
:105A5000B0B584B000AF040008001100FB1D221C8B
:105A60001A70BB1D021C1A707B1D0A1C1A70134B86
:105A70001B78002B01D101231CE00F217B18002291
:105A80001A700F4BFA1D12781A700D4BBA1D12784E
:105A90005A700B4B0022DA70094B7A1D12789A70FB
:105AA0000D007C18064B1868FFF7D2FD0300237029
:105AB0007B191B781800BD4604B0B0BDDC1B00206C
:105AC000E01B002080B500AF0D4B41229B5CDBB298
:105AD000202B11D10B4B0C4A9A5A0A49C0235B0167
