:020000041004E6
:1000000000600020111D041019190410211904109A
:1000100000000000000000000000000000000000E0
:10002000000000000000000000000000291904107A
:100030000000000000000000331904103D190410F6
:10004000751D0410751D0410751D0410191204107F
:10005000000000000000000000000000751D0410FA
:10006000951304107D13041059130410751D04100A
:10007000751D0410751D041000000000751D04108E
:10008000751D0410751D0410671904100000000090
:100090005919041000000000000000004B19041062
:1000A000751D041075190410751D0410751D0410BC
:1000B0000000000000000000000000000000000040
:1000C00010B5904216D98AB2030C090C0C4659435C
:1000D00080B25343444350431B191A041B0C10189D
:1000E000594180225203002312184B41520DD8026D
:1000F000104310BD4843802252031218520D10467F
:1001000010BDC0460023C25C0133002AFBD1581E3B
:100110007047000003B47146490840004900095E79
:1001200049008E4403BC7047002243088B4274D3BD
:1001300003098B425FD3030A8B4244D3030B8B42E8
:1001400028D3030C8B420DD3FF22090212BA030CF1
:100150008B4202D31212090265D0030B8B4219D3D2
:1001600000E0090AC30B8B4201D3CB03C01A5241F2
:10017000830B8B4201D38B03C01A5241430B8B423A
:1001800001D34B03C01A5241030B8B4201D30B0323
:10019000C01A5241C30A8B4201D3CB02C01A52414A
:1001A000830A8B4201D38B02C01A5241430A8B420D
:1001B00001D34B02C01A5241030A8B4201D30B02F6
:1001C000C01A5241CDD2C3098B4201D3CB01C01A10
:1001D000524183098B4201D38B01C01A524143091A
:1001E0008B4201D34B01C01A524103098B4201D308
:1001F0000B01C01A5241C3088B4201D3CB00C01A75
:10020000524183088B4201D38B00C01A52414308EC
:100210008B4201D34B00C01A5241411A00D2014611
:10022000524110467047FFE701B5002000F0F0F89A
:1002300002BDC0460029F7D076E7704703460B435E
:100240007FD4002243088B4274D303098B425FD3CF
:10025000030A8B4244D3030B8B4228D3030C8B42FB
:100260000DD3FF22090212BA030C8B4202D31212E1
:10027000090265D0030B8B4219D300E0090AC30BB6
:100280008B4201D3CB03C01A5241830B8B4201D363
:100290008B03C01A5241430B8B4201D34B03C01A4C
:1002A0005241030B8B4201D30B03C01A5241C30AC4
:1002B0008B4201D3CB02C01A5241830A8B4201D335
:1002C0008B02C01A5241430A8B4201D34B02C01A1F
:1002D0005241030A8B4201D30B02C01A5241CDD2C4
:1002E000C3098B4201D3CB01C01A524183098B420F
:1002F00001D38B01C01A524143098B4201D34B01F8
:10030000C01A524103098B4201D30B01C01A52415A
:10031000C3088B4201D3CB00C01A524183088B42E1
:1003200001D38B00C01A524143088B4201D34B00CA
:10033000C01A5241411A00D201465241104670473C
:100340005DE0CA0F00D04942031000D34042534041
:1003500000229C4603098B422DD3030A8B4212D301
:10036000FC22890112BA030A8B420CD38901921133
:100370008B4208D3890192118B4204D389013AD070
:10038000921100E08909C3098B4201D3CB01C01A45
:10039000524183098B4201D38B01C01A5241430958
:1003A0008B4201D34B01C01A524103098B4201D346
:1003B0000B01C01A5241C3088B4201D3CB00C01AB3
:1003C000524183088B4201D38B00C01A5241D9D2CB
:1003D00043088B4201D34B00C01A5241411A00D24C
:1003E0000146634652415B10104601D34042002B48
:1003F00000D54942704763465B1000D3404201B5C7
:10040000002000F005F802BD0029F8D016E770477B
:100410007047C046002B11D1002A0FD1002900D10E
:10042000002802D00021C943080007B4024802A1F5
:100430004018029003BDC046D9FFFFFF03B46846D1
:1004400001B5029800F006F8019B9E4602B00CBC74
:100450007047C046F0B557464E464546DE46E0B5C5
:1004600004000D009246994683B08B4230D82DD0BF
:100470004946504600F0BAF829000600200000F076
:10048000B5F8331A9846203B34D49B4653465A4617
:10049000934042461F00534693401E00AF423BD854
:1004A000AF4200D179E05B46A41BBD41002B00DACE
:1004B00076E0002200230092019301235A469340E4
:1004C0000193012342469340009329E08242CFD911
:1004D00000220023009201930C9B002B01D01C6092
:1004E0005D600098019903B0F0BCBB46B246A946D6
:1004F000A046F0BD42469B4620239B1A5246DA4056
:10050000414613004A468A40170042461F4353465D
:1005100093401E00AF42C3D90022002300920193F2
:100520004346002BD8D0FB0772081A4346467B0887
:100530000EE0AB4201D1A2420CD8A41A9D41012089
:1005400024196D410021013E24184D41002E06D092
:10055000AB42EED9013E24196D41002EF8D100982E
:1005600001995B4600196941002B24DB2B005A4698
:100570004446D3402A00E2401C005B461500002B95
:100580002ADB26009E40330026004746BE4032004C
:10059000801A9941009001919EE7A342BCD882E75E
:1005A0004246202300219B1A002200910192012241
:1005B000DA40019285E7424620239B1A2A004646EC
:1005C0009A402300F340444613432A00E2401C00B3
:1005D0005B461500002BD4DA42462F00202326006C
:1005E00097409B1ADE403B003343CDE710B500290E
:1005F00003D100F007F8203002E0080000F002F814
:1006000010BDC0461C2101231B04984201D3000CDD
:1006100010391B0A984201D3000A08391B09984275
:1006200001D30009043902A2105C40187047C0468B
:1006300004030202010101010000000000000000AB
:1006400090B589B000AF08243B19180018231A0090
:10065000002106F0AFF93B00180008231A00002122
:1006600006F0A8F93B1905221A603B1980225202B4
:100670005A603B1904221A613B19180004F02AF948
:10068000031E01D000230FE03B0000221A603B0054
:1006900000225A603B001021180004F065FA031E86
:1006A00001D0002300E001231800BD4609B090BD31
:1006B00080B586B000AF3B00180018231A00002157
:1006C00006F078F93B0002221A603B0080225201BA
:1006D0005A613B00180004F0DDFB031E01D000232B
:1006E00000E001231800BD4606B080BD80B582B091
:1006F00000AF01F091FD01237B60FFF7D9FF031EDE
:1007000001D100237B60FFF79BFF031E01D1002373
:100710007B607B681800BD4602B080BD80B500AF2D
:1007200072B6C046C046FDE780B500AF72B6C0469F
:10073000C046FDE780B584B000AF78600A4B002268
:100740001A700A4B7A681A600C217B1801221A7001
:100750007B1800225A807B18186800F009F80123E2
:100760001800BD4604B080BD94010020980100200F
:1007700080B582B000AF3B1D1860054B1A683B1D69
:100780001968100000F081FBC046BD4602B080BD74
:1007900098010020F0B587B000AF1723FB180022A6
:1007A0001A700C257B1900221A707B1900225A80BE
:1007B0001626BC1900F02CFF0300237031007B18B3
:1007C0001B78252B0BD01723FB1801221A707B19DD
:1007D00006221A707B181B789AB27B195A801C4B20
:1007E0001B78012B10D100F0A5FF031E0CD0194B74
:1007F0001A683B1D072119703B1D002159803B1DC4
:100800001968100000F041FB1723FB181B78002B20
:1008100007D0104B1A680C23FB181968100000F061
:1008200034FB10217B180C22BA1812681A607A184F
:10083000002311880904090C1B0C1B040B4352886C
:1008400012041B041B0C13431800BD4607B0F0BD77
:100850009C01002098010020B0B596B000AF3B1D70
:1008600018605723FB1800221A705623FB18DD4A24
:1008700012781A70DB4B1B780F2B00D97AE29A00A2
:10088000D94BD3181B689F463B1D1B785BB2012BCD
:1008900000D071E25623FB1801221A705723FB186F
:1008A00001221A7068E23B1D1B785BB2022B02D159
:1008B000CE4B00221A703B1D1B785BB2062B00D07A
:1008C0005CE23B1D5B88052B45D89A00C84BD318CA
:1008D0001B689F46C74B180000F09CFA5623FB1874
:1008E00002221A705723FB1801221A7034E0C24BFF
:1008F000180000F08FFA5623FB1803221A705723B2
:10090000FB1801221A7027E0BC4B180000F082FA95
:100910005623FB1805221A705723FB1801221A7060
:100920001AE0B74B180000F075FA5623FB1807229F
:100930001A705723FB1801221A700DE0B14B1800F2
:1009400000F068FA5623FB1808221A705723FB1888
:1009500001221A7000E0C04610E23B1D1B785BB21A
:10096000062B00D00CE2A84B180000F053FA5623D7
:10097000FB1801221A705723FB1801221A70FFE19D
:100980003B1D1B785BB2062B00D0FBE19F4B180090
:1009900000F040FA5623FB1804221A705723FB1864
:1009A00001221A70EEE13B1D1B785BB2062B00D0D2
:1009B000EAE1974B180000F02DFA5623FB180122AC
:1009C0001A705723FB1801221A70DDE13B1D1B78BA
:1009D0005BB2022B00D0D9E1844B01221A708D4BFF
:1009E00000221A6046243B193C221A803B191B88BE
:1009F0001B0A9BB2DBB2180000F04CFE3B191B88AF
:100A0000DBB2180000F046FE5623FB1806221A70CF
:100A10005723FB1801221A70B8E13B1D1B785BB20B
:100A2000072B00D0B4E14B23FB1841221A70482158
:100A30007B183C221A807B181A88764B1B68D21AC6
:100A400080239B009A4224D900233B6508E04B2376
:100A5000FB181B78180000F01DFE3B6D01333B6551
:100A60003A6D80239B009A42F1DB6A4B1B6880221F
:100A700092009A18674B1A605623FB1806221A70C8
:100A80005723FB1801221A70634B180000F0C2F9BB
:100A90007EE10023FB6408E04B23FB181B78180061
:100AA00000F0F8FDFB6C0133FB644823FB181A8847
:100AB000584B1B68D21AFB6C9A42EDD85623FB1890
:100AC00001221A705723FB1801221A70534B180089
:100AD00000F0A0F95CE13B1D1B785BB2062B00D057
:100AE00058E14F4B180000F095F95623FB180122EE
:100AF0001A705723FB1801221A704BE13B1D1B781B
:100B00005BB2022B00D047E1464B180000F082F99F
:100B10005623FB1809221A705723FB1801221A705A
:100B2000414B00221A7037E13B1D1B785BB2062B4C
:100B300000D033E13B1D5B880D2B0CD13B4B1800E3
:100B400000F068F95623FB1801221A705723FB188E
:100B500001221A7022E1344B1B78B42B0FD9344B8D
:100B6000180000F057F95623FB180F221A7057236C
:100B7000FB1801221A700D2000F08CFD0EE13B1DC8
:100B80005B881A002B4914243B19180005F0F2FE6B
:100B90003B19180000F03EF95623FB180A221A7080
:100BA0005723FB1801221A70F8E03B1D1B785BB23B
:100BB000062B00D0F4E03B1D5B881A001E4914246C
:100BC0003B19180005F0D6FE3B19180000F022F979
:100BD0005623FB180B221A705723FB1801221A7098
:100BE000DEE0C04694010020947204109C010020B5
:100BF000D4720410087104102471041040710410A0
:100C000058710410707104108C7104109C710410E0
:100C1000B8710410A0010020D0710410E471041018
:100C2000F071041004720410A40100201872041062
:100C30002C7204104C720410587204103B1D1B7867
:100C40005BB2062B00D0ADE03B1D5B88DB101F22A2
:100C500013401C003B1D5B881A0003231A4013003D
:100C60001B019B1A664914257819220005F082FEA3
:100C70007B19180000F0CEF85623FB180C221A70CE
:100C80005723FB1801221A708CE03B1D1B785BB2C6
:100C9000062B00D088E03B1D5B88DB101F22134031
:100CA0001C003B1D5B881A0003231A4013001B0124
:100CB0009B1A534914257819220005F05BFE7B1915
:100CC000180000F0A7F85623FB180D221A705723BE
:100CD000FB1801221A7067E03B1D1B785BB2062BE4
:100CE00064D13B1D5B881A00464914243B19180047
:100CF00005F040FE3B19180000F08CF85623FB1855
:100D00000E221A705723FB1801221A704EE03B1D69
:100D10001B785BB2062B4BD13B1D5B881A003A490E
:100D200014243B19180005F025FE3B19180000F0AB
:100D300071F85623FB1809221A705723FB18012259
:100D40001A70324B1B780133DAB2304B1A702FE035
:100D50003B1D1B785BB2062B2CD13B1D5B880D2BFA
:100D600028D15623FB1801221A705723FB180122A1
:100D70001A701FE0C0461EE0C0461CE0C0461AE0E4
:100D8000C04618E0C04616E0C04614E0C04612E077
:100D9000C04610E0C0460EE0C0460CE0C0460AE087
:100DA000C04608E0C04606E0C04604E0C04602E097
:100DB000C04600E0C0465723FB181B78002B1AD012
:100DC00010217B1800221A607B1803221A707B18EE
:100DD0001868FFF741FD0E4B5622BA1812781A70A8
:100DE0000C217B1800221A607B1802221A707B18D3
:100DF0001868FFF731FD01231800BD4616B0B0BDDD
:100E0000647204107872041088720410A401002027
:100E10009401002080B584B000AF78607B68180032
:100E2000FFF770F90300BB600023FB6009E0FB687B
:100E30007A68D3181B78180000F02CFCFB6801338B
:100E4000FB60FA68BB689A42F1DB01231800BD46DB
:100E500004B080BD80B582B000AF0C2005F0C4FCAA
:100E600003007B607B68002B01D1002309E07B68D5
:100E700000221A607B6800225A607B6800221A8177
:100E80007B681800BD4602B080BD80B584B000AF5D
:100E900078603B0019607B68002B01D1002326E0BD
:100EA000082005F0A1FC0300FB60FB68002B01D1CA
:100EB00000231CE0FB683A0012681A60FB680022FD
:100EC0005A607B685B68002B04D07B685B68FA68BB
:100ED0005A6002E07B68FA681A607B68FA685A60B8
:100EE0007B681B8901339AB27B681A810123180041
:100EF000BD4604B080BD90B589B000AF78607B6816
:100F0000002B07D118217B18FF221A707B180022B2
:100F10005A8030E07B681B68002B0AD17B68002276
:100F20005A6018217B1800221A707B1800225A8000
:100F300021E07B681B68FB61FB695A687B681A606B
:100F40007B681B68002B02D17B6800225A60142446
:100F50003B19FA6912681A60FB69180005F04EFC2B
:100F60007B681B89013B9AB27B681A811823FB18A6
:100F70003A1912681A601823FA1800231188090414
:100F8000090C1B0C1B040B43528812041B041B0C82
:100F900013431800BD4609B090BD80B582B000AFC4
:100FA00078607B681B895A1E9341DBB21800BD46EE
:100FB00002B080BD80B584B000AF7860074B196D7A
:100FC000064B7A680A431A65044B1B6D7A68134016
:100FD000FB60FB68C046BD4604B080BD00004048D1
:100FE00080B586B000AF3B1D180014231A00002105
:100FF00005F0E0FC0820FFF7DDFF0420FFF7DAFF33
:101000003B1D114A1A603B1D00225A603B1D002205
:101010009A603A1D9023DB051100180001F0F2FAE6
:101020003B1D0A4A1A603B1D00225A603B1D0022EC
:101030009A603B1D064A1900100001F0E3FA0123F3
:101040001800BD4606B080BD0C0400001030000042
:1010500000001048B0B500AF9023DB050121180057
:1010600001F079FC031E01D1042400E000240F4BA1
:101070002021180001F06FFC031E01D1022300E0C3
:10108000002323435CB28023DB01084A19001000CF
:1010900001F061FC03005A425341DBB25BB22343CF
:1010A0005BB2DBB21800BD46B0BDC04600001048C0
:1010B00080B582B000AF7860114B00221A7000201A
:1010C00000F0C4FE012000F0C1FE022000F0BEFED0
:1010D0000021002000F04CFF0021012000F048FF1B
:1010E0000021022000F044FF064B7A681A60FFF7E7
:1010F00077FF0300DBB21800BD4602B080BDC046DA
:10110000A5010020A8010020F0B585B000AF0F2692
:10111000BB1900221A703B1D00221A703B1D0022D1
:101120005A800E257C19FFF795FF03002370214B91
:101130001B7829007A1812789A4219D01D4B1A7818
:101140007B181B785340DBB21AB27B181B781B024A
:101150001BB213431BB29AB23B1D5A803B1D0422A3
:101160001A70144B7A1812781A70BB1901221A706F
:101170000F23FB181B78002B06D00F4B1A683B1D62
:1011800019681000FFF781FE08217B183A1D1268CC
:101190001A607A18002311880904090C1B0C1B041F
:1011A0000B43528812041B041B0C13431800BD464A
:1011B00005B0F0BDA5010020A801002080B582B0D7
:1011C00000AF3B1D18603B1D1B785BB2042B1ED18A
:1011D0003B1D5B881A000123134002D0002000F061
:1011E000ABFE3B1D5B885B089BB21A0001231340DA
:1011F00002D0012000F0A0FE3B1D5B889B089BB243
:101200001A000123134002D0022000F095FE0123B2
:101210001800BD4602B080BD80B500AF094B1B6809
:101220009A69E023DB00134004D0064B180001F05C
:1012300001FC03E0034B180001F0E2FBC046BD4691
:1012400080BDC046AC01002080B586B000AFFFF77E
:101250004DFA0300012B01D0FFF760FA00F03CF9D2
:101260000300012B01D0FFF759FA00237B6113E043
:10127000FFF7F0FD0100344B7A699200D150334BF7
:101280007A699200D358304A796989008A581000E7
:1012900098477B6901337B617B69012BE8DD002383
:1012A0003B6112E02A4B3A699200D35898470300F9
:1012B0001A003B1D1A603B1D1B785BB2013301D144
:1012C000FFF72CFA3B6901333B613B69012BE9DDF8
:1012D0000F23FB1800221A7030E00F23FB180122A5
:1012E0001A700023BB6026E0174BBA689200D358EF
:1012F0001800FFF700FE03001A003B001A60124BB3
:10130000BA689200D3581800FFF747FE031E03D0B7
:101310000F23FB1800221A703B001B785BB2002BD6
:1013200006D00C4BBA689200D2583B001868904720
:10133000BB680133BB60BB68012BD5DD0F23FB18F5
:101340001B78002BC9D0AAE700020020E809002082
:10135000F0090020F809002080B500AF054B1B689C
:101360005A1C044B1A60044B180003F06BFEC04675
:10137000BD4680BD440200200802002080B500AFB9
:10138000034B180003F0DAFFC046BD4680BDC046DF
:101390004802002080B582B000AF494B1B68DB6972
:1013A000202213403DD0474B474A9B5C01225340CB
:1013B000DBB2002B2BD0424B1B68596A414B434A8E
:1013C0009B5A1A00C9B23F4B99543E4B3F4A9B5A15
:1013D000013399B23B4B3D4A99523A4B3B4A9B5A97
:1013E0003B491800FEF726FF0B0099B2354B374AF0
:1013F0009952344A81239B00D25A324B33495B5A6B
:101400009A420ED12F4B304A0121995409E02C4BBE
:101410001B685A6AFB1D1A70FB1D1A78FB1D0132EE
:101420001A70274B1B68DB69402213403DD0294BC3
:10143000264A9A5A274981239B00CB5A9A4204D1C3
:10144000244B214A9B5C002B2BD0224A81239B00FA
:10145000D35A1A001F4B9A5C194B1B689A621D4A9B
:1014600081239B00D35A013399B21A4A81239B00EE
:10147000D152184A81239B00D35A15491800FEF710
:10148000D9FE0B0099B2134A81239B00D152114B14
:101490000D4A9B5C002B08D00A4B0B4A0021995443
:1014A00003E0074B1B6840221A62022000F044FD53
:1014B000034B180004F076FFC046BD4602B080BD65
:1014C000DC02002054050020060200000202000099
:1014D000010200004C03002080B500AF434B444A9A
:1014E0001A60424B962292015A60404B00229A6049
:1014F0003E4B0022DA603D4B00221A613B4B0C222E
:101500005A613A4B00229A61384B00221A62374BDB
:1015100000225A62354B00229A62344B8022920597
:101520005A66324B180003F0B3FE031E01D00023AD
:1015300058E02E4B0021180004F055FE031E01D088
:1015400000234FE0294B0021180004F08BFE031EFE
:1015500001D0002346E0274B274A1A60274B9622EA
:1015600092011A60254B00225A60244B00221A81F6
:10157000224B00225A81214B00229A811F4B1900D5
:10158000002000F091FD031E01D0FFF7CDF80122ED
:101590000121082000F072FF082000F084FF154BA5
:1015A0001B681A68134B1B6860210A431A60144AAF
:1015B00081239B000021D152114B124A00219952E4
:1015C0000F4B114A00219954104A81239B0000219E
:1015D000D1520E4B0B4A002199520C4B0A4A002162
:1015E000995401231800BD4680BDC0464802002022
:1015F00000500041DC020020004000413C0300207C
:101600004C030020020200000602000054050020E6
:1016100080B582B000AF1B4B1B4A9A5A19498123EF
:101620009B00CB5A9A4204D1164B184A9B5C002B64
:1016300023D0144A81239B00D35A1900FB1D114A61
:10164000525C1A700F4A81239B00D35A013399B21E
:101650000C4A81239B00D1520A4A81239B00D35A12
:101660000B491800FEF7E6FD0B0099B2054A8123ED
:101670009B00D152FB1D1B7800E025231800BD46BE
:1016800002B080BD540500200202000006020000E6
:101690000102000080B582B000AF0200FB1D1A708D
:1016A0001F4B204A9B5C01225340DBB2002B32D0FF
:1016B0001B4B1D4A9A5A1A4981239B00CB5A9A42C6
:1016C0000BD11A4B1B68DB698022134005D0174BE6
:1016D0001B68FA1D12789A621BE0114B124A9B5A42
:1016E00019000F4BFA1D12785A540D4B0E4A9B5A93
:1016F000013399B20A4B0C4A9952094B0A4A9B5A38
:101700000B491800FEF796FD0B0099B2044B064AF0
:101710009952002300E025231800BD4602B080BD89
:101720004C0300200602000002020000DC02002040
:101730000102000080B500AF0B4B0C4A9A5A0A49CF
:1017400081239B00CB5A9A4209D1074B084A9B5CE4
:1017500001225340DBB2002B01D0012300E0002323
:10176000DBB21800BD4680BD4C0300200202000021
:101770000602000080B582B000AF7860084B9A6A1C
:101780007B68D943064B0A409A62054BDA6A7B684C
:10179000D943034B0A40DA62C046BD4602B080BD61
:1017A0000000504880B584B000AF7860074B196DD9
:1017B000064B7A680A431A65044B1B6D7A6813401E
:1017C000FB60FB68C046BD4604B080BD00004048D9
:1017D00080B584B000AF7860074B596D064B7A68CE
:1017E0000A435A65044B5B6D7A681340FB60FB68E3
:1017F000C046BD4604B080BD0000404880B584B0FE
:1018000000AF7860074B996D064B7A680A439A657A
:10181000044B9B6D7A681340FB60FB68C046BD4675
:1018200004B080BD0000404880B500AF80235B005D
:101830001800FFF7CDFFC046BD4680BD90B58FB004
:1018400000AF78602423FB18180014231A0000212D
:1018500005F0B0F80C243B19180018231A000021D9
:1018600005F0A8F87B681B68294A93424CD13B19C4
:1018700010221A603B190022DA603B19180003F0AD
:1018800009FB031E01D0FEF74FFF80235B00180009
:10189000FFF7B4FF0820FFF785FF24243B19082237
:1018A0001A603B1902225A603B1900229A603B19C8
:1018B0000022DA603B1901221A613B19154A19000E
:1018C000100000F09FFE21007B1880221A607B1818
:1018D00002225A607B1800229A607B180022DA608C
:1018E0007B1803221A617B180A4A1900100000F0C5
:1018F00089FE8820FFF73EFF00220121092000F029
:10190000BDFD092000F0CFFDC046BD460FB090BD23
:10191000005000410000104880B500AFC046FDE710
:1019200080B500AFC046FDE780B500AFC046BD46FC
:1019300080BD80B500AFC046BD4680BD80B500AF5C
:1019400000F0CAFCC046BD4680BD80B500AF02F0C5
:10195000CCFDC046BD4680BD80B500AF02F0CEFDD7
:10196000C046BD4680BD80B500AF02F04AF8C04613
:10197000BD4680BD80B500AF02F06AF8C046BD46E6
:1019800080BD000080B586B000AF7860144A154B6A
:10199000D31A7B617B693B61134B1B68002B02D11F
:1019A000114B124A1A60104B1A687B68D3183A69B7
:1019B0009A4207D205F018F803000C221A6001239E
:1019C0005B4209E0084B1B68FB60074B1A687B68A9
:1019D000D218054B1A60FB681800BD4606B080BDE2
:1019E00000600020000C00005C0700208C0A002032
:1019F00090B583B000AF02003960FB1D1A70FB1D6B
:101A00001B787F2B28D82F4AFB1D1B785BB29B08C5
:101A1000C0339B009B58FA1D1278110003220A4024
:101A2000D200FF2191400A00D2431A4011003B68C6
:101A30009B01FF221A40FB1D1B7818000323034063
:101A4000DB009A401F48FB1D1B785BB29B080A43D2
:101A5000C0339B001A5031E01B4AFB1D1B78190054
:101A60000F230B40083B9B0806339B00D31804331D
:101A70001B68FA1D1278110003220A40D200FF21D0
:101A800091400A00D2431A4011003B689B01FF229B
:101A90001A40FB1D1B78180003230340DB009A400B
:101AA0000948FB1D1B781C000F232340083B9B08A3
:101AB0000A4306339B00C31804331A60C046BD4670
:101AC00003B090BD00E100E000ED00E080B500AFA4
:101AD000BFF34F8FC046044B044ADA60BFF34F8F09
:101AE000C046C046FDE7C04600ED00E00400FA0530
:101AF00090B587B000AF5E4A9423D358002B0ED127
:101B00005C4B1B69002B03D15A4B9B6B002B06D0FF
:101B1000594B01229A6000F0F5F8FFF7D7FF574BB9
:101B2000574A9A60554B9A68534B1A61514B5A6801
:101B3000504B20210A435A604E4B5A684D4B514935
:101B40000A405A60C0464B4B5B6904221340042B89
:101B5000F9D1484BDB69302293431A00454B2021D1
:101B60000A43DA61434BDA69424B47490A40DA617A
:101B7000404BDA693F4B802149000A43DA61434B0D
:101B80001B68434A934255D01F233B610823FB60E7
:101B90000A23BB6003237B60354BDB681E22934323
:101BA0001900FB685A00324B0A43DA60304BDA689E
:101BB0002F4B01210A43DA602D4BDB68354A134075
:101BC00019003B691A062A4B0A43DA60284BDA6887
:101BD000274B802109040A43DA60264A9423D3580C
:101BE0002D4A1A40BB689901F0239B000B40214904
:101BF000134394228B501F4A9423D3581D4920220B
:101C0000134394228B501B4A9423D358234A1A40DF
:101C10007B68D902E0239B010B40164913439422B1
:101C20008B50144A9423D35812498022D200134374
:101C300094228B501723FB1800221A700DE01724F2
:101C40003B191B785BB203211800FFF7D1FE21007E
:101C50007B181A787B1801321A701723FB181B782F
:101C60001F2BECD962B6C046C046BD4607B090BD3A
:101C700000004048000050480400002000ED00E053
:101C800000000410FFFEFFFFFFFBFFFFF81E001027
:101C9000CCECBCFCFFFFFFC03FFCFFFFFFC7FFFF1A
:101CA00080B582B000AF134B9B685B08DAB2FB1DB6
:101CB00001210A401A700F4B9B681B0ADAB2BB1D48
:101CC00007210A401A70FB1D1B78002B07D0BB1D93
:101CD0001B78013B084ADA40084B1A6005E0BB1D3F
:101CE0001B78074ADA40054B1A60C046BD4602B071
:101CF00080BDC046000040480048E801000A0020BE
:101D00000090D00380B500AFC046BD4680BD000046
:101D100010488546FFF7ECFE002103E00E4B5B58B0
:101D2000435004310D480E4B42189A42F6D30D4AE7
:101D300002E00023136004320B4B9A42F9D30B4AA2
:101D400002E0002313600432094B9A42F9D3FFF7F3
:101D50007BFAFEE700600020D4730410E80900203D
:101D60008C0A002094010020E8090020C000002017
:101D700094010020FEE7000080B500AF054B1B6812
:101D800010221340102B01D1012300E00023180082
:101D9000BD4680BD0000504880B582B000AF78607D
:101DA00039607B6804331A683B68D9437B68043325
:101DB0000A401A607B6819687B683A680A431A60AF
:101DC000C046BD4602B080BD80B584B000AF78602B
:101DD000074B196D064B7A680A431A65044B1B6D55
:101DE0007A681340FB60FB68C046BD4604B080BD06
:101DF0000000404880B584B000AF7860074B596D53
:101E0000064B7A680A435A65044B5B6D7A68134047
:101E1000FB60FB68C046BD4604B080BD0000404882
:101E200080B584B000AF7860074B996D064B7A6837
:101E30000A439A65044B9B6D7A681340FB60FB680C
:101E4000C046BD4604B080BD0000404890B589B092
:101E500000AF0200FB1D1A70FB1D1B78002B03D185
:101E60000820FFF7B1FF0AE0FB1D1B78012B03D10F
:101E70000820FFF7A9FF02E00820FFF7A5FFFB1DE0
:101E80001A78284B5200D35A1A000C243B191A60B6
:101E90003B1901225A603B1901229A603B19022228
:101EA000DA60FB1D1A78204B9200D3583A191100C2
:101EB000180000F0A7FBFFF75FFF031E1FD0FB1DFC
:101EC0001A78194B9200D2589023DB059A4206D11A
:101ED0003B191B68154A19001000FFF75DFFFB1D39
:101EE0001A78114B9200D358114A934207D10C2310
:101EF000FB181B680F4A19001000FFF74DFFFB1D70
:101F00001A78094B9200D058FB1D1A78054B5200E5
:101F1000D35A0122190000F03BFD00231800BD46F2
:101F200009B090BD040A00200C0A0020200050488F
:101F3000000010482800504880B582B000AF020071
:101F4000FB1D1A70FB1D1A78074B9200D058FB1D21
:101F50001A78064B5200D35A190000F036FD0023C0
:101F60001800BD4602B080BD0C0A0020040A002003
:101F700080B588B000AF0200FB1D1A70BB1D0A1CA3
:101F80001A700023FB61FB1D1B78002B03D104207A
:101F9000FFF71AFF0AE0FB1D1B78012B03D1082075
:101FA000FFF712FF02E00820FFF70EFFFB1D1A7873
:101FB000374B5200D35A1A0008217B181A607B183D
:101FC00001229A607B180222DA60BB1D1B78002B6D
:101FD0000CD17B1800225A60FB1D1A782D4B920001
:101FE000D3587A181100180000F00CFBBB1D1B78A9
:101FF000012B23D180235B001800FFF7FBFE082193
:102000007B18802252025A60FB1D1A78214B9200E5
:10201000D3587A181100180000F0F4FAFB1D1B7851
:102020001D4AD35600220321180000F027FAFB1D99
:102030001B78194AD356180000F035FAFFF79CFEBA
:10204000031E20D0FB1D1A78124B9200D258902309
:10205000DB059A4207D10823FB181B680F4A1900B9
:102060001000FFF799FEFB1D1A780A4B9200D35817
:102070000B4A934207D10823FB181B68094A190031
:102080001000FFF789FEFB691800BD4608B080BD4F
:10209000180A0020200A00202C0A002020005048A6
:1020A000000010482800504880B584B000AF0200FE
:1020B0003960FB1D1A700023FB603B68002B03D1C5
:1020C00002235B42FB6026E0FB1D1978FB1D1A789A
:1020D000134B8900C958134B94204243D150FB1D28
:1020E0001B7894225A430F4BD318180000F04EF877
:1020F000FB68002B0FD1FB1D1B7894225A43094B20
:10210000D3183A681100180000F00EF8031E02D030
:1021100004235B42FB60FB681800BD4604B080BD31
:10212000300A00206007002080B582B000AF7860E0
:1021300039603B681A687B685A603B685A687B68FC
:102140009A603B681B891A007B68DA603B685B8990
:102150001A007B681A617B680C225A613B689B8974
:102160001A007B689A617B6880221202DA617B68C0
:1021700000221A627B6800225A627B68180003F012
:1021800087F803001800BD4602B080BD90B589B045
:1021900000AF78600420FFF717FE0820FFF714FE59
:1021A0008023DB001800FFF73BFE0C243B190222C2
:1021B0001A603B1902225A603B190222DA603B196D
:1021C00001229A603B1902221A613A199023DB0519
:1021D0001100180000F016FAFFF7CEFD031E06D01E
:1021E0003B191B680A4A19001000FFF7D5FD0C21A6
:1021F0007B1801221A607B1800221A617B18054A9D
:102200001900100000F0FEF9C046BD4609B090BDAF
:10221000200050480000104880B582B000AFFB1D80
:1022200000221A70032000F00FF8031E03D0FB1DDC
:1022300001221A7001E0FFF7F7FAFB1D1B78180066
:10224000BD4602B080BD000090B585B000AF78609B
:102250000F23FB1800221A701D4B1B78002B2CD06B
:1022600002F02EFD04001A4B1B781900FA23980087
:10227000FDF75AFF030019002000FDF755FF03008A
:10228000180000F020F9031E12D17B68032B0AD836
:10229000796801235B420022180000F0EFF80D4B33
:1022A0007A681A600DE00F23FB1801221A7008E00B
:1022B0000F23FB1801221A7003E00F23FB180122E1
:1022C0001A700F23FB181B781800BD4605B090BD8F
:1022D000380A0020340A002080B500AF054B1B7877
:1022E0001A00054B1B68D218034B1A60C046BD4646
:1022F00080BDC046380A0020F407002080B500AF3A
:10230000024B1B681800BD4680BDC046F407002084
:1023100080B500AF024B1B681800BD4680BDC046AB
:10232000340A002080B582B000AF0200FB1D1A7095
:10233000FB1D1B787F2B09D8FB1D1B781A001F2360
:102340001A40044B012191400A001A60C046BD4664
:1023500002B080BD00E100E090B583B000AF0200A4
:102360003960FB1D1A70FB1D1B787F2B28D82F4A64
:10237000FB1D1B785BB29B08C0339B009B58FA1D6A
:102380001278110003220A40D200FF2191400A0076
:10239000D2431A4011003B689B01FF221A40FB1DEB
:1023A0001B78180003230340DB009A401F48FB1DE5
:1023B0001B785BB29B080A43C0339B001A5031E084
:1023C0001B4AFB1D1B7819000F230B40083B9B0881
:1023D00006339B00D31804331B68FA1D12781100D2
:1023E00003220A40D200FF2191400A00D2431A4042
:1023F00011003B689B01FF221A40FB1D1B7818004F
:1024000003230340DB009A400948FB1D1B781C0096
:102410000F232340083B9B080A4306339B00C31845
:1024200004331A60C046BD4603B090BD00E100E031
:1024300000ED00E080B582B000AF78607B685A1E86
:1024400080235B049A4201D3012310E00A4B7A688F
:10245000013A5A6001235B4203211800FFF77CFF19
:10246000054B00229A60044B07221A6000231800D3
:10247000BD4602B080BDC04610E000E080B584B02B
:1024800000AFB9607A600F217B18021C1A70BA681D
:102490007B181B785BB211001800FFF75DFFC04688
:1024A000BD4604B080BD80B582B000AF0200FB1D08
:1024B0001A70FB1D1B785BB21800FFF733FFC04694
:1024C000BD4602B080BD80B582B000AF78607B6849
:1024D0001800FFF7AFFF03001800BD4602B080BD33
:1024E00080B582B000AF78607B68002B01D10123FA
:1024F00031E07B6825229B5CDBB2022B08D07B6835
:102500000422DA637B68242200219954012322E00B
:102510007B681B681A687B681B680E218A431A60F7
:102520007B681B681A687B681B6801218A431A60F4
:102530007B685B6C3C221A407B681B6C01219140DC
:102540000A005A607B682522012199547B68242265
:102550000021995400231800BD4602B080BD80B50B
:1025600084B000AF78600F217B1800221A707B685E
:1025700025229B5CDBB2022B06D07B680422DA6347
:102580007B1801221A702AE07B681B681A687B6836
:102590001B680E218A431A607B681B681A687B6877
:1025A0001B6801218A431A607B685B6C3C221A40DD
:1025B0007B681B6C012191400A005A607B682522D0
:1025C000012199547B682422002199547B689B6BDC
:1025D000002B04D07B689B6B7A68100098470F2310
:1025E000FB181B781800BD4604B080BD80B582B0D2
:1025F00000AF78607B6825229B5CDBB21800BD468B
:1026000002B080BD80B586B000AF7860396000232D
:102610007B6194E13B681B6801217A6991400A0063
:102620001340FB60FB68002B00D185E13B685B68D1
:1026300003221340012B05D03B685B680322134043
:10264000022B30D17B689B683B617B695B00032276
:102650009A401300DA433B6913403B613B68DA68F8
:102660007B695B009A4013003A6913433B617B68C6
:102670003A699A607B685B683B6101227B699A409A
:102680001300DA433B6913403B613B685B681B09FD
:1026900001221A407B699A4013003A6913433B6157
:1026A0007B683A695A603B685B6803221340032BDE
:1026B00017D07B68DB683B617B695B0003229A4033
:1026C0001300DA433B6913403B613B689A687B69BE
:1026D0005B009A4013003A6913433B617B683A6997
:1026E000DA603B685B6803221340022B23D17B69CD
:1026F000DA087B6808329200D3583B617B69072275
:1027000013409B000F229A401300DA433B691340A9
:102710003B613B681A697B6907210B409B009A402B
:1027200013003A6913433B617B69DA087B6808321E
:1027300092003969D1507B681B683B617B695B0003
:1027400003229A401300DA433B6913403B613B6824
:102750005B6803221A407B695B009A4013003A6968
:1027600013433B617B683A691A603B685A68C0232F
:102770009B02134000D1DFE03B685A688023DB02F4
:10278000134031D08023DB05DB683B617A689023FE
:10279000DB059A4211D101227B699A401300DB4389
:1027A0001A003B6913403B6101227B699A40130088
:1027B0001A003B6913433B6112E001227B699A4096
:1027C00013001B04DB431A003B6913403B610122E9
:1027D0007B699A4013001B041A003B6913433B6159
:1027E0008023DB053A69DA603B685A6880235B0323
:1027F000134031D08023DB051B693B617A6890234D
:10280000DB059A4211D101227B699A401300DB4318
:102810001A003B6913403B6101227B699A40130017
:102820001A003B6913433B6112E001227B699A4025
:1028300013001B04DB431A003B6913403B61012278
:102840007B699A4013001B041A003B6913433B61E8
:102850008023DB053A691A613B685A688023DB03F1
:10286000134031D08023DB055B693B617A6890239C
:10287000DB059A4211D101227B699A401300DB43A8
:102880001A003B6913403B6101227B699A401300A7
:102890001A003B6913433B6112E001227B699A40B5
:1028A00013001B04DB431A003B6913403B61012208
:1028B0007B699A4013001B041A003B6913433B6178
:1028C0008023DB053A695A613B685A6880235B02C2
:1028D000134031D08023DB059B693B617A689023EC
:1028E000DB059A4211D101227B699A401300DB4338
:1028F0001A003B6913403B6101227B699A40130037
:102900001A003B6913433B6112E001227B699A4044
:1029100013001B04DB431A003B6913403B61012297
:102920007B699A4013001B041A003B6913433B6107
:102930008023DB053A699A617B6901337B613B68DF
:102940001A687B69DA40131E00D063E6C046C046B1
:10295000BD4606B080BD80B584B000AF78600A0087
:10296000BB1C1A807B681B69BA1C1288134004D0F8
:102970000F23FB1801221A7003E00F23FB1800221B
:102980001A700F23FB181B781800BD4604B080BDD9
:1029900080B582B000AF786008001100BB1C021C3B
:1029A0001A807B1C0A1C1A707B1C1B78002B04D01D
:1029B000BB1C1A887B689A6103E0BB1C1A887B6881
:1029C0009A62C046BD4602B080BD80B584B000AFFB
:1029D00078600A00BB1C1A807B685B69FB60BB1CCB
:1029E0001B88FA6813401A04FB68DB43B91C09888A
:1029F0000B401A437B689A61C046BD4604B080BD57
:102A000080B584B000AF78607B681B689B69FB6011
:102A10007B681B681B68BB607B685B6B002B05D009
:102A20007B685B6BBA68F96878689847C046BD46B2
:102A300004B080BD80B586B000AF78607B681B684D
:102A40009B697B617B681B681B683B617A6980239B
:102A50005B0013400ED03B69802213400AD07B6894
:102A60005B6C01221A437B685A647B681B68802276
:102A70005200DA617A698023DB0013400ED03B6993
:102A8000802213400AD07B685B6C08221A437B6863
:102A90005A647B681B688022D200DA617A698023DD
:102AA0009B0013400ED03B69802213400AD07B6804
:102AB0005B6C02221A437B685A647B681B68802225
:102AC0009200DA617B685B6CFB60FB680B22134051
:102AD00005D0FA687B681100180000F025FCC0469C
:102AE000BD4606B080BD80B582B000AF7860C046FC
:102AF000BD4602B080BD80B582B000AF7860C046F0
:102B0000BD4602B080BD80B582B000AF78600800DD
:102B10001100FB1C021C1A703B000A1C1A80C046E4
:102B2000BD4602B080BD80B582B000AF7860C046BF
:102B3000BD4602B080BD80B582B000AF7860C046AF
:102B4000BD4602B080BD80B582B000AF7860C0469F
:102B5000BD4602B080BD000080B586B000AFF86011
:102B6000B9607A60FB68DB6A7B61BB683B61FB68CC
:102B700040229B5C012B01D10223E7E0FB6840224D
:102B8000012199543B69202213400AD07B682022FE
:102B9000134006D03A69FB681100180000F0E4F910
:102BA000CFE03B691022134052D07B6810221340C3
:102BB0004ED0FB685B8D9BB2002B2DD1FB68412270
:102BC0009B5CDBB2282B0BD17A6980239B049A4251
:102BD00006D13A69FB681100180000F04DFB36E0A1
:102BE000FB6841229B5CDBB2292B10D17B69594ADF
:102BF00093420CD0FB681B681022DA61FB68180056
:102C000000F0BDFCFB68180000F04AF91FE0FB680B
:102C10001B681022DA6191E0FB681B681022DA6100
:102C2000FB685B6C04221A43FB685A647B69002BC7
:102C300005D07A6980235B049A4200D07EE0FB686D
:102C40005A6CFB681100180000F06EFB76E075E02E
:102C50003B69042213402FD07B68042213402BD001
:102C6000FB685B8D9BB2002B18D0FB681B685A6A0F
:102C7000FB685B6AD2B21A70FB685B6A5A1CFB681D
:102C80005A62FB681B8D013B9AB2FB681A85FB6890
:102C90005B8D9BB2013B9AB2FB685A85FB685B8DEA
:102CA0009BB2002B4CD17B692A4A934248D0FB68E7
:102CB000180000F0F5F843E03B69082213400AD001
:102CC0007B680822134006D03A69FB68110018009F
:102CD00000F042F835E03B690222134031D07B68B6
:102CE000022213402DD0FB685B8D9BB2002B18D0C5
:102CF000FB685B6A1A78FB681B689A62FB685B6A10
:102D00005A1CFB685A62FB685B8D9BB2013B9AB20E
:102D1000FB685A85FB681B8D013B9AB2FB681A85DC
:102D20000FE07A6980235B049A4202D07B69002B12
:102D300007D1FB68180000F0B3F802E0C04600E0DD
:102D4000C046FB6840220021995400231800BD466C
:102D500006B080BD0000FFFFB0B584B000AF786062
:102D600039607B6841229B5CDBB21A002823134048
:102D7000282B00D088E07B681B689B691B0CDAB2AB
:102D80000F257B1901210A401A707B681B689B691B
:102D90001B0C9AB20C203B18FE210A401A807B685B
:102DA0001B689B689AB20A243B199205920D1A80FF
:102DB0007B681B68DB689AB20823FB18FE210A4077
:102DC0001A807B68DB68022B48D121007B181B88A6
:102DD000DB099AB23B181B8853409BB21A000623AA
:102DE000134020D13B187A1812881A807B689B6C9C
:102DF0005A1C7B689A647B689B6C022B4CD17B6865
:102E000000229A647B681B680822DA617B68402292
:102E1000002199543B181A887B1919787B6818008F
:102E2000FFF771FE38E00C243B190822BA1812880B
:102E30001A8080231A027B681100180000F0E0FB62
:102E40007B684022002199543B191A880F23FB18F4
:102E500019787B681800FFF756FE1DE080231A02E0
:102E60007B681100180000F0CBFB7B68402200213A
:102E700099540C23FB181A880F23FB1819787B68C8
:102E80001800FFF740FE07E07B681B680822DA6144
:102E90007B68402200219954C046BD4604B0B0BDB5
:102EA00080B584B000AF78607B681B681B68FB60EE
:102EB0007B68422200219954FA688023DB01134089
:102EC00008D07B681B681A687B681B6824490A4025
:102ED0001A600CE0FA6880231B02134007D07B685D
:102EE0001B681A687B681B681E490A401A607B6869
:102EF00041229B5CDBB2292B14D17B684122282123
:102F000099547B6821221A637B680121180000F024
:102F100077FB7B684022002199547B681800FFF7FB
:102F2000E2FD19E07B6841229B5CDBB22A2B13D1C6
:102F30007B684122282199547B6822221A637B688E
:102F40000221180000F05CFB7B68402200219954AC
:102F50007B681800FFF7CFFDC046BD4604B080BDBA
:102F6000FFBFFFFFFF7FFFFF80B586B000AF786037
:102F700039607B681B681B683B613B687B617B68D1
:102F8000DB6AFB600B203B187A684121525C1A70A7
:102F90007B681B682022DA613B181B78212B03D049
:102FA0003B181B78292B09D1AC4A7B68110018000B
:102FB00000F026FB7B6821221A6320E00B22BB185D
:102FC0001B78222B03D0BB181B782A2B09D1A44ACB
:102FD0007B681100180000F013FB7B6822221A6343
:102FE0000DE00B23FB181B78282B08D19D4A7B682A
:102FF0001100180000F004FB7B6800221A637B6854
:103000001B685A687B681B68802109020A435A6062
:103010007B681B685A687B681B6893490A405A6042
:103020007B68180000F0ABFA3A698023DB0113409B
:1030300013D07B681B681A687B681B688B490A4041
:103040001A607B689B6B002B1FD07B689B6B1B6897
:103050005B689AB27B685A8517E03A6980231B0245
:10306000134012D07B681B681A687B681B68804914
:103070000A401A607B68DB6B002B06D07B68DB6B39
:103080001B685B689AB27B685A857B69042213408F
:1030900020D07B69042293437B617B681B685A6A5A
:1030A0007B685B6AD2B21A707B685B6A5A1C7B6869
:1030B0005A627B681B8D002B0CD07B681B8D013BFB
:1030C0009AB27B681A857B685B8D9BB2013B9AB292
:1030D0007B685A857B685B8D9BB2002B05D07B6833
:1030E0005B6C04221A437B685A647B69102213408C
:1030F0004FD03B69102213404BD07B685B8D9BB255
:10310000002B2DD17B6841229B5CDBB2282B0BD19D
:10311000FA6880239B049A4206D17A697B68110081
:10312000180000F0A9F834E07B6841229B5CDBB218
:10313000292B10D1FB684F4A93420CD07B681B6847
:103140001022DA617B68180000F019FA7B68180019
:10315000FFF7A6FE1DE07B681B681022DA6118E00D
:103160007B681B681022DA617B685B6C04221A435F
:103170007B685A64FB68002B04D0FA6880235B04E8
:103180009A4206D17B685A6C7B681100180000F0E7
:10319000CBF87B684222002199547B6800225A6355
:1031A0007B685B6C002B13D07B685A6C7B681100CA
:1031B000180000F0B9F87B6841229B5CDBB2282B39
:1031C00047D17A697B681100180000F055F840E09B
:1031D0007B68DB6A274A934216D07B681800FFF7AA
:1031E0005FFE7B68234ADA627B6841222021995482
:1031F0007B6800221A637B684022002199547B6817
:103200001800FFF790FC24E07B6841229B5CDBB256
:10321000222B0FD17B684122202199547B68002208
:103220001A637B684022002199547B681800FFF7DD
:1032300062FC0EE07B684122202199547B680022C9
:103240001A637B684022002199547B681800FFF7BD
:103250004AFCC046BD4606B080BDC04601800000A5
:10326000028000000380000000E800FEFFBFFFFFB7
:10327000FF7FFFFF0000FFFF80B582B000AF7860E6
:1032800039607B68264ADA627B6800221A637B68B1
:103290004122202199547B684222002199547B6865
:1032A00000225A633B680422134022D07B681B68CB
:1032B0005A6A7B685B6AD2B21A707B685B6A5A1C76
:1032C0007B685A627B681B8D002B12D07B681B8D3C
:1032D000013B9AB27B681A857B685B8D9BB2013B90
:1032E0009AB27B685A857B685B6C04221A437B68C0
:1032F0005A640C4A7B681100180000F081F97B6861
:103300001B681022DA617B684022002199547B6897
:103310001800FFF708FCC046BD4602B080BDC0469D
:103320000000FFFF0380000080B584B000AF78602C
:1033300039600F203B187A684121525C1A707B6813
:103340004222002199547B68724ADA627B6800222B
:103350005A857B685A6C3B681A437B685A643B18F1
:103360001B78282B07D03B181B78292B03D03B1840
:103370001B782A2B0CD17B680321180000F040F940
:103380007B684122282199547B68634A5A6332E062
:10339000624A7B681100180000F032F97B6818005F
:1033A00000F0EDF87B6841229B5CDBB2602B1FD004
:1033B0007B684122202199547B681B689B692022ED
:1033C0001340202B14D17B681B689B69102213408B
:1033D000102B09D17B681B681022DA617B685B6C5B
:1033E00004221A437B685A647B681B682022DA61D6
:1033F0007B6800225A637B681B6BBB607B689B6B9E
:10340000002B3BD0BB68112B02D0BB68212B35D1E0
:103410007B681B681A688023DB011A408023DB016C
:103420009A4207D17B681B681A687B681B683C4915
:103430000A401A607B689B6B1800FFF7D7F80300FF
:10344000012B16D07B689B6B364A9A637B684022BF
:10345000002199547B689B6B1800FFF780F8031ECE
:1034600051D07B689B6B9A6B7B689B6B1800904775
:1034700049E07B68180000F059F844E07B68DB6B9A
:10348000002B3BD0BB68122B02D0BB68222B35D15E
:103490007B681B681A6880231B021A4080231B026A
:1034A0009A4207D17B681B681A687B681B681E49B3
:1034B0000A401A607B68DB6B1800FFF797F803007F
:1034C000012B16D07B68DB6B164A9A637B6840221F
:1034D000002199547B68DB6B1800FFF740F8031E4E
:1034E00013D07B68DB6B9A6B7B68DB6B18009047B3
:1034F0000BE07B68180000F019F806E07B68180004
:1035000000F014F802E0C04600E0C046C046BD46E8
:1035100004B080BD0000FFFF592B041003800000A1
:10352000FFBFFFFFC3350410FF7FFFFF80B582B0F0
:1035300000AF78607B6841229B5CDBB2602B0FD1CF
:103540007B684122202199547B6800221A637B68A2
:103550004022002199547B681800FFF7F4FA0AE032
:103560007B6800221A637B684022002199547B68A3
:103570001800FFF7E0FAC046BD4602B080BD80B536
:1035800082B000AF78607B681B689B6902221340A1
:10359000022B03D17B681B6800229A627B681B6840
:1035A0009B6901221340012B07D07B681B689A6935
:1035B0007B681B6801210A439A61C046BD4602B080
:1035C00080BD80B584B000AF78607B689B6AFB608B
:1035D000FB689B6B002B03D0FB689B6B00229A63FC
:1035E000FB68DB6B002B03D0FB68DB6B00229A636C
:1035F000FB681800FFF79AFFC046BD4604B080BDC7
:1036000080B584B000AF78600A00BB1C1A8000232C
:10361000FB60BB1C1B880122134010D0FB684222B8
:103620001343FB607B6841229B5CDBB21A002823BA
:103630001340282B03D0FB68B0221343FB60BB1C54
:103640001B880222134010D0FB6844221343FB6006
:103650007B6841229B5CDBB21A0028231340282B95
:1036600003D0FB68B0221343FB60BB1C00229B5EAF
:10367000002B03DAFB68B8221343FB60BB1C1B88DA
:10368000102B03D1FB6890221343FB60BB1C1B88EB
:10369000202B03D1FB6820221343FB60BB1C1B883B
:1036A000402B03D1FB6840221343FB607B681B68FF
:1036B0001A68FB68D9437B681B680A401A60C046D9
:1036C000BD4604B080BD80B582B000AF78607B6835
:1036D000DB68032293431A007B68DA60C046BD466C
:1036E00002B080BD80B582B000AF78607B68DB68D7
:1036F000032293431A007B68DA60C046BD4602B0DD
:1037000080BD000080B582B000AF78607B689B6AA6
:10371000034A1A407B689A62C046BD4602B080BD2B
:10372000FFFFFFBF80B586B000AF244AA9239B00EE
:10373000D358FB60214AAA239B00D358BB60BB68C7
:103740001B021B041A0CFB68FF210B4013433B6157
:103750001A4AAB239B00D3587B603B69002B02D0F5
:103760007B680B2B02D97F237B6120E07A681300F2
:103770005B009B185B00773B7B6105E07B69063350
:103780007B613B695B083B613B691E2BF6D83A695C
:1037900013005B009B189B009B185B019B18084A59
:1037A000944663449B0A1A007B699B187B617B6982
:1037B0005BB21800BD4606B080BDC0460014006074
:1037C000A046000090B589B000AF78607A68802389
:1037D0009B04134000D1FBE0C023DB05DB694022E2
:1037E000134019007C4B9B687A680A43DA607A4B75
:1037F0009B681A6B784B9B68180090470300012B5D
:1038000004D1754B9B689B6AFB6103E0724B9B681C
:10381000DB6AFB61FB69002B16D1C023DB051800B6
:10382000FFF751FFC023DB051800FFF75BFF6B4B71
:103830001800FFF767FF6A4B1B79DBB2684A7F21EC
:103840000B40DBB213718FE0FB691B786449802267
:1038500052421343DBB20B71FB691833BB61FB6946
:103860001B781A005C2353435E4A944663441B78DA
:10387000DBB25BB27F2213405AB2FB6938215B5C3A
:103880005BB213435AB2FB691B7819005C234B43AC
:1038900054498C466344D2B21A70FB691B781A00F3
:1038A0005C2353434F4A94466344BA695A60FB69A8
:1038B0001B781A005C2353434A4A94466344BA690E
:1038C0009A60FB691B781A005C235343454A94466F
:1038D0006344FA6991782B229954FB695B781A004A
:1038E0000423134040D0C023DB051800FFF7EBFE94
:1038F000C023DB051800FFF7F5FEFB695B781A00B3
:10390000202313401ED000F02BFA02000B001400FD
:10391000FB695B68180000F015FA0300E3187B618F
:10392000FB6938229B5C803B5A425341DBB2190051
:10393000FB695B7801221340DAB27B69180000F062
:103940009FF911E0FB695868FB6938229B5C803B5A
:103950005A425341DBB21900FB695B7801221340E4
:10396000DBB21A0000F08CF97B68002B04DB7A686C
:103970008023DB05134012D0FFF7D4FE03001A00AA
:10398000154B9B685A610823FB18180000F064F976
:1039900002000B001049896813000B610BE07A6884
:1039A0008023DB04134006D0FFF7BCFE03001A009F
:1039B000094B9B685A61084B9B683B61064BFA694F
:1039C0009A603B695B6BF9693A6910009847C04699
:1039D000C046BD4609B090BDF80700200018006041
:1039E000C0000020DC00002080B582B000AF78600D
:1039F000C046BD4602B080BD80B500AFC046BD46E2
:103A000080BD80B582B000AFC023DB05DB697B6081
:103A1000C023DB055B683B60C023DB053A685A6066
:103A200000F084F97A683B6813431800FFF7CAFE78
:103A30007A683B6813431800FFF7D6FF00F070F96F
:103A4000C023DB055B683B60C046BD4602B080BD5D
:103A500080B500AFFFF7D0FFC046BD4680BD80B542
:103A600082B000AF78607B68DB6803229343022258
:103A70001A437B68DA60C046BD4602B080BD80B59F
:103A800082B000AF78607B68DB68032293431A0042
:103A90007B68DA60C046BD4602B080BD80B582B0AA
:103AA00000AF78607B68DB68032293431A007B6871
:103AB000DA60C046BD4602B080BD80B582B000AFBE
:103AC000786039607B683A681A61C046BD4602B0CA
:103AD00080BD80B582B000AF78607B689B6A802231
:103AE000D2051A437B689A62C046BD4602B080BDCB
:103AF00080B582B000AF78607B689B6A034A1A4049
:103B00007B689A62C046BD4602B080BDFFFFFFBF22
:103B100080B582B000AF78607B681B6B8022D205D5
:103B20001A437B681A63C046BD4602B080BD0000E0
:103B300080B582B000AF78607B681B6B034A1A4087
:103B40007B681A63C046BD4602B080BDFFFFFFBF61
:103B500080B582B000AF786039607B683A685A629D
:103B6000C046BD4602B080BD80B582B000AF78606F
:103B700039607B683A68DA62C046BD4602B080BDF3
:103B800080B582B000AF78607B681B691800BD46C5
:103B900002B080BD80B582B000AF78607B689B6A60
:103BA000802292051A437B689A62C046BD4602B0E5
:103BB00080BD000080B582B000AF78600A00FB1CB9
:103BC0001A70084B9B6A072293431900FB1C1B7851
:103BD00007221A40034B0A439A62C046BD4602B010
:103BE00080BDC0460018006080B582B000AF78602C
:103BF0007B68DB6C01221A437B68DA64C046BD46F1
:103C000002B080BD80B582B000AF78607B68DB6CAD
:103C100001221340012B01D1012300E000231800F1
:103C2000BD4602B080BD80B582B000AF78607B68D1
:103C300000229A60C046BD4602B080BD80B582B009
:103C400000AF78607B681B6901221A437B681A61A8
:103C5000C046BD4602B080BD80B582B000AF78607E
:103C6000C023DB055B697A681100180000F008FCCE
:103C700002000B0010001900BD4602B080BD00001C
:103C8000F0B585B000AF786008001100FB1C021C85
:103C90001A70BB1C0A1C1A700F26BB1900221A705E
:103CA000FB1C1B785A1E9341D9B21B4B64229954BA
:103CB000BB1C1B785A1E9341D9B2174B60229954F2
:103CC000154B9A6ADB6A1449886AC96A7968091AC5
:103CD0000C0000210D0012196B410F498A65CB655C
:103CE0000D4B6122002199540B4B63220021995402
:103CF000094B622201219954BA19084B110018008E
:103D000000F04CFA012000F0F1F9BB191B78180003
:103D1000BD4605B0F0BDC046080800206008002080
:103D200080B500AFC046BD4680BD000080B500AF85
:103D3000034B632200219954C046BD4680BDC04656
:103D40000808002080B582B000AF78607B6818005A
:103D500000F0B2F803001800BD4602B080BD0000BC
:103D600080B582B000AF3A1D054B1100180000F07D
:103D7000CDF802000B0010001900BD4602B080BD56
:103D80000808002090B589B000AF7860284B8C22DD
:103D90009B587A681100180000F0D4F90300FB6109
:103DA0000F217B1800221A707B6800221A73204BA7
:103DB0008C229B58FA699A4231D00C007A18FB6920
:103DC0001100180000F00AF90200194B8C215A501A
:103DD0003B191B78002B26D0EFF310837B617B69A6
:103DE000BB6172B6C046124B91229B5C0133104AF4
:103DF0009221525C934203D10D4B91229B5C04E0D3
:103E00000B4B91229B5C0133DBB2094A9121535445
:103E1000BB693B613B6983F31088C04603E0044BF8
:103E20008C21FA695A50C046BD4609B090BDC046C3
:103E30000808002080B582B000AF00237B607B685B
:103E4000134B1800FFF774FE124B91229B5C013359
:103E5000104A9221525C934203D10E4B91229B5CFB
:103E600004E00C4B91229B5C0133DBB2094A9121A7
:103E70005354074B1800FFF7B7FE054B1800FFF728
:103E8000C1FE03007B60C046BD4602B080BDC04697
:103E9000001800600808002080B500AF054B18002E
:103EA000FFF7CCFE034B1800FFF7BDFEC046BD4632
:103EB00080BDC0460010006080B584B000AF78605F
:103EC0007B6868225343FB607B68DB225343BB6003
:103ED000FB681A0ABB681B0CD3181800BD4604B057
:103EE00080BD000080B582B000AF7860064B1B78C3
:103EF000002B01D0FFF7D0FF034B01221A72C046FE
:103F0000BD4602B080BDC04608080020B0B58AB0EA
:103F100000AFF860B960EFF310837B617B69FB61F0
:103F200072B6C046FB681A6F5B6F3A627B62294BC0
:103F30001800FFF725FE0200BB681A60BB681A680C
:103F4000FB6880215B58D31ABB61FB68DB691900F1
:103F5000214ABB691800FCF7B3F803003B6000235B
:103F60007B603A6A7B6A3868796812184B413A621A
:103F70007B62FB689A6FDB6F796A994205D3796A35
:103F8000994215D1396A914212D2FB68DB69190056
:103F9000114A01235B421800FCF792F803001C0051
:103FA00000231D003A6A7B6A12196B413A627B62F8
:103FB000F9683A6A7B6A8A67CB67FB693B613B6950
:103FC00083F31088C0463A6A7B6A10001900BD4628
:103FD0000AB0B0BD0018006035060000B0B58AB068
:103FE00000AF786039607B687B627B683B623B68CE
:103FF00000221A7033E07B6A1B7B002B2CD0EFF37E
:104000001083FB60FB68FB6172B6C0467B6A1C686C
:104010005D68FFF7A5FE02000B00A41A9D41220077
:104020002B003A617B617B69002B05DC7B69002BEF
:1040300008D13B69002B05D03B690121180000F035
:104040001DF802E03B6801221A70FB69BB60BB6887
:1040500083F31088C04605E07B6A1B697B627B6A3C
:10406000002BC8D13B681B78002B01D03B6A00E0D5
:104070007B6A1800BD460AB0B0BD000080B584B0B0
:1040800000AF78600A00FB1C1A70154B9B69190081
:10409000144A7B681800FCF713F803007B607B6808
:1040A000202B00D220237B600F4B1800FFF768FD08
:1040B0000300FB607A68FB68D31808330A4A1900CA
:1040C0001000FFF751FD084B1800FFF763FD064B8A
:1040D0001800FFF71DFDFB681800BD4604B080BD49
:1040E00008080020260300000018006080B582B098
:1040F00000AF0200FB1D1A70FB1D1B78002B10D0B7
:104100000E4B90229B5C01225340DBB2002B10D05F
:104110000B4B1800FFF7E6FE084B90220121995443
:1041200007E0074B1800FFF72DFE044B90220021FB
:104130009954C046BD4602B080BDC0460808002064
:104140004808002080B586B000AF786039607B6891
:104150007B6100233B617B68FB6004E07B693B6122
:104160007B691B697B617B69002B03D07A693B68A3
:104170009A42F3D17B69002B0BD07A697B689A4213
:1041800003D17B691B69FB6003E07B691A693B69AA
:104190001A61FB681800BD4606B080BDB0B58AB094
:1041A00000AF786039603B6800221A707B689B7AA8
:1041B000002B00D170E03A4B9A6ADB6A38494968B3
:1041C0000C0000210D0012196B413A627B62EFF383
:1041D0001083FB60FB68FB6172B6C046FFF7C0FD51
:1041E00002000B003A617B617B681A685B68386A81
:1041F000796AC824A402002500196941994212D89D
:1042000001D190420FD83A6A7B6AB9204000002160
:1042100012184B417969994205D87969994235D18B
:104220003969914232D97B681A685B684C204042F8
:10423000C117801859413A697B690A24002512196F
:104240006B41994202D81AD1904218D97B681A68FA
:104250005B6810007B68197B7B681B7A1A0000F092
:1042600021F803001A003B681A707B6800229A72DA
:104270007B6801225A727B680122DA7206E0084BE1
:104280006222002199543B6801221A70FB69BB60CD
:10429000BB6883F31088C046C046BD460AB0B0BDB7
:1042A0000808002080B58AB000AF786008001100CF
:1042B000FB1C021C1A70BB1C0A1C1A70FB1C1B780E
:1042C000002B15D0BB1C1B78002B08D0674B382265
:1042D0009B5C3B62654B3C229B5CFB611DE0634B3E
:1042E00039229B5C3B62614B3C229B5CFB6114E08E
:1042F000BB1C1B78002B08D05C4B3A229B5C3B62BA
:104300005A4B3C229B5CFB6107E0584B3B229B5C79
:104310003B62564B3C229B5CFB610C23FA18534BCF
:1043200011001800FFF7F2FD02000B007B689B1ADA
:104330007B614E4B9B6919004D4A7B691800FBF766
:10434000BFFE03003B61494B9A6EFB69D318C8332B
:104350007A699A422FD9474B5B79DBB21A003B69E5
:104360009A1A3B6AD31A7B62FA687B6AD318424A6C
:1043700019001000FFF7ECFB3F4B00211800FFF77E
:1043800019FCC023DB051800FFF779FBC023DB0510
:104390001800FFF783FB384B1800FFF79AFB364BEA
:1043A0001800FFF7F7FB334B5B79DBB21A003B6A6F
:1043B0009B183B6221E02D4B3D229B5C1A003B6920
:1043C0009A1A3B6AD31A7B62FA687B6AD218C023B6
:1043D000DB0511001800FFF770FB274B1800FFF7F3
:1043E00087FBC023DB051800FFF739FB1F4B3D227D
:1043F0009B5C1A003B6A9B183B62FA683B69D218C7
:104400001A4B88215A507A6A3B6AD2183B6A0533A4
:104410009A4212D2C023DB051800FFF730FBC023FD
:10442000DB051800FFF73AFB134B1800FFF760FBA2
:104430001B23FB1801221A7010E00C4BDB691900DA
:104440000E4A3B6A1800FBF73BFE0300D9B2074B4C
:10445000842299541B23FB1800221A701B23FB187B
:104460001B781800BD460AB080BDC0460808002071
:1044700026030000C0000020001800603506000080
:10448000B0B584B000AF786039600823FA18124BD9
:1044900011001800FFF73AFD02000B0039680A60AE
:1044A0004B60BA687B68D01A0B4BDB6919000B4B69
:1044B0001A00FBF705FE0300FB603B681A685B68A7
:1044C000F9680C0000210D00121BAB41100019000F
:1044D000BD4604B0B0BDC046080800203506000047
:1044E00080B500AFC046BD4680BD80B500AFFFF7C8
:1044F000A1FCFFF7F5FFC046BD4680BD80B582B088
:1045000000AF00237B607B68C023DB055A6FC023AC
:10451000DB0501210A435A67C023DB055B6F7B6023
:10452000C046BD4602B080BD80B582B000AF7860A5
:10453000084B9A6A7B68D943064B0A409A62054B3E
:10454000DA6A7B68D943034B0A40DA62C046BD464B
:1045500002B080BD0000504880B500AF044B1A681F
:10456000034B802149020A431A60C046BD4680BD04
:104570000000404880B500AF044B1A68034B044963
:104580000A401A60C046BD4680BDC0460000404893
:10459000FFFFFEFF80B500AF074B1A6880239B0228
:1045A0001A4080239B029A4201D1012300E000239C
:1045B0001800BD4680BDC0460000404880B582B0AE
:1045C00000AF78600B4A9823D3580B4A1A407B6897
:1045D0001B020849134398228B50064A9823D3584C
:1045E00004498022134398228B50C046BD4602B036
:1045F00080BDC04600004048FFC0FFFF80B582B0CC
:1046000000AF7860074A9823D358702293431A006A
:1046100004497B68134398228B50C046BD4602B0C4
:1046200080BDC0460000404880B500AF074B9A6887
:10463000064B04218A439A60044B9A68034B02217B
:104640008A439A60C046BD4680BDC04600004048CF
:1046500080B500AF074B9A68064B02210A439A6067
:10466000044B9A68034B04210A439A60C046BD4636
:1046700080BDC0460000404880B500AF074B1A68B7
:104680008023DB001A408023DB009A4201D1012302
:1046900000E000231800BD4680BDC0460000404831
:1046A00080B582B000AFC0460F4B1A6880239B02D2
:1046B0001340F9D00C4B9A680B4B02210A439A60C5
:1046C00000237B6003E0C0467B6801337B607B682E
:1046D000052BF8DD044B9A68034B04210A439A60CA
:1046E000C046BD4602B080BD0000404880B582B0E3
:1046F00000AF7860064B9B68064A13401900044BD4
:104700007A680A439A60C046BD4602B080BDC04682
:1047100000004048FF7FFEFF80B500AF044B1A68E1
:10472000034B10210A431A60C046BD4680BDC046F7
:104730000000404880B500AF044B1A68034B1021BD
:104740008A431A60C046BD4680BDC046000040484E
:1047500080B500AF054B1B6820221340202B01D1F0
:10476000012300E000231800BD4680BD0000404842
:1047700080B500AF044B1A68034B40210A431A600E
:10478000C046BD4680BDC0460000404880B500AF71
:10479000044B1A68034B40218A431A60C046BD4649
:1047A00080BDC0460000404880B500AF054B1B6887
:1047B00040221340402B01D1012300E000231800C8
:1047C000BD4680BD0000404880B582B000AF786033
:1047D000064BDB68602293431900044B7A680A4356
:1047E000DA60C046BD4602B080BDC0460000404809
:1047F00080B500AF044B1A68034B04210A431A60CA
:10480000C046BD4680BDC0460000404880B500AFF0
:10481000044B1A68034B04218A431A60C046BD4604
:1048200080BDC0460000404880B500AF054B1B6806
:1048300008221340082B01D1012300E000231800B7
:10484000BD4680BD0000404880B500AF044B1A68EB
:10485000034B802189010A431A60C046BD4680BDD2
:104860000000404880B500AF044B1A68034B044970
:104870000A401A60C046BD4680BDC04600004048A0
:10488000FFDFFFFF80B500AF074B1A688023DB0115
:104890001A408023DB019A4201D1012300E000236A
:1048A0001800BD4680BDC0460000404880B582B0BB
:1048B00000AF7860064B9B68E02293431900044BDD
:1048C0007A680A439A60C046BD4602B080BDC046C1
:1048D0000000404880B584B000AF78607B68002B52
:1048E00001D101233CE17B681B681022134033D0C7
:1048F0007B689B68002B02D1FFF796FE01E0FFF773
:10490000A7FE7B689B68042B13D1FDF7F7FC03001F
:10491000FB6008E0FDF7F2FC0200FB68D31A642B91
:1049200001D903231CE1FFF7A7FE0300012BF1D0FF
:1049300012E0FDF7E3FC0300FB6008E0FDF7DEFC9E
:104940000200FB68D31A642B01D9032308E1FFF7A7
:1049500093FE0300012BF1D17B681B6801221340F9
:1049600039D02020FFF72AFE3020FFF747FE7B6872
:104970005A6880235B029A4202D1FFF7EDFD01E005
:10498000FFF7F8FD7B685B68002B12D0FDF7B6FCE3
:104990000300FB6008E0FDF7B1FC0200FB68D31ADE
:1049A000642B01D90323DBE0FFF7F4FD031EF2D0F3
:1049B00011E0FDF7A3FC0300FB6008E0FDF79EFC9F
:1049C0000200FB68D31A642B01D90323C8E0FFF768
:1049D000E1FD031EF2D17B681B68042213403AD02C
:1049E0007B681B69002B22D0FFF710FFC046FFF742
:1049F0001BFF031EFBD1FFF79DFE80235B02180007
:104A0000FFF774FEFFF7F4FEFDF778FC0300FB6090
:104A100008E0FDF773FC0200FB68D31A022B01D9F2
:104A200003239DE0FFF700FF031EF2D013E0FFF722
:104A3000EDFEFDF763FC0300FB6008E0FDF75EFCA4
:104A40000200FB68D31A022B01D9032388E0FFF789
:104A5000EBFE031EF2D17B681B680222134047D095
:104A6000FFF7D4FEFFF766FEC046FFF771FE031E98
:104A7000FBD1C0239B011800FFF756FD80231B02CA
:104A80001800FFF733FE2020FFF79EFE7B68DB68EF
:104A9000102B02D1FFF740FE01E0FFF74BFE7B68D1
:104AA000DB68002B12D0FDF729FC0300FB6008E057
:104AB000FDF724FC0200FB68D31A642B01D9032301
:104AC0004EE0FFF745FE031EF2D011E0FDF716FCA5
:104AD0000300FB6008E0FDF711FC0200FB68D31A3D
:104AE000642B01D903233BE0FFF732FE031EF2D112
:104AF0007B681B680822134031D07B685B69402BC0
:104B000002D1FFF735FE01E0FFF740FE7B685B69ED
:104B1000002B12D0FDF7F2FB0300FB6008E0FDF76D
:104B2000EDFB0200FB68D31A642B01D9032317E0C5
:104B3000FFF73AFE031EF2D011E0FDF7DFFB0300A2
:104B4000FB6008E0FDF7DAFB0200FB68D31A642B78
:104B500001D9032304E0FFF727FE031EF2D100234F
:104B60001800BD4604B080BD80B584B000AF786049
:104B700039607B68002B01D1012398E04E4B5B68C4
:104B80003022934319004C4B3A680A435A607B68C1
:104B90001B68022B0ED1FFF747FDFFF76DFD031ECB
:104BA00001D1012383E0FFF75DFE7B685B6818009D
:104BB000FFF77CFE7B681B68002B24D1FFF75CFDB0
:104BC000031E01D1012372E0FFF7E4FC031E01D1B3
:104BD00001236CE0FFF738FEFDF790FB0300FB605C
:104BE00008E0FDF78BFB0200FB68D31A022B01D90A
:104BF00003235CE0FFF746FE031EF2D07B685B6890
:104C00001800FFF753FE7B681B68012B17D1FFF7D5
:104C100047FDFFF731FD031E01D0012347E0FFF7F9
:104C2000B9FC031E01D1012341E0244B9B68E02223
:104C3000934319007B685A68204B0A439A601E4BC5
:104C40005B68302213403A689A421DD01A4B5B6869
:104C5000302293431900184B3A680A435A60FDF713
:104C60004DFB0300FB6008E0FDF748FB0200FB681A
:104C7000D31A022B01D9032319E00F4B5B683022B2
:104C800013403A689A42EFD10023BB6003E0C0466C
:104C9000BB680133BB60BB68052BF8DDFDF700F88E
:104CA000FDF736FB03001800FDF7CEFA03001800ED
:104CB000BD4604B080BDC046001000400000404822
:104CC00080B500AF024B1B681800BD4680BDC046D2
:104CD000000A002080B500AF074B1A6880239B02B2
:104CE0001A4080239B029A4201D1012300E0002355
:104CF0001800BD4680BDC0460000404880B500AFEA
:104D0000054B9B6808221340082B01D1012300E0CA
:104D100000231800BD4680BD0000404880B582B029
:104D200000AF7860064B9B68064A13401900044B9D
:104D30007A680A439A60C046BD4602B080BDC0464C
:104D400000004048FF7FFEFF80B500AF034B9A682C
:104D5000C0235B0213401800BD4680BD00004048E0
:104D600080B582B000AF7860064B1B6E042293437F
:104D70001900044B7A680A431A66C046BD4602B061
:104D800080BDC0460000404880B500AF034B1B6E9D
:104D9000042213401800BD4680BDC04600004048B4
:104DA00080B582B000AF7860064B9B68064A13401E
:104DB0001900044B7A680A439A60C046BD4602B0A7
:104DC00080BDC04600004048FFEFFFFF80B500AF48
:104DD000034B9A6880235B0113401800BD4680BDD9
:104DE0000000404880B582B000AF7860064B9B68F9
:104DF000064A13401900044B7A680A439A60C04679
:104E0000BD4602B080BDC04600004048FFDFFFFF46
:104E100080B500AF034B9A6880239B0113401800B4
:104E2000BD4680BD0000404880B582B000AF7860CC
:104E3000064B9B68064A13401900044B7A680A43E4
:104E40009A60C046BD4602B080BDC04600004048E2
:104E5000FFFF3FFF80B500AF034B9A68C0231B04E0
:104E600013401800BD4680BD0000404880B500AF2B
:104E7000074B1A688023DB011A408023DB019A422A
:104E800001D1012300E000231800BD4680BDC046CB
:104E90000000404880B582B000AF78607B681B6836
:104EA0000122134004D07B681B691800FFF758FFEC
:104EB0007B681B680222134004D07B685B69180082
:104EC000FFF76EFF7B681B680822134004D07B68E5
:104ED0005B681800FFF7A8FF7B681B68102213406F
:104EE00004D07B68DB681800FFF77CFF7B689B6859
:104EF0002022134004D07B689B681800FFF70EFF48
:104F000000231800BD4602B080BD000080B584B00B
:104F100000AF78600023FB607B68202B00D97BE02A
:104F20007B689A00404BD3181B689F46FFF72CFF05
:104F3000031E02D0042B03D071E03C4BFB6002E067
:104F40003B4BFB60C0466AE0FFF740FF031E04D006
:104F500080225201934203D061E0364BFB6002E0B5
:104F6000354BFB60C0465AE0FFF7C8FE031E05D074
:104F7000FFF7B0FE031E07D1002351E0FFF776FFD5
:104F8000031E01D100234BE0FFF764FF0300BB6069
:104F9000BB68002B01D1264BFB60BA688023DB0382
:104FA0009A4201D1214BFB60BA6880231B049A42CC
:104FB00034D1224BFB6031E0FFF72AFF020080234F
:104FC0009B019A4203D180231B02FB6002E0184B35
:104FD000FB60C04623E0FFF7B7FE0300C022520289
:104FE000934214D0C0225202934213D8802212025C
:104FF000934204D080225202934204D00AE08023DC
:105000001B02FB6007E0FA23DB01FB6003E00C4BB3
:10501000FB6000E0C04602E0C04600E0C046FB681E
:105020001800BD4604B080BDEC7204100048E801D1
:105030000024F40000127A0000093D000090D00323
:10504000127A000080B584B000AF78607B681B687E
:10505000DB68FB607B681B681B69BB60BB68022266
:10506000134021D0FB68022213401DD07B681B68CF
:10507000032252421A617B6801221A777B681B68FF
:105080009B690322134004D07B68180000F0D8F815
:1050900007E07B68180000F0CBF87B68180000F090
:1050A000D7F87B6800221A77BB680422134022D00D
:1050B000FB68042213401ED07B681B680522524205
:1050C0001A617B6802221A777B681B689A69C02381
:1050D0009B00134004D07B68180000F0B1F807E093
:1050E0007B68180000F0A4F87B68180000F0B0F8A6
:1050F0007B6800221A77BB680822134021D0FB6826
:10510000082213401DD07B681B68092252421A6195
:105110007B6804221A777B681B68DB6903221340D3
:1051200004D07B68180000F08BF807E07B6818005B
:1051300000F07EF87B68180000F08AF87B68002297
:105140001A77BB681022134022D0FB68102213404C
:105150001ED07B681B68112252421A617B680822AC
:105160001A777B681B68DA69C0239B00134004D060
:105170007B68180000F064F807E07B68180000F016
:1051800057F87B68180000F063F87B6800221A77F4
:10519000BB68012213400CD0FB680122134008D0E9
:1051A0007B681B68022252421A617B68180000F07B
:1051B00037F8BB68802213400CD0FB688022134074
:1051C00008D07B681B68812252421A617B681800F4
:1051D00000F056F8BB68402213400CD0FB68402218
:1051E000134008D07B681B68412252421A617B68D9
:1051F000180000F035F8BB68202213400CD0FB6883
:105200002022134008D07B681B68212252421A6179
:105210007B68180000F02CF8C046BD4604B080BD85
:1052200080B582B000AF7860C046BD4602B080BD98
:1052300080B582B000AF7860C046BD4602B080BD88
:1052400080B582B000AF7860C046BD4602B080BD78
:1052500080B582B000AF7860C046BD4602B080BD68
:1052600080B582B000AF7860C046BD4602B080BD58
:1052700080B582B000AF7860C046BD4602B080BD48
:1052800080B582B000AF7860C046BD4602B080BD38
:1052900080B582B000AF78607B68002B01D101231C
:1052A00046E07B6888229B58002B07D17B688422CC
:1052B000002199547B681800FCF7C0FA7B688822AB
:1052C000242199507B681B681A687B681B68012140
:1052D0008A431A607B689B6A002B03D07B681800A6
:1052E00000F0F6FC7B68180000F08AFB0300012B3D
:1052F00001D101231CE07B681B685A687B681B682E
:105300000D490A405A607B681B689A687B681B6875
:105310002A218A439A607B681B681A687B681B682D
:1053200001210A431A607B68180000F085FD030024
:105330001800BD4602B080BDFFB7FFFFB0B5AAB0F0
:1053400000AF78607B681B68DB69A422B9180B602A
:105350007B681B681B68A02039180B607B681B6882
:105360009B689C2439190B601100BB181B68A24A6A
:1053700013409822BD182B60BB181B68002B1AD154
:105380007B181B682022134015D03B181B68202275
:10539000134005D13B191A6880235B0513400AD0DE
:1053A0007B685B6F002B00D1FBE27B685B6F7A68E8
:1053B00010009847F5E29823FB181B68002B00D1DA
:1053C00022E19C23FB181B688C4A134006D1A023C2
:1053D000FB181B688A4A134000D115E1A423FB186F
:1053E0001B680122134012D0A023FB181A688023E7
:1053F0005B0013400BD07B681B6801221A627B683C
:1054000090229B5801221A437B6890215A50A42372
:10541000FB181B680222134011D09C23FB181B6849
:10542000012213400BD07B681B6802221A627B6842
:1054300090229B5804221A437B6890215A50A4233F
:10544000FB181B680422134011D09C23FB181B6817
:10545000012213400BD07B681B6804221A627B6810
:1054600090229B5802221A437B6890215A50A42311
:10547000FB181B680822134017D0A023FB181B68D9
:105480002022134005D19C23FB181B685B4A134064
:105490000BD07B681B6808221A627B6890229B589D
:1054A00008221A437B6890215A50A423FB181A68DB
:1054B00080231B01134013D0A023FB181A688023FC
:1054C000DB0413400CD07B681B68802212011A6237
:1054D0007B6890229B5820221A437B6890215A5067
:1054E0007B6890229B58002B00D15CE2A423FB1820
:1054F0001B682022134015D0A023FB181B68202214
:10550000134006D19C23FB181A6880235B051340C7
:1055100008D07B685B6F002B04D07B685B6F7A6878
:10552000100098477B6890229B5894217A1813604A
:105530007B681B689B6840221340402B04D07B187B
:105540001B68282213404CD07B68180000F08EFDA9
:105550007B681B689B6840221340402B3CD1EFF3D3
:1055600010833B663B6E90203A18136001237B66E4
:105570007B6E83F31088C0467B681B689A687B68E3
:105580001B6840218A439A603B181B68BB66BB6E50
:1055900083F31088C0467B6880229B58002B16D06E
:1055A0007B6880229B58174A9A637B6880229B58AD
:1055B0001800FCF7D4FF031E1CD07B6880229B5888
:1055C0009B6B7A68802152581000984712E07B68E4
:1055D000180000F001FA0DE07B68180000F0FCF9FB
:1055E00008E07B68180000F0F7F97B689022002142
:1055F0009950D8E1C046D6E10F0800000100001024
:1056000020010004396104107B68DB6E012B00D09F
:105610005DE1A423FB181B681022134000D156E162
:10562000A023FB181B681022134000D14FE17B68B8
:105630001B6810221A627B681B689B68402213401B
:10564000402B00D0C3E07B6880229B581B685A68BF
:105650007E217B181A807B181B88002B00D197E0D5
:105660007B685C229B5A7A1812889A4200D38FE09A
:105670007B687A185E2112885A527B6880229B5878
:105680001B681B682022134070D1EFF310833B632B
:105690003B6BBB6701237B637B6B83F31088C04646
:1056A0007B681B681A687B681B68C4490A401A60DB
:1056B000BB6FBB63BB6B83F31088C046EFF31083F3
:1056C000FB63FB6B7B6701233B643B6C83F31088BC
:1056D000C0467B681B689A687B681B6801218A4307
:1056E0009A607B6F7B647B6C83F31088C046EFF31A
:1056F0001083BB64BB6C3B670123FB64FB6C83F3CF
:105700001088C0467B681B689A687B681B684021CC
:105710008A439A603B6F3B653B6D83F31088C046BC
:105720007B688C22202199507B680022DA66EFF397
:1057300010837B657B6DFB660123BB65BB6D83F3CB
:105740001088C0467B681B681A687B681B6810213C
:105750008A431A60FB6EFB65FB6D83F31088C046BD
:105760007B6880229B581800FCF7BAFE7B680222F7
:105770001A677B685C229A5A7B685E215B5A9BB2EF
:10578000D31A9AB27B681100180000F02DF90CE1D1
:105790007B685C229B5A7E22BA1812889A4200D0FB
:1057A00003E17B6880229B581B681B682022134002
:1057B000202B00D0F9E07B6802221A677B685C220C
:1057C0009A5A7B681100180000F00EF9EDE07B6832
:1057D0005C22995A7B685E229B5A9AB28E203B18B3
:1057E0008A1A1A807B685E229B5A9BB2002B00D1DA
:1057F000DDE03B181B88002B00D1D8E0EFF31083CD
:10580000FB60FB6888243A19136001233B613B6904
:1058100083F31088C0467B681B681A687B681B6826
:1058200067490A401A603B191B687B617B6983F3F7
:105830001088C046EFF31083BB61BB6984243A191A
:1058400013600123FB61FB6983F31088C0467B680A
:105850001B689A687B681B685A490A409A603B1922
:105860001B683B623B6A83F31088C0467B688C22CE
:10587000202199507B680022DA667B6800225A67F3
:10588000EFF310837B627B6A80243A191360012353
:10589000BB62BB6A83F31088C0467B681B681A68CA
:1058A0007B681B6810218A431A603B191B68FB62E6
:1058B000FB6A83F31088C0467B6802221A673B1894
:1058C0001A887B681100180000F08EF86FE0A4239E
:1058D000FB181A6880235B03134010D09C23FB182D
:1058E0001A688023DB03134009D07B681B68802281
:1058F00052031A627B68180000F05DFC5AE0A42392
:10590000FB181B688022134016D0A023FB181B68CD
:105910008022134006D19C23FB181A6880231B04A5
:10592000134009D07B689B6F002B42D07B689B6F34
:105930007A68100098473CE0A423FB181B684022BB
:1059400013400AD0A023FB181B684022134004D048
:105950007B68180000F003FC2CE0A423FB181A68F5
:1059600080231B0413400BD0A023FB181A6880234C
:10597000DB05134004D07B68180000F02CFC19E014
:10598000A423FB181A6880235B04134012D0A023C1
:10599000FB181B68002B0DDA7B68180000F013FC65
:1059A00008E0C04606E0C04604E0C04602E0C0464B
:1059B00000E0C046BD462AB0B0BDC046FFFEFFFFB6
:1059C000DFFEFFFFFEFFFFEF80B582B000AF786023
:1059D000C046BD4602B080BD80B582B000AF7860E1
:1059E000C046BD4602B080BD80B582B000AF7860D1
:1059F0000A00BB1C1A80C046BD4602B080BD000034
:105A0000B0B590B000AF78621B2320229B18DB1941
:105A100000221A707B6A9A687B6A1B691A437B6A48
:105A20005B691A437B6ADB691343FB637B6A1B6810
:105A30001B68A14A134019007B6A1A68FB6B0B4371
:105A400013607B6A1B685B689C4A134018007B6A82
:105A5000D9687B6A1A6803000B4353607B6A9B69B1
:105A6000FB637B6A1B68964A934204D07B6A1B6A7D
:105A7000FA6B1343FB637B6A1B689B68914A134074
:105A800019007B6A1A68FB6B0B4393607B6A1B6887
:105A9000DB6A0F22934318007B6A596A7B6A1A6893
:105AA00003000B43D3627B6A1B68854A93426DD126
:105AB0001020FFF72BFA03007B637B6B002B00D1D8
:105AC000E3E07B6A5A6A804B5200D35A1900786B24
:105AD000FAF72AFB0300BB627B6A5A6813005B007B
