:020000041004E6
:1000000000600020417504104D70041055700410FC
:1000100000000000000000000000000000000000E0
:100020000000000000000000000000005D700410EF
:1000300000000000000000006770041071700410E0
:10004000A5750410A5750410A5750410054D0410C0
:10005000000000000000000000000000A575041072
:1000600085660410816504105D650410A575041093
:10007000A5750410A5750410000000007F70041021
:1000800095700410A5750410D970041000000000CC
:10009000CB7004100000000000000000BD700410D0
:1000A000A5750410E7700410A5750410A57504105B
:1000B0000000000000000000000000000000000040
:1000C00010B5904216D98AB2030C090C0C4659435C
:1000D00080B25343444350431B191A041B0C10189D
:1000E000594180225203002312184B41520DD8026D
:1000F000104310BD4843802252031218520D10467F
:1001000010BDC0468B0707D0013A22D30B780131CE
:10011000037001308B07F7D1830730D0DB4219D051
:100120000138043A08D308C943701B0A43801B0CEA
:1001300003710430043AF6D2D20707D30B88437018
:1001400001D08A78C2701B0A8370704701D00B7887
:1001500043707047043A06D308C903801B0C4380E0
:100160000430043AF8D2D20705D30B88038005D0B7
:100170008B788370704701D00B780370704770B430
:10018000103A03D378C978C0103AFBD2530701D391
:1001900018C918C001D508C908C0D20704D30B88F4
:1001A000038002300231002A01D50B78037070BC45
:1001B0007047C046EFF31482EFF30981154880F3CE
:1001C0001488BFF36F8FF0B543464C4655465E46E4
:1001D0006746F8B4104CEFF30883636006B4BFF3CE
:1001E0004F8F30BFC046C0460B4C646884F308880C
:1001F00082B003BCF8BC9846A146AA46B346BC46AA
:10020000F0BC04BC80F3098881F31488BFF36F8FBE
:100210001047C04600000000040000200023C25C1C
:100220000133002AFBD1581E7047000003B4714609
:10023000490840004900095E49008E4403BC7047EC
:10024000002243088B4274D303098B425FD3030A15
:100250008B4244D3030B8B4228D3030C8B420DD328
:10026000FF22090212BA030C8B4202D312120902B6
:1002700065D0030B8B4219D300E0090AC30B8B42F4
:1002800001D3CB03C01A5241830B8B4201D38B03A2
:10029000C01A5241430B8B4201D34B03C01A524147
:1002A000030B8B4201D30B03C01A5241C30A8B428A
:1002B00001D3CB02C01A5241830A8B4201D38B0275
:1002C000C01A5241430A8B4201D34B02C01A524119
:1002D000030A8B4201D30B02C01A5241CDD2C3098B
:1002E0008B4201D3CB01C01A524183098B4201D307
:1002F0008B01C01A524143098B4201D34B01C01AF2
:10030000524103098B4201D30B01C01A5241C30869
:100310008B4201D3CB00C01A524183088B4201D3D8
:100320008B00C01A524143088B4201D34B00C01AC4
:100330005241411A00D20146524110467047FFE730
:1003400001B5002000F0F0F802BDC0460029F7D04A
:1003500076E7704703460B437FD4002243088B4265
:1003600074D303098B425FD3030A8B4244D3030B3C
:100370008B4228D3030C8B420DD3FF22090212BA01
:10038000030C8B4202D31212090265D0030B8B427D
:1003900019D300E0090AC30B8B4201D3CB03C01A67
:1003A0005241830B8B4201D38B03C01A5241430B42
:1003B0008B4201D34B03C01A5241030B8B4201D332
:1003C0000B03C01A5241C30A8B4201D3CB02C01A9D
:1003D0005241830A8B4201D38B02C01A5241430A15
:1003E0008B4201D34B02C01A5241030A8B4201D304
:1003F0000B02C01A5241CDD2C3098B4201D3CB01AB
:10040000C01A524183098B4201D38B01C01A524159
:1004100043098B4201D34B01C01A524103098B425D
:1004200001D30B01C01A5241C3088B4201D3CB0048
:10043000C01A524183088B4201D38B00C01A52412B
:1004400043088B4201D34B00C01A5241411A00D2DB
:1004500001465241104670475DE0CA0F00D0494244
:10046000031000D34042534000229C4603098B42B4
:100470002DD3030A8B4212D3FC22890112BA030A3C
:100480008B420CD3890192118B4208D389019211BE
:100490008B4204D389013AD0921100E08909C30943
:1004A0008B4201D3CB01C01A524183098B4201D345
:1004B0008B01C01A524143098B4201D34B01C01A30
:1004C000524103098B4201D30B01C01A5241C308A8
:1004D0008B4201D3CB00C01A524183088B4201D317
:1004E0008B00C01A5241D9D243088B4201D34B0032
:1004F000C01A5241411A00D20146634652415B1074
:10050000104601D34042002B00D549427047634654
:100510005B1000D3404201B5002000F005F802BD99
:100520000029F8D016E770477047C0469140030095
:1005300090409C46203A9340194352426346D34030
:10054000194370471C2101231B04984201D3000C5E
:1005500010391B0A984201D3000A08391B09984236
:1005600001D30009043902A2105C40187047C0464C
:10057000040302020101010100000000000000006C
:10058000002B11D1002A0FD1002900D1002802D060
:100590000021C943080007B4024802A14018029094
:1005A00003BDC04685FFFFFF03B4684601B502984E
:1005B00000F052F8019B9E4602B00CBC7047C0464A
:1005C000F0B5CE469946030C9C46130447461B0CD7
:1005D0001D000E0061460404240C80B50700100CB9
:1005E0004B436543414360432C0CC01824188C4690
:1005F000A34203D980235B029846C4444946794309
:100600005643230C2D042D0C8919634424046019CE
:10061000C918C0BCB946B046F0BDC04670B500228E
:100620000C4B04000D0001F095F8002804D12000C7
:10063000290000F0CDFF70BD064B002220002900EC
:1006400000F0BCFB00F0C4FF80231B069C46604406
:10065000F1E7C0460000E041F0B557464E4645463A
:10066000DE46E0B504000D009246994683B08B4209
:1006700030D82DD04946504601F076F829000600C2
:10068000200001F071F8331A9846203B34D49B4681
:1006900053465A46934042461F00534693401E001D
:1006A000AF423BD8AF4200D179E05B46A41BBD41CD
:1006B000002B00DA76E00022002300920193012350
:1006C0005A4693400193012342469340009329E008
:1006D0008242CFD900220023009201930C9B002B71
:1006E00001D01C605D600098019903B0F0BCBB466E
:1006F000B246A946A046F0BD42469B4620239B1A1F
:100700005246DA40414613004A468A4017004246A4
:100710001F43534693401E00AF42C3D9002200231B
:10072000009201934346002BD8D0FB0772081A436E
:1007300046467B080EE0AB4201D1A2420CD8A41A77
:100740009D41012024196D410021013E24184D4195
:10075000002E06D0AB42EED9013E24196D41002E89
:10076000F8D1009801995B4600196941002B24DB00
:100770002B005A464446D3402A00E2401C005B4608
:100780001500002B2ADB26009E403300260047463A
:10079000BE403200801A9941009001919EE7A34229
:1007A000BCD882E74246202300219B1A00220091F8
:1007B00001920122DA40019285E7424620239B1AEA
:1007C0002A0046469A402300F340444613432A0039
:1007D000E2401C005B461500002BD4DA42462F0095
:1007E0002023260097409B1ADE403B003343CDE791
:1007F000F0B557464E46DE464546E0B51F000B03B2
:100800001B0B16009A46CA0F4B000400914685B098
:100810005B0D00D1CFE1CD4A934255D05146420FF6
:10082000C9000A43802109041143C2009046C84A06
:100830008A4693469B440023002502933C037B0099
:10084000FA0F0196240B5B0D009200D188E1BF4A9C
:10085000934200D192E0BE4A944663449B440A2DE1
:1008600042DCE400730F23438024494624041C43E4
:10087000F3000193009B00205940CBB20393022D5B
:1008800000DC94E00123AB401D00A6232A00DB001E
:100890001A401D4200D029E290239B001D4200D146
:1008A0004DE20023802499462403A84B10004A46B9
:1008B0001B052343D2071343190005B0F0BCBB4608
:1008C000B246A946A046F0BD52460243904600D02B
:1008D000ACE19B460223924608250293AEE7009BBB
:1008E000A2469946019B9846029B022B00D1CAE181
:1008F000032B00D192E1012B10D100230024002210
:10090000D4E701227B083A4013435246D2071343EF
:10091000984653465B089A46039B99465B46581C8B
:100920008023DB005B44002B00DCB1E14246520730
:100930000BD00F2241460A40042A06D04246111D20
:10094000414592418846524292445246D20106D5D0
:100950005246804B1A4080239246DB00C3187E4AE1
:10096000934200DD8FE14246D108524652070A43C6
:1009700051465B054C02240B5B0D97E7734B2643F6
:100980009C46E344002E00D16FE1032349461D43FA
:10099000009B5940CBB203930A2D00DD33E10123C4
:1009A000AB401D000323029388222A4297D142467E
:1009B00043461204120C160001981D0C030C00048F
:1009C000000C4643B4461E006E4300961600070016
:1009D0005E436146B0466F430E0CB8444644B7428E
:1009E00005D9802149028846009F47440097614607
:1009F0000904090C370C36048C463100614401911E
:100A00001100260C2404240C61438C462100694308
:100A100089466146090C884672434A4442447543FC
:100A2000914503D98021490288464544110C8846E6
:100A300061460904090C8C4612046244B9180291FB
:100A40005146090C8C4651460F043F0C3900414376
:100A500045448846614641438A4641466046090C02
:100A6000894658437B4353444B449A4503D98021DC
:100A7000490289464844190C894641460904090C33
:100A80008846390061431B044344884661464C4311
:100A900071438C46414677430E0C3F19F619484482
:100AA000B44203D9802149028946CC440299009F6F
:100AB000894631044F4489464146974292410C048D
:100AC000240C4C44FF1852426419A1189F429B41C8
:100AD000884682465B42994690459241AC42A44189
:100AE000C244D14452426442144399459B418245D9
:100AF00092415B42524213434A46360CA419E31812
:100B000063445B02D20D1A43019992467A020A436A
:100B1000501E8241FF0D17434A4652021743B84602
:100B2000DB0100D5EDE60D4B039A5B449146002BAB
:100B300000DCACE03A00520700D110E70F22584623
:100B40003A40042A00D0F9E609E7C046FF07000052
:100B500001FCFFFFFFFFFFFEFE070000FF03000098
:100B6000220032436FD0002C00D1C2E02000FFF7FA
:100B7000E9FC020003000B3A1D20821A3000190024
:100B8000D04008398C400200224334008C40594642
:100B9000CB1A86498B469B440A2D00DDA4E64946C4
:100BA000009B01945940CBB2140000200393022D06
:100BB00000DD67E6FBE65346034398463CD05346C8
:100BC000002B00D1A3E05046FFF7BCFC0B235B4297
:100BD0009C460200844411005046083988401D2379
:100BE000804660461B1A2000D8400300404603435D
:100BF0009A4623008B4098466C4B00259B1A9B46D7
:100C0000002302931AE60F2D00D0C9E0802352463C
:100C10001B031A4202D01C4200D192E080245346AA
:100C200024031C4324034246240B3EE69B46032335
:100C300080460C25029301E600239A469B46013329
:100C400004250293FAE501210D430A2D00DD4BE650
:100C5000494600984140C9B20391022D00DC96E05C
:100C600000230024012001930CE649460223009A48
:100C70002B435140CAB203920A2B00DD34E6002D0B
:100C800057D1039B994600240022494B0EE6584653
:100C90000121C91A382900DD2FE61F2956DD1F2240
:100CA00054465242D31ADC40202907D0414B4246D9
:100CB0009C465346604483401A439046424607216F
:100CC000531E9A410B00224313400024114209D0C5
:100CD0000F231340042B5DD0111D91429B410A004C
:100CE0005B425B07D2081A430023DFE5039B99466A
:100CF000FAE50198FFF726FC0200030015322033C5
:100D00001C2A00DC38E7019A083882403FE7FFF7E9
:100D100019FC15239C4684440200634620321C2B98
:100D200000DC58E7002398462300083883409A46A1
:100D300062E71D000023002402200193A2E5029037
:100D400032E61C43009B019A9946AEE51A4B524687
:100D5000C31840469A40C8400243404698400300AA
:100D6000581E834154461A43CC40530709D00F23E1
:100D70001340042B05D0131D934292415242A418F4
:100D80001A00230208D50123002400228EE589469B
:100D900000248BE50023A5E763076402240BA1E789
:100DA000009BA2469946019B984637E70DFCFFFF42
:100DB000FF0700003E0400001E040000F0B5574687
:100DC0004E464546DE46E0B583B0009001910C03E7
:100DD0004D00CE0F610A009C5F00640F0C43009928
:100DE00000920193C80019037B0D9946019BCC4FDB
:100DF000DB0F9C464B0A00998046490F1943009B24
:100E00008B46DA0092466D0DB94500D1BFE0012353
:100E1000614659404B468C46EB1A8E4275D0002BEA
:100E200000DCA3E24946002900D1CEE0BD4200D15A
:100E300000E20127382B19DC802759463F0439434B
:100E40008B461F2B00DDFAE12027F91A8C46594604
:100E50006746B9400F001100D9400F4361468A40F0
:100E6000511E8A415946D9401743641AC71BB842DC
:100E700080414042241A230200D440E16402640A03
:100E8000002C00D154E12000FFF75CFB0300083B7D
:100E900020213800CA1AD0409C4002009F402243C3
:100EA0009D4200DDA6E1581B0130091A3C008F402D
:100EB000C4407B1E9F4113008B4027431F43C24009
:100EC0003B0014000025134300D1F7E17B0700D15C
:100ED00077E30F2338003B40042B04D0381DB84281
:100EE000BF417F42E419230200D468E38C4B0135F3
:100EF0009D4200D1F4E08B4B6D051C406D0D6707E2
:100F0000C00864020743240BECE0002B00DC29E35B
:100F10004946002900D0D6E05946114300D12EE1C0
:100F2000591E012B00D1E6E1BB4200D182E101272D
:100F30000B00382914DC1F2B00DD3CE22027F91AB6
:100F40008C4659466746B9400F001100D9400F43FF
:100F500061468A40511E8A415946D9401743641858
:100F60003F188742804140422418230200D4C6E043
:100F70006B4B01359D4200D1B2E00121694B7A08EB
:100F80001C4039400A43E707174364089EE7664B55
:100F900011438A46EB18002928D066452CD0002B37
:100FA0005BD0002D00D12CE15B4666465F07D2087E
:100FB0001743DD083B002B4300D1E2E080242403EB
:100FC0002C432403564D240B8CE05946114300D189
:100FD000D5E0591E012B00D1B9E1BB4200D1B1E1EE
:100FE00001270B00382900DD40E72AE76146012789
:100FF00079408C466645D2D1002B00D1C5E0002D4A
:1010000000D055E14B462500054300D112E2591EA0
:101010008C46012B00D149E2414DAB4200D18FE219
:101020000127382911DC63461F2B00DD5BE2614696
:10103000202327005B1A050098409F40CD40431EA7
:101040009841CC402F430743A344BF189742924195
:1010500052425A4414004D4687E7344F6B1C3B42C2
:1010600000D0B6E05946230011430F000343002D82
:1010700000D026E1002B00D1C0E1002900D1A1E081
:10108000831A98465B464045AD41E31A6D425B1BAF
:1010900080252D042B4200D14BE15B46101A824281
:1010A00092411C1B0700012663465242A41A2743A3
:1010B0001E40002F00D142E12C4200D16DE2194BBD
:1010C00001251C401BE7BD4200D13BE10127382B25
:1010D00000DD45E7802759463F0439438B462AE720
:1010E000002400272D052543F60735433800290045
:1010F00003B0F0BCBB46B246A946A046F0BD7B0794
:1011000004D00F233B40042B00D0E7E62B00F80867
:10111000034A67070743E508934200D14AE7A5E081
:10112000FF070000FFFF7FFF01F8FFFFFE07000041
:101130003800FFF707FA030018331F2B00DCA7E67F
:101140003A00083882409D4200DD8AE05B1B581C53
:101150001F2800DCD8E117001F3BDF40202805D006
:1011600040231B1A9A40531E9A4117430025002F13
:1011700000D1E5E07B0700D0ABE62C00C6E7C00855
:10118000C6E700270024D14DACE7D14F6B1C3B4292
:1011900071D123000343002D00D04EE15746002BB0
:1011A00000D1B5E1002F0DD08318834280415C440B
:1011B00040422418220200D5C8E11F009846274368
:1011C00000D1BCE043466707DB081F43E508002366
:1011D0004CE0831A98465B464045BF41E31A7F4284
:1011E000DB1B1F027CD447461F4300D1A6E01C0036
:1011F000474645E6B74CED1A14407B0700D080E720
:1012000084E74B462500054366D05F1E012B00D1C5
:10121000FCE0AE4DAB4200D15EE16646382F00DC0B
:10122000B4E00120171ABA4292415B4652424D4641
:101230009C1A20E66707C0080743E508BAE61F00C6
:101240005946203FF9400F00202B05D04021CB1AF2
:10125000594699400A43924653465A1E93411F43AA
:1012600004E6EB1A9B4D15406F07ED082C035D0556
:10127000240B6D0D36E7954DAB4200D1D6E08218B8
:10128000210082428041594440420818C707520851
:1012900017434408520700D485E10F221D003A404D
:1012A000042A00D01AE6FF08640727430509DDE792
:1012B0005B46D2085F071743DD087BE60027002462
:1012C00010E7002B00D0D6E0002900D02FE18024C9
:1012D00000267E4D240305E766465C46D00817E7E6
:1012E0005B46171ABA4292411C1B012663465242C2
:1012F000A41A1E40C4E58318834280415C444042E6
:1013000025182A0200D4DAE0724A5B081540EA0781
:101310001A4369085B0700D44AE10F231340042BEA
:1013200000D1FCE0171D9742A441644202256418D5
:10133000ECE647461C001F4300D043E7002600258B
:101340000024CFE6C00867070743E50832E6871A9E
:101350005B46B8428041E41A4042241A230228D452
:101360006307FF081F43E50801237FE7002B00D137
:1013700073E64B465F1B3B00002D00D142E7382F40
:1013800000DDECE080230E001B041C431F2F25DC36
:1013900020252300ED1B0100A840AB40F940451E6D
:1013A000A8410B43FC4018435B461B1B9B4639E797
:1013B0006646012562E51F005946203FF9408C46EC
:1013C000202B05D040275946FB1A99400A439246E4
:1013D00057467B1E9F4163461F43C1E53B002500E6
:1013E000203BDD40202F04D04023DB1B9C402043CA
:1013F00080464046431E9841284313E700299DD06C
:10140000012663465C4690461E40DBE6171A5B46A3
:10141000BA4292411C1B5242A41A2302C8D4630749
:10142000FF081F4366460123E5081FE71D0000244F
:10143000002757E65C46D0086AE6002B00D137E764
:101440005346C00867070743E508002B00D1B1E504
:1014500080231B031D4208D05946C808184204D1F6
:10146000D20849070A43170005007B0FFF00FF0859
:101470005B071F439EE5C00863071843E508002982
:1014800053D080231B031D420AD05946CC081C426E
:1014900006D1012663462500D008490708431E40AF
:1014A000470FC000C0087F07074383E583189342B6
:1014B00092415C445242A5182A0200D524E76F07E6
:1014C000DB081F43ED080123D0E6C046FF070000FC
:1014D000FE070000FFFF7FFF5B46D2085F076646FE
:1014E0001743DD0866E52500203BDD406346202BE1
:1014F00005D0402361465B1A9C4020438046474606
:101500007B1E9F412F43A0E520210027091AD2E42A
:10151000002F00D113E75C4617000025F6E5D70839
:10152000490702230F432D09A0E6070042E55B4669
:1015300001265F07DD086346D20817431E4039E5E0
:101540005B46D2085F071743DD0833E51E4ADB0818
:1015500022405707520201251F43140BC2E50E001B
:1015600001205FE6002B0DD04B465B1B9C46002DF7
:1015700000D148E50127382B00DD66E580231B04F8
:101580001C4350E56B1C114D2B4200D073E65946AD
:10159000230011438A46034300E66707C00800237F
:1015A0000743E50862E66407FF08274305095DE68F
:1015B000D208490711430F0002232D0956E6070000
:1015C000A4E538008FE4C046FFFF7FFFFE07000060
:1015D0000B00020070B5164D0C0382B049000020CC
:1015E00000920193240B490DDE0FA94204DD11483E
:1015F000814203DD104BF01802B070BD8020400323
:1016000020430E4C641A1F2C08DD0D4B5B1AD8408A
:1016100003005842002EEFD11800EDE7094B009A65
:101620009C46030061448B40E2401343F1E7C0460F
:10163000FE0300001D040000FFFFFF7F33040000D5
:1016400013040000EDFBFFFF70B5002816D0C31790
:10165000C5185D40C40F2800FEF774FF104B1B1A1D
:101660005B055B0D0A2814DC02002E001532964043
:101670000B22121AD5402D032D0B03E0002400236A
:10168000002500261B052B43E407234330001900E7
:1016900070BD0B3885402D0300262D0BF2E7C046A8
:1016A0001E04000010B5041E10D0FEF74BFF0E4BB9
:1016B0001B1A5B055B0D0A280FDC0B222100121A96
:1016C000D14015300A038440120B01E000230022B0
:1016D0001B0513432000190010BD22000B38824067
:1016E00012030024120BF3E71E04000084461000CE
:1016F00062468C461900634600E0C0461FB500F004
:10170000F3F8002801D40021C8421FBD10B500F035
:1017100037F84042013010BD10B500F0E5F8002860
:1017200001DB002010BD012010BDC04610B500F047
:10173000DBF8002801DD002010BD012010BDC046EF
:1017400010B500F061F8002801DC002010BD012078
:1017500010BDC04610B500F057F8002801DA00208F
:1017600010BD012010BDC04610B5002903D1FEF701
:10177000E9FE203002E00800FEF7E4FE10BDC0469E
:10178000F0B55746DE464E464546E0B50D0004002E
:10179000E80F83460903D80F090B824619488C4687
:1017A0001F0369005E00490D3F0B760D814218D082
:1017B00086420FD00120B1420DD1BC450BD19442DD
:1017C00009D1D3451CD0002905D160462043431ED2
:1017D000984100E00120F0BCBB46B246A946A046B5
:1017E000F0BD01208E42F6D1614639430F00174308
:1017F0002743F0D15B465246981A431E9841EAE7C8
:101800000020E8E7FF070000F0B557464E46454682
:10181000DE46E0B50D000E034900490D8A46DF0F94
:10182000E90FBC4683B02F4F040080460191580059
:1018300019039146360B090B400DBA451DD0B8422D
:101840000DD05746002F2AD13443002824D10A4313
:1018500036D0002C41D163465800013815E01143C1
:1018600038D15346002B01D12643F4D0019B634568
:1018700007D1019B5800013807E026432AD1504583
:1018800021D00120019B5F42384303B0F0BCBB462E
:10189000B246A946A046F0BD002CDCD0E6E7002801
:1018A000EFD0019B6345ECD18245EADCE1DB8E425F
:1018B000E7D8DED1C845E4D80020C845E5D2D8E74E
:1018C000002CE2D0DDE7114304D1019B6345D8D160
:1018D0000020DAE702204042D7E7019B6345E6D0CB
:1018E000CFE7C046FF070000F0B557464E464546D5
:1018F000DE46E0B50D000E034900490D8A46DF0FB4
:10190000E90FBC4683B02E4F040080460191580079
:1019100019039146360B090B400DBA451ED0B8424B
:101920000DD05746002F27D13443002833D10A4326
:1019300034D0002C40D163465800013815E01143E3
:1019400012D15346002B01D12643F4D0019B6345AD
:101950001DD00120019B5F42384306E0264303D19E
:101960005045F6D111431CD0022003B0F0BCBB4659
:10197000B246A946A046F0BD0028EAD0019B6345C7
:10198000E7D18245E5DC02DB8E42E2D80ED0019B36
:1019900058000138E9E7002CCDD0D7E7002CE4D07F
:1019A000D7E7019B00206345DFD0D2E7C845D0D8F8
:1019B0000020C845D9D2EAE7019B6345E4D0C8E7D7
:1019C000FF07000080B500AF074A80239B0000217D
:1019D000D154054B054A00219954034B044A002178
:1019E0009954C046BD4680BD94010020010200000C
:1019F0000202000080B582B000AF0200FB1D1A7029
:101A00001F4B204A9B5C002B34D11D4A80239B0036
:101A1000D35C19001A4BFA1D12785A54184A8023C5
:101A20009B00D35C0133D9B2154A80239B00D1546B
:101A3000134A80239B00D15C114A80239B00D15420
:101A40000F4A80239B00D35C01330F4A134003D518
:101A5000013B0E4A134301331900094B0C4A9B5CAE
:101A6000CB1A5A425341DBB21900054B054A99542F
:101A7000012300E000231800BD4602B080BDC0462F
:101A80009401002002020000FF01008000FEFFFF21
:101A90000102000080B582B000AFBB1D012252429E
:101AA0001A80214A80239B00D25C1F4B1F495B5C3C
:101AB0009A4204D11C4B1E4A9B5C002B2DD01A4B22
:101AC0001A4A9B5C1A00184B9A5CBB1D1A80164B75
:101AD000164A9B5C0133D9B2134B144A9954124BEA
:101AE000124A995C104B114A99540F4A80239B006B
:101AF000D35C01330F4A134003D5013B0E4A134315
:101B000001331900084B094A9B5CCB1A5A425341D6
:101B1000DBB21900044B064A9954BB1D00229B5EA0
:101B20001800BD4602B080BD9401002001020000F3
:101B300002020000FF01008000FEFFFF80B500AF41
:101B40000A4A80239B00D25C084B09495B5C9A429D
:101B500006D1064B074A9B5C002B01D1012300E014
:101B60000023DBB21800BD4680BDC04694010020B2
:101B7000010200000202000090B589B000AF082405
:101B80003B19180018231A00002125F067FF3B00BD
:101B9000180008231A00002125F060FF3B190522D8
:101BA0001A603B19802252025A603B1904221A61C2
:101BB0003B1918000AF090FF031E01D000230FE02C
:101BC0003B0000221A603B0000225A603B001021BB
:101BD00018000BF0CBF8031E01D0002300E0012316
:101BE0001800BD4609B090BD80B586B000AF3B007F
:101BF000180018231A00002125F030FF3B000222B4
:101C00001A603B00802252015A613B0018000BF021
:101C100043FA031E01D0002300E001231800BD4653
:101C200006B080BD80B582B000AF0F4B1B78002B93
:101C300001D0012313E005F0B9FD01237B60FFF71C
:101C4000D3FF031E01D100237B60FFF795FF031E26
:101C500001D100237B60044B01221A707B681800BD
:101C6000BD4602B080BDC0469703002080B500AFDE
:101C700072B6C046C046FDE780B500AF72B6C0463A
:101C8000C046FDE7B0B5B2B006AF02F05FFB03009F
:101C90001C0003F063FE03001B0A9BB21D0003F04F
:101CA0005DFE03001A00FF2313400D493800049322
:101CB0000395082302930194062300930123032232
:101CC00025F0B0FD002003F091FF3B00180003F069
:101CD00043FF03F0C1FFC046BD462CB0B0BDC046B7
:101CE00094880610F0B59DB004AF04000800110000
:101CF000FB1D221C1A70BB1D021C1A707B1D0A1CC6
:101D00001A70FB1D1B78002B01D1022100E001217C
:101D1000FB1D1B78002B01D0022000E00120BB1D21
:101D20001C787B1D1D78FB1D1B78002B01D1042323
:101D300000E00323FA1D1278002A01D0042200E0FB
:101D400003220E4EB4460826BE1903920293019553
:101D5000009403000A006146300025F063FD002076
:101D600003F044FF0826BB19180003F0F5FE03F04A
:101D700073FFC046BD4619B0F0BDC04608890610C5
:101D8000F0B5C64600B59EB006AF0200FB1D1A7046
:101D9000BB1D0A1C1A70FB1D1B78002B01D10625E8
:101DA00000E00525BB1D1B789846FB1D1B78002B0A
:101DB00001D1082300E00723FA1D1278012A01D17E
:101DC000062200E00522F91D0978012901D1082128
:101DD00000E00721F81D0078022801D1082000E06A
:101DE0000720FC1D2478022C01D1062400E00524E4
:101DF0000F4EB4460826BE19049403900291019236
:101E0000009343462A006146300025F00BFD002078
:101E100003F0ECFE0826BB19180003F09DFE03F04A
:101E20001BFFC046BD4618B080BCB846F0BDC046DA
:101E300058890610F0B5DE4657464E464546E0B591
:101E4000A5B00AAF05000C00100019000F26BB1941
:101E50002A1C1A700E23FB18221C1A700D23FB1863
:101E6000021C1A700C23FB180A1C1A70BB191B7871
:101E7000002B02D102239C4601E001239C460F2344
:101E8000FB181B78012B02D10223984601E00123A5
:101E900098460F23FB181B78022B01D1022200E089
:101EA00001220F23FB181B78032B01D1022100E034
:101EB00001210E23FB181B7899460D23FB181B7874
:101EC0009A460C23FB181B789B46882308201B1876
:101ED000DB191B78BB600F23FB181B78002B01D18B
:101EE000042400E003240F23FB181B78012B01D1ED
:101EF000042500E003250F23FB181B78022B01D1DA
:101F0000042600E003260F23FB181B78032B02D1C5
:101F100004233B6001E003233B60174878600820FE
:101F20000823C018C0193B680993089607950694C2
:101F3000BB6805935B460493534603934B46029359
:101F40000191009243466246796825F06BFC0020BF
:101F500003F04CFE08200823C318DB19180003F017
:101F6000FBFD03F079FEC046BD461BB0F0BCBB468E
:101F7000B246A946A046F0BD94890610F0B5DE46EB
:101F800057464E464546E0B5CBB014AF05000C00B1
:101F9000100019003723FB182A1C1A7036257B19EC
:101FA000221C1A703526BB19021C1A7034243B19E6
:101FB0000A1C1A70A62330201B18DA19D0210B181E
:101FC000DB191B78DB0813700B18DB191B78032255
:101FD0001340DAB2A5231B18DB19111C09018A1A58
:101FE0001A70A4231B18DB19D4210A18D2191278ED
:101FF000D2081A700B18DB191B7803221340DAB2CF
:10200000A3231B18DB19111C09018A1A1A70A721B6
:102010000B18DB197A1912781A703A19BB19127851
:102020001B789A420ED20B18DB197A1912780132FA
:102030001A700B18DB191B780D2B03D10B18DB1949
:1020400001221A703723FB181B78002B02D10223C0
:102050003B6301E001233B633723FB181B78012B13
:1020600002D10223FB6201E00123FB623723FB184C
:102070001B78022B02D10223BB6201E00123BB6269
:102080003623FB181B783B613523FB181B78FB605C
:10209000A72330229B18DB191B78BB603423FB1865
:1020A0001B787B603723FB181B78002B02D104239D
:1020B0007B6201E003237B623723FB181B78012B33
:1020C00002D104233B6201E003233B623723FB1868
:1020D0001B78022B02D10423FB6101E00323FB6187
:1020E0003723FB181B78032B02D10223BB6101E0CD
:1020F0000123BB613723FB181B78042B02D1022379
:102100007B6101E001237B613723FB181B78052BE2
:1021100002D102239B4601E001239B463723FB1893
:102120001B78062B02D10223994601E00123994630
:10213000A62330229B18DB191B789A46A5239B18EF
:10214000DB191B789846A4239B18DB191B789C4647
:10215000A3239B18DB191E783723FB181B78032B4E
:1021600001D1042500E003253723FB181B78042B3D
:1021700001D1042400E003243723FB181B78052B2E
:1021800001D1042200E003223723FB181B78062B21
:1021900001D1042300E00323214939600C203021C0
:1021A0004018C01913931292119410950F9663461C
:1021B0000E9343460D9353460C934B460B935B464D
:1021C0000A937B690993BB690893FB6907933B6A90
:1021D00006937B6A05937B680493BB680393FB6853
:1021E00002933B690193BB6A0093FB6A3A6B3968BF
:1021F00025F018FB002003F0F9FC0C203023C31855
:10220000DB19180003F0A8FC03F026FDC046BD460C
:1022100037B0F0BCBB46B246A946A046F0BDC046AA
:10222000D889061080B582B000AF78600D4B7A680F
:102230001A600D4B00221A700C4B01221A7002F02A
:10224000D9FA02F077FD04F02BF903F099FB002096
:1022500005F0E8F9022005F0E5F901231800BD4674
:1022600002B080BD980300209C0300209D03002045
:1022700080B582B000AF3B1D1860054B1A683B1D4E
:102280001968100001F00FFFC046BD4602B080BDC6
:1022900098030020B0B584B000AF3B1D00221A7037
:1022A0003B1D00225A800F257C1902F0E5FA03003D
:1022B0002370344B1B787A1912789A422FD0324B04
:1022C0001B6832331C0004F037F903009C4226D20D
:1022D0003B1D04221A702B4B1A787B191B78534034
:1022E000DBB21B029AB27B191B789BB2D3189AB24D
:1022F0003B1D5A80234B7A1912781A7004F01CF98E
:102300000200214B1A6004F017F902001F4B1A60FB
:102310001F4B01221A703B1D1868FFF7A9FF1C4BC9
:102320001B781D00194B1B681A4A9C1804F004F90D
:1023300003009C429B415B42DBB22B400CD03B1D17
:1023400009221A703B1D00225A80114B00221A707C
:102350003B1D1868FFF78CFF08217B183A1D126897
:102360001A607A18002311880904090C1B0C1B043D
:102370000B43528812041B041B0C13431800BD4668
:1023800004B0B0BD14260020A4030020A803002040
:10239000AC03002030750000B0B58EB002AF3B1D1D
:1023A00018602F23FB1800221A702E23FB18BE4A38
:1023B00012781A703B1D1B785BB2092B04D1BB4B02
:1023C00001221A7003F041FCB84B1B78002B15D08A
:1023D0003B1D1B785BB2042B01D001F07BF9B34BA2
:1023E00000221A702E23FB1800221A702F23FB18CC
:1023F00001221A7003F022FC01F06CF9AA4B1B7841
:10240000052B01D901F059F99A00A94BD3181B6883
:102410009F463B1D1B785BB2022B01D1FFF732FCBC
:102420003B1D1B785BB2042B01D001F048F93B1D2A
:102430005B881A0080235B00134014D03B1D5B882F
:102440001A00012313400ED12E23FB1801221A700B
:102450002F23FB1801221A70964B00221A70964BFC
:1024600000221A7094E03B1D5B881A0080239B00B9
:10247000134014D03B1D5B881A00022313400ED179
:102480002E23FB1802221A702F23FB1801221A7028
:10249000884B00221A70884B00221A7078E03B1D8E
:1024A0005B881A008023DB0013400ED03B1D5B8845
:1024B0001A000423134008D12E23FB1804221A709B
:1024C0002F23FB1801221A7062E03B1D5B881A0063
:1024D00080231B0113400ED03B1D5B881A0008238C
:1024E000134008D12E23FB1805221A702F23FB1846
:1024F00001221A704CE03B1D5B881A0080235B01AF
:1025000013401AD03B1D5B881A001023134014D1CE
:1025100001F01CFF03001A002B243B19053A1A7026
:1025200001F02AFF03001A003B191B781100180064
:1025300001F0CAFEFFF7A6FB2AE03B1D5B881A00EC
:1025400080239B01134001D101F0B9F83B1D5B884A
:102550001A002023134001D001F0B1F801F0F6FE7B
:1025600003001A002A243B1905321A703B191B7804
:10257000642B09D801F000FF03001A003B191B78F7
:102580001100180001F0A0FEFFF77CFB01F097F8A6
:1025900001F095F83B1D1B785BB2022B0BD1474B2A
:1025A00000221A70454B1878424B1978424B1B7821
:1025B0001A00FFF797FB3B1D1B785BB2042B01D081
:1025C00001F07FF83B1D5B881A0080235B001340FD
:1025D0000ED03B1D5B881A000123134008D12E2327
:1025E000FB1800221A702F23FB1801221A70E1E059
:1025F0003B1D5B881A0080239B00134020D03B1DAD
:102600005B881A00022313401AD124217B180B2265
:102610001A70284B1B781B029BB2274A12789B1812
:102620009AB27B185A807B18186802F051FE2E234C
:10263000FB1800221A702F23FB1801221A70B9E030
:102640003B1D5B881A008023DB00134038D03B1D04
:102650005B881A000423134032D1184B1B78002BDF
:102660000DD1144B1B78013BDAB2124B1A70114B8F
:102670001B78FF2B0DD10F4B64221A7009E00E4B13
:102680001B78013BDAB20C4B1A700B4B1A780A4BD1
:102690001A700A4B1878074B1978074B1B781A00E9
:1026A000FFF720FB86E0C0469C0300209D0300202E
:1026B0009C9106109F030020A00300209E03002091
:1026C0003B1D5B881A0080231B0113402FD03B1D4C
:1026D0005B881A000823134029D1D74B1B78002BA5
:1026E00010D1D64B1B780133DAB2D44B1A70D34BCE
:1026F0001B7864211800FDF729FE0B00DAB2CF4BDE
:102700001A7009E0CE4B1B780133DAB2CC4B1A7049
:10271000CB4B1A78CA4B1A70C74B1878C74B19782D
:10272000C74B1B781A00FFF7DDFA00F0D3FF3B1D03
:102730005B881A0080235B01134017D03B1D5B8828
:102740001A001023134011D1BB4B1B785A4253413E
:10275000DBB21A00B84B1A70B74B1878B74B197820
:10276000B74B1B781A00FFF7BDFA23E03B1D5B88CF
:102770001A0080239B01134001D100F0A2FF3B1DF2
:102780005B881A002023134001D000F09AFFAA4B67
:102790001B785A425341DBB21A00A74B1A70A64B62
:1027A0001878A64B1978A64B1B781A00FFF79AFAEF
:1027B00000F087FF00F085FF3B1D1B785BB2022B0A
:1027C00027D19D4B00221A709E4B00221A709E4BFF
:1027D00000221A709D4B00221A709D4B00221A7025
:1027E0009C4B00221A70944B1878964B1978964B94
:1027F0001B780133DCB2954B1B780133DDB2944B6F
:102800001B78944A1278019200932B002200FFF764
:10281000B5FB3B1D1B785BB2042B01D000F053FFCE
:102820003B1D5B881A0080235B0013400ED03B1DCC
:102830005B881A000123134008D12E23FB180022C5
:102840001A702F23FB1801221A7024E23B1D5B88AB
:102850001A0080239B0013400ED03B1D5B881A009A
:102860000223134008D12E23FB1803221A702F23B2
:10287000FB1801221A700EE23B1D5B881A008023B0
:10288000DB00134000D1BDE03B1D5B881A00042330
:10289000134000D0B6E0684B1B78062B00D993E0BC
:1028A0009A006D4BD3181B689F46664B1B78013B03
:1028B000DAB2644B1A70634B1B78FF2B00D085E0B3
:1028C000604B0C221A7081E05F4B1B78013BDAB23F
:1028D0005D4B1A705C4B1B78FF2B00D078E05A4B95
:1028E0001E221A7074E0594B1B78013BDAB2574B29
:1028F0001A70564B1B78FF2B00D06BE0534B1E22F7
:102900001A7067E0524B1B781A00F82313400DD160
:102910004F4B1B785BB2032213405BB248225242FA
:1029200013435BB2DAB24A4B1A7054E0484B1B783F
:10293000083BDAB2464B1A704DE0454B1B78002B32
:1029400003D1434BBB221A7045E0414B1B78013B3E
:10295000DAB23F4B1A703E4B1B7804229343DAB233
:102960003B4B1A7037E03B4B1B781A00F82313409F
:102970000DD1384B1B785BB2032213405BB2482267
:10298000524213435BB2DAB2324B1A7023E0314B3E
:102990001B78083BDAB22F4B1A701CE02D4B1B78CA
:1029A000002B03D12B4BBB221A7014E0294B1B7850
:1029B000013BDAB2274B1A70264B1B780422934353
:1029C000DAB2244B1A7006E0C04604E0C04602E0CA
:1029D000C04600E0C046184B18781A4B19781A4BBD
:1029E0001B780133DCB2194B1B780133DDB2184B75
:1029F0001B78184A1278019200932B002200FFF7EF
:102A0000BDFA48E13B1D5B881A0080231B0113407F
:102A100000D1D6E03B1D5B881A000823134000D08C
:102A2000CFE0054B1B78062B00D9AEE09A000B4B8C
:102A3000D3181B689F46C0469E0300209F030020BA
:102A4000A0030020AD030020AE030020AF03002050
:102A5000B0030020B1030020B4910610D0910610FD
:102A6000D44B1B780133DAB2D24B1A70D14B1B789E
:102A70000D211800FDF76AFC0B00DAB2CD4B1A707D
:102A800088E0CD4B1B780133DAB2CB4B1A70CA4BBE
:102A90001B781F211800FDF759FC0B00DAB2C64B5A
:102AA0001A7077E0C54B1B780133DAB2C34B1A704A
:102AB000C24B1B781F211800FDF748FC0B00DAB24F
:102AC000BE4B1A7066E0BE4B1B781A00F823134009
:102AD000B82B07D1BA4B1B7803221340DAB2B84B9C
:102AE0001A7057E0B64B1B780833DAB2B44B1A7041
:102AF00050E0B34B1B78BB2B03D1B14B00221A70B3
:102B000045E0AF4B1B780133DAB2AD4B1A70AC4BDA
:102B10001B781A000423134039D0A94B1B780433C7
:102B2000DAB2A74B1A7032E0A64B1B781A00F823D2
:102B30001340B82B07D1A34B1B7803221340DAB202
:102B4000A04B1A7026E09F4B1B780833DAB29D4BDE
:102B50001A701FE09B4B1B78BB2B03D1994B0022B3
:102B60001A7016E0974B1B780133DAB2954B1A7046
:102B7000944B1B781A00042313400AD0914B1B7806
:102B80000433DAB28F4B1A7003E0C04602E0C0464D
:102B900000E0C0468C4B1878864B1978864B1B7822
:102BA0000133DCB2854B1B780133DDB2844B1B78DB
:102BB000844A1278019200932B002200FFF7DEF97D
:102BC00069E03B1D5B881A0080235B01134029D01C
:102BD0003B1D5B881A001023134023D17A4B1B78CE
:102BE000013BDAB2784B1A70774B1B78FF2B02D17E
:102BF000754B06221A70744B18786E4B19786E4B11
:102C00001B780133DCB26D4B1B780133DDB26C4BAA
:102C10001B786C4A1278019200932B002200FFF778
:102C2000ADF938E03B1D5B881A0080239B011340FF
:102C300001D100F048FD3B1D5B881A0020231340A2
:102C400001D000F040FD604B1B780133DAB25E4BDF
:102C50001A705D4B1B7807211800FDF777FB0B00FE
:102C6000DAB2594B1A70584B1878524B1978524BAC
:102C70001B780133DCB2514B1B780133DDB2504B72
:102C80001B78504A1278019200932B002200FFF724
:102C900075F900F018FD00F016FD3B1D1B785BB2C6
:102CA000022B0BD1484B00221A70474B1878474B28
:102CB0001978474B1B781A00FFF714F83B1D1B7857
:102CC0005BB2042B01D000F000FD3B1D5B881A00B5
:102CD00080235B0013400ED03B1D5B881A0001234C
:102CE000134008D12E23FB1802221A702F23FB1841
:102CF00001221A70FBE03B1D5B881A0080239B00B9
:102D0000134038D03B1D5B881A000223134032D198
:102D1000284B1A781C217B181A70274B1B7801331B
:102D2000DAB27B185A70254B1B780133DAB27B1864
:102D30001A71234B1A787B189A70224B1A787B18D9
:102D4000DA70234B1B780133DAB27B189A711F4B70
:102D50001B780133DAB27B185A717B1818685968EE
:102D600001F016FC2E23FB1800221A702F23FB18EB
:102D700001221A70BBE03B1D5B881A008023DB0038
:102D800013403BD03B1D5B881A000423134035D110
:102D90000D4B1B78002B1DD10C4B1B78013BDAB27D
:102DA0000A4B1A70094B1B78FF2B1DD1074B64226D
:102DB0001A7019E0AD030020AE030020AF0300201D
:102DC000B0030020B10300209E0300209F030020D9
:102DD000A0030020D34B1B78013BDAB2D14B1A7011
:102DE000D04B1A78CF4B1A70CF4B1878CF4B19783D
:102DF000CC4B1B781A00FEF775FF78E03B1D5B8813
:102E00001A0080231B0113402ED03B1D5B881A0043
:102E10000823134028D1C44B1B78002B10D1C34B7F
:102E20001B780133DAB2C14B1A70C04B1B78642196
:102E30001800FDF78BFA0B00DAB2BC4B1A7009E0F0
:102E4000B84B1B780133DAB2B64B1A70B54B1A780F
:102E5000B44B1A70B44B1878B44B1978B14B1B783B
:102E60001A00FEF73FFF42E03B1D5B881A008023FB
:102E70005B01134017D03B1D5B881A0010231340E1
:102E800011D1A94B1B785A425341DBB21A00A64B11
:102E90001A70A54B1878A54B1978A24B1B781A000D
:102EA000FEF720FF23E03B1D5B881A0080239B0177
:102EB000134001D100F009FC3B1D5B881A00202360
:102EC000134001D000F001FC974B1B785A4253414C
:102ED000DBB21A00944B1A70934B1878934B197805
:102EE000904B1B781A00FEF7FDFE00F0EEFB00F0A1
:102EF000ECFB3B1D1B785BB2022B30D18A4B0022CE
:102F00001A7003F059F903005AB2894B1A7003F092
:102F100045F903005AB2874B1A7003F031F90300E8
:102F20005AB2854B1A7003F01DF903005AB2834B55
:102F30001A707D4B1878814B1B785BB2D9B27E4BEF
:102F40001B785BB2DAB27B4B1B785BB2DCB2784B9E
:102F50001B785BB2DBB200932300FEF76BFF3B1DD7
:102F60001B785BB2042B01D000F0B1FB3B1D5B88EA
:102F70001A0080235B0013400ED03B1D5B881A00B3
:102F80000123134008D12E23FB1800221A702F238F
:102F9000FB1801221A703AE23B1D5B881A0080235D
:102FA0009B00134000D18CE03B1D5B881A0002237C
:102FB000134000D085E0802200216F2001F034FF13
:102FC000282203216F2001F02FFF594B1B785BB2A1
:102FD0000A211800FDF7BEF903005BB21B015BB2CA
:102FE000702213405CB2524B1B785BB20A2118006E
:102FF000FDF796FA0B005BB223435BB2DBB21A001B
:1030000001216F2001F010FF4A4B1B785BB20A21AF
:103010001800FDF79FF903005BB21B015CB2454B42
:103020001B785BB20A211800FDF77AFA0B005BB23D
:1030300023435BB2DBB21A0002216F2001F0F4FEE1
:103040003D4B1B785BB20A211800FDF783F90300A2
:103050005BB21B015CB2384B1B785BB20A211800D3
:10306000FDF75EFA0B005BB223435BB2DBB21A00E2
:1030700004216F2001F0D8FE304B1B785BB20A218F
:103080001800FDF767F903005BB21B015CB22B4B24
:103090001B785BB20A211800FDF742FA0B005BB205
:1030A00023435BB2DBB21A0005216F2001F0BCFEA6
:1030B0002E23FB1800221A702F23FB1801221A70EE
:1030C000A5E13B1D5B881A008023DB00134000D183
:1030D0009BE03B1D5B881A000423134000D094E062
:1030E000114B1B78032B4FD000DD77E0022B39D03A
:1030F00000DD73E0002B02D0012B21D06EE00F4BDE
:103100001B785BB2DBB2013BDBB25AB20B4B1A70DD
:103110000A4B1B785BB2002B59DC084B0C221A704F
:1031200055E0C046A00300209E0300209F0300201E
:10313000B2030020B3030020B4030020B503002035
:10314000CA4B1B785BB2DBB2013BDBB25AB2C74B56
:103150001A70C64B1B785BB2002B3ADCC34B1F22A4
:103160001A7036E0C24B1B785BB2DBB2013BDBB2BC
:103170005AB2BF4B1A70BE4B1B785BB2002B2ADAD7
:10318000BB4B17221A7026E0BA4B1B785BB2DBB23E
:10319000013BDBB25AB2B74B1A70B64B1B785BB22D
:1031A000002B1ADAB34B3B221A70B14B1B785BB27F
:1031B000DBB2013BDBB25AB2AD4B1A70AC4B1B78A1
:1031C0005BB2002B09DAAA4B17221A7005E0C04641
:1031D00004E0C04602E0C04600E0C046A64B1878B6
:1031E000A64B1B785BB2D9B2A04B1B785BB2DAB2AC
:1031F0009F4B1B785BB2DCB29E4B1B785BB2DBB2A1
:1032000000932300FEF716FE64E23B1D5B881A0064
:1032100080231B01134000D195E03B1D5B881A0001
:103220000823134000D08EE0934B1B78032B42D031
:1032300000DD71E0022B29D06EDC002B02D0012BC7
:1032400012D069E08D4B1B785BB2DBB20133DBB28D
:103250005AB28A4B1A70894B1B785BB20C2B58DD23
:10326000864B01221A7054E0804B1B785BB2DBB2B4
:103270000133DBB25AB27D4B1A707C4B1B785BB2C8
:103280001F2B48DD794B01221A7044E0784B1B78E4
:103290005BB2DBB20133DBB25AB2754B1A70744BBE
:1032A0001B785BB218211800FDF73AF90B005AB2EF
:1032B0006F4B1A7030E06F4B1B785BB2DBB201339F
:1032C000DBB25AB26B4B1A706A4B1B785BB23C2173
:1032D0001800FDF725F90B005AB2664B1A70654BC2
:1032E0001B785BB2002B17D1614B1B785BB2DBB252
:1032F0000133DBB25AB25E4B1A705D4B1B785BB286
:1033000018211800FDF70CF90B005AB2584B1A702F
:1033100002E0C04600E0C046574B1878574B1B7878
:103320005BB2D9B2514B1B785BB2DAB2504B1B780F
:103330005BB2DCB24F4B1B785BB2DBB20093230075
:10334000FEF778FD63E03B1D5B881A0080235B017C
:10335000134029D03B1D5B881A001023134023D152
:10336000454B1B78013BDAB2434B1A70424B1B783A
:10337000FF2B02D1404B03221A703F4B18783F4B72
:103380001B785BB2D9B2394B1B785BB2DAB2384BDF
:103390001B785BB2DCB2374B1B785BB2DBB20093BD
:1033A0002300FEF747FD32E03B1D5B881A008023B7
:1033B0009B01134000D18AE13B1D5B881A0020234A
:1033C000134000D083E12C4B1B780133DAB22A4B37
:1033D0001A70294B1B7803221340DAB2264B1A705D
:1033E000254B1878254B1B785BB2D9B21F4B1B7845
:1033F0005BB2DAB21E4B1B785BB2DCB21D4B1B78A2
:103400005BB2DBB200932300FEF714FD5FE15EE1E7
:103410003B1D1B785BB2022B0BD1174B00221A709D
:10342000154B1C7800F0A8FF030019002000FEF7E0
:10343000A7FC3B1D1B785BB2042B00D049E13B1D70
:103440005B881A0080235B00134019D03B1D5B880A
:103450001A000123134013D12E23FB1800221A70E7
:103460002F23FB1801221A7026E1C046B403002066
:10347000B3030020B20300209E030020B503002008
:103480003B1D5B881A0080239B00134014D03B1D1A
:103490005B881A00022313400ED1A14B1B78022B2C
:1034A00001D101F06BF92E23FB1800221A702F2393
:1034B000FB1801221A70FFE03B1D5B881A00802375
:1034C000DB0013401FD03B1D5B881A000423134010
:1034D00019D1934B1B780133DAB2914B1A70904B90
:1034E0001B7803211800FCF731FF0B00DAB28C4B7C
:1034F0001A708B4B1C7800F03FFF0300190020006E
:10350000FEF73EFCD8E03B1D5B881A0080231B01C0
:1035100013401CD03B1D5B881A000823134016D1B2
:103520007F4B1B78013BDAB27D4B1A707C4B1B78CA
:10353000FF2B02D17A4B02221A70794B1C7800F0D3
:103540001BFF030019002000FEF71AFCC2E03B1D20
:103550005B881A0080235B01134053D03B1D5B88BE
:103560001A00102313404DD16D4B1B78002B02D055
:10357000012B36D045E000F0FFFE0300053BDAB238
:103580002D243B191A703B191B787F2B15D93B1939
:1035900000221A7000F0DAFE03001A003B191B78B3
:1035A0001900100000F090FE5D4B1A783B191B7853
:1035B00019001000FEF7E4FB23E000F0C7FE030053
:1035C0001A002D243B191B781900100000F07CFE16
:1035D000534B1A783B191B7819001000FEF7D0FBEB
:1035E0000FE018243B190B221A7002F0B7F9030000
:1035F000013B9AB23B195A803B19186801F068FEEA
:10360000C04659E03B1D5B881A0080239B01134094
:103610005FD03B1D5B881A002023134059D1404BDB
:103620001B78002B02D0012B36D045E000F0A4FE21
:1036300003001A002C243B1905321A703B191B7821
:10364000642B15D93B1964221A7000F07FFE030029
:103650001A003B191B781900100000F035FE304BA2
:103660001A783B191B7819001000FEF789FB23E03C
:1036700000F06CFE03001A002C243B191B78190083
:10368000100000F021FE264B1A783B191B78190018
:103690001000FEF775FB0FE014243B190B221A7083
:1036A00002F05CF9030001339AB23B195A803B19CE
:1036B000186801F00DFEC0460BE0C0460AE0C046A7
:1036C00008E0C04606E0C04604E0C04602E0C0464E
:1036D00000E0C0462F23FB181B78002B1AD01021C6
:1036E0007B1800221A607B1803221A707B18186856
:1036F000FEF752FE0B4B2E22BA1812781A700C21CC
:103700007B1800221A607B1802221A707B18186836
:10371000FEF742FE01231800BD460CB0B0BDC04606
:103720009E0300209C03002080B584B000AF786029
:103730000C4B00221A700C4B7A681A6002F0AEFF34
:1037400000F046FD0C217B1801221A707B18002224
:103750005A807B18186800F009F801231800BD464C
:1037600004B080BDB6030020B803002080B582B04D
:1037700000AF3B1D1860054B1A683B1D196810000F
:1037800000F091FCC046BD4602B080BDB8030020E9
:10379000F0B587B000AF1723FB1800221A700C2574
:1037A0007B1900221A707B1900225A801626BC1938
:1037B00003F06EF80300237031007B181B78252B73
:1037C0000BD01723FB1801221A707B1906221A70DE
:1037D0007B181B789AB27B195A801F4B1B78012BE0
:1037E00015D103F070F8031E04D1FEF7A7F903000A
:1037F000012B0CD1194B1A683B1D072119703B1D79
:10380000002159803B1D1968100000F04CFC172363
:10381000FB181B78002B07D0104B1A680C23FB18E1
:103820001968100000F03FFC10217B180C22BA1818
:1038300012681A607A18002311880904090C1B0CFD
:103840001B040B43528812041B041B0C1343180067
:10385000BD4607B0F0BDC046BC030020B803002041
:10386000B0B58EB000AF3B1D18603723FB180022A7
:103870001A703623FB18DC4A12781A70DA4B1B7860
:10388000142B00D955E39A00D84BD3181B689F46D8
:103890003B1D1B785BB2012B00D04CE33623FB1899
:1038A00001221A703723FB1801221A7043E33B1DD3
:1038B0001B785BB2022B02D1CD4B00221A703B1D4C
:1038C0001B785BB2062B00D037E33B1D5B880F2BC8
:1038D0003AD89A00C74BD3181B689F463623FB186B
:1038E00002221A703723FB1801221A702DE03623AA
:1038F000FB1803221A703723FB1801221A7024E0E8
:103900003623FB1805221A703723FB1801221A7080
:103910001BE03623FB1807221A703723FB180122FD
:103920001A7012E03623FB1808221A703723FB188E
:1039300001221A7009E03623FB1811221A7037236E
:10394000FB1801221A7000E0C046F6E23B1D1B780E
:103950005BB2062B00D0F2E23B1D5B88DCB200F0CC
:103960000BFD03001900200000F0AEFC031E03D184
:10397000A14B180000F034FB3623FB1801221A700B
:103980003723FB1801221A70D9E23B1D1B785BB26A
:10399000062B00D0D5E23B1D5B88DAB2974B1A703C
:1039A0003623FB1804221A703723FB1801221A70E1
:1039B000C7E23B1D1B785BB2062B00D0C3E2282177
:1039C0007B180B221A708D4B1B781B029AB23B1D81
:1039D0005B88D3189AB27B185A807B18186801F05C
:1039E00077FC3623FB1801221A703723FB180122BB
:1039F0001A70A8E23B1D1B785BB2022B00D0A4E238
:103A00007B4B01221A707E4B00221A602C257C19F8
:103A100000F02EFD030023802C003B191B881B0A9D
:103A20009BB2DBB2180002F039FF3B191B88DBB2F6
:103A3000180002F033FF3623FB1806221A703723D2
:103A4000FB1801221A7080E23B1D1B785BB2072B2A
:103A500000D07CE22E217B1820221A80684B1B6844
:103A60009AB234243B190800791809888A1A1A80F6
:103A70003B181A88624B1B68D31A552B02D93B1985
:103A800055221A8000233B6344E01C243B19180094
:103A900007231A00002123F0E1FF3B1901221A70CD
:103AA0003B1901225A703B1949229A703B194A224C
:103AB000DA703B1901221A713B1901225A713B1924
:103AC0001B78180002F0EAFE3B195B78180002F040
:103AD000E5FE3B199B78180002F0E0FE3B191B79CC
:103AE000180002F0DBFE3B19DB78180002F0D6FE6E
:103AF0003B195B79180002F0D1FE3B199B79180045
:103B000002F0CCFE3E4B1B685A1C3D4B1A603B6BCF
:103B100001333B633423FB181B883A6B9A42B4DBB6
:103B20002E243B191A88364B1B68D31A552B00D903
:103B30000DE2032002F0B2FE3B191B88FE2B03D9D5
:103B4000304B180000F04CFA2D4B00221A60284B25
:103B500000221A703623FB1801221A703723FB1833
:103B600001221A70F3E13B1D1B785BB2062B00D0DB
:103B7000EFE100F0EBFB03001A003B1D5B88DBB2BA
:103B80001900100000F0A0FB031E03D11E4B18000B
:103B900000F026FA3623FB1801221A703723FB188F
:103BA00001221A70D5E13B1D1B785BB2022B00D0BD
:103BB000D1E1164B180007231A00002123F04EFF15
:103BC00000F0DCFD031E03D1114B180000F008FAD1
:103BD0003623FB1809221A703723FB1801221A70AA
:103BE0000C4B00221A70B6E1B6030020EC910610CF
:103BF000BC03002040920610808A0610BD030020FE
:103C0000C0030020988A0610D08A0610C403002042
:103C1000EC8A0610CB0300203B1D1B785BB2062B01
:103C200000D09AE13B1D5B880D2B0DD13623FB188C
:103C300001221A703723FB1801221A70D14B186821
:103C4000596800F0A5FC88E1CF4B1B78B42B14D940
:103C5000CE4B180000F0C4F9CA4B1868596800F040
:103C600097FC3623FB1810221A703723FB18012209
:103C70001A700D2002F012FE6FE1C24B18685968ED
:103C800000F086FC3B1D5B88DAB2BE4B1A7036230F
:103C9000FB180A221A703723FB1801221A705CE104
:103CA0003B1D1B785BB2062B00D058E13B1D5B88A7
:103CB000DAB2B44B5A703623FB180B221A70372332
:103CC000FB1801221A704AE13B1D1B785BB2062BE0
:103CD00000D046E13B1D5B88DAB2AA4B9A703623CE
:103CE000FB180C221A703723FB1801221A7038E1D6
:103CF0003B1D1B785BB2062B00D034E13B1D5B887B
:103D0000DAB2A04B1A713623FB180D221A70372332
:103D1000FB1801221A7026E13B1D1B785BB2062BB3
:103D200000D022E13B1D5B88DAB2964BDA70362375
:103D3000FB180E221A703723FB1801221A7014E1A7
:103D40003B1D1B785BB2062B00D010E13B1D5B884E
:103D5000DAB28C4B5A713623FB180F221A703723B4
:103D6000FB1801221A7002E13B1D1B785BB2062B87
:103D700000D0FEE03B1D5B88DAB2824B9A7136239D
:103D8000FB1809221A703723FB1801221A707E4B88
:103D90001B780133DAB27C4B1A70EAE03B1D1B78CA
:103DA0005BB2062B00D0E6E03B1D5B880D2B00D0FC
:103DB000E1E03623FB1801221A703723FB18012299
:103DC0001A70D8E03B1D1B785BB2062B00D0D4E004
:103DD0003B1D5B883B2B00D9CFE03B1D5B880A2154
:103DE0001800FCF72DFA03009BB2DBB21B01DCB21A
:103DF0003B1D5B880A211800FCF7A8FA0B009BB258
:103E0000DBB2E318DBB21A0001216F2001F00CF8DD
:103E10003623FB1812221A703723FB1801221A705E
:103E2000ABE03B1D1B785BB2062B00D0A7E03B1D2F
:103E30005B88172B00D9A2E03B1D5B880A21180084
:103E4000FCF7FEF903009BB2DBB21B01DCB23B1DA9
:103E50005B880A211800FCF779FA0B009BB2DBB2F1
:103E6000E318DBB21A0002216F2000F0DDFF3623D9
:103E7000FB1813221A703723FB1801221A707EE0F8
:103E80003B1D1B785BB2062B26D13B1D5B881F2B8D
:103E900022D83B1D5B880A211800FCF7D1F90300EA
:103EA0009BB2DBB21B01DCB23B1D5B880A21180010
:103EB000FCF74CFA0B009BB2DBB2E318DBB21A0042
:103EC00004216F2000F0B0FF3623FB1814221A7073
:103ED0003723FB1801221A703B1D1B785BB2062B9F
:103EE00056D13B1D5B880C2B52D83B1D5B880A21A9
:103EF0001800FCF7A5F903009BB2DBB21B01DCB292
:103F00003B1D5B880A211800FCF720FA0B009BB2CE
:103F1000DBB2E318DBB21A0005216F2000F084FF4A
:103F20003623FB1801221A703723FB1801221A705E
:103F30002EE0C0462DE0C0462BE0C04629E0C0463A
:103F400027E0C04625E0C04623E0C04621E0C04649
:103F50001FE0C0461DE0C0461BE0C04619E0C04659
:103F600017E0C04615E0C04613E0C04611E0C04669
:103F70000FE0C0460DE0C0460BE0C04609E0C04679
:103F800007E0C046C4030020CB030020088B0610C6
:103F9000C0463723FB181B78002B1AD010217B1842
:103FA00000221A607B1803221A707B181868FFF72A
:103FB00057FC0A4B3622BA1812781A700C217B185B
:103FC00000221A607B1802221A707B181868FFF70B
:103FD00047FC01231800BD460EB0B0BDB60300205B
:103FE00080B584B000AF78607B681800FCF716F9E4
:103FF0000300BB600E2002F051FC0023FB6009E0CF
:10400000FB687A68D3181B78180002F047FCFB683D
:104010000133FB60FA68BB689A42F1DB0A2002F0C8
:104020003DFC01231800BD4604B080BD80B582B0C0
:1040300000AF0C2023F00CFA03007B607B68002BA0
:1040400001D1002309E07B6800221A607B6800220E
:104050005A607B6800221A817B681800BD4602B056
:1040600080BD80B584B000AF78607B68002B01D143
:10407000002314E07B681B68FB6008E0FB68BB6002
:10408000FB685B68FB60BB68180023F0EBF9FB681A
:10409000002BF3D17B68180023F0E4F9012318000A
:1040A000BD4604B080BD80B584B000AF78603B00F1
:1040B00019607B68002B01D1002326E0082023F043
:1040C000C7F90300FB60FB68002B01D100231CE053
:1040D000FB683A0012681A60FB6800225A607B682D
:1040E0005B68002B04D07B685B68FA685A6002E06A
:1040F0007B68FA681A607B68FA685A607B681B897B
:1041000001339AB27B681A8101231800BD4604B0BE
:1041100080BD90B589B000AF78607B68002B07D177
:1041200018217B18FF221A707B1800225A8030E079
:104130007B681B68002B0AD17B6800225A6018211B
:104140007B1800221A707B1800225A8021E07B68BD
:104150001B68FB61FB695A687B681A607B681B6897
:10416000002B02D17B6800225A6014243B19FA69A3
:1041700012681A60FB69180023F074F97B681B89C8
:10418000013B9AB27B681A811823FB183A1912680E
:104190001A601823FA18002311880904090C1B0C53
:1041A0001B040B43528812041B041B0C13431800FE
:1041B000BD4609B090BD80B582B000AF78607B6825
:1041C0001B895A1E9341DBB21800BD4602B080BD68
:1041D00080B582B000AF364B1B78002B01D0012395
:1041E00062E0344B1A69334B0C210A431A610023F5
:1041F0007B600FE07B68304A94466344DB001B78A9
:10420000FF2B04D17B681AB22C4B1A8005E07B6827
:1042100001337B607B68FF2BECDD00233B600FE00C
:104220003B68274A94466344DB001B78FF2B04D18C
:104230003B681AB2234B1A8005E03B6801333B60B0
:104240003B68FF2BECDD1A4B01221A7000F07EF860
:104250000300FF2B04D000F08FF80300FF2B22D1C6
:1042600000F074F80300FF2B09D100F085F803007B
:10427000FF2B04D12821322000F026F813E000F0B3
:1042800065F80300FF2B07D100F076F80300190052
:10429000322000F019F806E000F058F80300282159
:1042A000180000F011F801231800BD4602B080BDCF
:1042B000D00300200010004000DE0002CC030020EC
:1042C00000DD0002CE030020B0B588B000AF0200D0
:1042D000FB1D1A70BB1D0A1C1A701A4B1B78002B91
:1042E00001D100232AE00C217B185C225A607B1844
:1042F00001229A607B1800221A600823FA187B18A2
:104300001100180003F008FD00F020F800F034F868
:10431000BB1D1B781A02FB1D1B78D318FB611B25E4
:104320007C19FB6908491A00002003F01BFC0300FC
:1043300023707B191B785A425341DBB21800BD46EB
:1043400008B0B0BDD003002000E0061080B582B0F8
:1043500000AF074B1B78002B01D1002303E0054B76
:104360007B607B681B781800BD4602B080BDC046EC
:10437000D003002000E0061080B582B000AF074BEC
:104380001B78002B01D1002303E0054B7B607B6889
:104390001B781800BD4602B080BDC046D003002087
:1043A00001E0061080B584B000AF3B001860596092
:1043B0002C4B1B78002B01D100234FE02A4B00220D
:1043C0009B5EFF2B01DD002348E03B001B781A00B9
:1043D0003B005B781B021A433B009B781B041A438B
:1043E0003B00DB781B061343FB603B001B791A0084
:1043F0003B005B791B021A433B009B791B04134370
:10440000BB60194B00229B5E184A94466344DB0054
:104410001900FB681A00002003F0A4FB031E01D062
:1044200000231BE0104B00229B5E104A944663441D
:10443000DB0004331900BB681A00002003F092FB74
:10444000031E01D0002309E0074B00229B5E9BB2B4
:1044500001339BB21AB2044B1A8001231800BD46E7
:1044600004B080BDD0030020CE03002000DD000298
:1044700080B500AF064B1B78002B01D1002303E071
:10448000044B00229B5E9BB21800BD4680BDC04617
:10449000D0030020CE03002090B587B000AF786035
:1044A0000A00BB1C1A8010243B19180007231A00AD
:1044B000002123F0D3FA334B1B78002B08D17A6804
:1044C0003B191000190007231A0023F03CFB55E0AC
:1044D000BB1C1B882C4A0021525E934245DCBB1C4E
:1044E0001B882A4A94466344DB001A7810217B1803
:1044F0001A70BB1C1B88254A94466344DB000133B9
:104500001A787B185A70BB1C1B88204A9446634457
:10451000DB0002331A787B189A70BB1C1B881B4A7D
:1045200094466344DB0003331A787B18DA70BB1CB3
:104530001B88164A94466344DB0004331A787B18C0
:104540001A71BB1C1B88114A94466344DB00053377
:104550001A787B185A71BB1C1B880C4A944663441A
:10456000DB0006331A787B189A717A681023FB18DF
:104570001000190007231A0023F0E5FA7868BD46F9
:1045800007B090BDD0030020CE03002000DD000264
:1045900080B584B000AF3B00186059602C4B1B788D
:1045A000002B01D100234FE02A4B00229B5EFF2B02
:1045B00001DD002348E03B001B781A003B005B78DC
:1045C0001B021A433B009B781B041A433B00DB7819
:1045D0001B061343FB603B001B791A003B005B7911
:1045E0001B021A433B009B791B041343BB60194B0E
:1045F00000229B5E184A94466344DB001900FB6866
:104600001A00002003F0AEFA031E01D000231BE0C5
:10461000104B00229B5E104A94466344DB00043337
:104620001900BB681A00002003F09CFA031E01D099
:10463000002309E0074B00229B5E9BB201339BB233
:104640001AB2044B1A8001231800BD4604B080BD85
:10465000D0030020CC03002000DE000280B500AFB4
:10466000064B1B78002B01D1002303E0044B0022F2
:104670009B5E9BB21800BD4680BDC046D0030020A3
:10468000CC03002090B587B000AF78600A00BB1C57
:104690001A8010243B19180007231A00002123F068
:1046A000DDF9334B1B78002B08D17A683B191000D9
:1046B000190007231A0023F046FA55E0BB1C1B889B
:1046C0002C4A0021525E934245DABB1C1B882A4AC1
:1046D00094466344DB001A7810217B181A70BB1CC7
:1046E0001B88254A94466344DB0001331A787B1803
:1046F0005A70BB1C1B88204A94466344DB0002337B
:104700001A787B189A70BB1C1B881B4A944663441A
:10471000DB0003331A787B18DA70BB1C1B88164A3F
:1047200094466344DB0004331A787B181A71BB1C6F
:104730001B88114A94466344DB0005331A787B18C2
:104740005A71BB1C1B880C4A94466344DB00063339
:104750001A787B189A717A681023FB1810001900D8
:1047600007231A0023F0EFF97868BD4607B090BD23
:10477000D0030020CC03002000DD0002B0B586B0DD
:1047800000AF104B00221A8008217B185E225A606D
:104790007B1801229A607B1800221A6017257C1969
:1047A0003A1D7B181100180003F0B6FA03002370BD
:1047B0007B191B785A425341DBB21800BD4606B044
:1047C000B0BDC046CC03002080B584B000AF786097
:1047D000074B196D064B7A680A431A65044B1B6D2B
:1047E0007A681340FB60FB68C046BD4604B080BDDC
:1047F0000000404880B586B000AF1D4B1B78002BF1
:1048000001D0012330E03B1D180014231A000021C1
:1048100023F024F90820FFF7D7FF0420FFF7D4FF87
:104820003B1DB02212011A603B1D00225A603B1D45
:1048300000229A603A1D9023DB051100180003F056
:10484000EBFA3B1D10221A603B1D00225A603B1DF3
:1048500000229A603B1D074A1900100003F0DCFAA1
:10486000034B01221A7001231800BD4606B080BD1B
:10487000D103002000001048B0B500AF80231A011A
:104880009023DB051100180003F04EFD03005BB21E
:104890005B015CB280239A009023DB0511001800B5
:1048A00003F042FD03005BB21B015BB223435CB229
:1048B000194B1021180003F037FD03005BB2DB0039
:1048C0005BB223435CB29023DB050821180003F0A0
:1048D0002BFD03005BB29B005BB223435CB29023D1
:1048E000DB050421180003F01FFD03005BB2DB1899
:1048F0005BB223435CB280235A009023DB05110096
:10490000180003F011FD03005BB223435BB2DBB27E
:104910001800BD46B0BDC0460000104890B585B037
:1049200000AF0200FB1D1A70224B1B69002B3DD00B
:10493000214B4022002199541F4B412220219954A0
:104940001E4B1B681A681D4B1B6808218A431A609E
:104950009023DB050221180003F003FC154B122203
:104960005A60144B00221A61124A9023DB05110091
:10497000180003F051FA0121002005F01DFD01216E
:10498000002005F047FDFB1D1B78002B0CD001F02B
:10499000D3FD0300FB60C046FB6814331C0001F02C
:1049A000CBFD03009C42F7D800F078FAC046BD4624
:1049B00005B090BD182600202C260020842600205B
:1049C00090B585B002AF78607B68DB78002B12D1A0
:1049D0007B681B78DB1899B27B685B781C007B686E
:1049E000023310480122019200930123220003F0B8
:1049F000C5FD030011E07B681B78DB1899B27B686A
:104A00005B781C007B680233064801220192009308
:104A10000123220003F054FE03001800BD4603B03A
:104A200090BDC0462C26002090B585B000AF3B1D40
:104A30001860494B1B78002B01D1012387E00F231D
:104A4000FB1800221A7001F077FD0300BB60C0461E
:104A5000424B434A9B5A1C00404AC0235B01D35A35
:104A60000133C022D1001800FBF75AFD0B009C4215
:104A700008D1BB68FA2292009C1801F05DFD03008A
:104A80009C42E5D8354B364A9B5A1C00334AC0231A
:104A90005B01D35A0133C022D1001800FBF740FD5F
:104AA0000B009C4204D1022002F032FE01234EE0B2
:104AB000022002F04BFE294AC0235B01D35A274A49
:104AC00099003B1D1B688B50244AC0235B01D35ABD
:104AD000013399B2214AC0235B01D1521F4AC0233E
:104AE0005B01D35AC022D1001800FBF72FFC0B004A
:104AF00099B21A4AC0235B01D152184B184A9B5AEB
:104B00000133C022D1001800FBF70AFD0B00190089
:104B1000124AC0235B01D35A994215D1114B41224D
:104B20009B5CDBB2202B0FD10120FFF7F7FE0B4B74
:104B30000B4A9B5A9A00094BD3180F22BC18180035
:104B4000FFF73EFF030023700F23FB181B781800AC
:104B5000BD4605B090BDC046D81B0020D403002040
:104B6000021800002C26002080B582B000AF7860CB
:104B7000164B174A9B5A013399B2144B144A995257
:104B8000124B134A9B5AC022D1001800FBF7DEFBE0
:104B90000B0099B20D4B0E4A99520C4B0C4A9A5A83
:104BA0000A49C0235B01CB5A9A420BD00120FFF780
:104BB000B5FE064B064A9B5A9A00044BD3181800C0
:104BC000FFF7FEFEC046BD4602B080BDD403002004
:104BD0000218000080B584B000AF78600C203B184C
:104BE00005221A702A4B2B4A9B5A294A9B00D3183C
:104BF00001331B781BB21B021AB2254B25495B5AA5
:104C000023499B00CB1802331B781BB213431BB202
:104C10009AB23B185A801E4B1E4A9B5A1C4A9B0054
:104C2000D31803331B785A1E1B4B9200D2583B18E3
:104C300018689047164B174A9B5A013399B2144B88
:104C4000144A9952124B134A9B5AC022D1001800A1
:104C5000FBF77CFB0B0099B20D4B0E4A99520C4BA3
:104C60000C4A9A5A0A49C0235B01CB5A9A420BD08C
:104C70000120FFF753FE064B064A9B5A9A00044B4D
:104C8000D3181800FFF79CFEC046BD4604B080BD97
:104C9000D4030020021800008026002090B585B0C3
:104CA00000AF78607B685B6C0422134021D0134B0B
:104CB000134A9A5A1149C0235B01CB5A9A4218D021
:104CC00001F03AFC0300FB60C046FB680A331C009D
:104CD00001F032FC03009C42F7D80120FFF71EFED2
:104CE000064B074A9B5A9A00044BD3181800FFF74B
:104CF00067FEC046BD4605B090BDC046D403002047
:104D00000218000080B500AF094B1B689A69E023C8
:104D1000DB00134004D0064B180003F089FD03E0CC
:104D2000034B180003F06AFDC046BD4680BDC04677
:104D30002C26002090B583B000AF364B1B78002B9B
:104D400001D0012362E001F0ABFB334B8222D2059C
:104D50001A60314B314A5A602F4B00229A602E4B19
:104D60000122DA602C4B00221A612B4B00225A617F
:104D7000294B00229A61284B0022DA61264B00223F
:104D80001A62254B412200219954FC1D224B180028
:104D900003F04EFB03002370FB1D1B78002B01D09A
:104DA000002333E0FC1D1C4B0021180005F010FA15
:104DB00003002370FB1D1B78002B01D0002325E08E
:104DC000FC1D154B0021180005F04EFA030023705E
:104DD000FB1D1B78002B01D0002317E0104B114A5C
:104DE000002199520E4AC0235B010021D152094B88
:104DF00001221A700120FFF791FD002202210320F9
:104E000002F02AFE032002F03CFE01231800BD46FA
:104E100003B090BDD81B00202C2600205B5B300027
:104E2000D403002002180000B0B584B000AF040025
:104E300008001100FB1D221C1A70BB1D021C1A70F9
:104E40007B1D0A1C1A70134B1B78002B01D1012308
:104E50001CE00F217B1800221A700F4BFA1D1278EC
:104E60001A700D4BBA1D12785A700B4B0022DA7073
:104E7000094B7A1D12789A700D007C18064B186841
:104E8000FFF7D2FD030023707B191B781800BD4685
:104E900004B0B0BDD81B0020DC1B002080B500AFE3
:104EA0000D4B41229B5CDBB2202B11D10B4B0C4AEA
:104EB0009A5A0A49C0235B01CB5A9A4208D0074B41
:104EC000074A9B5A9A00054BD3181800FFF778FD44
:104ED000C046BD4680BDC0462C260020D40300201D
:104EE00002180000B0B584B000AF04000800110043
:104EF000FB1D221C1A70BB1D021C1A707B1D0A1C94
:104F00001A70184B1B78002B01D1012326E00F23C8
:104F1000FB1800221A70144BFA1D12781A70124BEB
:104F2000BA1D12785A707B1D1B78002B03D07B1D95
:104F30001B78012B01D9012310E00B4B7A1D12784D
:104F4000DA70094B00229A700F257C19064B1868FD
:104F5000FFF76AFD030023707B191B781800BD461C
:104F600004B0B0BDD81B0020E01B0020B0B584B059
:104F700000AF040008001100FB1D221C1A70BB1DAD
:104F8000021C1A707B1D0A1C1A700F257C197B1DD0
:104F90001A78BB1D1978FB1D1B781800FFF744FF1A
:104FA000030023707B191B78002B01D0012300E044
:104FB00000231800BD4604B0B0BD000090B585B018
:104FC00000AF78600E243B1900221A807E2001F089
:104FD00015FC3B193A191288FF321A80FF2001F0A4
:104FE0000DFC3B193A19128806321A80062001F08E
:104FF00005FC0023BB601DE0BB687A68D3181B78F2
:1050000019000E22BB18BA1812888A181A80BB68B9
:105010007A68D3181978164ABB68D3180A1C1A7014
:10502000BB687A68D3181B78180001F0E7FBBB68EF
:105030000133BB60BB68032BDEDD0E243B193A193C
:10504000128852421A803B191B881B0A9BB2DBB2A2
:10505000180001F0D3FB3B191B88DBB2180001F0EC
:10506000CDFBEF2001F0CAFBC046BD4605B090BDA8
:10507000101C002080B586B000AF0200FB1D1A7026
:10508000FB1D1B78252B01D10023C6E0FB1D1B78DF
:105090007E2B02D1634B00221A70624B1B78082BC7
:1050A00000D9B9E09A00604BD3181B689F46FB1DDE
:1050B0001B78FF2B00D0AEE05A4B01221A70AAE0F9
:1050C000FB1D1B78062B03D1564B02221A70A3E05E
:1050D000544B00221A709FE0524B03221A70534B1C
:1050E000FA1D12781A7097E0FB1D1B78012B03D074
:1050F000FB1D1B78002B03D14A4B04221A708BE056
:10510000484B00221A7087E0464B05221A70474B25
:10511000FA1D12789A707FE0424B06221A70434BB8
:10512000FA1D1278DA7077E0404B1B781A003F4B7B
:105130005B78D3189BB23D4A92789B189BB23B4A4E
:10514000D2789B189AB216203B1839498A1A1A80CD
:10515000FB1D1B789AB23B181B881B0A9BB29A4214
:1051600003D1304B07221A7056E02E4B00221A70E2
:1051700010217B182F4A1A607B181800FFF71EFFBA
:105180004AE02A4B1B781A00284B5B78D3189BB255
:10519000264A92789B189BB2244AD2789B189AB2DE
:1051A00016203B1822498A1A1A80FB1D1A783B18D0
:1051B0001B88FF210B409A4203D11A4B08221A7018
:1051C0002AE0184B00221A700C217B18194A1A6029
:1051D0007B181800FFF7F2FE1EE0FB1D1B78EF2B7B
:1051E00015D1124B1B78402B0CD1104BDB78042BC4
:1051F00008D1114B1800FFF7E1FE0A4B00221A708C
:1052000000230AE0074B00221A70012305E0054B3A
:1052100000221A7000E0C04600231800BD4606B008
:1052200080BDC046F91B002080920610FC1B0020A8
:10523000FBFEFFFF40000006101C002080B584B07C
:1052400000AF78601B4B7A681A6001F029F91A4B9D
:1052500002221A70FFF790F8030064211800FAF791
:10526000EFFF0300DAB2154B1A70FFF76FF8030077
:1052700064211800FAF7E4FF0300DAB2104B1A7049
:1052800001F05AF902000F4B1A6001F055F90200C3
:105290000D4B1A600D4B00221A700C217B180C224A
:1052A0001A607B181800FFF789FE01231800BD461D
:1052B00004B080BDE41B0020E81B0020E91B002097
:1052C000EA1B0020EC1B0020F41B0020F81B002030
:1052D00080B582B000AF3B1D1860054B1A683B1DBE
:1052E00019681000FEF7DFFEC046BD4602B080BD63
:1052F000E41B0020F0B589B000AF08257B1900221F
:105300001A707B1900225A8001F016F90300FB6124
:105310001B26BC1901F046FA0300237034003B1928
:105320001B78252B12D03B191B781800FFF7A2FE23
:10533000031E0BD07B1908221A703B191B789AB2F6
:105340007B195A807B191868FFF7C2FF474B1B78FF
:10535000012B38D1464B1A68464B1B68D31A1800EC
:10536000FCF7A0F904000D00434B1B7819006420E2
:10537000FAF7F0FF03001800FCF766F900223F4B34
:10538000FBF71CFD02000B0020002900FBF730FAA0
:1053900002000B0010001900FBF740F903007B61CD
:1053A00001F0CAF803003B61324B1A687B69D318DD
:1053B0003A699A4207D308217B1809221A707B1890
:1053C0001868FFF785FF2E4B1B68FA69D31A2D4A20
:1053D00093420ED92C4B1B78002B0AD108217B1845
:1053E00001221A707B1800225A807B181868FFF778
:1053F0006FFFFEF7ABFF03001A00244B1B789A42A5
:1054000007D1FEF7B9FF03001A001B4B1B789A4225
:1054100014D008243B190A221A70FEF797FF0300E4
:105420001A001A4B1B78D31A5A425341DBB21A00A6
:105430003B195A803B191868FFF74AFF0C217B186B
:105440000822BA1812681A607A1800231188090411
:10545000090C1B0C1B040B43528812041B041B0C6D
:1054600013431800BD4609B0F0BDC046E81B00203C
:10547000F01B0020EC1B0020E91B00200000F03F87
:10548000F41B0020B70B0000F81B0020EA1B0020D3
:10549000B0B59CB000AF3B1D18603B1D1B785BB2E4
:1054A000012B00D0BDE050217B180E221A607B1822
:1054B0001800FFF783FD6F23FB1801221A70C14B00
:1054C00001221A70FEF7B2FD03003B6654E04C2146
:1054D0007B184E221A707B1800225A707B1800220B
:1054E0009A70B84B1A787B18DA707B181800FFF79F
:1054F00065FD01F021F80300FB65C04601F052F99B
:1055000003001800FFF7B6FD031E08D1FB6DFA2259
:1055100092009C1801F010F803009C42EED8FB6D3D
:10552000FA2292009C1801F007F803009C4222D353
:10553000A54B1B784E2B15D1A24B1B780133DAB249
:10554000A04B1A7048217B1800221A709E4BDB7802
:105550001A007B185A807B183A6E19681000FEF703
:10556000A2FD09E0984B1B78402B05D16F23FB1857
:1055700000221A7000E0C0466F23FB181B78002B36
:10558000A5D1904B1B78013BDAB28E4B1A708D4B34
:105590001B78180021F05CFF03001A008B4B1A6087
:1055A0000023BB6613E03B6E1800FEF7B2FD03005C
:1055B0001A0058217B181A607B185988834B1A6887
:1055C000BB6ED318CAB21A70BB6E0133BB667D4B7B
:1055D0001B781A00BB6E9342E5DB3B6E1800FEF7AA
:1055E00040FD7B4B01221A7054243B1906221A708D
:1055F0003B1900225A703B1900229A70754B1B7898
:105600001A0013001B019B1A5B0064211800FAF7B3
:10561000A1FE0300DAB23B19DA703B191800FFF75C
:10562000CDFC3B1D1B785BB2092B1FD16A4B0022BE
:105630001A7000F081FF0200684B1A6044217B1849
:1056400003221A707B1800225A707B1800229A706D
:10565000634B1A78634B1B78D318DBB2013BDAB289
:105660007B18DA707B181800FFF7A8FC3B1D1B782D
:105670005BB20B2B00D0C0E03B1D5B881B0A9BB2CA
:105680001C003B1D5B881A00FF231340564924254C
:105690007819220022F0C6F87B191800FEF7A0FC4A
:1056A0003B1D186800F0BEFD00F046FF02004B4BAA
:1056B0001A603B1D5B881B0A9BB2002B70D03B1D00
:1056C0005B881B0A9BB23F4A1278934268D83B1D05
:1056D0005B881A00FF23134000D18DE03B1D5B88DF
:1056E0001A00FF231A40394B19683B1D5B881B0ABF
:1056F0009BB2013BCB181B789A4200DD7CE0364B15
:1057000000221A703B1D5B881B0A9BB2DAB2374B32
:105710001A703B1D5B88DAB2354B1A70304B012290
:105720001A7000237B660DE0284B1A687B6ED31835
:105730001A782B4B1B78D318DAB2294B1A707B6E70
:1057400001337B66294B1B78013B7A6E9A42EBDB77
:1057500020217B1803221A707B1800225A707B18B4
:1057600000229A701E4B1A78214B1B78D318DBB29B
:10577000013BDAB27B18DA707B181800FFF71EFCC9
:10578000642002F099F81C217B180D221A607B1806
:105790001800FFF713FC164B1A78164B1A702BE003
:1057A0000D4B02221A7018217B180E221A607B18EA
:1057B0001800FFF703FC0D4B00221A700C4B00225F
:1057C0001A701AE00C1C0020FC1B0020081C002092
:1057D000F81B0020EA1B0020E81B0020EC1B002027
:1057E000021C0020031C0020308B0610011C00202E
:1057F000001C0020041C0020C0463B1D1B785BB22F
:105800000A2B2CD1FEF7B8FD03001A00484B1A7082
:10581000FEF79CFD03001A00464B1A703B1D5B8887
:10582000002B1CD114243B1906221A703B190022AC
:105830005A703B1900229A703E4B1B781A001300D5
:105840001B019B1A5B0064211800FAF783FD03001B
:10585000DAB23B19DA703B191800FFF7AFFB3B1DBA
:105860001B785BB2082B5DD1334B1B783D2B59D194
:10587000314BDA78314B1B789A4253D02E4BDA7881
:105880002E4B1A7000F058FE02002D4B1A602D4B63
:105890001B78002B46D02C4B1B78002B42D00023CA
:1058A0003B611023FA18294B1100180007F007FD7F
:1058B0003B69FF2213403B61254B1A68214B1B7843
:1058C000013BD3181B781A003B695343013BFF216E
:1058D0001800FAF7B5FC03003B613B69DBB201330A
:1058E000DAB21C4B1A701A4B1A68164B1B78013B24
:1058F000D3181A78144B1B789A4202D2154B012206
:105900001A70114B00221A700E4B00221A70124BA3
:1059100001221A700C217B180E221A607B181800C5
:10592000FFF74CFB01231800BD461CB0B0BDC046BC
:10593000E91B0020EA1B0020FC1B0020041C0020A7
:10594000F01B0020011C0020001C0020A0210020D2
:10595000081C0020031C0020E81B002080B500AFBD
:10596000054B1B781B029BB2044A12789B189BB212
:105970001800BD4680BDC046011C0020001C002050
:1059800080B500AF00F06FF90A2001F095FF00F03C
:1059900075F9C82001F090FF002000F027F900F011
:1059A0005BF9C046BD4680BD80B592B000AFF860DF
:1059B000B960FB1D1A70FB687A2B00DDC0E0BB6884
:1059C000382B00DDBCE0FB1D1B78FB63BB68002BA4
:1059D00000DA0733DB10BB63BB685C4A134004D5B5
:1059E000013B08225242134301337B63BB680833F7
:1059F000002B00DA0733DB103B63FB68FB62FB68BC
:105A00000633BB62FF227B6B9A4013007B6200234C
:105A10007B643AE0FA6A7B6CD3187B61BB6BDA017A
:105A20007B69D3184A4AD35C5BB27A6A52B2D243DA
:105A300052B213405AB213203B181A704549FA6B00
:105A400013005B009B185B00CA187B6CD3181B7893
:105A500019007A6A7B6B1A4113000B401A007B6BAA
:105A60009A4013005AB23B181B785BB213435AB2E8
:105A70003B181A70BB6BDA017B69D318344A3918AA
:105A80000978D1547B6C01337B64BA6AFB6AD31A00
:105A90007A6C9A42BEDB3A6BBB6B9A4250DD7B6BF1
:105AA0000822D31AFF221A4113003B6200233B64F1
:105AB00040E0FA6A3B6CD318FB613B6BDB015A1D7B
:105AC000FB69D31A224AD35C5BB23A6A52B2D24320
:105AD00052B213405AB21B203B181A701D49FA6B80
