:020000041004E6
:1000000000600020ED790410F974041001750410EB
:1000100000000000000000000000000000000000E0
:10002000000000000000000000000000097504103E
:100030000000000000000000137504101D7504107E
:10004000517A0410517A0410517A0410715204103C
:10005000000000000000000000000000517A0410C1
:10006000316B04102D6A0410096A0410517A0410CF
:10007000517A0410517A0410000000002B7504100E
:1000800041750410517A04108575041000000000B9
:10009000777504100000000000000000697504106E
:1000A000517A041093750410517A0410517A041097
:1000B0000000000000000000000000000000000040
:1000C00010B5904216D98AB2030C090C0C4659435C
:1000D00080B25343444350431B191A041B0C10189D
:1000E000594180225203002312184B41520DD8026D
:1000F000104310BD4843802252031218520D10467F
:1001000010BDC0468B0707D0013A22D30B780131CE
:10011000037001308B07F7D1830730D0DB4219D051
:100120000138043A08D308C943701B0A43801B0CEA
:1001300003710430043AF6D2D20707D30B88437018
:1001400001D08A78C2701B0A8370704701D00B7887
:1001500043707047043A06D308C903801B0C4380E0
:100160000430043AF8D2D20705D30B88038005D0B7
:100170008B788370704701D00B780370704770B430
:10018000103A03D378C978C0103AFBD2530701D391
:1001900018C918C001D508C908C0D20704D30B88F4
:1001A000038002300231002A01D50B78037070BC45
:1001B0007047C046EFF31482EFF30981154880F3CE
:1001C0001488BFF36F8FF0B543464C4655465E46E4
:1001D0006746F8B4104CEFF30883636006B4BFF3CE
:1001E0004F8F30BFC046C0460B4C646884F308880C
:1001F00082B003BCF8BC9846A146AA46B346BC46AA
:10020000F0BC04BC80F3098881F31488BFF36F8FBE
:100210001047C04600000000040000200023C25C1C
:100220000133002AFBD1581E7047000003B4714609
:10023000490840004900095E49008E4403BC7047EC
:10024000002243088B4274D303098B425FD3030A15
:100250008B4244D3030B8B4228D3030C8B420DD328
:10026000FF22090212BA030C8B4202D312120902B6
:1002700065D0030B8B4219D300E0090AC30B8B42F4
:1002800001D3CB03C01A5241830B8B4201D38B03A2
:10029000C01A5241430B8B4201D34B03C01A524147
:1002A000030B8B4201D30B03C01A5241C30A8B428A
:1002B00001D3CB02C01A5241830A8B4201D38B0275
:1002C000C01A5241430A8B4201D34B02C01A524119
:1002D000030A8B4201D30B02C01A5241CDD2C3098B
:1002E0008B4201D3CB01C01A524183098B4201D307
:1002F0008B01C01A524143098B4201D34B01C01AF2
:10030000524103098B4201D30B01C01A5241C30869
:100310008B4201D3CB00C01A524183088B4201D3D8
:100320008B00C01A524143088B4201D34B00C01AC4
:100330005241411A00D20146524110467047FFE730
:1003400001B5002000F0F0F802BDC0460029F7D04A
:1003500076E7704703460B437FD4002243088B4265
:1003600074D303098B425FD3030A8B4244D3030B3C
:100370008B4228D3030C8B420DD3FF22090212BA01
:10038000030C8B4202D31212090265D0030B8B427D
:1003900019D300E0090AC30B8B4201D3CB03C01A67
:1003A0005241830B8B4201D38B03C01A5241430B42
:1003B0008B4201D34B03C01A5241030B8B4201D332
:1003C0000B03C01A5241C30A8B4201D3CB02C01A9D
:1003D0005241830A8B4201D38B02C01A5241430A15
:1003E0008B4201D34B02C01A5241030A8B4201D304
:1003F0000B02C01A5241CDD2C3098B4201D3CB01AB
:10040000C01A524183098B4201D38B01C01A524159
:1004100043098B4201D34B01C01A524103098B425D
:1004200001D30B01C01A5241C3088B4201D3CB0048
:10043000C01A524183088B4201D38B00C01A52412B
:1004400043088B4201D34B00C01A5241411A00D2DB
:1004500001465241104670475DE0CA0F00D0494244
:10046000031000D34042534000229C4603098B42B4
:100470002DD3030A8B4212D3FC22890112BA030A3C
:100480008B420CD3890192118B4208D389019211BE
:100490008B4204D389013AD0921100E08909C30943
:1004A0008B4201D3CB01C01A524183098B4201D345
:1004B0008B01C01A524143098B4201D34B01C01A30
:1004C000524103098B4201D30B01C01A5241C308A8
:1004D0008B4201D3CB00C01A524183088B4201D317
:1004E0008B00C01A5241D9D243088B4201D34B0032
:1004F000C01A5241411A00D20146634652415B1074
:10050000104601D34042002B00D549427047634654
:100510005B1000D3404201B5002000F005F802BD99
:100520000029F8D016E770477047C0469140030095
:1005300090409C46203A9340194352426346D34030
:10054000194370478446100062468C461900634682
:1005500000E0C0461FB501F0FDF8002801D40021DD
:10056000C8421FBD10B501F041F84042013010BD36
:1005700010B501F0EFF8002801DB002010BD0120CC
:1005800010BDC04610B501F0E5F8002801DD0020DF
:1005900010BD012010BDC04610B501F06BF8002859
:1005A00001DC002010BD012010BDC04610B501F0D7
:1005B00061F8002801DA002010BD012010BDC046FE
:1005C0001C2101231B04984201D3000C10391B0A83
:1005D000984201D3000A08391B09984201D3000947
:1005E000043902A2105C40187047C046040302029E
:1005F000010101010000000000000000002B11D1EA
:10060000002A0FD1002900D1002802D00021C943BF
:10061000080007B4024802A14018029003BDC0467A
:1006200009FFFFFF03B4684601B5029800F034F8F3
:10063000019B9E4602B00CBC7047C046F0B5CE464A
:100640009946030C9C46130447461B0C1D000E00E4
:1006500061460404240C80B50700100C4B4365432D
:10066000414360432C0CC01824188C46A34203D984
:1006700080235B029846C444494679435643230C81
:100680002D042D0C8919634424046019C918C0BCB9
:10069000B946B046F0BDC046F0B557464E46454651
:1006A000DE46E0B504000D009246994683B08B42C9
:1006B00030D82DD04946504601F0F2FB2900060003
:1006C000200001F0EDFB331A9846203B34D49B46C2
:1006D00053465A46934042461F00534693401E00DD
:1006E000AF423BD8AF4200D179E05B46A41BBD418D
:1006F000002B00DA76E00022002300920193012310
:100700005A4693400193012342469340009329E0C7
:100710008242CFD900220023009201930C9B002B30
:1007200001D01C605D600098019903B0F0BCBB462D
:10073000B246A946A046F0BD42469B4620239B1ADE
:100740005246DA40414613004A468A401700424664
:100750001F43534693401E00AF42C3D900220023DB
:10076000009201934346002BD8D0FB0772081A432E
:1007700046467B080EE0AB4201D1A2420CD8A41A37
:100780009D41012024196D410021013E24184D4155
:10079000002E06D0AB42EED9013E24196D41002E49
:1007A000F8D1009801995B4600196941002B24DBC0
:1007B0002B005A464446D3402A00E2401C005B46C8
:1007C0001500002B2ADB26009E40330026004746FA
:1007D000BE403200801A9941009001919EE7A342E9
:1007E000BCD882E74246202300219B1A00220091B8
:1007F00001920122DA40019285E7424620239B1AAA
:100800002A0046469A402300F340444613432A00F8
:10081000E2401C005B461500002BD4DA42462F0054
:100820002023260097409B1ADE403B003343CDE750
:10083000F0B54F464646D646C0B582B0009001910D
:100840000E034C00CD0F710A009E5F00760F0E4321
:10085000009900920193C900894619037B0D9846BF
:10086000019B490ADB0F9C46009B009A5B0F0B43E0
:100870004146640DD200611A654500D1A6E0002909
:1008800072DD4746002F00D1DDE0CC4FBC4200D1E5
:100890009AE10127382917DC80273F043B431F29B1
:1008A00000DDDDE12027781A1F008740BA461700D7
:1008B000CF40844638005746074360468240CB40CD
:1008C000501E8241F61A17434B46DF1BB945804143
:1008D0004042361A330200D4FFE07602760A002E38
:1008E00000D13CE13000FFF76BFE0300083B202104
:1008F0003800CA1AD0409E4002009F4032439C42BA
:1009000000DDA6E1181B0130091A3E008F40C640E9
:100910007B1E9F4113008B4037431F43C2403B0067
:1009200016000024134300D1DFE17B0700D132E33E
:100930000F233A003B40042B04D03A1DBA42BF417A
:100940007F42F619330200D423E39C4B01349C42CE
:1009500000D1B4E09A4B64051E40640D7707D208BD
:1009600076021743360BACE0002900D17EE0414609
:10097000091B002C00D060E134004846044300D13C
:10098000C9E14C1E012900D12EE28C4DA94200D1B3
:1009900024E20127382C11DC21001F2900DD0BE2A5
:1009A000202437004846641AA740C84007434846F9
:1009B000A040CE40441EA0419B1B0743D71BBA4218
:1009C00092415242654644469E1A83E7002900DC64
:1009D0009CE04746002F67D11F00174300D1E4E099
:1009E000481E012900D19BE1744FB94200D1EBE0D0
:1009F00001270100382811DC1F2900DDC7E120276D
:100A0000781A1F00844687401000C840074360469C
:100A10008240CB40501E8241F61817434F444F4549
:100A2000804140423618330257D5644B01349C4212
:100A300045D00121624B7A081E4039400A43F7072E
:100A40001743760871E71F00174300D1ADE04F1E32
:100A5000BC46012900D182E1584FB94200D190E152
:100A600061460127382900DD2EE718E7554F611C44
:100A7000394200D0D0E0310048461F0001431743FF
:100A8000002C00D03DE1002900D1BCE1002F00D0B6
:100A9000BFE14B460021D80877070743F00806035B
:100AA0004C05360B640D0CE0444FBC4200D18BE08A
:100AB00001273829B2DC80273F043B439CE700260E
:100AC000002724053443ED072C433800210002B0F1
:100AD000E0BCBA46B146A846F0BD7B0704D00F2360
:100AE0003B40042B00D028E7F808344B7707074336
:100AF000F0089C4200D04AE23B00034359D08026D4
:100B00003603064336032D4C360BDAE7002961D055
:100B10004146091B002C00D1B9E0284CA04500D16A
:100B2000A5E10127382913DC8024240426431F294A
:100B300000DDC8E1202437004846641AA740C840B9
:100B400007434846A040CE40441EA0419B1907439E
:100B5000BF189742924152424446D61863E7380084
:100B6000FFF72EFD030018331F2B00DCBFE63A0011
:100B7000083882409C4200DD83E01B1B581C1F2864
:100B800000DCB4E117001F3BDF40202805D04023E4
:100B90001B1A9A40531E9A4117430024002F0AD073
:100BA0007B0700D0C4E626009EE74B460C00D80821
:100BB0009BE70027014C002683E7C046FF070000A3
:100BC000FFFF7FFFFE0700004B467707D80807436B
:100BD000F00891E7CD4F611C39426BD13100484696
:100BE0000143002C00D04BE11F001743002900D126
:100BF00081E1002F00D14CE74A444A458041F61874
:100C000040423618330200D5B0E117009146374311
:100C100000D03EE7002654E74946891A8846C14578
:100C2000BF41F11A7F42C91B0F0261D447460F43EF
:100C300000D1BDE00E00474651E6B54CA04500D1BD
:100C400000E10127382900DDB8E68024240426438A
:100C5000A3E6B04EE41A16407B0700D03FE743E717
:100C60000F001800203FF8408446202903D0402779
:100C7000791A8B401A43531E9A41634617001F434B
:100C800022E6A448E11A10404707C00807E73400ED
:100C90004846044300D1FAE04C1E012900D1D7E0B8
:100CA0009B4FB94200D1E2E00127382C00DD4FE72D
:100CB00021003CE7964CA14200D1DDE04A444A4580
:100CC0008041F31840421818C707520817434608D6
:100CD000520705D00F220C003A40042A00D02CE61F
:100CE0007607FF0837430009D9E600270026E8E623
:100CF0004946571ABA4292419E1B52426546B61A5D
:100D0000EDE5002900D0C6E0002F67D18026002540
:100D10007F4C3603D5E665460C001E00D008E4E69D
:100D20004A444A458041F318404218181100030212
:100D300000D496E0774B49081840C3070B4344089A
:100D4000490700D129E10F221A40042A00D1EAE024
:100D50001F1D9F42B641764236190224C4E6494619
:100D60008F1AB9458041F61A4042361A330206D42A
:100D70007307FF0801211F43F00890E66546012430
:100D8000ABE54B467707D8080743F008B4E60F00F9
:100D90001800203FF8408446202903D04027791AC4
:100DA0008B401A43531E9A41634617001F4335E692
:100DB00000250024002684E60C003500203CE54098
:100DC000202905D04024611A8E4049463143894686
:100DD0004846411E884107002F43EFE5D2085F07D0
:100DE00065461743D80887E6171ABA4292419E1BF8
:100DF0005242B61A3302C1D47307FF086546012177
:100E00001F43F0084BE6002F7BD065461E0091463D
:100E10003FE6811A8846C145A441F11A6442091B84
:100E200080242404214277D0101A82429241070084
:100E30009E1B5242B61A374300D0A0E065460024FC
:100E400000263EE65F07D20865461743D80853E6FA
:100E5000811891429241F01852428018030200D545
:100E600068E74707C9080F43C008012117E6D20801
:100E70005F071743D8083FE60C000026002720E64E
:100E8000002956D15F07D2081743D80834E60C0072
:100E90001E00D00829E6C10870070143F008002FA2
:100EA00062D080242403204207D0DE08264204D1E9
:100EB00065463000D1085B0719434F0FC900C908C8
:100EC0007F070F4318E60C003000203CE0408446CA
:100ED000202905D04024611A8E4049463143894675
:100EE0004846411E8841614607000F4330E62021F5
:100EF0000027091A0EE51E00002F00D022E500246D
:100F000058E7002500240026DBE5C046FE07000068
:100F1000FF070000FFFF7FFF47460F4300D147E771
:100F20000E00C146B5E5DF0864070221274300092A
:100F3000B5E51900C008770707431143F0080029F9
:100F400000D1D9E580210903084207D0DC080C4212
:100F500004D1D2085B071A43170020007B0FFF0063
:100F6000FF085B071F43C7E50F00C5E5124BD2081A
:100F700033405F075B02012417431E0BA1E52642A5
:100F800012D00D4B6546020001241E40E6E421000C
:100F900085E51700A8E53A00D4E4DB0864071C43A4
:100FA0002700022100097AE5C00877070743654654
:100FB0000021F00873E5C046FFFF7FFFF0B5DE4675
:100FC000454657464E46E0B587B0009201930B0365
:100FD0001B0B9B46CA0F4B00040080465B0D029220
:100FE00000D198E07C4A934237D05946420FC9005D
:100FF0000A43802109041143C2009046774A89467A
:1010000092469A44002300240393009E019F3B03D1
:101010001B0B9B467B0030005B0DFD0F002B59D056
:101020006D4A934248D05946720FC9000A43802145
:10103000090411438B466949F2008C4651466344CA
:10104000CB1A9A460021029E6E40F6B20F2C00D9B0
:10105000CEE0634BA4001B599F465A46024391467B
:1010600000D090E09A460223904608240393CCE7F0
:10107000CB464246029D0399022900D1DEE10329B5
:1010800000D18DE0012900D079E12E00002200235B
:10109000002490461B052343F607334340461900BE
:1010A00007B0F0BCBB46B246A946A046F0BD002240
:1010B00000249046484BEDE75A46009B1A43494BA3
:1010C0009C46E244002A59D102231C4300230221FA
:1010D0009B46B8E75A46009B1A4349D05B46002B13
:1010E00000D19CE15846FFF76BFA020003000B3A6F
:1010F0001D27009EBA1A19005846D6400839884064
:10110000320002439346009A8A40374953448A4644
:1011100000219A4497E75B460343994621D05B46FA
:10112000002B00D169E15846FFF74AFA0B235B42D6
:101130009C460200844466461D239B1B260011002A
:101140005846DE400839884033000343994623005F
:101150008B409846254B00249B1A9A460023039304
:1011600053E7002398469A460133042403934CE73F
:1011700001231C43002301219B4664E70323320023
:1011800003211C435FE79A460323D9460C240393AB
:101190003BE700238024984600260F4B240379E781
:1011A00080245B4624031C4324032E0090460A4BF4
:1011B000240B6FE780244B462403234202D05B4676
:1011C0002342F0D080244B4624031C432403029E78
:1011D000014B240B5EE7C046FF07000001FCFFFF48
:1011E0002C90061001F8FFFFF30300000DFCFFFF39
:1011F000CB4500D2F8E000D1F3E001235B429C46EE
:10120000444648460025E2445B46170E1B021F4336
:10121000190C3B04120200971F0C91460291039790
:10122000FFF794F802007A430B04210C804619431F
:101230008A4209D9009F0123BC465B4261449C4617
:10124000E0448F4200D85CE1881A0299FFF77EF8EB
:10125000039A240442430904240C03000C43A242D1
:1012600006D90099013B8C466444A14200D842E172
:10127000A01A424612041A4393464B4659461B0C89
:101280001F0004930B0449460904090C0C001B0CB5
:101290005C43120C7B43884651437A43270CBC467F
:1012A0005B186344994203D9802149028C46624409
:1012B000190C24041B04240C8A181C19904202D314
:1012C00016D1A54214D25B46009F013B4D440593C5
:1012D0004D459B41BC465B426344C018874200D3E6
:1012E00002E1824200D929E100D124E1059B9B461D
:1012F0002C1BA542AD41009B801A6D42401B8342CE
:1013000000D10FE10299FFF721F8039A0B04424341
:10131000210C050019438A4200D9CBE0881A0299B2
:10132000FFF714F8039A240442430904240C030031
:101330000C43A24200D9CAE04146A41A2A041A4327
:10134000049F13041B0C594340467B439C46150CD9
:1013500068430B0C844463447D43984203D9802046
:10136000400284466544180C09041B04090C40190A
:101370005B18844227D323D0012335001A43944BB2
:101380005344002B60DD510700D086E02E00D108C9
:101390005A46D20106D55A468E4B1A4080239346B0
:1013A000DB0053448C4A934200DD80E65A465207E4
:1013B0000A4390465A465B055402240B5B0D69E6CE
:1013C0003500002BDBD0009D511EAC466444AC427E
:1013D00000D29EE0844200D2E1E000D1EEE00A00BB
:1013E000CAE7424500D908E74B46DC0758084346A0
:1013F0005B081C434346DD0706E7FFF7E1F81523CA
:101400009C4684440200634620321C2B00DC92E69A
:101410002300083883409946002398469AE6FFF750
:10142000CFF802000300153220331C2A00DC5FE6EF
:1014300000990838814000228B4666E600222E0083
:1014400000249046654B25E62E000121C91A382953
:1014500000DD1BE61F297EDC6148140050445B461A
:1014600082408340CC40501E824123431A435B4656
:10147000CB40510709D00F211140042905D0111D7F
:101480009142924152429B180A00190200D49BE0FB
:101490000022012300249046FCE50F21114004297D
:1014A00000D173E7111D9142924152422E00C908AA
:1014B00093446DE7009B013D9C4661448B4200D9FB
:1014C0002CE78A4200D829E7851E614426E7009967
:1014D000013B8C466444A14200D92DE7A24200D8CA
:1014E0002AE7831E644427E7874200D0FEE6A94529
:1014F00000D9FBE6F5E6A24200D8B9E6831E6444B3
:10150000B6E68A4200D89FE6BC46831E98466144F0
:101510009AE60A00844200D02EE74B4500D02BE724
:1015200035002CE72A4B2F4A5344924543DB0122D6
:10153000002193442CE7AC4200D8D7E602235B425B
:101540009C4600994D444D459B41E3448C465B428B
:101550006344C018CCE61F204042C31A5846D84006
:10156000202904D05946204B534499400A43531E26
:101570009A4107231900024300241140134209D065
:1015800008331340042B1DD0131D934289411A00C8
:1015900049424907D2080A43904600237AE5494662
:1015A000009F4D004D458941BC4649426144A946D2
:1015B000023A6418AEE70122524246E79945EED35B
:1015C0000A00AAE70021E5E759075B021C0BE1E7E7
:1015D000FF030000FFFFFFFEFE070000FF07000003
:1015E0001E04000002FCFFFF3E040000F0B5574659
:1015F000DE464E464546E0B50D000400E80F834642
:101600000903D80F090B824619488C461F0369004D
:101610005E00490D3F0B760D814218D086420FD0F7
:101620000120B1420DD1BC450BD1944209D1D34523
:101630001CD0002905D160462043431E984100E09C
:101640000120F0BCBB46B246A946A046F0BD012031
:101650008E42F6D1614639430F0017432743F0D13C
:101660005B465246981A431E9841EAE70020E8E795
:10167000FF070000F0B557464E464546DE46E0B54A
:101680000D000E034900490D8A46DF0FE90FBC46E5
:1016900083B02F4F040080460191580019039146F2
:1016A000360B090B400DBA451DD0B8420DD0574638
:1016B000002F2AD13443002824D10A4336D0002CED
:1016C00041D163465800013815E0114338D15346E3
:1016D000002B01D12643F4D0019B634507D1019B28
:1016E0005800013807E026432AD1504521D0012077
:1016F000019B5F42384303B0F0BCBB46B246A946EB
:10170000A046F0BD002CDCD0E6E70028EFD0019B1E
:101710006345ECD18245EADCE1DB8E42E7D8DED1DD
:10172000C845E4D80020C845E5D2D8E7002CE2D06F
:10173000DDE7114304D1019B6345D8D10020DAE7EE
:1017400002204042D7E7019B6345E6D0CFE7C04681
:10175000FF070000F0B557464E464546DE46E0B569
:101760000D000E034900490D8A46DF0FE90FBC4604
:1017700083B02E4F04008046019158001903914612
:10178000360B090B400DBA451ED0B8420DD0574656
:10179000002F27D13443002833D10A4334D0002C02
:1017A00040D163465800013815E0114312D1534629
:1017B000002B01D12643F4D0019B63451DD00120AD
:1017C000019B5F42384306E0264303D15045F6D1E2
:1017D00011431CD0022003B0F0BCBB46B246A94660
:1017E000A046F0BD0028EAD0019B6345E7D18245C1
:1017F000E5DC02DB8E42E2D80ED0019B58000138B6
:10180000E9E7002CCDD0D7E7002CE4D0D7E7019B47
:1018100000206345DFD0D2E7C845D0D80020C845B6
:10182000D9D2EAE7019B6345E4D0C8E7FF0700008F
:10183000F0B557464E46DE464546E0B51F000B0361
:101840001B0B16009A46CA0F4B000400914685B048
:101850005B0D00D1CFE1CD4A934255D05146420FA6
:10186000C9000A43802109041143C2009046C84AB6
:101870008A4693469B440023002502933C037B0049
:10188000FA0F0196240B5B0D009200D188E1BF4A4C
:10189000934200D192E0BE4A944663449B440A2D91
:1018A00042DCE400730F23438024494624041C4394
:1018B000F3000193009B00205940CBB20393022D0B
:1018C00000DC94E00123AB401D00A6232A00DB00CE
:1018D0001A401D4200D029E290239B001D4200D1F6
:1018E0004DE20023802499462403A84B10004A4669
:1018F0001B052343D2071343190005B0F0BCBB46B8
:10190000B246A946A046F0BD52460243904600D0DA
:10191000ACE19B460223924608250293AEE7009B6A
:10192000A2469946019B9846029B022B00D1CAE130
:10193000032B00D192E1012B10D1002300240022BF
:10194000D4E701227B083A4013435246D20713439F
:10195000984653465B089A46039B99465B46581C3B
:101960008023DB005B44002B00DCB1E142465207E0
:101970000BD00F2241460A40042A06D04246111DD0
:10198000414592418846524292445246D20106D580
:101990005246804B1A4080239246DB00C3187E4A91
:1019A000934200DD8FE14246D108524652070A4376
:1019B00051465B054C02240B5B0D97E7734B2643A6
:1019C0009C46E344002E00D16FE1032349461D43AA
:1019D000009B5940CBB203930A2D00DD33E1012374
:1019E000AB401D000323029388222A4297D142462E
:1019F00043461204120C160001981D0C030C00043F
:101A0000000C4643B4461E006E43009616000700C5
:101A10005E436146B0466F430E0CB8444644B7423D
:101A200005D9802149028846009F474400976146B6
:101A30000904090C370C36048C46310061440191CD
:101A40001100260C2404240C61438C4621006943B8
:101A500089466146090C884672434A4442447543AC
:101A6000914503D98021490288464544110C884696
:101A700061460904090C8C4612046244B9180291AB
:101A80005146090C8C4651460F043F0C3900414326
:101A900045448846614641438A4641466046090CB2
:101AA000894658437B4353444B449A4503D980218C
:101AB000490289464844190C894641460904090CE3
:101AC0008846390061431B044344884661464C43C1
:101AD00071438C46414677430E0C3F19F619484432
:101AE000B44203D9802149028946CC440299009F1F
:101AF000894631044F4489464146974292410C043D
:101B0000240C4C44FF1852426419A1189F429B4177
:101B1000884682465B42994690459241AC42A44138
:101B2000C244D14452426442144399459B41824588
:101B300092415B42524213434A46360CA419E318C1
:101B400063445B02D20D1A43019992467A020A431A
:101B5000501E8241FF0D17434A4652021743B846B2
:101B6000DB0100D5EDE60D4B039A5B449146002B5B
:101B700000DCACE03A00520700D110E70F225846D3
:101B80003A40042A00D0F9E609E7C046FF07000002
:101B900001FCFFFFFFFFFFFEFE070000FF03000048
:101BA000220032436FD0002C00D1C2E02000FEF7AB
:101BB00007FD020003000B3A1D20821A30001900B5
:101BC000D04008398C400200224334008C405946F2
:101BD000CB1A86498B469B440A2D00DDA4E6494674
:101BE000009B01945940CBB2140000200393022DB6
:101BF00000DD67E6FBE65346034398463CD0534678
:101C0000002B00D1A3E05046FEF7DAFC0B235B4229
:101C10009C460200844411005046083988401D2328
:101C2000804660461B1A2000D8400300404603430C
:101C30009A4623008B4098466C4B00259B1A9B4686
:101C4000002302931AE60F2D00D0C9E080235246EC
:101C50001B031A4202D01C4200D192E0802453465A
:101C600024031C4324034246240B3EE69B460323E5
:101C700080460C25029301E600239A469B460133D9
:101C800004250293FAE501210D430A2D00DD4BE600
:101C9000494600984140C9B20391022D00DC96E00C
:101CA00000230024012001930CE649460223009AF8
:101CB0002B435140CAB203920A2B00DD34E6002DBB
:101CC00057D1039B994600240022494B0EE6584603
:101CD0000121C91A382900DD2FE61F2956DD1F22F0
:101CE00054465242D31ADC40202907D0414B424689
:101CF0009C465346604483401A439046424607211F
:101D0000531E9A410B00224313400024114209D074
:101D10000F231340042B5DD0111D91429B410A00FB
:101D20005B425B07D2081A430023DFE5039B994619
:101D3000FAE50198FEF744FC020003001532203357
:101D40001C2A00DC38E7019A083882403FE7FEF79A
:101D500037FC15239C4684440200634620321C2B2A
:101D600000DC58E7002398462300083883409A4651
:101D700062E71D000023002402200193A2E50290E7
:101D800032E61C43009B019A9946AEE51A4B524637
:101D9000C31840469A40C84002434046984003005A
:101DA000581E834154461A43CC40530709D00F2391
:101DB0001340042B05D0131D934292415242A418A4
:101DC0001A00230208D50123002400228EE589464B
:101DD00000248BE50023A5E763076402240BA1E739
:101DE000009BA2469946019B984637E70DFCFFFFF2
:101DF000FF0700003E0400001E04000070B500282C
:101E000016D0C317C5185D40C40F2800FEF7D8FBD5
:101E1000104B1B1A5B055B0D0A2814DC02002E0018
:101E2000153296400B22121AD5402D032D0B03E0DC
:101E300000240023002500261B052B43E407234331
:101E40003000190070BD0B3885402D0300262D0B86
:101E5000F2E7C0461E04000010B5041E10D0FEF7C5
:101E6000AFFB0E4B1B1A5B055B0D0A280FDC0B2228
:101E70002100121AD14015300A038440120B01E0F0
:101E8000002300221B0513432000190010BD22006F
:101E90000B38824012030024120BF3E71E040000EB
:101EA00010B5002903D1FEF78BFB203002E00800BB
:101EB000FEF786FB10BDC04680B500AF074A802301
:101EC0009B000021D154054B054A00219954034B36
:101ED000044A00219954C046BD4680BD94010020AB
:101EE000010200000202000080B582B000AF0200D3
:101EF000FB1D1A701F4B204A9B5C002B34D11D4ADE
:101F000080239B00D35C19001A4BFA1D12785A5497
:101F1000184A80239B00D35C0133D9B2154A802331
:101F20009B00D154134A80239B00D15C114A80232B
:101F30009B00D1540F4A80239B00D35C01330F4A8E
:101F4000134003D5013B0E4A134301331900094BDB
:101F50000C4A9B5CCB1A5A425341DBB21900054B29
:101F6000054A9954012300E000231800BD4602B041
:101F700080BDC0469401002002020000FF010080E5
:101F800000FEFFFF0102000080B582B000AFBB1D64
:101F9000012252421A80214A80239B00D25C1F4BAF
:101FA0001F495B5C9A4204D11C4B1E4A9B5C002B70
:101FB0002DD01A4B1A4A9B5C1A00184B9A5CBB1D19
:101FC0001A80164B164A9B5C0133D9B2134B144A44
:101FD0009954124B124A995C104B114A99540F4A6A
:101FE00080239B00D35C01330F4A134003D5013B90
:101FF0000E4A134301331900084B094A9B5CCB1A64
:102000005A425341DBB21900044B064A9954BB1D96
:1020100000229B5E1800BD4602B080BD94010020E6
:102020000102000002020000FF01008000FEFFFF2D
:1020300080B500AF0A4A80239B00D25C084B094957
:102040005B5C9A4206D1064B074A9B5C002B01D190
:10205000012300E00023DBB21800BD4680BDC0466E
:1020600094010020010200000202000090B589B036
:1020700000AF08243B19180018231A00002125F08E
:10208000E7FE3B00180008231A00002125F0E0FEBF
:102090003B1905221A603B19802252025A603B19F3
:1020A00004221A613B1918000AF06CFF031E01D0CC
:1020B00000230FE03B0000221A603B0000225A6020
:1020C0003B00102118000BF0A7F8031E01D00023DD
:1020D00000E001231800BD4609B090BD80B586B070
:1020E00000AF3B00180018231A00002125F0B0FEB5
:1020F0003B0002221A603B00802252015A613B00E1
:1021000018000BF01FFA031E01D0002300E001238A
:102110001800BD4606B080BD80B582B000AF0F4B41
:102120001B78002B01D0012313E005F095FD01235E
:102130007B60FFF7D3FF031E01D100237B60FFF715
:1021400095FF031E01D100237B60044B01221A700E
:102150007B681800BD4602B080BDC04697030020D2
:1021600080B500AF72B6C046C046FDE780B500AF8F
:1021700072B6C046C046FDE7B0B5B2B006AF02F0D9
:10218000B7FB03001C0003F0EDFE03001B0A9BB22B
:102190001D0003F0E7FE03001A00FF2313400D4962
:1021A00038000493039508230293019406230093B7
:1021B0000123032225F030FD002004F01BF83B0032
:1021C000180003F0CDFF04F04BF8C046BD462CB01C
:1021D000B0BDC046888C0610F0B59DB004AF0400B9
:1021E00008001100FB1D221C1A70BB1D021C1A7076
:1021F0007B1D0A1C1A70FB1D1B78002B01D10221CC
:1022000000E00121FB1D1B78002B01D0022000E023
:102210000120BB1D1C787B1D1D78FB1D1B78002B2E
:1022200001D1042300E00323FA1D1278002A01D013
:10223000042200E003220E4EB4460826BE19039283
:1022400002930195009403000A006146300025F0D6
:10225000E3FC002003F0CEFF0826BB19180003F0B2
:102260007FFF03F0FDFFC046BD4619B0F0BDC0467C
:10227000FC8C0610F0B5C64600B59EB006AF020055
:10228000FB1D1A70BB1D0A1C1A70FB1D1B78002B4E
:1022900001D1062500E00525BB1D1B789846FB1DD6
:1022A0001B78002B01D1082300E00723FA1D1278C8
:1022B000012A01D1062200E00522F91D0978012931
:1022C00001D1082100E00721F81D0078022801D182
:1022D000082000E00720FC1D2478022C01D10624F0
:1022E00000E005240F4EB4460826BE19049403905E
:1022F00002910192009343462A006146300025F086
:102300008BFC002003F076FF0826BB19180003F0B1
:1023100027FF03F0A5FFC046BD4618B080BCB846F5
:10232000F0BDC0464C8D0610F0B5DE4657464E4611
:102330004546E0B5A5B00AAF05000C001000190035
:102340000F26BB192A1C1A700E23FB18221C1A70A8
:102350000D23FB18021C1A700C23FB180A1C1A70A0
:10236000BB191B78002B02D102239C4601E00123FC
:102370009C460F23FB181B78012B02D102239846A1
:1023800001E0012398460F23FB181B78022B01D193
:10239000022200E001220F23FB181B78032B01D13E
:1023A000022100E001210E23FB181B7899460D2322
:1023B000FB181B789A460C23FB181B789B46882336
:1023C00008201B18DB191B78BB600F23FB181B7838
:1023D000002B01D1042400E003240F23FB181B78F9
:1023E000012B01D1042500E003250F23FB181B78E6
:1023F000022B01D1042600E003260F23FB181B78D3
:10240000032B02D104233B6001E003233B60174808
:10241000786008200823C018C0193B680993089603
:1024200007950694BB6805935B4604935346039354
:102430004B4602930191009243466246796825F02B
:10244000EBFB002003F0D6FE08200823C318DB199D
:10245000180003F085FE03F003FFC046BD461BB025
:10246000F0BCBB46B246A946A046F0BD888D06101A
:10247000F0B5DE4657464E464546E0B5B3B010AF20
:1024800005000C00100019002726BB192A1C1A7021
:102490002623FB18221C1A702523FB18021C1A7015
:1024A00024203B180A1C1A70672320215B18DB19B3
:1024B0003A181278D2081A703B181B78032213407E
:1024C000DAB2662308005B18DB19111C09018A1AAD
:1024D0001A7065231B18DA1990210B18DB191B7869
:1024E000DB0813700B18DB191B7803221340DAB2D8
:1024F00064231B18DB19111C09018A1A1A70BB19F5
:102500001B78002B02D102233B6201E001233B62D6
:102510002723FB181B78012B02D10223FB6101E06A
:102520000123FB612723FB181B78022B02D1022316
:10253000984601E0012398462723FB181B78032BBC
:1025400002D10223994601E0012399462723FB1873
:102550001B78042B02D102239A4601E001239A46FC
:102560002723FB181B78052B02D102239B4601E091
:1025700001239B462623FB181B78BB612523FB18F0
:102580001B787B61672320229B18DB191B783B613A
:1025900066239B18DB191B78FB6065239B18DB19EE
:1025A0001B78BB6064239B18DB191B787B60272397
:1025B000FB181B78002B02D104239C4601E0032367
:1025C0009C462723FB181B78012B01D1042600E031
:1025D00003262723FB181B78022B01D1042500E0DA
:1025E00003252723FB181B78032B01D1042400E0CB
:1025F00003242723FB181B78042B01D1042200E0BD
:1026000003222723FB181B78052B01D1042300E0AC
:1026100003231D493960082020214018C0190F9359
:102620000E920D940C950B9663460A937B68099362
:10263000BB680893FB6807933B6906937B69059326
:10264000BB6904935B460393534602934B46019345
:1026500043460093FB693A6A396825F0DDFA0020A9
:1026600003F0C8FD08202023C318DB19180003F06D
:1026700077FD03F0F5FDC046BD4623B0F0BCBB4678
:10268000B246A946A046F0BDCC8D061080B582B0FA
:1026900000AF78600D4B7A681A600D4B00221A70FB
:1026A0000C4B01221A7002F05BFB02F0F9FD04F002
:1026B0004DF903F069FC002005F00AFA022005F04C
:1026C00007FA01231800BD4602B080BD9803002020
:1026D0009C0300209D03002080B582B000AF3B1D0D
:1026E0001860054B1A683B1D1968100001F0ADFF1A
:1026F000C046BD4602B080BD98030020B0B584B08E
:1027000000AF3B1D00221A703B1D00225A800F258E
:102710007C1902F067FB03002370344B1B787A1995
:1027200012789A422FD0324B1B6832331C0004F0CF
:1027300059F903009C4226D23B1D04221A702B4BF0
:102740001A787B191B785340DBB21B029AB27B19B3
:102750001B789BB2D3189AB23B1D5A80234B7A192F
:1027600012781A7004F03EF90200214B1A6004F04E
:1027700039F902001F4B1A601F4B01221A703B1DD2
:102780001868FFF7A9FF1C4B1B781D00194B1B682D
:102790001A4A9C1804F026F903009C429B415B42B4
:1027A000DBB22B400CD03B1D09221A703B1D0022CE
:1027B0005A80114B00221A703B1D1868FFF78CFFDE
:1027C00008217B183A1D12681A607A1800231188B4
:1027D0000904090C1B0C1B040B43528812041B0434
:1027E0001B0C13431800BD4604B0B0BD0C260020DE
:1027F000A8030020AC030020B003002030750000C7
:1028000090B58FB002AF3B1D18602F23FB1800223C
:102810001A702E23FB18C44A12781A703B1D1B78BD
:102820005BB2092B04D1C14B01221A7003F011FDD8
:10283000BE4B1B78002B15D03B1D1B785BB2042BC5
:1028400001D001F057F9B94B00221A702E23FB1862
:1028500000221A702F23FB1801221A7003F0F2FCD9
:1028600001F048F9B04B1B78052B01D901F035F97F
:102870009A00AF4BD3181B689F463B1D1B785BB279
:10288000022B01D1FFF778FC3B1D1B785BB2042BB8
:1028900001D001F024F93B1D5B881A0080235B0006
:1028A000134014D03B1D5B881A00012313400ED146
:1028B0002E23FB1801221A702F23FB1801221A70F5
:1028C0009C4B00221A709C4B00221A70A0E03B1D0A
:1028D0005B881A0080239B00134020D03B1D5B883F
:1028E0001A00022313401AD12E23FB1802221A7059
:1028F0002F23FB1801221A70904B00221A70904B64
:1029000000221A708F4B00221A708F4B00221A700F
:10291000884B00221A70884B00221A7078E03B1D09
:102920005B881A008023DB0013400ED03B1D5B88C0
:102930001A000423134008D12E23FB1804221A7016
:102940002F23FB1801221A7062E03B1D5B881A00DE
:1029500080231B0113400ED03B1D5B881A00082307
:10296000134008D12E23FB1805221A702F23FB18C1
:1029700001221A704CE03B1D5B881A0080235B012A
:1029800013401AD03B1D5B881A001023134014D14A
:1029900001F0AEFF03001A002A243B19053A1A7011
:1029A00001F0BCFF03001A003B191B78110018004E
:1029B00001F05CFFFFF7E0FB2AE03B1D5B881A009B
:1029C00080239B01134001D101F089F83B1D5B88F6
:1029D0001A002023134001D001F081F801F088FF94
:1029E00003001A0029243B1905321A703B191B7881
:1029F000642B09D801F092FF03001A003B191B78E1
:102A00001100180001F032FFFFF7B6FB01F067F884
:102A100001F065F83B1D1B785BB2022B0BD14B4BD1
:102A200000221A70494B1878424B1978424B1B7898
:102A30001A00FFF7D1FB3B1D1B785BB2042B01D0C2
:102A400001F04FF83B1D5B881A0080235B001340A8
:102A50000ED03B1D5B881A000123134008D12E23A2
:102A6000FB1800221A702F23FB1801221A70E9E0CC
:102A70003B1D5B881A0080239B00134020D03B1D28
:102A80005B881A00022313401AD124217B180B22E1
:102A90001A70284B1B781B029BB2274A12789B188E
:102AA0009AB27B185A807B18186802F0C7FE2E2352
:102AB000FB1800221A702F23FB1801221A70C1E0A4
:102AC0003B1D5B881A008023DB00134040D03B1D78
:102AD0005B881A00042313403AD11C4B1B78002B4F
:102AE0000DD1144B1B78013BDAB2124B1A70114B0B
:102AF0001B78FF2B0DD10F4B64221A7009E00E4B8F
:102B00001B78013BDAB20C4B1A700B4B1A780A4B4C
:102B10001A700E4B1878074B1978074B1B781A0060
:102B2000FFF75AFB8EE0C0469C0300209D03002067
:102B30006C9606109F030020A0030020A103002034
:102B4000A2030020A3030020A40300209E03002072
:102B50003B1D5B881A0080231B0113402FD03B1DB7
:102B60005B881A000823134029D1D14B1B78002B16
:102B700010D1D04B1B780133DAB2CE4B1A70CD4B4B
:102B80001B7864211800FDF7E1FB0B00DAB2C94B9A
:102B90001A7009E0C84B1B780133DAB2C64B1A70C1
:102BA000C54B1A78C44B1A70C14B1878C14B1978B1
:102BB000C14B1B781A00FFF70FFB00F09BFF3B1D7A
:102BC0005B881A0080235B01134017D03B1D5B8894
:102BD0001A001023134011D1B54B1B785A425341B0
:102BE000DBB21A00B24B1A70B14B1878B14B19789E
:102BF000B14B1B781A00FFF7EFFA23E03B1D5B880F
:102C00001A0080239B01134001D100F06AFF3B1D95
:102C10005B881A002023134001D000F062FFA44B10
:102C20001B785A425341DBB21A00A14B1A70A04BD9
:102C30001878A04B1978A04B1B781A00FFF7CCFA34
:102C400000F04FFF00F04DFF3B1D1B785BB2022BE5
:102C500012D1974B00221A70954B1878974B197820
:102C6000974B1B780133DAB2964B1C78964B1B7846
:102C700000932300FFF7FCFB3B1D1B785BB2042B8A
:102C800001D000F030FF3B1D5B881A0080235B0001
:102C900013400ED03B1D5B881A000123134008D15E
:102CA0002E23FB1800221A702F23FB1801221A7002
:102CB000E6E13B1D5B881A0080239B0013400ED089
:102CC0003B1D5B881A000223134008D12E23FB18FA
:102CD00003221A702F23FB1801221A70D0E13B1D2A
:102CE0005B881A008023DB00134000D1A5E03B1D68
:102CF0005B881A000423134000D09EE06C4B1B78C5
:102D0000052B00D983E09A00704BD3181B689F46AF
:102D10006A4B1B78013BDAB2684B1A70674B1B7821
:102D2000FF2B00D075E0654B0C221A7071E0644BEC
:102D30001B78013BDAB2624B1A70614B1B78FF2B98
:102D400069D15F4B1E221A7065E05E4B1B781A003A
:102D5000F82313400DD15B4B1B785BB20322134069
:102D60005BB24822524213435BB2DAB2554B1A703F
:102D700052E0544B1B78083BDAB2524B1A704BE0CE
:102D8000504B1B78002B03D14E4BBB221A7043E0F3
:102D90004C4B1B78013BDAB24A4B1A70494B1B78FB
:102DA00004229343DAB2474B1A7035E0464B1B7846
:102DB0001A00F82313400DD1434B1B785BB203225A
:102DC00013405BB24822524213435BB2DAB23E4B2D
:102DD0001A7021E03C4B1B78083BDAB23A4B1A7070
:102DE0001AE0394B1B78002B03D1374BBB221A70EA
:102DF00012E0354B1B78013BDAB2334B1A70324B81
:102E00001B7804229343DAB22F4B1A7004E0C046B9
:102E100002E0C04600E0C046254B1878274B1978E1
:102E2000274B1B780133DAB2264B1C78264B1B78D4
:102E300000932300FFF71CFB22E13B1D5B881A0077
:102E400080231B01134000D1BCE03B1D5B881A00AE
:102E50000823134000D0B5E0154B1B78052B00D993
:102E60009AE09A001A4BD3181B689F46134B1B78A5
:102E70000133DAB2114B1A70104B1B780D21180078
:102E8000FDF764FA0B00DAB20C4B1A7089E00C4BB8
:102E90001B780133DAB20A4B1A70094B1B781F21D9
:102EA0001800FDF753FA0B00DAB2054B1A7078E000
:102EB0009E0300209F030020A0030020A103002008
:102EC000A2030020A3030020A40300208496061080
:102ED0009C960610CA4B1B781A00F8231340B82B97
:102EE00007D1C74B1B7803221340DAB2C44B1A70C8
:102EF00057E0C34B1B780833DAB2C14B1A7050E06D
:102F0000BF4B1B78BB2B03D1BD4B00221A7045E091
:102F1000BB4B1B780133DAB2B94B1A70B84B1B7834
:102F20001A000423134039D0B54B1B780433DAB2AE
:102F3000B34B1A7032E0B34B1B781A00F8231340DE
:102F4000B82B07D1AF4B1B7803221340DAB2AD4B3D
:102F50001A7026E0AB4B1B780833DAB2A94B1A7013
:102F60001FE0A84B1B78BB2B03D1A64B00221A7085
:102F700016E0A44B1B780133DAB2A24B1A70A14BB6
:102F80001B781A00042313400AD09E4B1B7804338D
:102F9000DAB29C4B1A7003E0C04602E0C04600E083
:102FA000C046994B1878994B1978994B1B78013387
:102FB000DAB2934B1C78934B1B7800932300FFF7F6
:102FC00057FA5DE03B1D5B881A0080235B011340CC
:102FD00023D03B1D5B881A00102313401DD18A4B60
:102FE0001B78013BDAB2884B1A70874B1B78FF2B9A
:102FF00002D1854B05221A70834B1878834B1978C0
:10300000834B1B780133DAB27D4B1C787D4B1B78E8
:1030100000932300FFF72CFA32E03B1D5B881A0077
:1030200080239B01134001D100F05DFD3B1D5B88B7
:103030001A002023134001D000F055FD724B1B787D
:103040000133DAB2704B1A706F4B1B7806211800EF
:10305000FDF77CF90B00DAB26B4B1A706A4B1878EB
:103060006A4B19786A4B1B780133DAB2644B1C78CF
:10307000644B1B7800932300FFF7FAF900F033FD4F
:1030800000F031FD3B1D1B785BB2022B0BD15E4B78
:1030900000221A705C4B18785E4B19785E4B1B78D7
:1030A0001A00FFF799F83B1D1B785BB2042B01D087
:1030B00000F01BFD3B1D5B881A0080235B00134062
:1030C0000ED03B1D5B881A000123134008D12E232C
:1030D000FB1802221A702F23FB1801221A70F4E049
:1030E0003B1D5B881A0080239B00134032D03B1DA0
:1030F0005B881A00022313402CD1444B1A781C2100
:103100007B181A70424B1B780133DAB27B185A7065
:103110003B4B1A787B189A703A4B1A787B18DA7006
:103120003D4B1B780133DAB27B185A71394B1B784F
:103130000133DAB27B181A717B181868596801F0EC
:10314000E5FC2E23FB1800221A702F23FB18012206
:103150001A70BAE03B1D5B881A008023DB00134025
:103160002BD03B1D5B881A000423134025D1264B2E
:103170001B78002B0DD1274B1B78013BDAB2254B76
:103180001A70244B1B78FF2B0DD1224B64221A702E
:1031900009E0214B1B78013BDAB21F4B1A701E4B22
:1031A0001A781D4B1A70184B18781A4B19781A4B4D
:1031B0001B781A00FFF710F887E03B1D5B881A00A8
:1031C00080231B0113403DD03B1D5B881A00082360
:1031D000134037D10C4B1B78002B1FD10D4B1B78A4
:1031E0000133DAB20B4B1A700A4B1B7864211800BA
:1031F000FDF7ACF80B00DAB2064B1A7018E0C046C7
:10320000A3030020A40300209E030020A1030020AC
:10321000A20300209F030020A0030020D04B1B78B6
:103220000133DAB2CE4B1A70CD4B1A78CC4B1A70F0
:10323000CC4B1878CC4B1978C94B1B781A00FEF789
:10324000CBFF42E03B1D5B881A0080235B011340EB
:1032500017D03B1D5B881A001023134011D1C14BBE
:103260001B785A425341DBB21A00BE4B1A70BD4B59
:103270001878BD4B1978BA4B1B781A00FEF7ACFFD3
:1032800023E03B1D5B881A0080239B01134001D182
:1032900000F02BFC3B1D5B881A002023134001D05B
:1032A00000F023FCAF4B1B785A425341DBB21A00AB
:1032B000AC4B1A70AB4B1878AB4B1978A84B1B78FA
:1032C0001A00FEF789FF00F010FC00F00EFC3B1D19
:1032D0001B785BB2022B34D1A24B00221A7003F090
:1032E000C1F903005AB2A14B1A7003F0B1F90300FF
:1032F0005AB29F4B1A7003F0A1F903005AB29D4BCA
:103300001A7003F091F903005AB29B4B1A70954B57
:103310001878994B1B785BB2DBB20133D9B2954B6D
:103320001B785BB2DBB20133DAB2914B1B785BB234
:10333000DCB28E4B1B785BB2DBB200932300FEF74E
:10334000F3FF3B1D1B785BB2042B01D000F0CFFBD9
:103350003B1D5B881A0080235B0013400ED03B1D91
:103360005B881A000123134008D12E23FB1800228A
:103370001A702F23FB1801221A7054E23B1D5B8840
:103380001A0080239B00134000D194E03B1D5B8812
:103390001A000223134000D08DE0774B1B785BB2FC
:1033A000DBB20133DBB25AB2734B1A700022002138
:1033B0006F2001F0EFFF6D4B1B785BB20A21180004
:1033C000FCF7C8FF03005BB21B015CB2674B1B78C4
:1033D0005BB20A211800FDF7A3F80B005BB2234390
:1033E0005BB2DBB21A0001216F2001F0D3FF604B0A
:1033F0001B785BB20A211800FCF7ACFF03005BB23C
:103400001B015BB2402213435CB2594B1B785BB289
:103410000A211800FDF784F80B005BB223435BB26E
:10342000DBB21A0002216F2001F0B4FF514B1B7870
:103430005BB201330A211800FCF78CFF03005BB27A
:103440001B015CB24B4B1B785BB201330A211800A5
:10345000FDF766F80B005BB223435BB2DBB21A00E8
:1034600004216F2001F096FF434B1B785BB20133C0
:103470000A211800FCF76EFF03005BB21B015CB26F
:103480003D4B1B785BB201330A211800FDF748F869
:103490000B005BB223435BB2DBB21A0005216F2045
:1034A00001F078FF2E23FB1800221A702F23FB183F
:1034B00001221A70B7E13B1D5B881A008023DB00F4
:1034C000134000D19FE03B1D5B881A00042313408A
:1034D00000D098E0234B1B78032B4FD000DD77E022
:1034E000022B2AD000DD73E0002B02D0012B12D07A
:1034F0006EE0214B1B785BB2DBB2013BDBB25AB210
:103500001D4B1A701C4B1B785BB2002B59DA1A4BFF
:103510000B221A7055E0174B1B785BB2DBB2013BF4
:10352000DBB25AB2134B1A70124B1B785BB2002BF2
:1035300049DA104B1E221A7045E00D4B1B785BB226
:10354000DBB2013BDBB25AB2094B1A70084B1B7855
:103550005BB2002B39DA064B17221A7035E0C046F1
:10356000A00300209E0300209F030020B103002041
:10357000B2030020B3030020B4030020CF4B1B781C
:103580005BB2DBB2013BDBB25AB2CC4B1A70CB4B15
:103590001B785BB2002B1ADAC84B3B221A70C84B5F
:1035A0001B785BB2DBB2013BDBB25AB2C44B1A7080
:1035B000C34B1B785BB2002B09DAC14B17221A7080
:1035C00005E0C04604E0C04602E0C04600E0C04658
:1035D000BC4B1878BC4B1B785BB2DBB20133D9B261
:1035E000BA4B1B785BB2DBB20133DAB2B44B1B7857
:1035F0005BB2DCB2B14B1B785BB2DBB20093230051
:10360000FEF792FE76E23B1D5B881A0080231B01C9
:10361000134000D19BE03B1D5B881A000823134038
:1036200000D094E0A74B1B78032B48D000DD73E05B
:10363000022B2FD070DC002B02D0012B15D06BE0B9
:10364000A14B1B785BB2DBB20133DBB25AB29E4BAB
:103650001A709D4B1B785BB20C211800FCF760FFC1
:103660000B005AB2984B1A7056E0984B1B785BB21D
:10367000DBB20133DBB25AB2944B1A70934B1B7816
:103680005BB21F211800FCF74BFF0B005AB28F4BA7
:103690001A7041E08A4B1B785BB2DBB20133DBB2BC
:1036A0005AB2874B1A70864B1B785BB218211800F0
:1036B000FCF736FF0B005AB2814B1A702CE07F4B9F
:1036C0001B785BB2DBB20133DBB25AB27B4B1A70B0
:1036D0007A4B1B785BB23C211800FCF721FF0B00F2
:1036E0005AB2764B1A70754B1B785BB2002B13D114
:1036F000734B1B785BB2DBB20133DBB25AB2704B57
:103700001A706F4B1B785BB218211800FCF708FF8A
:103710000B005AB26A4B1A706A4B18786A4B1B78C6
:103720005BB2DBB20133D9B2684B1B785BB2DBB260
:103730000133DAB2624B1B785BB2DCB25F4B1B78B1
:103740005BB2DBB200932300FEF7EEFD6BE03B1DA6
:103750005B881A0080235B0113402DD03B1D5B88E2
:103760001A001023134027D1564B1B78013BDAB2C5
:10377000544B1A70534B1B78FF2B02D1514B032231
:103780001A70504B1878504B1B785BB2DBB2013388
:10379000D9B24E4B1B785BB2DBB20133DAB2484B85
:1037A0001B785BB2DCB2454B1B785BB2DBB200939B
:1037B0002300FEF7B9FD36E03B1D5B881A0080232D
:1037C0009B01134000D192E13B1D5B881A0020232E
:1037D000134000D08BE13B4B1B780133DAB2394BFD
:1037E0001A70384B1B7803221340DAB2354B1A702B
:1037F000344B1878344B1B785BB2DBB20133D9B24F
:10380000324B1B785BB2DBB20133DAB22C4B1B7844
:103810005BB2DCB2294B1B785BB2DBB200932300B6
:10382000FEF782FD63E162E13B1D1B785BB2022B78
:103830000BD1244B00221A70224B1C7801F06EF839
:10384000030019002000FEF715FD3B1D1B785BB23D
:10385000042B00D04DE13B1D5B881A0080235B00E8
:1038600013400ED03B1D5B881A000123134008D182
:103870002E23FB1800221A702F23FB1801221A7026
:103880002AE13B1D5B881A0080239B0013401FD058
:103890003B1D5B881A000223134019D1094B1B788A
:1038A000022B01D101F020FA2E23FB1800221A70FE
:1038B0002F23FB1801221A700EE1C046B10300202D
:1038C000B20300209E030020B4030020B3030020B5
:1038D0003B1D5B881A008023DB0013401FD03B1D7B
:1038E0005B881A000423134019D1954B1B780133D0
:1038F000DAB2934B1A70924B1B7803211800FCF735
:1039000025FD0B00DAB28E4B1A708D4B1C7801F03E
:1039100005F8030019002000FEF7ACFCDCE03B1DBD
:103920005B881A0080231B0113401CD03B1D5B8861
:103930001A000823134016D1814B1B78013BDAB2E1
:103940007F4B1A707E4B1B78FF2B02D17C4B0222DF
:103950001A707B4B1C7800F0E1FF03001900200077
:10396000FEF788FCC6E03B1D5B881A0080235B01E4
:10397000134057D03B1D5B881A001023134051D1D0
:103980006F4B1B78002B02D0012B36D049E000F0A2
:10399000C5FF0300053BDAB22C243B191A703B1912
:1039A0001B787F2B15D93B1900221A7000F0A0FF5D
:1039B00003001A003B191B781900100000F056FF95
:1039C0005F4B1A783B191B7819001000FEF752FC68
:1039D00027E000F08DFF03001A002C243B191B7810
:1039E0001900100000F042FF554B1A783B191B7864
:1039F00019001000FEF73EFC13E02D23FB180022F7
:103A00001A7018243B190B221A7002F0ABFA03004B
:103A1000013B9AB23B195A803B19186801F00EFF1E
:103A2000C04659E03B1D5B881A0080239B01134070
:103A30005FD03B1D5B881A002023134059D1404BB7
:103A40001B78002B02D0012B36D045E000F066FF3A
:103A500003001A002B243B1905321A703B191B78FE
:103A6000642B15D93B1964221A7000F041FF030042
:103A70001A003B191B781900100000F0F7FE304BBC
:103A80001A783B191B7819001000FEF7F3FB23E0AE
:103A900000F02EFF03001A002B243B191B7819009D
:103AA000100000F0E3FE264B1A783B191B78190032
:103AB0001000FEF7DFFB0FE014243B190B221A70F5
:103AC00002F050FA030001339AB23B195A803B19B5
:103AD000186801F0B3FEC0460BE0C0460AE0C046DD
:103AE00008E0C04606E0C04604E0C04602E0C0462A
:103AF00000E0C0462F23FB181B78002B1AD01021A2
:103B00007B1800221A607B1803221A707B18186831
:103B1000FEF776FE0B4B2E22BA1812781A700C2183
:103B20007B1800221A607B1802221A707B18186812
:103B3000FEF766FE01231800BD460DB090BDC046DD
:103B40009E0300209C03002080B584B000AF786005
:103B50000C4B00221A700C4B7A681A6002F0F4FFCA
:103B600000F008FE0C217B1801221A707B1800223D
:103B70005A807B18186800F009F801231800BD4628
:103B800004B080BDB5030020B803002080B582B02A
:103B900000AF3B1D1860054B1A683B1D19681000EB
:103BA00000F053FDC046BD4602B080BDB803002002
:103BB000F0B587B000AF1723FB1800221A700C2550
:103BC0007B1900221A707B1900225A801626BC1914
:103BD00003F0B4F80300237031007B181B78252B09
:103BE0000BD01723FB1801221A707B1906221A70BA
:103BF0007B181B789AB27B195A801F4B1B78012BBC
:103C000015D103F0B6F8031E04D1FEF711FA030034
:103C1000012B0CD1194B1A683B1D072119703B1D54
:103C2000002159803B1D1968100000F00EFD17237C
:103C3000FB181B78002B07D0104B1A680C23FB18BD
:103C40001968100000F001FD10217B180C22BA1831
:103C500012681A607A18002311880904090C1B0CD9
:103C60001B040B43528812041B041B0C1343180043
:103C7000BD4607B0F0BDC046BC030020B80300201D
:103C8000B0B59EB000AF3B1D18607723FB18002233
:103C90001A707623FB18D64A12781A70D44B1B7808
:103CA000132B01D900F020FC9A00D24BD3181B68CB
:103CB0009F463B1D1B785BB2012B01D000F016FC28
:103CC0007623FB1801221A707723FB1801221A7041
:103CD00000F00CFC3B1D1B785BB2022B02D1C64BE3
:103CE00000221A703B1D1B785BB2062B01D000F03E
:103CF000FFFB3B1D5B880F2B52D89A00BF4BD3189C
:103D00001B689F46BE4B180000F03CFC7623FB1856
:103D100002221A707723FB1801221A7041E0B94B76
:103D2000180000F02FFC7623FB1803221A7077236B
:103D3000FB1801221A7034E0B34B180000F022FC8B
:103D40007623FB1805221A707723FB1801221A70BC
:103D500027E0AE4B180000F015FC7623FB18072275
:103D60001A707723FB1801221A701AE0A84B18006A
:103D700000F008FC7623FB1808221A707723FB1842
:103D800001221A700DE0A34B180000F0FBFB762314
:103D9000FB1810221A707723FB1801221A7000E01A
:103DA000C04600F0A5FB3B1D1B785BB2062B01D083
:103DB00000F0A0FB3B1D5B88DCB200F0AFFD030010
:103DC0001900200000F052FD00F092FD03001A00DF
:103DD000914934243B19180023F01EFF3B191800A9
:103DE00000F0D0FB7623FB1801221A707723FB1812
:103DF00001221A707EE33B1D1B785BB2062B00D0BC
:103E00007AE33B1D5B88DAB2844B1A70844B18004E
:103E100000F0B8FB7623FB1804221A707723FB18F6
:103E200001221A7068E33B1D1B785BB2062B00D0A1
:103E300064E330217B180B221A70784B1B781B022D
:103E40009AB23B1D5B88D3189AB27B185A807B18B4
:103E5000186801F0F3FC734B180000F093FB762315
:103E6000FB1801221A707723FB1801221A7045E310
:103E70003B1D1B785BB2022B00D041E35E4B01225D
:103E80001A70694B00221A6068257C1900F0B8FD91
:103E9000030023802C003B191B881B0A9BB2DBB25A
:103EA000180002F051FF3B191B88DBB2180002F02A
:103EB0004BFF7623FB1806221A707723FB1801228A
:103EC0001A701DE33B1D1B785BB2072B00D019E372
:103ED0006A217B1820221A807B181A88524B1B6893
:103EE000D31A552B34D900233B672DE024203B18EF
:103EF0004E4A1168196092889A8004003B191B7819
:103F0000180002F021FF3B195B78180002F01CFF3B
:103F10003B199B78180002F017FF3B19DB7818005B
:103F200002F012FF3B191B79180002F00DFF3B193C
:103F30005B79180002F008FF3B4B1B685A1C3A4B98
:103F40001A603B6F01333B673B6F542BCEDDD9E2E8
:103F50000023FB662DE01C203B18344A11681960D1
:103F600092889A8004003B191B78180002F0ECFE3E
:103F70003B195B78180002F0E7FE3B199B781800AC
:103F800002F0E2FE3B19DB78180002F0DDFE3B197F
:103F90001B79180002F0D8FE3B195B79180002F07B
:103FA000D3FE214B1B685A1C1F4B1A60FB6E01335A
:103FB000FB666A23FB181A881B4B1B68D21AFB6E20
:103FC0009A42C8D8032002F0BFFE174B00221A60A5
:103FD000094B00221A707623FB1801221A707723EE
:103FE000FB1801221A70124B180000F0CBFA89E27C
:103FF000B5030020B4960610BC03002004970610F9
:10400000408E0610588E0610708E0610888E061090
:104010009C8E0610B88E0610D48E0610BD030020AC
:10402000E88E0610008F0610C0030020B88F06101F
:10403000188F06103B1D1B785BB2062B00D063E285
:1040400000F056FC03001A003B1D5B88DBB2190030
:10405000100000F00BFC00F061FC03001A00D249D4
:1040600034243B19180023F0D7FD3B19180000F049
:1040700089FA7623FB1801221A707723FB18012294
:104080001A7041E23B1D1B785BB2022B00D03DE26F
:10409000C64B180000F076FAC54B180006231A002C
:1040A000002123F0D5FE00F01FFE7623FB18092225
:1040B0001A707723FB1801221A70BE4B00221A7067
:1040C00024E23B1D1B785BB2062B00D020E23B1D97
:1040D0005B880D2B1AD1B84B180000F053FA7623E9
:1040E000FB1801221A707723FB1801221A70B04BBB
:1040F0001B78002B04D1AE4B5B78002B00D107E27C
:10410000AB4B1868596800F001FD01E2A94B1B7820
:10411000B42B1CD9A94B180000F034FAA44B1B781F
:10412000002B03D1A24B5B78002B04D0A04B186866
:10413000596800F0EBFC7623FB180F221A707723E6
:10414000FB1801221A700D2002F0FEFDE0E1984BF1
:104150001B78002B03D1964B5B78002B04D0944B3B
:104160001868596800F0D2FC3B1D5B88DAB2904BAE
:104170001A703B1D5B881A00914934243B191800C2
:1041800023F04AFD3B19180000F0FCF97623FB18D8
:104190000A221A707723FB1801221A70B8E13B1D1E
:1041A0001B785BB2062B00D0B4E13B1D5B88DAB212
:1041B0007F4B5A703B1D5B881A00824934243B199F
:1041C000180023F029FD3B19180000F0DBF97623D5
:1041D000FB180B221A707723FB1801221A7099E141
:1041E0003B1D1B785BB2062B00D095E13B1D5B8825
:1041F000DAB26F4B9A703B1D5B88DB101F221340B5
:104200001C003B1D5B881A0003231A4013001B018E
:104210009B1A6D4934257819220023F0FDFC7B1987
:10422000180000F0AFF97623FB180C221A707723E0
:10423000FB1801221A706FE13B1D1B785BB2062B45
:1042400000D06BE13B1D5B88DAB2594BDA703B1D45
:104250005B88DB101F2213401C003B1D5B881A008B
:1042600003231A4013001B019B1A5849342578195F
:10427000220023F0D1FC7B19180000F083F976238B
:10428000FB180D221A707723FB1801221A7045E1E2
:104290003B1D1B785BB2062B00D041E13B1D5B88C8
:1042A000DAB2434B1A713B1D5B881A00484934242B
:1042B0003B19180023F0B0FC3B19180000F062F91C
:1042C0007623FB180E221A707723FB1801221A702E
:1042D00026E13B1D1B785BB2062B00D022E13B1D83
:1042E0005B88DAB2324B5A713B1D5B881A00394940
:1042F00034243B19180023F08FFC3B19180000F000
:1043000041F97623FB1809221A707723FB18012242
:104310001A70284B1B780133DAB2264B1A7001E170
:104320003B1D1B785BB2062B00D0FDE03B1D5B887C
:104330000D2B00D0F8E07623FB1801221A707723AA
:10434000FB1801221A70EFE03B1D1B785BB2062BB5
:1043500000D0EBE03B1D5B883B2B00D9E6E03B1D2A
:104360005B880A211800FBF76BFF03009BB2DBB2EE
:104370001B01DCB23B1D5B880A211800FBF7E6FF3E
:104380000B009BB2DBB2E318DBB21A0001216F20F5
:1043900001F000F87623FB1811221A707723FB181E
:1043A00001221A70C2E0C046D48E0610248F061077
:1043B000C4030020CA030020388F06104C8F06105B
:1043C000688F0610748F06107C8F0610908F061071
:1043D000A08F0610AC8F06103B1D1B785BB2062B1E
:1043E00000D0A5E03B1D5B88172B00D9A0E03B1D4A
:1043F0005B880A211800FBF723FF03009BB2DBB2A6
:104400001B01DCB23B1D5B880A211800FBF79EFFF5
:104410000B009BB2DBB2E318DBB21A0002216F2063
:1044200000F0B8FF7623FB1812221A707723FB18CE
:1044300001221A707CE03B1D1B785BB2062B26D153
:104440003B1D5B881F2B22D83B1D5B880A2118006F
:10445000FBF7F6FE03009BB2DBB21B01DCB23B1D97
:104460005B880A211800FBF771FF0B009BB2DBB2DF
:10447000E318DBB21A0004216F2000F08BFF7623D3
:10448000FB1813221A707723FB1801221A703B1DA8
:104490001B785BB2062B4DD13B1D5B880C2B49D89A
:1044A0003B1D5B880A211800FBF7CAFE03009BB284
:1044B000DBB21B01DCB23B1D5B880A211800FBF755
:1044C00045FF0B009BB2DBB2E318DBB21A000521FB
:1044D0006F2000F05FFF7623FB1801221A7077230C
:1044E000FB1801221A7025E0C04624E0C04622E0F5
:1044F000C04620E0C0461EE0C0461CE0C0461AE0B0
:10450000C04618E0C04616E0C04614E0C04612E0BF
:10451000C04610E0C0460EE0C0460CE0C0460AE0CF
:10452000C04608E0C04606E0C04604E0C04602E0DF
:10453000C04600E0C0467723FB181B78002B1AD03A
:1045400010217B1800221A607B1803221A707B1836
:104550001868FFF795FB0A4B7622BA1812781A7082
:104560000C217B1800221A607B1802221A707B181B
:104570001868FFF785FB01231800BD461EB0B0BDCB
:10458000B503002080B584B000AF78607B68180068
:10459000FBF744FE0300BB600E2002F0D5FB0023B6
:1045A000FB6009E0FB687A68D3181B78180002F0FA
:1045B000CBFBFB680133FB60FA68BB689A42F1DB16
:1045C0000A2002F0C1FB01231800BD4604B080BDE3
:1045D00080B582B000AF0C2023F034F903007B607B
:1045E0007B68002B01D1002309E07B6800221A6060
:1045F0007B6800225A607B6800221A817B68180061
:10460000BD4602B080BD80B584B000AF78607B68E5
:10461000002B01D1002314E07B681B68FB6008E0DD
:10462000FB68BB60FB685B68FB60BB68180023F03D
:1046300013F9FB68002BF3D17B68180023F00CF909
:1046400001231800BD4604B080BD80B584B000AF22
:1046500078603B0019607B68002B01D1002326E0C5
:10466000082023F0EFF80300FB60FB68002B01D16A
:1046700000231CE0FB683A0012681A60FB68002205
:104680005A607B685B68002B04D07B685B68FA68C3
:104690005A6002E07B68FA681A607B68FA685A60C0
:1046A0007B681B8901339AB27B681A810123180049
:1046B000BD4604B080BD90B589B000AF78607B681E
:1046C000002B07D118217B18FF221A707B180022BB
:1046D0005A8030E07B681B68002B0AD17B6800227F
:1046E0005A6018217B1800221A707B1800225A8009
:1046F00021E07B681B68FB61FB695A687B681A6074
:104700007B681B68002B02D17B6800225A6014244E
:104710003B19FA6912681A60FB69180023F09CF8CB
:104720007B681B89013B9AB27B681A811823FB18AE
:104730003A1912681A601823FA180023118809041C
:10474000090C1B0C1B040B43528812041B041B0C8A
:1047500013431800BD4609B090BD80B582B000AFCC
:1047600078607B681B895A1E9341DBB21800BD46F6
:1047700002B080BD80B582B000AF364B1B78002BF5
:1047800001D0012362E0344B1A69334B0C210A43F8
:104790001A6100237B600FE07B68304A94466344D3
:1047A000DB001B78FF2B04D17B681AB22C4B1A80DC
:1047B00005E07B6801337B607B68FF2BECDD002329
:1047C0003B600FE03B68274A94466344DB001B785C
:1047D000FF2B04D13B681AB2234B1A8005E03B68DB
:1047E00001333B603B68FF2BECDD1A4B01221A7052
:1047F00000F07EF80300FF2B04D000F08FF80300D8
:10480000FF2B22D100F074F80300FF2B09D100F038
:1048100085F80300FF2B04D12821322000F026F870
:1048200013E000F065F80300FF2B07D100F076F8E5
:1048300003001900322000F019F806E000F058F8E3
:1048400003002821180000F011F801231800BD46CC
:1048500002B080BDD00300200010004000DE000246
:10486000CC03002000DD0002CE030020B0B588B0EC
:1048700000AF0200FB1D1A70BB1D0A1C1A701A4BF8
:104880001B78002B01D100232AE00C217B185C222D
:104890005A607B1801229A607B1800221A60082354
:1048A000FA187B181100180003F08CFC00F020F8B7
:1048B00000F034F8BB1D1B781A02FB1D1B78D318BF
:1048C000FB611B257C19FB6908491A00002003F0D5
:1048D0009FFB030023707B191B785A425341DBB2C4
:1048E0001800BD4608B0B0BDD003002000E006109F
:1048F00080B582B000AF074B1B78002B01D100239D
:1049000003E0054B7B607B681B781800BD4602B056
:1049100080BDC046D003002000E0061080B582B004
:1049200000AF074B1B78002B01D1002303E0054BA0
:104930007B607B681B781800BD4602B080BDC04616
:10494000D003002001E0061080B584B000AF3B002A
:1049500018605960274B1B78002B01D1002344E0DD
:10496000254B00229B5E9BB201339BB21AB2224BB5
:104970001A803B001B781A003B005B781B021A432D
:104980003B009B781B041A433B00DB781B06134358
:10499000FB603B001B791A003B005B791B02134351
:1049A000BB60154B00229B5E144A94466344DB00B7
:1049B0001900FB681A00002003F02AFB031E01D037
:1049C000002312E00C4B00229B5E0C4A9446634489
:1049D000DB0004331900BB681A00002003F018FB49
:1049E000031E01D0002300E001231800BD4604B0DF
:1049F00080BDC046D0030020CE03002000DD0002B1
:104A000080B500AF064B1B78002B01D1002303E0DB
:104A1000044B00229B5E9BB21800BD4680BDC04681
:104A2000D0030020CE03002090B587B000AF78609F
:104A30000A00BB1C1A8010243B19180006231A0018
:104A4000002123F005FA2E4B1B78002B08D17A6841
:104A50003B191000190006231A0023F06EFA4BE0F0
:104A6000BB1C1B88274A0021525E93423BDCBB1CC7
:104A70001B88254A94466344DB001A7810217B1872
:104A80001A70BB1C1B88204A94466344DB00013328
:104A90001A787B185A70BB1C1B881B4A94466344C7
:104AA000DB0002331A787B189A70BB1C1B88164AED
:104AB00094466344DB0003331A787B18DA70BB1C1E
:104AC0001B88114A94466344DB0004331A787B1830
:104AD0001A71BB1C1B880C4A94466344DB000533E7
:104AE0001A787B185A717A681023FB181000190085
:104AF00006231A0023F021FA7868BD4607B090BD5E
:104B0000D0030020CE03002000DD000280B586B077
:104B100000AF0823FB18186059602D4B1B78002B41
:104B200001D1002350E008217B181B781A007B1864
:104B30005B781B021A437B189B781B041A437B1873
:104B4000DB781B0613437B617B181B791A007B18EB
:104B50005B791B0213433B611E4B00229B5E1E4A86
:104B600094466344DB0019007B691A00002003F0BF
:104B70004FFA031E01D0002326E0164B00229B5E55
:104B8000154A94466344DB00043319003B691A005C
:104B9000002003F03DFA031E01D0002314E00D4B6A
:104BA00000229B5E9BB201339BB21AB2094B1A8062
:104BB000084B00229B5E9BB2013B9AB23B00110066
:104BC000180000F01FF801231800BD4606B080BD94
:104BD000D0030020CC03002000DE000280B500AF2F
:104BE000064B1B78002B01D1002303E0044B00226D
:104BF0009B5E9BB21800BD4680BDC046D00300201E
:104C0000CC03002090B587B000AF78600A00BB1CD1
:104C10001A8010243B19180006231A00002123F0E3
:104C200017F92E4B1B78002B08D17A683B1910001E
:104C3000190006231A0023F080F94BE0BB1C1B88E7
:104C4000274A0021525E93423BDABB1C1B88254A4F
:104C500094466344DB001A7810217B181A70BB1C41
:104C60001B88204A94466344DB0001331A787B1882
:104C70005A70BB1C1B881B4A94466344DB000233FA
:104C80001A787B189A70BB1C1B88164A944663449A
:104C9000DB0003331A787B18DA70BB1C1B88114ABF
:104CA00094466344DB0004331A787B181A71BB1CEA
:104CB0001B880C4A94466344DB0005331A787B1842
:104CC0005A717A681023FB181000190006231A0085
:104CD00023F033F97868BD4607B090BDD0030020BB
:104CE000CC03002000DE0002B0B586B000AF104B50
:104CF00000221A8008217B185E225A607B1801224C
:104D00009A607B1800221A6017257C193A1D7B18BF
:104D10001100180003F056FA030023707B191B786A
:104D20005A425341DBB21800BD4606B0B0BDC04682
:104D3000CC03002080B584B000AF7860074B196DBC
:104D4000064B7A680A431A65044B1B6D7A68134058
:104D5000FB60FB68C046BD4604B080BD0000404813
:104D600080B586B000AF1D4B1B78002B01D001230E
:104D700030E03B1D180014231A00002123F068F8CE
:104D80000820FFF7D7FF0420FFF7D4FF3B1DB02218
:104D900012011A603B1D00225A603B1D00229A60DE
:104DA0003A1D9023DB051100180003F08BFA3B1D20
:104DB00010221A603B1D00225A603B1D00229A609F
:104DC0003B1D074A1900100003F07CFA034B012237
:104DD0001A7001231800BD4606B080BDD103002023
:104DE00000001048B0B500AF80231A019023DB0506
:104DF0001100180003F0EEFC03005BB25B015CB233
:104E000080239A009023DB051100180003F0E2FCD8
:104E100003005BB21B015BB223435CB2194B102150
:104E2000180003F0D7FC03005BB2DB005BB2234346
:104E30005CB29023DB050821180003F0CBFC0300D3
:104E40005BB29B005BB223435CB29023DB05042181
:104E5000180003F0BFFC03005BB2DB185BB2234316
:104E60005CB280235A009023DB051100180003F088
:104E7000B1FC03005BB223435BB2DBB21800BD465A
:104E8000B0BDC0460000104890B585B000AF02002C
:104E9000FB1D1A70224B1B69002B3DD0214B402279
:104EA000002199541F4B4122202199541E4B1B680D
:104EB0001A681D4B1B6808218A431A609023DB0582
:104EC0000221180003F0A3FB154B12225A60144B69
:104ED00000221A61124A9023DB051100180003F02A
:104EE000F1F90121002005F0BDFC0121002005F0B1
:104EF000E7FCFB1D1B78002B0CD001F073FD0300B9
:104F0000FB60C046FB6814331C0001F06BFD03001E
:104F10009C42F7D800F078FAC046BD4605B090BD77
:104F200010260020242600207C26002090B585B085
:104F300002AF78607B68DB78002B12D17B681B782E
:104F4000DB1899B27B685B781C007B6802331048E1
:104F50000122019200930123220003F065FD03006A
:104F600011E07B681B78DB1899B27B685B781C00CA
:104F70007B6802330648012201920093012322003C
:104F800003F0F4FD03001800BD4603B090BDC04619
:104F90002426002090B585B000AF3B1D1860494B1A
:104FA0001B78002B01D1012387E00F23FB1800227F
:104FB0001A7001F017FD0300BB60C046424B434A24
:104FC0009B5A1C00404AC0235B01D35A0133C022C4
:104FD000D1001800FBF7A4FA0B009C4208D1BB6873
:104FE000FA2292009C1801F0FDFC03009C42E5D8D7
:104FF000354B364A9B5A1C00334AC0235B01D35AB7
:105000000133C022D1001800FBF78AFA0B009C4242
:1050100004D1022002F0D2FD01234EE0022002F072
:10502000EBFD294AC0235B01D35A274A99003B1D57
:105030001B688B50244AC0235B01D35A013399B2B9
:10504000214AC0235B01D1521F4AC0235B01D35ABE
:10505000C022D1001800FBF779F90B0099B21A4A67
:10506000C0235B01D152184B184A9B5A0133C0220E
:10507000D1001800FBF754FA0B001900124AC023A4
:105080005B01D35A994215D1114B41229B5CDBB293
:10509000202B0FD10120FFF7F7FE0B4B0B4A9B5A39
:1050A0009A00094BD3180F22BC181800FFF73EFFD7
:1050B000030023700F23FB181B781800BD4605B0B2
:1050C00090BDC046D81B0020D40300200218000069
:1050D0002426002080B582B000AF7860164B174AB6
:1050E0009B5A013399B2144B144A9952124B134AEA
:1050F0009B5AC022D1001800FBF728F90B0099B287
:105100000D4B0E4A99520C4B0C4A9A5A0A49C0232D
:105110005B01CB5A9A420BD00120FFF7B5FE064B3C
:10512000064A9B5A9A00044BD3181800FFF7FEFE5C
:10513000C046BD4602B080BDD40300200218000066
:1051400080B584B000AF78600C203B1805221A703F
:105150002A4B2B4A9B5A294A9B00D31801331B78B0
:105160001BB21B021AB2254B25495B5A23499B00EF
:10517000CB1802331B781BB213431BB29AB23B18F5
:105180005A801E4B1E4A9B5A1C4A9B00D31803335D
:105190001B785A1E1B4B9200D2583B181868904738
:1051A000164B174A9B5A013399B2144B144A995221
:1051B000124B134A9B5AC022D1001800FBF7C6F8C5
:1051C0000B0099B20D4B0E4A99520C4B0C4A9A5A4D
:1051D0000A49C0235B01CB5A9A420BD00120FFF74A
:1051E00053FE064B064A9B5A9A00044BD3181800EC
:1051F000FFF79CFEC046BD4604B080BDD40300202E
:10520000021800007826002090B585B000AF7860C5
:105210007B685B6C0422134021D0134B134A9A5ACB
:105220001149C0235B01CB5A9A4218D001F0DAFB36
:105230000300FB60C046FB680A331C0001F0D2FB90
:1052400003009C42F7D80120FFF71EFE064B074AD9
:105250009B5A9A00044BD3181800FFF767FEC0460C
:10526000BD4605B090BDC046D40300200218000022
:1052700080B500AF094B1B689A69E023DB0013403F
:1052800004D0064B180003F029FD03E0034B18007F
:1052900003F00AFDC046BD4680BDC046242600205E
:1052A00090B583B000AF364B1B78002B01D00123A3
:1052B00062E001F04BFB334B8222D2051A60314B86
:1052C000314A5A602F4B00229A602E4B0122DA603D
:1052D0002C4B00221A612B4B00225A61294B0022D1
:1052E0009A61284B0022DA61264B00221A62254B74
:1052F000412200219954FC1D224B180003F0EEFAC4
:1053000003002370FB1D1B78002B01D0002333E02A
:10531000FC1D1C4B0021180005F0B0F903002370A0
:10532000FB1D1B78002B01D0002325E0FC1D154B35
:105330000021180005F0EEF903002370FB1D1B7817
:10534000002B01D0002317E0104B114A0021995285
:105350000E4AC0235B010021D152094B01221A7071
:105360000120FFF791FD00220221032002F0CAFD77
:10537000032002F0DCFD01231800BD4603B090BD00
:10538000D81B0020242600205B5B3000D4030020C3
:1053900002180000B0B584B000AF0400080011008E
:1053A000FB1D221C1A70BB1D021C1A707B1D0A1CDF
:1053B0001A70134B1B78002B01D101231CE00F2125
:1053C0007B1800221A700F4BFA1D12781A700D4BC1
:1053D000BA1D12785A700B4B0022DA70094B7A1DF5
:1053E00012789A700D007C18064B1868FFF7D2FDF2
:1053F000030023707B191B781800BD4604B0B0BDB4
:10540000D81B0020DC1B002080B500AF0D4B4122D3
:105410009B5CDBB2202B11D10B4B0C4A9A5A0A49E8
:10542000C0235B01CB5A9A4208D0074B074A9B5ACC
:105430009A00054BD3181800FFF778FDC046BD460B
:1054400080BDC04624260020D4030020021800009E
:10545000B0B584B000AF040008001100FB1D221C91
:105460001A70BB1D021C1A707B1D0A1C1A70184B87
:105470001B78002B01D1012326E00F23FB1800220B
:105480001A70144BFA1D12781A70124BBA1D12784A
:105490005A707B1D1B78002B03D07B1D1B78012BC2
:1054A00001D9012310E00B4B7A1D1278DA70094BF9
:1054B00000229A700F257C19064B1868FFF76AFDC9
:1054C000030023707B191B781800BD4604B0B0BDE3
:1054D000D81B0020E01B0020B0B584B000AF040052
:1054E00008001100FB1D221C1A70BB1D021C1A7043
:1054F0007B1D0A1C1A700F257C197B1D1A78BB1D99
:105500001978FB1D1B781800FFF744FF0300237078
:105510007B191B78002B01D0012300E00023180029
:10552000BD4604B0B0BD000090B585B000AF786056
:105530000E243B1900221A807E2001F0B5FB3B1996
:105540003A191288FF321A80FF2001F0ADFB3B1997
:105550003A19128806321A80062001F0A5FB0023B2
:10556000BB601DE0BB687A68D3181B7819000E2257
:10557000BB18BA1812888A181A80BB687A68D318C0
:105580001978164ABB68D3180A1C1A70BB687A6867
:10559000D3181B78180001F087FBBB680133BB6090
:1055A000BB68032BDEDD0E243B193A1912885242E8
:1055B0001A803B191B881B0A9BB2DBB2180001F052
:1055C00073FB3B191B88DBB2180001F06DFBEF2069
:1055D00001F06AFBC046BD4605B090BD081C002026
:1055E00080B586B000AF0200FB1D1A70FB1D1B7852
:1055F000252B01D10023C6E0FB1D1B787E2B02D199
:10560000634B00221A70624B1B78082B00D9B9E05B
:105610009A00604BD3181B689F46FB1D1B78FF2B1D
:1056200000D0AEE05A4B01221A70AAE0FB1D1B7895
:10563000062B03D1564B02221A70A3E0544B0022D2
:105640001A709FE0524B03221A70534BFA1D1278C6
:105650001A7097E0FB1D1B78012B03D0FB1D1B78F4
:10566000002B03D14A4B04221A708BE0484B0022D6
:105670001A7087E0464B05221A70474BFA1D1278C4
:105680009A707FE0424B06221A70434BFA1D127843
:10569000DA7077E0404B1B781A003F4B5B78D318E9
:1056A0009BB23D4A92789B189BB23B4AD2789B189A
:1056B0009AB216203B1839498A1A1A80FB1D1B78AA
:1056C0009AB23B181B881B0A9BB29A4203D1304BFB
:1056D00007221A7056E02E4B00221A7010217B18F8
:1056E0002F4A1A607B181800FFF71EFF4AE02A4B6A
:1056F0001B781A00284B5B78D3189BB2264A927805
:105700009B189BB2244AD2789B189AB216203B1859
:1057100022498A1A1A80FB1D1A783B181B88FF2120
:105720000B409A4203D11A4B08221A702AE0184BF8
:1057300000221A700C217B18194A1A607B18180075
:10574000FFF7F2FE1EE0FB1D1B78EF2B15D1124B6D
:105750001B78402B0CD1104BDB78042B08D1114B5C
:105760001800FFF7E1FE0A4B00221A7000230AE03E
:10577000074B00221A70012305E0054B00221A7026
:1057800000E0C04600231800BD4606B080BDC046FC
:10579000F51B002044970610F81B0020FBFEFFFFBE
:1057A00040000006081C002080B584B000AF78607F
:1057B0001B4B7A681A6001F0C9F81A4B02221A7062
:1057C000FFF7ACF8030064211800FAF739FD030075
:1057D000DAB2154B1A70FFF78BF80300642118003A
:1057E000FAF72EFD0300DAB2104B1A7001F0FAF846
:1057F00002000F4B1A6001F0F5F802000D4B1A6021
:105800000D4B00221A700C217B180C221A607B1899
:105810001800FFF789FE01231800BD4604B080BDC3
:10582000E41B0020E81B0020E91B0020EA1B0020ED
:10583000EC1B0020F01B0020F41B002080B582B080
:1058400000AF3B1D1860054B1A683B1D196810001E
:10585000FEF7FBFEC046BD4602B080BDE41B002043
:10586000F0B587B000AF08257B1900221A707B19AC
:1058700000225A8001F0B6F803007B611326BC19A0
:1058800001F0E6F90300237031007B181B78252B0B
:105890000BD07B1908221A707B181B789AB27B19DF
:1058A0005A807B191868FFF7C9FF6D4B1B781A00E7
:1058B0000223134000D081E0694B1B78002B3DD1BF
:1058C000684B1B781800FCF7C7FA0022664BFBF701
:1058D00075FB02000B00100019000022634BFBF760
:1058E000A7FF02000B0014001D00614B1B6818008D
:1058F000FCF7B2FA02000B0020002900FAF798FF2B
:1059000002000B0014001D007869FCF7A5FA0200E4
:105910000B0020002900FAF735FE031E4ED00821A7
:105920007B1809221A707B1801225A80504B7A6921
:105930001A607B181868FFF781FF3FE0494B1B781E
:105940001A0064239B1A1800FCF758FA0022464BF1
:10595000FBF734FB02000B00100019000022434B40
:10596000FBF766FF02000B0014001D00404B1B6894
:105970001800FCF771FA02000B0020002900FAF76A
:1059800057FF02000B0014001D007869FCF764FA51
:1059900002000B0020002900FAF7F4FD031E0DD0D1
:1059A00008217B1809221A707B1800225A80304B7C
:1059B0007A691A607B181868FFF740FF2D4B1B6847
:1059C0007A69D31A2C4A93420ED92C4B1B78002BA0
:1059D0000AD108217B1801221A707B1800225A80F4
:1059E0007B181868FFF72AFFFEF782FF03001A00F2
:1059F000234B1B789A4207D1FEF790FF03001A0051
:105A0000184B1B789A4214D008243B190A221A70AA
:105A1000FEF76EFF03001A00194B1B78D31A5A4287
:105A20005341DBB21A003B195A803B191868FFF743
:105A300005FF0C217B180822BA1812681A607A1820
:105A4000002311880904090C1B0C1B040B4352880A
:105A500012041B041B0C13431800BD4607B0F0BD15
:105A6000E81B0020E91B002000005940804F224124
:105A7000EC1B0020F01B0020B70B0000F41B0020E3
:105A8000EA1B0020B0B59EB000AF3B1D18603B1D67
:105A90001B785BB2012B00D0BDE054217B180E2295
:105AA0001A607B181800FFF73FFD7723FB180122CF
:105AB0001A70C04B01221A70FEF78AFD0300BB6604
:105AC00054E050217B184E221A707B1800225A7025
:105AD0007B1800229A70B74B1A787B18DA707B1803
