:020000041004E6
:1000000000600020916A04109D650410A56504102D
:1000100000000000000000000000000000000000E0
:10002000000000000000000000000000AD650410AA
:100030000000000000000000B7650410C165041056
:10004000F56A0410F56A0410F56A04104D430410B3
:10005000000000000000000000000000F56A04102D
:10006000ED580410F1570410CD570410F56A041030
:10007000F56A0410F56A041000000000CF65041052
:10008000E5650410F56A04102966041000000000FC
:100090001B66041000000000000000000D66041044
:1000A000F56A041037660410F56A0410F56A041046
:1000B0000000000000000000000000000000000040
:1000C00010B5904216D98AB2030C090C0C4659435C
:1000D00080B25343444350431B191A041B0C10189D
:1000E000594180225203002312184B41520DD8026D
:1000F000104310BD4843802252031218520D10467F
:1001000010BDC0468B0707D0013A22D30B780131CE
:10011000037001308B07F7D1830730D0DB4219D051
:100120000138043A08D308C943701B0A43801B0CEA
:1001300003710430043AF6D2D20707D30B88437018
:1001400001D08A78C2701B0A8370704701D00B7887
:1001500043707047043A06D308C903801B0C4380E0
:100160000430043AF8D2D20705D30B88038005D0B7
:100170008B788370704701D00B780370704770B430
:10018000103A03D378C978C0103AFBD2530701D391
:1001900018C918C001D508C908C0D20704D30B88F4
:1001A000038002300231002A01D50B78037070BC45
:1001B0007047C046EFF31482EFF30981154880F3CE
:1001C0001488BFF36F8FF0B543464C4655465E46E4
:1001D0006746F8B4104CEFF30883636006B4BFF3CE
:1001E0004F8F30BFC046C0460B4C646884F308880C
:1001F00082B003BCF8BC9846A146AA46B346BC46AA
:10020000F0BC04BC80F3098881F31488BFF36F8FBE
:100210001047C04600000000040000200023C25C1C
:100220000133002AFBD1581E7047000003B4714609
:10023000490840004900095E49008E4403BC7047EC
:10024000002243088B4274D303098B425FD3030A15
:100250008B4244D3030B8B4228D3030C8B420DD328
:10026000FF22090212BA030C8B4202D312120902B6
:1002700065D0030B8B4219D300E0090AC30B8B42F4
:1002800001D3CB03C01A5241830B8B4201D38B03A2
:10029000C01A5241430B8B4201D34B03C01A524147
:1002A000030B8B4201D30B03C01A5241C30A8B428A
:1002B00001D3CB02C01A5241830A8B4201D38B0275
:1002C000C01A5241430A8B4201D34B02C01A524119
:1002D000030A8B4201D30B02C01A5241CDD2C3098B
:1002E0008B4201D3CB01C01A524183098B4201D307
:1002F0008B01C01A524143098B4201D34B01C01AF2
:10030000524103098B4201D30B01C01A5241C30869
:100310008B4201D3CB00C01A524183088B4201D3D8
:100320008B00C01A524143088B4201D34B00C01AC4
:100330005241411A00D20146524110467047FFE730
:1003400001B5002000F0F0F802BDC0460029F7D04A
:1003500076E7704703460B437FD4002243088B4265
:1003600074D303098B425FD3030A8B4244D3030B3C
:100370008B4228D3030C8B420DD3FF22090212BA01
:10038000030C8B4202D31212090265D0030B8B427D
:1003900019D300E0090AC30B8B4201D3CB03C01A67
:1003A0005241830B8B4201D38B03C01A5241430B42
:1003B0008B4201D34B03C01A5241030B8B4201D332
:1003C0000B03C01A5241C30A8B4201D3CB02C01A9D
:1003D0005241830A8B4201D38B02C01A5241430A15
:1003E0008B4201D34B02C01A5241030A8B4201D304
:1003F0000B02C01A5241CDD2C3098B4201D3CB01AB
:10040000C01A524183098B4201D38B01C01A524159
:1004100043098B4201D34B01C01A524103098B425D
:1004200001D30B01C01A5241C3088B4201D3CB0048
:10043000C01A524183088B4201D38B00C01A52412B
:1004400043088B4201D34B00C01A5241411A00D2DB
:1004500001465241104670475DE0CA0F00D0494244
:10046000031000D34042534000229C4603098B42B4
:100470002DD3030A8B4212D3FC22890112BA030A3C
:100480008B420CD3890192118B4208D389019211BE
:100490008B4204D389013AD0921100E08909C30943
:1004A0008B4201D3CB01C01A524183098B4201D345
:1004B0008B01C01A524143098B4201D34B01C01A30
:1004C000524103098B4201D30B01C01A5241C308A8
:1004D0008B4201D3CB00C01A524183088B4201D317
:1004E0008B00C01A5241D9D243088B4201D34B0032
:1004F000C01A5241411A00D20146634652415B1074
:10050000104601D34042002B00D549427047634654
:100510005B1000D3404201B5002000F005F802BD99
:100520000029F8D016E770477047C0469140030095
:1005300090409C46203A9340194352426346D34030
:1005400019437047844608006146FFE71FB500F075
:10055000F3F9002801D40021C8421FBD10B500F0F6
:100560007BF94042013010BD10B500F0E5F90028DC
:1005700001DB002010BD012010BDC04610B500F009
:10058000DBF9002801DD002010BD012010BDC046B0
:1005900010B500F089F9002801DC002010BD012011
:1005A00010BDC04610B500F07FF9002801DA002028
:1005B00010BD012010BDC0461C2101231B04984220
:1005C00001D3000C10391B0A984201D3000A0839E4
:1005D0001B09984201D30009043902A2105C40189B
:1005E0007047C0460403020201010101000000003F
:1005F00000000000002B11D1002A0FD1002900D1EA
:10060000002802D00021C943080007B4024802A113
:100610004018029003BDC04611FFFFFF03B46846B7
:1006200001B5029800F04CF8019B9E4602B00CBC4C
:100630007047C046F0B5CE469946030C9C4613045D
:1006400047461B0C1D000E0061460404240C80B5B7
:100650000700100C4B436543414360432C0CC0180A
:1006600024188C46A34203D980235B029846C444D5
:10067000494679435643230C2D042D0C89196344B4
:1006800024046019C918C0BCB946B046F0BDC046C4
:100690009E2110B5C905041CFFF784FF002803D173
:1006A000201C00F04FFD10BD9E21201CC90500F04C
:1006B000E5FA00F047FD80231B069C466044F2E704
:1006C000F0B557464E464546DE46E0B504000D00FF
:1006D0009246994683B08B4230D82DD04946504639
:1006E00000F0E6FD29000600200000F0E1FD331ACD
:1006F0009846203B34D49B4653465A469340424644
:100700001F00534693401E00AF423BD8AF4200D17A
:1007100079E05B46A41BBD41002B00DA76E00022A5
:1007200000230092019301235A4693400193012331
:1007300042469340009329E08242CFD90022002311
:10074000009201930C9B002B01D01C605D6000980F
:10075000019903B0F0BCBB46B246A946A046F0BD25
:1007600042469B4620239B1A5246DA4041461300DC
:100770004A468A40170042461F43534693401E0094
:10078000AF42C3D900220023009201934346002BBD
:10079000D8D0FB0772081A4346467B080EE0AB42EE
:1007A00001D1A2420CD8A41A9D41012024196D4107
:1007B0000021013E24184D41002E06D0AB42EED957
:1007C000013E24196D41002EF8D1009801995B4635
:1007D00000196941002B24DB2B005A464446D340C4
:1007E0002A00E2401C005B461500002B2ADB260095
:1007F0009E40330026004746BE403200801A994191
:10080000009001919EE7A342BCD882E74246202394
:1008100000219B1A0022009101920122DA400192EC
:1008200085E7424620239B1A2A0046469A40230029
:10083000F340444613432A00E2401C005B46150087
:10084000002BD4DA42462F002023260097409B1A23
:10085000DE403B003343CDE770B542004E024C0012
:1008600045026D0A120EC30F760A240EC90FFF2A25
:1008700010D0FF2C0CD00120A2420AD1B54208D1E1
:100880008B420FD0002A04D12800431E984100E07B
:10089000012070BD0120FF2CFBD13543F9D14B4025
:1008A0001800F6E70020F4E730B5420044024D029C
:1008B000C30F4800640A120E6D0A000EC90FFF2A0A
:1008C00018D0FF280AD0002A1ED100280AD1002DF6
:1008D00029D0002C2DD14800013830BD002D25D164
:1008E000002A01D1002CF6D08B4219D001205B42A6
:1008F0001843F2E7002C19D1FF28F7D1002D15D1AC
:1009000000208B42F2D1E8E70028EFD08B42EDD1F6
:100910008242EBDC04DBAC42E8D80020AC42DCD203
:1009200058000138D9E7002CD7D0DFE70220404239
:10093000D3E78B42DAD1EEE730B5420044024D02F4
:10094000C30F4800640A120E6D0A000EC90FFF2A79
:1009500017D0FF280AD0002A1BD100280AD1002D69
:100960001DD0002C2DD14800013811E0002D0ED1F2
:10097000002A01D1002CF6D08B420CD1580001384E
:1009800006E0002C03D1FF2805D1002D15D0022050
:1009900030BD002806D101205B421843F8E7002C47
:1009A000F6D0F8E78B42F6D18242F4DCE6DBAC42CB
:1009B000F1D80020AC42EBD2E0E700208B42EAD134
:1009C000E6E78B42E7D1F2E7F0B54F464646D6461A
:1009D0004400C0B546020F1C760A240EC50F002C39
:1009E00000D1DAE0FF2C74D08023F600DB041E4334
:1009F000002399469A467F3C7B025B0A98467B001F
:100A00001B0EFF0F002B74D0FF2B00D18EE042464F
:100A10008021D200C90411437F3B2A00E4184B46D1
:100A20007A408846D2B20A2B75DC4B460020022B56
:100A30000FDD494601238B40A621C9000B4269D135
:100A4000902189000B4200D000E18821194200D09A
:100A5000F5E041460904090C43460800350C36040C
:100A60001B0C360C704369435E435D437618030CE0
:100A70009B19994203D9802149028C4665440004A0
:100A80001904000C09188E01701E86411B0C890E7A
:100A90005B190E439B011E431B016CD423007F3363
:100AA000002B00DCB1E0150071070BD00F202100F6
:100AB0003040042806D00436320103D56E4B1E4068
:100AC0000B008033FE2B00DDBDE0B201520ADBB229
:100AD00048E0002E00D092E008239946063B9A4653
:100AE0007B025B0A98467B00FF241B0EFF0F002B46
:100AF0008AD14246002A64D14946013211438946CF
:100B00000A2908DC7D400120EAB2022991DC1500A7
:100B1000002227E015005346022B00D193E0032B5F
:100B20001AD0012B2CD1002300221BE04346FF34B6
:100B3000002B55D003214B460B4319000A2B00DC38
:100B400092E00F2B00D08CE08022D203164203D01B
:100B50004346134200D17DE08022D2033243520249
:100B6000520AFF23D805ED0710432843E0BCBA46DC
:100B7000B146A846F0BD0123150071081E400E4382
:100B800023008033611C002B41DD720794D00F22BB
:100B90003240042A00D08EE78EE7002E05D10423D0
:100BA0009946033B00249A4626E73000FFF704FDF0
:100BB0007624431F9E400023644299469A46241A95
:100BC0001AE74046FFF7F8FC4B46241A763C0A2BFE
:100BD000A1DC4346053883407D409846EAB224E7CD
:100BE0004A46023313432A007A40D2B20A2B92DCDF
:100BF00049461500002926D09946022019E70C2302
:100C00009946093BFF249A46F6E615002100012289
:100C1000D31A1B2B00DD86E79E3132008E40DA406E
:100C2000731E9E413243530704D00F231340042BFD
:100C300000D00432530110D50123002292E73D0079
:100C40004646824667E7FF2300228BE78022002585
:100C5000D20386E73D001A4383E792010023520A3C
:100C600080E73D00464677E72A0001237A408B4023
:100C70000320D2B2E9E6C046FFFFFFF7F8B54746CA
:100C8000CE46430280B55F0A9B0945004A009C4658
:100C90004B02C40FCE0F2D0E580A120E9909FF2ACF
:100CA0006BD001235E40AB1AB4424BD0002B00DC6A
:100CB000FFE0002A00D188E0FF2D00D1EFE0802284
:100CC000D204114301201B2B08DC08002022D8404D
:100CD000D31A99400B005A1E9341184363461B1ABE
:100CE0009C4663465B0100D4CDE063469F01BF098B
:100CF0003800FFF761FC3B0005388340854200DC8B
:100D0000A2E0B74A2D1A1A4094465A0700D1C3E010
:100D10000F221340042B00D1BEE004239846C444A4
:100D200063465B0100D4B7E0681CFE2D00D0A5E04F
:100D3000FF200022C0051043E4072043C0BCB94691
:100D4000B046F8BD002B00DCEBE1002A46D0FF2DB9
:100D500000D1A4E08022D20411431B2B00DCFBE075
:100D6000052398462B00C4446246D708FF2B00D1C8
:100D700095E07A02520AD8B2DCE72B00FF3B994695
:100D8000002918D101235E40B44200D1CAE04B468D
:100D9000002B2DD0002D00D03CE1FF236446002C19
:100DA00000D15FE15D1E012B00D174E13400FF2B07
:100DB00074D02B0003E1B44200D19CE0002B17D08B
:100DC000002DEAD0070034006CE00029CCD05A1E78
:100DD000012B2BD0FF2B62D0130073E70029C3D067
:100DE0005A1E012B00D11EE1FF2B58D01300B4E78F
:100DF000FE226B1C1A420DD1002D60D06346002BE1
:100E000000D020E1002900D028E180220024FF202A
:100E1000D2038FE763465F1A7B0100D5FEE0002F07
:100E200000D065E700240020002283E76346591ABA
:100E30004B0100D419E18F01BF093800FFF7BCFB5B
:100E40003B000538834001252022401B0130121A47
:100E500019009340C1405A1E934119438C460B1E02
:100E6000E1D05B0700D152E10F2300250B40042B9A
:100E700000D052E701204A0100D492E0C0B263469C
:100E80009A01520A56E763465B0705D00F23624674
:100E90001340042B00D040E72B0065E70700002F2C
:100EA00000D145E78022D2033A435202FF20520A82
:100EB00040E7002B79D1FE226B1C1A42AAD163466F
:100EC000002B00D1F5E0002900D1D1E05F1A80238A
:100ED000DB041F4200D10EE1624601248A1A9446C7
:100EE00000203440002A00D124E701201A42C6D154
:100EF0000023D7083DE7002B17D0002D00D0AFE02E
:100F0000FF236546002D00D1ADE05E1E012B00D110
:100F100089E0FF2BC2D01B2E00DCABE04B1D9C46B2
:100F2000130021E74B46002B70D1FE226B1C1A42A6
:100F30005ED1002D00D0C3E06346002B00D1D0E08D
:100F4000002900D194E00A006244530100D4D8E0A3
:100F500092010120520AEDE608002022D840D31A5F
:100F600099400B005A1E934103439C4463465B0126
:100F700089D50135FF2D00D1DAE6624601231949F2
:100F8000134052080A401A43130094465B0704D0EA
:100F90000F231340042B00D0BFE663465B0100D54E
:100FA000C2E66346DF082B00E3E6531B002D00D1A9
:100FB000F4E680206446C0040443A44634000120C3
:100FC0001B2B09DC20256046D840EB1A65469D4066
:100FD0002B005D1EAB4118430B1A9C46150080E6A2
:100FE000FFFFFFFBFFFFFF7DFE226B1C1342A3D020
:100FF000FF2B00D19CE6614449084A0749D00F22E3
:101000000A40042A45D00A1D9446ADE6002D00D1C1
:1010100076E78DE63400FF2000228BE6634601244C
:10102000CF1A344064E661444B016DD54808444909
:10103000014043072CD00F230340042B28D00B1D65
:101040009C46022390E6002900D12BE78023DB0396
:101050009F4200D226E7984200D323E70124344080
:1010600007001FE734008C467EE60123CF0880E6A8
:1010700000237EE620206546801B854063462800CD
:10108000F340451EA84103439C4615008C446DE780
:101090000223CF086DE60F1B7B0128D5BF01BF09D6
:1010A0003800FFF789FA3B000538834034000125FA
:1010B000CAE6002900D1B5E601240700344058E60D
:1010C0006346002B00D1E9E6002900D1EAE680233F
:1010D000DB039F4200D2E5E6984200D3E2E6070038
:1010E000E0E6002900D19EE60023CF0841E6340067
:1010F0000123FF083DE6002F00D193E60023FF08FF
:1011000037E60023D70834E60123CF0831E68022F2
:101110000B00D20401201340114200D0AEE6CF08EC
:1011200027E6002B00D15FE7561B002D01D13300CD
:10113000E7E680236046DB0418438446EBE6C046BE
:10114000FFFFFF7D41024200C30F490A0020120E3B
:101150007E2A03DD9D2A02DD094A98187047802007
:1011600000040143952A07DC9620821AD1404842A8
:10117000002BF3D10800F1E7963A9140F7E7C0461B
:10118000FFFFFF7F70B5002812D0C317C5185D4060
:10119000C40F2800FFF710FA9E231B1A962B0FDCB2
:1011A000082838D0083885406D026D0AD8B202E0B0
:1011B000002400200025C0052843E407204370BD1B
:1011C000992B14DC421F95402A0015491140550700
:1011D0001CD00F252A40042A18D00431CA0849011E
:1011E00015D59F235202181A550AC0B2E3E705220B
:1011F0002900121AD14002001B3295402A00551EC8
:10120000AA410A43064911405507E2D1CA085202D1
:10121000550AD8B2CFE76D026D0A8E30CBE7C046D3
:10122000FFFFFFFB10B5041E0DD0FFF7C5F99E238D
:101230001B1A962B0CDC082834D008388440640232
:10124000640AD8B201E000200024C005204310BD8C
:10125000992B13DC421F9440144A224061071CD092
:101260000F212140042918D00432D408520115D589
:101270009F236402181A640AC0B2E6E70200210044
:101280001B3291400A00511E8A410521091ACC40A7
:101290001443064A22406107E2D1D4086402640A7A
:1012A000D8B2D2E76402640A8E30CEE7FFFFFFFBBC
:1012B00010B5002903D1FFF77FF9203002E00800C4
:1012C000FFF77AF910BDC04680B500AF074A80230A
:1012D0009B000021D154054B054A00219954034B32
:1012E000044A00219954C046BD4680BD94010020A7
:1012F000010200000202000080B582B000AF0200CF
:10130000FB1D1A701F4B204A9B5C002B34D11D4AD9
:1013100080239B00D35C19001A4BFA1D12785A5493
:10132000184A80239B00D35C0133D9B2154A80232D
:101330009B00D154134A80239B00D15C114A802327
:101340009B00D1540F4A80239B00D35C01330F4A8A
:10135000134003D5013B0E4A134301331900094BD7
:101360000C4A9B5CCB1A5A425341DBB21900054B25
:10137000054A9954012300E000231800BD4602B03D
:1013800080BDC0469401002002020000FF010080E1
:1013900000FEFFFF0102000080B582B000AFBB1D60
:1013A000012252421A80214A80239B00D25C1F4BAB
:1013B0001F495B5C9A4204D11C4B1E4A9B5C002B6C
:1013C0002DD01A4B1A4A9B5C1A00184B9A5CBB1D15
:1013D0001A80164B164A9B5C0133D9B2134B144A40
:1013E0009954124B124A995C104B114A99540F4A66
:1013F00080239B00D35C01330F4A134003D5013B8C
:101400000E4A134301331900084B094A9B5CCB1A5F
:101410005A425341DBB21900044B064A9954BB1D92
:1014200000229B5E1800BD4602B080BD94010020E2
:101430000102000002020000FF01008000FEFFFF29
:1014400080B500AF0A4A80239B00D25C084B094953
:101450005B5C9A4206D1064B074A9B5C002B01D18C
:10146000012300E00023DBB21800BD4680BDC0466A
:1014700094010020010200000202000090B589B032
:1014800000AF08243B19180018231A00002126F089
:1014900069FB3B00180008231A00002126F062FBBC
:1014A0003B1905221A603B19802252025A603B19EF
:1014B00004221A613B1918000AF06AFF031E01D0CA
:1014C00000230FE03B0000221A603B0000225A601C
:1014D0003B00102118000BF0A5F8031E01D00023DB
:1014E00000E001231800BD4609B090BD80B586B06C
:1014F00000AF3B00180018231A00002126F032FB31
:101500003B0002221A603B00802252015A613B00DC
:1015100018000BF01DFA031E01D0002300E0012388
:101520001800BD4606B080BD80B582B000AF0F4B3D
:101530001B78002B01D0012313E005F04DFD0123A2
:101540007B60FFF7D3FF031E01D100237B60FFF711
:1015500095FF031E01D100237B60044B01221A700A
:101560007B681800BD4602B080BDC04697030020CE
:1015700080B500AF72B6C046C046FDE780B500AF8B
:1015800072B6C046C046FDE780B5AEB002AF02F00D
:10159000C3FA03001A000A49380008230093130015
:1015A000062226F0C3F9002003F024FD3B001800BA
:1015B00003F0D6FC03F054FDC046BD462CB080BD00
:1015C0009C890610F0B59DB004AF0400080011001E
:1015D000FB1D221C1A70BB1D021C1A707B1D0A1CED
:1015E0001A70FB1D1B78002B01D1022100E00121A4
:1015F000FB1D1B78002B01D0022000E00120BB1D49
:101600001C787B1D1D78FB1D1B78002B01D104234A
:1016100000E00323FA1D1278002A01D0042200E022
:1016200003220E4EB4460826BE190392029301957A
:10163000009403000A006146300026F077F900208C
:1016400003F0D8FC0826BB19180003F089FC03F04E
:1016500007FDC046BD4619B0F0BDC046FC89061066
:10166000F0B5C64600B59EB006AF0200FB1D1A706D
:10167000BB1D0A1C1A70FB1D1B78002B01D106250F
:1016800000E00525BB1D1B789846FB1D1B78002B31
:1016900001D1082300E00723FA1D1278012A01D1A5
:1016A000062200E00522F91D0978012901D108214F
:1016B00000E00721F81D0078022801D1082000E091
:1016C0000720FC1D2478022C01D1062400E005240B
:1016D0000F4EB4460826BE1904940390029101925D
:1016E000009343462A006146300026F01FF900208F
:1016F00003F080FC0826BB19180003F031FC03F04E
:10170000AFFCC046BD4618B080BCB846F0BDC04670
:101710004C8A0610F0B5DE4657464E464546E0B5C3
:10172000A5B00AAF05000C00100019000F26BB1968
:101730002A1C1A700E23FB18221C1A700D23FB188A
:10174000021C1A700C23FB180A1C1A70BB191B7898
:10175000002B02D102239C4601E001239C460F236B
:10176000FB181B78012B02D10223984601E00123CC
:1017700098460F23FB181B78022B01D1022200E0B0
:1017800001220F23FB181B78032B01D1022100E05B
:1017900001210E23FB181B7899460D23FB181B789B
:1017A0009A460C23FB181B789B46882308201B189D
:1017B000DB191B78BB600F23FB181B78002B01D1B2
:1017C000042400E003240F23FB181B78012B01D114
:1017D000042500E003250F23FB181B78022B01D101
:1017E000042600E003260F23FB181B78032B02D1ED
:1017F00004233B6001E003233B6017487860082026
:101800000823C018C0193B680993089607950694E9
:10181000BB6805935B460493534603934B46029380
:101820000191009243466246796826F07FF80020D5
:1018300003F0E0FB08200823C318DB19180003F0AD
:101840008FFB03F00DFCC046BD461BB0F0BCBB4691
:10185000B246A946A046F0BD888A0610F0B5DE461D
:1018600057464E464546E0B5B3B010AF05000C00F4
:10187000100019002726BB192A1C1A702623FB18F2
:10188000221C1A702523FB18021C1A7024203B18F6
:101890000A1C1A70672320215B18DB193A1812788A
:1018A000D2081A703B181B7803221340DAB2662361
:1018B00008005B18DB19111C09018A1A1A706523CC
:1018C0001B18DA1990210B18DB191B78DB08137031
:1018D0000B18DB191B7803221340DAB264231B18A0
:1018E000DB19111C09018A1A1A70BB191B78002B0D
:1018F00002D102233B6201E001233B622723FB1854
:101900001B78012B02D10223FB6101E00123FB6163
:101910002723FB181B78022B02D10223984601E0F3
:10192000012398462723FB181B78032B02D102239F
:10193000994601E0012399462723FB181B78042BC5
:1019400002D102239A4601E001239A462723FB187D
:101950001B78052B02D102239B4601E001239B4605
:101960002623FB181B78BB612523FB181B787B61A2
:10197000672320229B18DB191B783B6166239B1889
:10198000DB191B78FB6065239B18DB191B78BB6098
:1019900064239B18DB191B787B602723FB181B78BB
:1019A000002B02D104239C4601E003239C462723FD
:1019B000FB181B78012B01D1042600E00326272306
:1019C000FB181B78022B01D1042500E003252723F7
:1019D000FB181B78032B01D1042400E003242723E8
:1019E000FB181B78042B01D1042200E003222723DB
:1019F000FB181B78052B01D1042300E003231D49AC
:101A00003960082020214018C0190F930E920D94C0
:101A10000C950B9663460A937B680993BB68089301
:101A2000FB6807933B6906937B690593BB69049345
:101A30005B460393534602934B4601934346009300
:101A4000FB693A6A396825F071FF002003F0D2FA89
:101A500008202023C318DB19180003F081FA03F0D3
:101A6000FFFAC046BD4623B0F0BCBB46B246A9460D
:101A7000A046F0BDCC8A061080B582B000AF786079
:101A80000D4B7A681A600D4B00221A700C4B012224
:101A90001A7002F069FA02F071FC03F039FE03F0EB
:101AA00073F9002005F08EF8022005F08BF8012371
:101AB0001800BD4602B080BD980300209C030020A2
:101AC0009D03002080B582B000AF3B1D1860054B20
:101AD0001A683B1D1968100001F0C7FEC046BD46DC
:101AE00002B080BD98030020B0B584B000AF3B1DAC
:101AF00000221A703B1D00225A800F257C1902F02B
:101B000075FA03002370344B1B787A1912789A42C5
:101B10002FD0324B1B6832331C0003F045FE03000C
:101B20009C4226D23B1D04221A702B4B1A787B193B
:101B30001B785340DBB21B029AB27B191B789BB215
:101B4000D3189AB23B1D5A80234B7A1912781A7017
:101B500003F02AFE0200214B1A6003F025FE02006A
:101B60001F4B1A601F4B01221A703B1D1868FFF7AC
:101B7000A9FF1C4B1B781D00194B1B681A4A9C18A7
:101B800003F012FE03009C429B415B42DBB22B4000
:101B90000CD03B1D09221A703B1D00225A80114BAC
:101BA00000221A703B1D1868FFF78CFF08217B1874
:101BB0003A1D12681A607A18002311880904090C6A
:101BC0001B0C1B040B43528812041B041B0C1343F5
:101BD0001800BD4604B0B0BD742C0020A80300203E
:101BE000AC030020B00300203075000090B58DB02C
:101BF00002AF3B1D18602723FB1800221A70262312
:101C0000FB18C44A12781A703B1D1B785BB2092B73
:101C100004D1C14B01221A7003F01BFABE4B1B7892
:101C2000002B15D03B1D1B785BB2042B01D001F0BB
:101C30006AF9B94B00221A702623FB1800221A7089
:101C40002723FB1801221A7003F0FCF901F05BF95D
:101C5000B04B1B78052B01D901F048F99A00AF4B26
:101C6000D3181B689F463B1D1B785BB2022B01D12A
:101C7000FFF78AFC3B1D1B785BB2042B01D001F0FF
:101C800037F93B1D5B881A0080235B00134014D09A
:101C90003B1D5B881A00012313400ED12623FB183D
:101CA00001221A702723FB1801221A709C4B002274
:101CB0001A709C4B00221A70A0E03B1D5B881A0032
:101CC00080239B00134020D03B1D5B881A00022319
:101CD00013401AD12623FB1802221A702723FB185F
:101CE00001221A70904B00221A70904B00221A7039
:101CF0008F4B00221A708F4B00221A70884B0022E3
:101D00001A70884B00221A7078E03B1D5B881A001D
:101D10008023DB0013400ED03B1D5B881A00042398
:101D2000134008D12623FB1804221A702723FB181E
:101D300001221A7062E03B1D5B881A0080231B01A0
:101D400013400ED03B1D5B881A000823134008D1B6
:101D50002623FB1805221A702723FB1801221A706C
:101D60004CE03B1D5B881A0080235B0113401AD0B6
:101D70003B1D5B881A001023134014D101F0CCFEE8
:101D800003001A0021243B19013A1A7001F0DAFE0F
:101D900003001A003B191B781100180001F07AFEAD
:101DA000FFF7F2FB2AE03B1D5B881A0080239B01B2
:101DB000134001D101F09CF83B1D5B881A002023E1
:101DC000134001D001F094F801F0A6FE03001A00C0
:101DD00020243B1901321A703B191B78642B09D857
:101DE00001F0B0FE03001A003B191B781100180027
:101DF00001F050FEFFF7C8FB01F07AF801F078F827
:101E00003B1D1B785BB2022B0BD14B4B00221A708F
:101E1000494B1878424B1978424B1B781A00FFF750
:101E2000D1FB3B1D1B785BB2042B01D001F062F8A3
:101E30003B1D5B881A0080235B0013400ED03B1DC6
:101E40005B881A000123134008D12623FB180022C7
:101E50001A702723FB1801221A70E3E03B1D5B88F0
:101E60001A0080239B00134024D03B1D5B881A007E
:101E7000022313401ED11C217B180B221A70284B01
:101E80001B7801339BB21B029BB2264A12789B1827
:101E90009BB201339AB27B185A807B18186802F003
:101EA00095FD2623FB1800221A702723FB18012218
:101EB0001A70B7E03B1D5B881A008023DB001340DB
:101EC0003CD03B1D5B881A000423134036D11A4BCB
:101ED0001B78002B0AD1124B1B78013BDAB2104B56
:101EE0001A700F4B1A780E4B1A7009E00D4B1B78C5
:101EF000013BDAB20B4B1A700A4B1A78094B1A7075
:101F00000D4B1878064B1978064B1B781A00FFF713
:101F100059FB87E09C0300209D0300200C930610D2
:101F20009F030020A0030020A1030020A2030020A3
:101F3000A3030020A40300209E0300203B1D5B8818
:101F40001A0080231B01134029D03B1D5B881A0017
:101F50000823134023D1CE4B1B78002B0AD1CD4B45
:101F60001B780133DAB2CB4B1A70CA4B1A78C94BC3
:101F70001A7009E0C84B1B780133DAB2C64B1A70ED
:101F8000C54B1A78C44B1A70C14B1878C14B1978DD
:101F9000C14B1B781A00FFF715FB00F0B4FF3B1D87
:101FA0005B881A0080235B01134017D03B1D5B88C0
:101FB0001A001023134011D1B54B1B785A425341DC
:101FC000DBB21A00B24B1A70B14B1878B14B1978CA
:101FD000B14B1B781A00FFF7F5FA23E03B1D5B8835
:101FE0001A0080239B01134001D100F083FF3B1DA9
:101FF0005B881A002023134001D000F07BFFA44B24
:102000001B785A425341DBB21A00A14B1A70A04B05
:102010001878A04B1978A04B1B781A00FFF7D2FA5A
:1020200000F068FF00F066FF3B1D1B785BB2022BDF
:1020300012D1974B00221A70954B1878974B19784C
:10204000974B1B780133DAB2964B1C78964B1B7872
:1020500000932300FFF702FC3B1D1B785BB2042BAF
:1020600001D000F049FF3B1D5B881A0080235B0014
:1020700013400ED03B1D5B881A000123134008D18A
:102080002623FB1800221A702723FB1801221A703E
:10209000E6E13B1D5B881A0080239B0013400ED0B5
:1020A0003B1D5B881A000223134008D12623FB182E
:1020B00003221A702723FB1801221A70D0E13B1D5E
:1020C0005B881A008023DB00134000D1A5E03B1D94
:1020D0005B881A000423134000D09EE06C4B1B78F1
:1020E000052B00D983E09A00704BD3181B689F46DC
:1020F0006A4B1B78013BDAB2684B1A70674B1B784E
:10210000FF2B00D075E0654B0C221A7071E0644B18
:102110001B78013BDAB2624B1A70614B1B78FF2BC4
:1021200069D15F4B1E221A7065E05E4B1B781A0066
:10213000F82313400DD15B4B1B785BB20322134095
:102140005BB24822524213435BB2DAB2554B1A706B
:1021500052E0544B1B78083BDAB2524B1A704BE0FA
:10216000504B1B78002B03D14E4BBB221A7043E01F
:102170004C4B1B78013BDAB24A4B1A70494B1B7827
:1021800004229343DAB2474B1A7035E0464B1B7872
:102190001A00F82313400DD1434B1B785BB2032286
:1021A00013405BB24822524213435BB2DAB23E4B59
:1021B0001A7021E03C4B1B78083BDAB23A4B1A709C
:1021C0001AE0394B1B78002B03D1374BBB221A7016
:1021D00012E0354B1B78013BDAB2334B1A70324BAD
:1021E0001B7804229343DAB22F4B1A7004E0C046E6
:1021F00002E0C04600E0C046254B1878274B19780E
:10220000274B1B780133DAB2264B1C78264B1B7800
:1022100000932300FFF722FB22E13B1D5B881A009D
:1022200080231B01134000D1BCE03B1D5B881A00DA
:102230000823134000D0B5E0154B1B78052B00D9BF
:102240009AE09A001A4BD3181B689F46134B1B78D1
:102250000133DAB2114B1A70104B1B780D211800A4
:10226000FEF774F80B00DAB20C4B1A7089E00C4BD5
:102270001B780133DAB20A4B1A70094B1B781F2105
:102280001800FEF763F80B00DAB2054B1A7078E01D
:102290009E0300209F030020A0030020A103002034
:1022A000A2030020A3030020A4030020249306100F
:1022B0003C930610CF4B1B781A00F8231340B82B21
:1022C00007D1CC4B1B7803221340DAB2C94B1A70EA
:1022D00057E0C84B1B780833DAB2C64B1A7050E08F
:1022E000C44B1B78BB2B03D1C24B00221A7045E0B4
:1022F000C04B1B780133DAB2BE4B1A70BD4B1B7852
:102300001A000423134039D0BA4B1B780433DAB2D5
:10231000B84B1A7032E0B84B1B781A00F823134000
:10232000B82B07D1B44B1B7803221340DAB2B24B5F
:102330001A7026E0B04B1B780833DAB2AE4B1A7035
:102340001FE0AD4B1B78BB2B03D1AB4B00221A70A7
:1023500016E0A94B1B780133DAB2A74B1A70A64BD3
:102360001B781A00042313400AD0A34B1B780433B4
:10237000DAB2A14B1A7003E0C04602E0C04600E0AA
:10238000C0469E4B18789E4B19789E4B1B780133A4
:10239000DAB2984B1C78984B1B7800932300FFF718
:1023A0005DFA5DE03B1D5B881A0080235B011340F2
:1023B00023D03B1D5B881A00102313401DD18F4B87
:1023C0001B78013BDAB28D4B1A708C4B1B78FF2BBC
:1023D00002D18A4B05221A70884B1878884B1978DD
:1023E000884B1B780133DAB2824B1C78824B1B7806
:1023F00000932300FFF732FA32E03B1D5B881A009E
:1024000080239B01134001D100F076FD3B1D5B88CA
:102410001A002023134001D000F06EFD774B1B788B
:102420000133DAB2754B1A70744B1B780621180011
:10243000FDF78CFF0B00DAB2704B1A706F4B1878F7
:102440006F4B19786F4B1B780133DAB2694B1C78EC
:10245000694B1B7800932300FFF700FA00F04CFD56
:1024600000F04AFD3B1D1B785BB2022B0BD1634B86
:1024700000221A70614B1878634B1978634B1B78F4
:102480001A00FFF79FF83B1D1B785BB2042B01D0AD
:1024900000F034FD3B1D5B881A0080235B00134075
:1024A0000ED03B1D5B881A000123134008D1262360
:1024B000FB1802221A702723FB1801221A70EAE087
:1024C0003B1D5B881A0080239B00134032D03B1DCC
:1024D0005B881A00022313402CD1494B1A7814212F
:1024E0007B181A70474B1B780133DAB27B185A708D
:1024F000404B1A787B189A703F4B1A787B18DA7029
:10250000424B1B780133DAB27B185A713E4B1B7871
:102510000133DAB27B181A717B181868596801F018
:1025200001FC2623FB1800221A702723FB18012226
:102530001A70B0E03B1D5B881A008023DB0013405B
:1025400028D03B1D5B881A000423134022D12B4B5B
:102550001B78002B0AD12C4B1B78013BDAB22A4B9B
:102560001A70294B1A78284B1A7009E0274B1B78F0
:10257000013BDAB2254B1A70244B1A78234B1A70A0
:102580001E4B1878204B1978204B1B781A00FFF748
:1025900019F880E03B1D5B881A0080231B01134063
:1025A00036D03B1D5B881A000823134030D1134BF3
:1025B0001B78002B0AD1144B1B780133DAB2124B73
:1025C0001A70114B1A78104B1A7009E00F4B1B78D8
:1025D0000133DAB20D4B1A700C4B1A780B4B1A7090
:1025E000064B1878084B1978084B1B781A00FEF731
:1025F000E9FF50E0A3030020A40300209E03002075
:10260000A1030020A20300209F030020A0030020BC
:102610003B1D5B881A0080235B01134017D03B1DD4
:102620005B881A001023134011D1DC4B1B785A42EF
:102630005341DBB21A00D94B1A70D84B1878D84BDB
:102640001978D84B1B781A00FEF7BCFF23E03B1D1E
:102650005B881A0080239B01134001D100F04EFCDF
:102660003B1D5B881A002023134001D000F046FC7C
:10267000CA4B1B785A425341DBB21A00C74B1A703F
:10268000C64B1878C64B1978C64B1B781A00FEF754
:1026900099FF00F033FC00F031FC3B1D1B785BB26E
:1026A000022B28D1BD4B00221A70BF4B00221A709A
:1026B000BE4B00221A70BE4B00221A70BD4B002286
:1026C0001A70B64B1878BB4B1B785BB2DBB2013388
:1026D000D9B2B74B1B785BB2DBB20133DAB2B34B82
:1026E0001B785BB2DCB2B04B1B785BB2DBB2009301
:1026F0002300FFF70FF83B1D1B785BB2042B01D0C2
:1027000000F0FEFB3B1D5B881A0080235B0013403A
:102710000ED03B1D5B881A000123134008D12623ED
:10272000FB1800221A702723FB1801221A7053E2AB
:102730003B1D5B881A0080239B00134000D194E06E
:102740003B1D5B881A000223134000D08DE0994B9B
:102750001B785BB2DBB20133DBB25AB2954B1A7015
:10276000002200216F2001F093FE8F4B1B785BB29B
:102770000A211800FDF7EEFD03005BB21B015CB2FD
:10278000894B1B785BB20A211800FDF7C9FE0B00CC
:102790005BB223435BB2DBB21A0001216F2001F070
:1027A00077FE824B1B785BB20A211800FDF7D2FD41
:1027B00003005BB21B015BB2402213435CB27B4B54
:1027C0001B785BB20A211800FDF7AAFE0B005BB272
:1027D00023435BB2DBB21A0002216F2001F058FEE6
:1027E000734B1B785BB201330A211800FDF7B2FD71
:1027F00003005BB21B015CB26D4B1B785BB2013313
:102800000A211800FDF78CFE0B005BB223435BB27C
:10281000DBB21A0003216F2001F03AFE654B1B78F2
:102820005BB201330A211800FDF794FD03005BB28F
:102830001B015CB25F4B1B785BB201330A211800AD
:10284000FDF76EFE0B005BB223435BB2DBB21A00F6
:1028500004216F2001F01CFE2623FB1800221A70B1
:102860002723FB1801221A70B6E13B1D5B881A0072
:102870008023DB00134000D19EE03B1D5B881A00E3
:102880000423134000D097E0444B1B78032B3FD028
:1028900000DD67E0022B29D064DC002B02D0012B85
:1028A00012D05FE0434B1B785BB2DBB2013BDBB283
:1028B0005AB2404B1A703F4B1B785BB2002B4ADA7E
:1028C0003C4B0B221A7046E0394B1B785BB2DBB2F3
:1028D000013BDBB25AB2364B1A70354B1B785BB2F8
:1028E000002B3ADA324B1E221A7036E02F4B1B783F
:1028F0005BB2DBB2013BDBB25AB22C4B1A702B4BF2
:102900001B785BB2002B2ADA284B17221A7026E0BC
:10291000254B1B785BB2DBB2013BDBB25AB2224BD8
:102920001A70214B1B785BB2002B1ADA1E4B3B222C
:102930001A701E4B1B785BB2DBB2013BDBB25AB2A2
:102940001A4B1A70194B1B785BB2002B09DA174B24
:1029500017221A7005E0C04604E0C04602E0C046F7
:1029600000E0C0460D4B1878124B1B785BB2DBB20F
:102970000133D9B20E4B1B785BB2DBB20133DAB252
:102980000A4B1B785BB2DCB2074B1B785BB2DBB245
:1029900000932300FEF7BEFEB5E2C0469E03002072
:1029A0009F030020A0030020B1030020B2030020F9
:1029B000B3030020B40300203B1D5B881A00802372
:1029C0001B01134000D19BE03B1D5B881A000823CC
:1029D000134000D094E0CB4B1B78032B48D000DD94
:1029E00073E0022B2FD070DC002B02D0012B15D00E
:1029F0006BE0C54B1B785BB2DBB20133DBB25AB282
:102A0000C14B1A70C04B1B785BB20C211800FDF74C
:102A100087FD0B005AB2BC4B1A7056E0BB4B1B78BB
:102A20005BB2DBB20133DBB25AB2B84B1A70B74BB0
:102A30001B785BB21F211800FDF772FD0B005AB224
:102A4000B24B1A7041E0B24B1B785BB2DBB2013380
:102A5000DBB25AB2AE4B1A70AD4B1B785BB2182189
:102A60001800FDF75DFD0B005AB2A94B1A702CE05F
:102A7000A84B1B785BB2DBB20133DBB25AB2A54B79
:102A80001A70A44B1B785BB23C211800FDF748FD7F
:102A90000B005AB29F4B1A709E4B1B785BB2002BF7
:102AA00013D19B4B1B785BB2DBB20133DBB25AB262
:102AB000974B1A70964B1B785BB218211800FDF7E4
:102AC0002FFD0B005AB2924B1A708E4B18788E4B1A
:102AD0001B785BB2DBB20133D9B28C4B1B785BB293
:102AE000DBB20133DAB28A4B1B785BB2DCB2894BC2
:102AF0001B785BB2DBB200932300FEF70BFE6BE0AA
:102B00003B1D5B881A0080235B0113402DD03B1DC9
:102B10005B881A001023134027D17A4B1B78013BA6
:102B2000DAB2784B1A70774B1B78FF2B02D1754BBA
:102B300003221A70734B1878734B1B785BB2DBB2AD
:102B40000133D9B2714B1B785BB2DBB20133DAB21D
:102B50006F4B1B785BB2DCB26E4B1B785BB2DBB2A7
:102B600000932300FEF7D6FD36E03B1D5B881A007C
:102B700080239B01134000D1C2E13B1D5B881A00FA
:102B80002023134000D0BBE15E4B1B780133DAB247
:102B90005C4B1A705B4B1B7803221340DAB2594B23
:102BA0001A70584B1878584B1B785BB2DBB2013364
:102BB000D9B2564B1B785BB2DBB20133DAB2544B5D
:102BC0001B785BB2DCB2534B1B785BB2DBB2009379
:102BD0002300FEF79FFD93E192E13B1D1B785BB262
:102BE000022B0BD1474B00221A70464B1C7800F089
:102BF000A9FF030019002000FEF732FD3B1D1B78E2
:102C00005BB2042B00D07DE13B1D5B881A00802362
:102C10005B0013400ED03B1D5B881A00012313405C
:102C200008D12623FB1800221A702723FB18012243
:102C30001A705AE13B1D5B881A0080239B001340E9
:102C400014D03B1D5B881A00022313400ED12D4B7C
:102C50001B78022B01D101F04BF92623FB1800222F
:102C60001A702723FB1801221A703EE13B1D5B8876
:102C70001A008023DB0013401FD03B1D5B881A0025
:102C80000423134019D11F4B1B780133DAB21D4BBB
:102C90001A701C4B1B7803211800FDF757FB0B0023
:102CA000DAB2184B1A70174B1C7800F04BFF030078
:102CB00019002000FEF7D4FC17E13B1D5B881A00C9
:102CC00080231B01134027D03B1D5B881A0008237B
:102CD000134021D10B4B1B78013BDAB2094B1A7020
:102CE000084B1B78FF2B02D1064B02221A70054BB2
:102CF0001C7800F027FF030019002000FEF7B0FC4D
:102D000001E1C0469E030020B4030020B30300206D
:102D1000B2030020B10300203B1D5B881A00802312
:102D20005B0113406CD03B1D5B881A0010231340DD
:102D300066D1874B1B78002B02D0012B2ED05EE092
:102D400000F000FF0300013BDAB224243B191A70A3
:102D50003B191B787F2B0DD93B1900221A7000F00C
:102D6000DBFE03001A003B191B781900100000F06D
:102D700091FE44E000F0D0FE03001A0024243B1929
:102D80001B781900100000F085FE714B1A783B1972
:102D90001B7819001000FEF763FC30E025243B1976
:102DA00000221A707E2002F02BFF3B193A1912788C
:102DB000013A1A70FF2002F023FF3B193A191278EA
:102DC00006321A70062002F01BFF022002F018FFE4
:102DD0003B193A19127802321A70002002F010FFE3
:102DE000002002F00DFF002002F00AFF3B191B78C3
:102DF000180002F005FFEF2002F002FFC04674E069
:102E00003B1D5B881A0080239B01134000D179E0B1
:102E10003B1D5B881A002023134000D072E04C4B0E
:102E20001B78002B02D0012B2ED05EE000F08AFE32
:102E300003001A0022243B1901321A703B191B7837
:102E4000642B0DD93B1964221A7000F065FE030053
:102E50001A003B191B781900100000F01BFE44E01B
:102E600000F05AFE03001A0022243B191B781900B7
:102E7000100000F00FFE364B1A783B191B78190032
:102E80001000FEF7EDFB30E023243B1900221A70FE
:102E90007E2002F0B5FE3B193A191278013A1A70F9
:102EA000FF2002F0ADFE3B193A19127806321A7073
:102EB000062002F0A5FE012002F0A2FE3B193A19FD
:102EC000127801321A70002002F09AFE002002F0FF
:102ED00097FE002002F094FE3B191B78180002F0C8
:102EE0008FFEEF2002F08CFEC0460BE0C0460AE0E9
:102EF000C04608E0C04606E0C04604E0C04602E026
:102F0000C04600E0C0462723FB181B78002B1AD0D0
:102F100010217B1800221A607B1803221A707B187C
:102F20001868FEF763FE0B4B2622BA1812781A7047
:102F30000C217B1800221A607B1802221A707B1861
:102F40001868FEF753FE01231800BD460BB090BD74
:102F50009E0300209C03002080B584B000AF786001
:102F60000C4B00221A700C4B7A681A6002F064FD58
:102F700000F010FD0C217B1801221A707B18002232
:102F80005A807B18186800F009F801231800BD4624
:102F900004B080BDB5030020B803002080B582B026
:102FA00000AF3B1D1860054B1A683B1D19681000E7
:102FB00000F05BFCC046BD4602B080BDB8030020F7
:102FC000F0B587B000AF1723FB1800221A700C254C
:102FD0007B1900221A707B1900225A801626BC1910
:102FE00002F058FE0300237031007B181B78252B5C
:102FF0000BD01723FB1801221A707B1906221A70B6
:103000007B181B789AB27B195A801F4B1B78012BB7
:1030100015D102F0EBFE031E04D1FEF711FA0300F6
:10302000012B0CD1194B1A683B1D072119703B1D50
:10303000002159803B1D1968100000F016FC172371
:10304000FB181B78002B07D0104B1A680C23FB18B9
:103050001968100000F009FC10217B180C22BA1826
:1030600012681A607A18002311880904090C1B0CD5
:103070001B040B43528812041B041B0C134318003F
:10308000BD4607B0F0BDC046BC030020B803002019
:10309000B0B59EB000AF3B1D18607723FB1800222F
:1030A0001A707623FB18E14A12781A70DF4B1B78EE
:1030B0000F2B00D939E39A00DD4BD3181B689F46CC
:1030C0003B1D1B785BB2012B00D030E37623FB184D
:1030D00001221A707723FB1801221A7027E33B1D87
:1030E0001B785BB2022B02D1D24B00221A703B1D1F
:1030F0001B785BB2062B00D01BE33B1D5B88052BC6
:1031000045D89A00CC4BD3181B689F46CB4B180070
:1031100000F06AFB7623FB1802221A707723FB1853
:1031200001221A7034E0C64B180000F05DFB7623D4
:10313000FB1803221A707723FB1801221A7027E06C
:10314000C04B180000F050FB7623FB1805221A70C4
:103150007723FB1801221A701AE0BB4B180000F00D
:1031600043FB7623FB1807221A707723FB180122F2
:103170001A700DE0B54B180000F036FB7623FB18F3
:1031800008221A707723FB1801221A7000E0C0464B
:10319000CFE23B1D1B785BB2062B00D0CBE23B1D80
:1031A0005B88DCB200F0CEFC03001900200000F0C8
:1031B00071FC00F0B1FC03001A00A54934243B194E
:1031C000180024F0B3FB3B19180000F00DFB762328
:1031D000FB1801221A707723FB1801221A70AAE249
:1031E0003B1D1B785BB2062B00D0A6E23B1D5B8823
:1031F000DAB2984B1A70984B180000F0F5FA762363
:10320000FB1804221A707723FB1801221A7094E22B
:103210003B1D1B785BB2062B00D090E230217B185F
:103220000B221A708B4B1B781B029AB23B1D5B88DA
:10323000D3189AB27B185A807B18186801F0C6FB25
:10324000864B180000F0D0FA7623FB1801221A7082
:103250007723FB1801221A7071E23B1D1B785BB2C9
:10326000022B00D06DE2734B01221A707C4B0022BE
:103270001A6068257C1900F0D1FC030023802C0023
:103280003B191B881B0A9BB2DBB2180002F044FDFD
:103290003B191B88DBB2180002F03EFD7623FB18B9
:1032A00006221A707723FB1801221A7049E23B1D8F
:1032B0001B785BB2072B00D045E26A217B182022E5
:1032C0001A807B181A88664B1B68D31A552B34D981
:1032D00000233B672DE024203B18624A11681960E7
:1032E00092889A8004003B191B78180002F014FDA4
:1032F0003B195B78180002F00FFD3B199B78180012
:1033000002F00AFD3B19DB78180002F005FD3B19BD
:103310001B79180002F000FD3B195B79180002F0E0
:10332000FBFC4F4B1B685A1C4D4B1A603B6F013323
:103330003B673B6F542BCEDD05E20023FB662DE09F
:103340001C203B18474A1168196092889A80040033
:103350003B191B78180002F0DFFC3B195B78180062
:1033600002F0DAFC3B199B78180002F0D5FC3B19FF
:10337000DB78180002F0D0FC3B191B79180002F032
:10338000CBFC3B195B79180002F0C6FC344B1B6880
:103390005A1C334B1A60FB6E0133FB666A23FB1821
:1033A0001A882F4B1B68D21AFB6E9A42C8D803208A
:1033B00002F0B2FC2A4B00221A601E4B00221A7047
:1033C0007623FB1801221A707723FB1801221A704A
:1033D000254B180000F008FAB5E13B1D1B785BB2E5
:1033E000062B00D0B1E100F097FB03001A003B1D53
:1033F0005B88DBB21900100000F04CFB00F0A2FB70
:1034000003001A00124934243B19180024F08EFAE4
:103410003B19180000F0E8F97623FB1801221A7016
:103420007723FB1801221A708FE1C046B5030020F4
:1034300054930610BC03002094930610408B061092
:10344000588B0610708B0610888B06109C8B06100C
:10345000B88B0610BD030020CC8B0610E48B061041
:10346000C00300209C8C0610FC8B06103B1D1B78B3
:103470005BB2022B00D06AE1CF4B180000F0B4F928
:10348000CE4B180006231A00002124F06BFB00F03D
:103490002FFD7623FB1809221A707723FB180122CF
:1034A0001A70C74B00221A7051E13B1D1B785BB2AA
:1034B000062B00D04DE13B1D5B880D2B1AD1C14B73
:1034C000180000F091F97623FB1801221A70772377
:1034D000FB1801221A70B94B1B78002B04D1B74B93
:1034E0005B78002B00D134E1B44B1868596800F0C8
:1034F00019FC2EE1B24B1B78B42B1CD9B24B18002F
:1035000000F072F9AD4B1B78002B03D1AB4B5B780D
:10351000002B04D0A94B1868596800F003FC7623EF
:10352000FB180F221A707723FB1801221A700D2046
:1035300002F0F2FB0DE1A14B1B78002B03D19F4B56
:103540005B78002B04D09D4B1868596800F0EAFBAB
:103550003B1D5B88DAB2994B1A703B1D5B881A00E1
:103560009A4934243B19180024F0E0F93B1918005B
:1035700000F03AF97623FB180A221A707723FB1819
:1035800001221A70E5E03B1D1B785BB2062B00D0D0
:10359000E1E03B1D5B88DAB2884B5A703B1D5B88CB
:1035A0001A008B4934243B19180024F0BFF93B1949
:1035B000180000F019F97623FB180B221A707723F4
:1035C000FB1801221A70C6E03B1D1B785BB2062B6C
:1035D00000D0C2E03B1D5B88DAB2784B9A703B1D8D
:1035E0005B88DB101F2213401C003B1D5B881A0008
:1035F00003231A4013001B019B1A764934257819BE
:10360000220024F093F97B19180000F0EDF87623DE
:10361000FB180C221A707723FB1801221A709CE009
:103620003B1D1B785BB2062B00D098E03B1D5B88EE
:10363000DAB2624BDA703B1D5B88DB101F2213404D
:103640001C003B1D5B881A0003231A4013001B015A
:103650009B1A614934257819220024F067F97B19F7
:10366000180000F0C1F87623FB180D221A7077239A
:10367000FB1801221A7072E03B1D1B785BB2062B0F
:1036800000D06EE03B1D5B88DAB24C4B1A713B1DDB
:103690005B881A00514934243B19180024F046F97C
:1036A0003B19180000F0A0F87623FB180E221A70C0
:1036B0007723FB1801221A7053E03B1D1B785BB285
:1036C000062B50D13B1D5B88DAB23C4B5A713B1D37
:1036D0005B881A00424934243B19180024F026F96B
:1036E0003B19180000F080F87623FB1809221A70A5
:1036F0007723FB1801221A70314B1B780133DAB2A1
:103700002F4B1A702FE03B1D1B785BB2062B2CD180
:103710003B1D5B880D2B28D17623FB1801221A70E4
:103720007723FB1801221A701FE0C0461EE0C04636
:103730001CE0C0461AE0C04618E0C04616E0C0468D
:1037400014E0C04612E0C04610E0C0460EE0C0469D
:103750000CE0C0460AE0C04608E0C04606E0C046AD
:1037600004E0C04602E0C04600E0C0467723FB18F4
:103770001B78002B1AD010217B1800221A607B18AE
:1037800003221A707B181868FFF782FC154B76220B
:10379000BA1812781A700C217B1800221A607B1854
:1037A00002221A707B181868FFF772FC01231800B8
:1037B000BD461EB0B0BDC046088C0610C403002034
:1037C000CA0300201C8C0610308C06104C8C06108E
:1037D000588C0610608C0610748C0610848C0610B1
:1037E000908C0610B503002080B584B000AF7860DF
:1037F0007B681800FCF712FD0300BB600E2002F08E
:103800008BFA0023FB6009E0FB687A68D3181B7809
:10381000180002F081FAFB680133FB60FA68BB68AC
:103820009A42F1DB0A2002F077FA01231800BD4624
:1038300004B080BD80B582B000AF0C2023F08CFEB8
:1038400003007B607B68002B01D1002309E07B68CB
:1038500000221A607B6800225A607B6800221A816D
:103860007B681800BD4602B080BD80B584B000AF53
:1038700078603B0019607B68002B01D1002326E0B3
:10388000082023F069FE0300FB60FB68002B01D1D8
:1038900000231CE0FB683A0012681A60FB680022F3
:1038A0005A607B685B68002B04D07B685B68FA68B1
:1038B0005A6002E07B68FA681A607B68FA685A60AE
:1038C0007B681B8901339AB27B681A810123180037
:1038D000BD4604B080BD90B589B000AF78607B680C
:1038E000002B07D118217B18FF221A707B180022A9
:1038F0005A8030E07B681B68002B0AD17B6800226D
:103900005A6018217B1800221A707B1800225A80F6
:1039100021E07B681B68FB61FB695A687B681A6061
:103920007B681B68002B02D17B6800225A6014243C
:103930003B19FA6912681A60FB69180023F016FE39
:103940007B681B89013B9AB27B681A811823FB189C
:103950003A1912681A601823FA180023118809040A
:10396000090C1B0C1B040B43528812041B041B0C78
:1039700013431800BD4609B090BD80B582B000AFBA
:1039800078607B681B895A1E9341DBB21800BD46E4
:1039900002B080BD80B582B000AF384B1B78002BE1
:1039A00001D0012366E0364B1A69354B0C210A43DE
:1039B0001A6100237B6011E07B68324A94466344BD
:1039C000DB001B78FF2B06D17B689BB2013B9AB2D0
:1039D0002D4B1A8005E07B6801337B607B68FF2BF1
:1039E000EADD00233B6011E03B68284A94466344CB
:1039F000DB001B78FF2B06D13B689BB2013B9AB2E0
:103A0000234B1A8005E03B6801333B603B68FF2B8A
:103A1000EADD1A4B01221A7000F07EF80300FF2B3A
:103A200004D000F08FF80300FF2B22D100F074F8CF
:103A30000300FF2B09D100F085F80300FF2B04D110
:103A40002821322000F026F813E000F065F803008A
:103A5000FF2B07D100F076F803001900322000F0A8
:103A600019F806E000F058F803002821180000F0CB
:103A700011F801231800BD4602B080BDD00300201C
:103A80000010004000DE0002CC03002000DD000238
:103A9000CE030020B0B588B000AF0200FB1D1A7045
:103AA000BB1D0A1C1A701A4B1B78002B01D1002376
:103AB0002AE00C217B185C225A607B1801229A6054
:103AC0007B1800221A600823FA187B1811001800CE
:103AD00003F076FD00F020F800F034F8BB1D1B78F1
:103AE0001A02FB1D1B78D318FB611B257C19FB698F
:103AF00008491A00002003F089FC030023707B1999
:103B00001B785A425341DBB21800BD4608B0B0BD25
:103B1000D003002000E0061080B582B000AF074B54
:103B20001B78002B01D1002303E0054B7B607B68F1
:103B30001B781800BD4602B080BDC046D0030020EF
:103B400000E0061080B582B000AF074B1B78002B59
:103B500001D1002303E0054B7B607B681B781800D4
:103B6000BD4602B080BDC046D003002001E0061073
:103B700080B584B000AF3B0018605960244B1B78BF
:103B8000002B01D100233FE0224B1B8801339AB266
:103B9000204B1A803B001B781A003B005B781B020D
:103BA0001A433B009B781B041A433B00DB781B063F
:103BB0001343FB603B001B791A003B005B791B023F
:103BC0001343BB60134B1B88134A94466344DB00CA
:103BD0001900FB681A00002003F018FC031E01D036
:103BE000002311E00B4B1B880B4A94466344DB0017
:103BF00004331900BB681A00002003F007FC031E01
:103C000001D0002300E001231800BD4604B080BDB0
:103C1000D0030020CE03002000DD000280B500AFFD
:103C2000054B1B78002B01D1002301E0034B1B88BF
:103C30001800BD4680BDC046D0030020CE03002042
:103C400090B587B000AF78600A00BB1C1A801024C2
:103C50003B19180006231A00002123F083FF2E4B86
:103C60001B78002B08D17A683B1910001900062335
:103C70001A0023F0ECFF4AE0284B1B88BA1C12887C
:103C80009A423BD8BB1C1B88254A94466344DB0000
:103C90001A7810217B181A70BB1C1B88204A944686
:103CA0006344DB0001331A787B185A70BB1C1B88F5
:103CB0001B4A94466344DB0002331A787B189A70DF
:103CC000BB1C1B88164A94466344DB0003331A78F6
:103CD0007B18DA70BB1C1B88114A94466344DB00D6
:103CE00004331A787B181A71BB1C1B880C4A944643
:103CF0006344DB0005331A787B185A717A68102305
:103D0000FB181000190006231A0023F0A0FF7868A2
:103D1000BD4607B090BDC046D0030020CE030020B2
:103D200000DD000280B586B000AF0823FB181860E4
:103D300059602A4B1B78002B01D1002349E0082150
:103D40007B181B781A007B185B781B021A437B18C0
:103D50009B781B041A437B18DB781B0613437B619B
:103D60007B181B791A007B185B791B0213433B619C
:103D70001B4B1B881B4A94466344DB0019007B697C
:103D80001A00002003F042FB031E01D0002320E0B4
:103D9000134B1B88134A94466344DB000433190019
:103DA0003B691A00002003F031FB031E01D0002301
:103DB0000FE00B4B1B8801339AB2094B1A80084B5A
:103DC0001B88013B9AB23B001100180000F01EF85E
:103DD00001231800BD4606B080BDC046D0030020B8
:103DE000CC03002000DE000280B500AF054B1B783D
:103DF000002B01D1002301E0034B1B881800BD46B6
:103E000080BDC046D0030020CC03002090B587B011
:103E100000AF78600A00BB1C1A8010243B19180000
:103E200006231A00002123F09DFE2E4B1B78002B49
:103E300008D17A683B191000190006231A0023F0F4
:103E400006FF4AE0284B1B88BA1C12889A423BD2D4
:103E5000BB1C1B88254A94466344DB001A7810215A
:103E60007B181A70BB1C1B88204A94466344DB00F5
:103E700001331A787B185A70BB1C1B881B4A944666
:103E80006344DB0002331A787B189A70BB1C1B88D2
:103E9000164A94466344DB0003331A787B18DA70C1
:103EA000BB1C1B88114A94466344DB0004331A7818
:103EB0007B181A71BB1C1B880C4A94466344DB00B8
:103EC00005331A787B185A717A681023FB18100092
:103ED000190006231A0023F0BAFE7868BD4607B021
:103EE00090BDC046D0030020CC03002000DE0002BD
:103EF000B0B586B000AF104B00221A8008217B18A5
:103F00005E225A607B1801229A607B1800221A6098
:103F100017257C193A1D7B181100180003F050FB7F
:103F2000030023707B191B785A425341DBB21800FF
:103F3000BD4606B0B0BDC046CC03002080B584B0FD
:103F400000AF7860074B196D064B7A680A431A6513
:103F5000044B1B6D7A681340FB60FB68C046BD468E
:103F600004B080BD0000404880B586B000AF1D4B56
:103F70001B78002B01D0012330E03B1D18001423D7
:103F80001A00002123F0EEFD0820FFF7D7FF0420E0
:103F9000FFF7D4FF3B1DB02212011A603B1D002227
:103FA0005A603B1D00229A603A1D9023DB051100E8
:103FB000180003F085FB3B1D10221A603B1D0022F8
:103FC0005A603B1D00229A603B1D074A19001000F1
:103FD00003F076FB034B01221A7001231800BD4643
:103FE00006B080BDD103002000001048B0B500AF7E
:103FF00080231A019023DB051100180003F0E8FD6F
:1040000003005BB25B015CB280239A009023DB0566
:104010001100180003F0DCFD03005BB21B015BB272
:1040200023435CB2194B1021180003F0D1FD0300AB
:104030005BB2DB005BB223435CB29023DB0508215B
:10404000180003F0C5FD03005BB29B005BB2234385
:104050005CB29023DB050421180003F0B9FD0300D6
:104060005BB2DB185BB223435CB280235A0090231F
:10407000DB051100180003F0ABFD03005BB2234326
:104080005BB2DBB21800BD46B0BDC04600001048B0
:1040900090B585B000AF0200FB1D1A70194B1B696B
:1040A000002B2BD09023DB050221180003F0ADFC80
:1040B000144B12225A60134B00221A61114A9023AA
:1040C000DB051100180003F0FBFA0121002005F0C8
:1040D000CFFD0121002005F0F9FDFB1D1B78002B11
:1040E0000CD001F061FB0300FB60C046FB68143399
:1040F0001C0001F059FB03009C42F7D8C046BD46A6
:1041000005B090BD782C002090B585B000AF0200BE
:10411000FB1D1A70174B1B69022B26D09023DB0561
:104120000221180003F071FC124B02225A60114B5D
:1041300002221A610F4A9023DB051100180003F0D8
:10414000BFFA002002F0D2FDFB1D1B78002B0CD023
:1041500001F02AFB0300FB60C046FB680C331C0027
:1041600001F022FB03009C42F7D8C046BD4605B0D3
:1041700090BDC046782C002090B585B002AF786025
:10418000244B254A9A5A2349C0235B01CB5A9A42B1
:104190003CD00120FFF77CFF1E4B1F4A9B5A1900A1
:1041A0001C4A0B005B005B189B5CDB1899B2194B37
:1041B000194A9B5A1800174A03005B001B18D318B2
:1041C00001331B781C00134B134A9B5A1A0013002F
:1041D0005B009B180F4A9B18023310480122019282
:1041E00000930123220003F01DFE0A4B0A4A9B5A4A
:1041F000013399B2074B084A9952064B064A9B5A1B
:104200005B055B0D99B2034B034A9952C046BD460C
:1042100003B090BDF004002002180000D403002079
:1042200090B587B002AF78600C243B1905221A7054
:10423000444BC2229B5A1900424A0B005B005B1898
:104240009B00D31801331B781BB21B021AB23D4BE3
:10425000C2215B5A18003B4903005B001B189B00FE
:10426000CB1808331B781BB213401BB29AB23B1910
:104270005A80344BC2229B5A1900324A0B005B0011
:104280005B189B00D31804331A683B1918689047D1
:104290002C4BC2229A5A2B4BC0215B5A9A4203D113
:1042A000284BC42200219954264BC2229B5A013329
:1042B00099B2244BC2229952224BC2229B5A0F22FE
:1042C000134099B21F4BC22299521E4BC0229A5AD8
:1042D0001C4BC2215B5A9A422FD00120FFF7D8FE17
:1042E000184BC0229B5A1900164A0B005B005B1842
:1042F0009B009B5CDB1899B2124BC0229B5A1800A2
:10430000104A03005B001B189B00D31801331B7875
:104310001C000C4BC0229B5A1A0013005B009B1818
:104320009B0008331A00074BD3180748012201925B
:1043300000930123220003F017FEC046BD4605B0DE
:1043400090BDC04628040020D403002080B500AFF3
:10435000094B1B689A69E023DB00134004D0064B2D
:10436000180003F0B9FE03E0034B180003F09AFEB7
:10437000C046BD4680BDC046D403002090B583B082
:1043800000AF3C4B1B78002B01D001236EE001F005
:10439000BFF9394B8222D2051A60374B374A5A602F
:1043A000354B00229A60344B0122DA60324B0022F6
:1043B0001A61314B00225A612F4B00229A612E4B19
:1043C0000022DA612C4B00221A62FC1D2A4B1800D5
:1043D00003F082FC03002370FB1D1B78002B01D02F
:1043E000002343E0FC1D244B0021180005F04CFB8A
:1043F00003002370FB1D1B78002B01D0002335E048
:10440000FC1D1D4B0021180005F08AFB03002370E2
:10441000FB1D1B78002B01D0002327E0184BC42282
:1044200000219954164BC22200219952144BC022EC
:1044300000219952134B144A00219954114B134AED
:10444000002199520F4AC0235B010021D152094B30
:1044500001221A700120FFF71BFE00220221032017
:1044600002F010FF032002F022FF01231800BD46D6
:1044700003B090BDF61C0020D40300205B3D30004B
:1044800028040020F0040020041800000218000096
:10449000B0B586B002AF040008001100FB1D221C5D
:1044A0001A70BB1D021C1A707B1D0A1C1A70734BFC
:1044B0001B78002B01D10123DBE00F23FB18002226
:1044C0001A706F4B1B88002B05D16E4B1B88013374
:1044D0009AB26C4B1A806C4B6C4A9B5A19006A4A10
:1044E000C0235B01D35A0133694A134003D5013B12
:1044F000684A13430133994206D1624B1A88604BD4
:104500001A80022002F0D4FB01F04EF90300BB60D8
:10451000C0465D4B5D4A9B5A19005B4AC0235B0154
:10452000D35A01335A4A134003D5013B594A134326
:104530000133994208D1BB68FA2292009C1801F01D
:1045400033F903009C42E4D84F4B504A9B5A190060
:104550004D4AC0235B01D35A01334D4A134003D562
:10456000013B4C4A13430133994201D1012380E0BE
:10457000494BFA1D12781A70474BBA1D12785A70BF
:10458000454B7A1D12789A703F4B404A9A5A3E49E1
:10459000C0235B01CB5A9A4244D1404B41229B5CE1
:1045A000DBB2202B3ED10120FFF772FD3A4B1B7886
:1045B000DB1899B2384B5B781A000F257C19374805
:1045C00001230193364B0093012303F02BFC0300DE
:1045D00023707B191B78022B48D12B4AC0235B0127
:1045E000D35A1900284A0B005B005B182A49D318DC
:1045F0000322180023F02BFB234AC0235B01D35A6C
:10460000013399B2204AC0235B01D1521E4AC02314
:104610005B01D35A5B055B0D99B21B4AC0235B015A
:10462000D15223E0184AC0235B01D35A1900164A1D
:104630000B005B005B181849D3180322180023F005
:1046400006FB114AC0235B01D35A013399B20E4ACB
:10465000C0235B01D1520C4AC0235B01D35A5B05D6
:104660005B0D99B2084AC0235B01D1520F23FB189E
:104670001B781800BD4604B0B0BDC046F61C002033
:10468000F81C0020FA1C0020F00400200218000092
:10469000FF07008000F8FFFFFC1C0020D40300206F
:1046A000FE1C0020F0B587B002AF3A60FB1D021C73
:1046B0001A70BB1D0A1C1A70544B1B78002B01D1B9
:1046C00001239FE00F23FB1800221A70504BC422D5
:1046D0009B5C002B01D0012394E04E4BFA1D127815
:1046E0001A704C4BBA1D12785A704A4B3A685A608D
:1046F000494B4A4A9A5A4849C0235B01CB5AD31ABC
:104700005A425341DAB20E23FB181A70404BC022B2
:104710009B5A19003E4A0B005B005B189B003D4909
:10472000D3180A0013CA13C3394BC0229B5A013352
:1047300099B2374BC0229952354BC0229B5A0F2257
:10474000134099B2324BC0229952314BC2229A5A2D
:104750002F4BC0215B5A9A4203D12D4BC422012119
:1047600099540E23FB181B78002B48D00120FFF72B
:104770008FFC274BC0229B5A1900254A0B005B0077
:104780005B189B009B5CDB1899B2214BC0229B5AA3
:1047900018001F4A03005B001B189B00D31801334D
:1047A0001B781D001A4BC0229B5A1A0013005B0095
:1047B0009B189B0008331A00154BD3180F26BC1901
:1047C000174801220192009301232A0003F0CCFB39
:1047D00003002370BB191B78002B10D00C4BC02298
:1047E0009B5A013B99B20A4BC0229952084BC022F6
:1047F0009B5A0F22134099B2054BC02299520F23A6
:10480000FB181B781800BD4605B0F0BDF61C002053
:1048100028040020001D0020F004002002180000E1
:10482000D4030020B0B584B000AF0400080011002C
:10483000FB1D221C1A70BB1D021C1A707B1D0A1C5A
:104840001A700F257C197B1D1A78BB1D1978FB1D6A
:104850001B781800FFF71CFE030023707B191B78E0
:10486000002B01D0012300E000231800BD4604B056
:10487000B0BD90B585B000AF78600E243B19002222
:104880001A807E2001F0BCF93B193A191288FF32D8
:104890001A80FF2001F0B4F93B193A191288063248
:1048A0001A80062001F0ACF90023BB6014E0BB685D
:1048B0007A68D3181B7819000E22BB18BA18128810
:1048C0008A181A80BB687A68D3181B78180001F020
:1048D00097F9BB680133BB60BB68032BE7DD0E248F
:1048E0003B193A19128852421A803B191B881B0A3D
:1048F0009BB2DBB2180001F083F93B191B88DBB2D5
:10490000180001F07DF9EF2001F07AF9C046BD46AC
:1049100005B090BD80B584B000AF7860234B7A6855
:104920001A6000F0F5FE224B01221A70FFF70AF917
:10493000030064211800FBF783FC0300DBB21800BE
:10494000FCF720FC021C1B4B1A60FFF7E5F8030084
:1049500064211800FBF774FC0300DBB21800FCF7BD
:1049600011FC021C144B1A6000F01EFF0200134BD6
:104970001A6000F019FF0200114B1A60114B00225F
:104980001A700C217B180C221A607B181800FFF794
:1049900070FF08217B180C4A1A607B181800FFF77B
:1049A00068FF01231800BD4604B080BD0C1D002027
:1049B000101D0020141D0020181D00201C1D0020AB
:1049C000201D0020241D00200800000180B582B0B9
:1049D00000AF3B1D1860054B1A683B1D196810009D
:1049E000FEF743FFC046BD4602B080BD0C1D00204F
:1049F000F0B587B000AF08257B1900221A707B192B
:104A000000225A8000F0D0FE03007B611326BC19FF
:104A100001F0CAF80300237031007B181B78252BA6
:104A20000BD07B1908221A707B181B789AB27B195D
:104A30005A807B191868FFF7C9FF6B4B1B78002B56
:104A400023D06A4B1B687A69D31A1800FCF7EAFB7B
:104A5000041C674B1B686749181CFBF7B5FF031C58
:104A6000191C201CFBF79EFD031E3FD008217B185C
:104A700009221A707B1800225A805C4B7A691A60EE
:104A80007B181868FFF7A2FF30E0594B1B68002124
:104A9000181CFBF763FD031E28D1544B1B687A6971
:104AA000D31A1800FCF7BEFB041C514B1B68191CE1
:104AB000FE208005FCF7E2F8031C4E49181CFBF7AA
:104AC00083FF031C191C201CFBF76CFD031E0DD07B
:104AD00008217B1809221A707B1801225A80434B47
:104AE0007A691A607B181868FFF770FF424B1B68E1
:104AF0007A69D31A414A93420ED9414B1B78002B55
:104B00000AD108217B1801221A707B1800225A80D2
:104B10007B181868FFF75AFFFEF7FEFF03006421B9
:104B20001800FBF78DFB0300DBB21800FCF72AFB33
:104B3000021C344B1B68191C101CFBF70FFD031ED5
:104B400014D0FEF7FFFF030064211800FBF778FB89
:104B50000300DBB21800FCF715FB021C244B1B689A
:104B6000191C101CFBF7FAFC031E25D10823FB18A7
:104B70000A221A70FEF7D0FF030064211800FBF729
:104B80005FFB0300DBB21800FCF7FCFA021C1D4BB4
:104B90001B6801210C1C191C101CFBF7DFFC031EF9
:104BA00001D100231C1CE3B21A0008217B185A8093
:104BB0007B181868FFF70AFF0C217B180822BA1827
:104BC00012681A607A18002311880904090C1B0C5A
:104BD0001B040B43528812041B041B0C13431800C4
:104BE000BD4607B0F0BDC046101D00201C1D0020B2
:104BF000141D0020007C1249201D0020B70B00006E
:104C0000241D0020181D002090B58BB000AF3B1D67
:104C100018603B1D1B785BB2012B0AD124217B1845
:104C2000534A1A607B181800FFF723FE514B0122EC
:104C30001A703B1D1B785BB2092B19D13B1D5B8899
:104C4000DAB24D4B1A704C4B1B78002B08D0202148
:104C50007B180D221A607B181800FFF70AFE07E088
:104C60001C217B180E221A607B181800FFF701FE2A
:104C70003B1D1B785BB20B2B32D13B1D186800F03B
:104C8000F9FB3B1D5B88002B0BD13C4B00221A60CB
:104C900018217B180A221A607B181800FFF7E9FD1B
:104CA0001EE014217B180B221A607B181800FFF7F6
:104CB000E0FD10217B180F221A707B1800225A7019
:104CC0003B1D5B881B0A9BB2DAB27B189A703B1DB6
:104CD0005B88DAB27B18DA707B181800FFF7C9FD21
:104CE0003B1D1B785BB20A2B3DD1FEF72BFF030067
:104CF00064211800FBF7A4FA0300DBB21800FCF7EC
:104D000041FA021C1D4B1A60FEF706FF03006421E6
:104D10001800FBF795FA0300DBB21800FCF732FA33
:104D2000021C174B1A603B1D5B88002B1BD10C2407
:104D30003B1906221A703B1900225A703B190022B7
:104D40009A700F4B1B680F49181CFBF73DFE031CA4
:104D5000181CFBF79DFC0300DAB23B19DA703B1913
:104D60001800FFF786FD01231800BD460BB090BD6B
:104D700008000001241D0020101D0020141D00202B
:104D8000181D00200000F04180B500AF00F06FF961
:104D90000A2002F0A7F900F075F9C82002F0A2F984
:104DA000002000F027F900F05BF9C046BD4680BD49
:104DB00080B592B000AFF860B960FB1D1A70FB6857
:104DC0007A2B00DDC0E0BB68382B00DDBCE0FB1DAA
:104DD0001B78FB63BB68002B00DA0733DB10BB6377
:104DE000BB685C4A134004D5013B0822524213437E
:104DF00001337B63BB680833002B00DA0733DB1019
:104E00003B63FB68FB62FB680633BB62FF227B6B84
:104E10009A4013007B6200237B643AE0FA6A7B6C61
:104E2000D3187B61BB6BDA017B69D3184A4AD35C28
:104E30005BB27A6A52B2D24352B213405AB21320D2
:104E40003B181A704549FA6B13005B009B185B0016
:104E5000CA187B6CD3181B7819007A6A7B6B1A41CD
:104E600013000B401A007B6B9A4013005AB23B1898
:104E70001B785BB213435AB23B181A70BB6BDA0152
:104E80007B69D318344A39180978D1547B6C0133C3
:104E90007B64BA6AFB6AD31A7A6C9A42BEDB3A6BBD
:104EA000BB6B9A4250DD7B6B0822D31AFF221A415A
:104EB00013003B6200233B6440E0FA6A3B6CD3186A
:104EC000FB613B6BDB015A1DFB69D31A224AD35CA1
:104ED0005BB23A6A52B2D24352B213405AB21B206A
:104EE0003B181A701D49FA6B13005B009B185B009E
:104EF000CA183B6CD3181B7819007B6B0822D31A95
:104F00003A6A9A4013000B401A007B6B0821CB1AB7
:104F10001A4113005AB23B181B785BB213435AB2C2
:104F20003B181A703B6BDB015A1DFB69D31A0A4A06
:104F300039180978D1543B6C01333B64BA6AFB6A77
:104F4000D31A3A6C9A42B8DB00231800BD4612B05F
:104F500080BDC04607000080281D00200C8D061073
:104F600080B586B000AF78607B68002B3CD0002312
:104F70007B6100233B610023FB602BE0FB687A68C8
:104F8000D3181B780A2B05D17B6901337B61002381
:104F90003B611CE03B69152B04D17B6901337B61CC
:104FA00000233B617B69082B20D03A6913005B002A
:104FB0009B185B0018007B69D900FB687A68D318DE
:104FC0001B781A00FFF7F4FE3B6901333B61FB6875
:104FD0000133FB60FB687A68D3181B78002B06D07E
:104FE000FB68AA2BCADD02E0C04600E0C046BD4611
:104FF00006B080BD80B584B000AF0200FB1D1A7002
:105000000023FB6011E0FB1D1B78012B05D10C4A2E
:10501000FB68D318FF221A7004E0094AFB68D31812
:1050200000221A70FB680133FB60FA688023DB0002
:105030009A42E8DBC046C046BD4604B080BDC046CB
:10504000281D002080B500AF00F01CF8C046BD460A
:1050500080BD80B500AF00F072F8C046BD4680BD8F
:1050600080B500AF00F076F8C046BD4680BD80B583
:1050700000AFFCF759FA00F04BFBFFF77FF9C04691
:10508000BD4680BD80B500AFAE2280213C20FFF739
:10509000C9FB0A2000F0A0F8A82280213C20FFF7DD
:1050A000C1FB3F2280213C20FFF7BCFBD3228021A3
:1050B0003C20FFF7B7FB082280213C20FFF7B2FB22
:1050C000402280213C20FFF7ADFBA12280213C2023
:1050D000FFF7A8FBC02280213C20FFF7A3FBDA22C8
:1050E00080213C20FFF79EFB122280213C20FFF70D
:1050F00099FBA42280213C20FFF794FBA62280216B
:105100003C20FFF78FFB8D2280213C20FFF78AFB9C
:10511000142280213C20FFF785FBD92280213C20EE
:10512000FFF780FBF12280213C20FFF77BFBAF22C1
:1051300080213C20FFF776FBC046BD4680BD80B590
:1051400000AFAE2280213C20FFF76CFBC046BD467D
:1051500080BD000080B584B000AF1E4BFB60002313
:10516000BB602FE0BB68DBB20822D31ADBB25BB2B4
:105170005022524213435BB2DBB21A0080213C2022
:10518000FFF750FB002280213C20FFF74BFB102251
:1051900080213C20FFF746FB00237B600CE0FB688E
:1051A0001B781A00C0213C20FFF73CFBFB68013B49
:1051B000FB607B6801337B607B687F2BEFDDBB6826
:1051C0000133BB60BB68072BCCDDC046C046BD4683
:1051D00004B080BD2721002080B584B000AF786086
:1051E00000F0E2FA0300FB60C04600F0DDFA0200C6
:1051F000FB68D31A7A689A42F7D8C046C046BD46C3
:1052000004B080BDF0B58DB000AF864B1B78FF2B8E
:1052100000D103E1844B1B78FF2B00D1FEE0834BD0
:105220001B78FF2B00D1F9E0814B1B78FF2B00D1BD
:10523000F4E0804B1800FEF7D7FA7F4B1B78002B69
:1052400067D0784B1A7824257B191A70764B1A7818
:105250007B195A70794B1B78002B1DD0734B1B7830
:105260005BB2DB005CB2724B1B780F211800FAF7BF
:10527000E7FF0300DBB25BB223405BB2DAB27B191B
:105280009A707B190022DA707B1900221A716B4B1D
:105290001A787B195A7129E0FEF7C0FC0300013B24
:1052A0009AB21C26BB1911001800FEF7C9FC242570
:1052B0007B1900229A705D4B1B785BB2DB005CB2FD
:1052C0005B4B1B780F211800FAF7BAFF0300DBB223
:1052D0005BB223405BB2DAB27B19DA70BB191A7980
:1052E0007B191A71BB195A797B195A712423FB183F
:1052F00018685968FEF73CFC4A4BFF221A704A4B6B
:10530000FF221A70494BFF221A70494BFF221A7074
:1053100085E00023FB6278E0FB6A9AB214243B1913
:1053200011001800FEF772FD21007B181A783D4B22
:105330001B789A4266D17B185A783B4B1B789A426D
:1053400060D17B189B78DB08DAB2384B1B789A4225
:1053500029D17B189B781A0003231A4013001B01E4
:105360009B1A334A127893421DD110203B180B220E
:105370001A707B181B791B029BB27A1852799B1802
:105380009AB23B185A803B181868FFF71FFB254B51
:10539000FF221A70244BFF221A70244BFF221A702E
:1053A000234BFF221A7014217B18DB78DB08DAB25A
:1053B0001E4B1B789A4225D17B18DB781A000323F9
:1053C0001A4013001B019B1A194A1278934219D1F3
:1053D00008203B180B221A703B1800225A807B18B9
:1053E00000229A703B181868FFF7F0FA0D4BFF2265
:1053F0001A700D4BFF221A700C4BFF221A700C4BC7
:10540000FF221A70FB6A0133FB62FEF7EDFC03001A
:105410001A00FB6A934200DA7EE700E0C046BD4610
:105420000DB0F0BD302100203121002032210020BC
:1054300033210020A48C06103421002035210020C7
:1054400080B582B000AF7860084B7A681A60FEF7CA
:1054500095FF00F05DF900F0A7F90200044B1A6017
:1054600001231800BD4602B080BDC046282100209F
:105470002C21002080B582B000AF3B1D1860054B89
:105480001A683B1D19681000FEF7EFF9C046BD46CB
:1054900002B080BD2821002080B584B000AF3B1D44
:1054A00000221A703B1D00225A8000F07DF9030093
:1054B000FB60154B1B68FA68D31A144A93420CD947
:1054C0003B1D09221A703B1D00225A800E4BFA68C0
:1054D0001A603B1D1868FFF7CDFF08217B183A1DA5
:1054E00012681A607A18002311880904090C1B0C31
:1054F0001B040B43528812041B041B0C134318009B
:10550000BD4604B080BDC0462C2100205FEA0000EB
:1055100080B582B000AF3B1D18603B1D1B785BB2AD
:105520000B2B1FD1734B1A0004216F20FFF7BAF821
:10553000704B1A0003216F20FFF7B4F86D4B1A006F
:1055400002216F20FFF7AEF86A4B1A0001216F208D
:10555000FFF7A8F8684B01221A703B1D5B88DAB28E
:10556000664B1A703B1D1B785BB2092B17D1614B40
:105570001A0004216F20FFF795F85E4B1A000321F3
:105580006F20FFF78FF85B4B1A0002216F20FFF7A7
:1055900089F8584B1A0001216F20FFF783F83B1D53
:1055A0001B785BB2052B00D09EE03B1D5B881B0A7D
:1055B0009BB2042B0BD000DD96E0032B20D000DD46
:1055C00092E0012B00D176E0022B32D08CE03B1D23
:1055D0005B881B11DBB201221340DBB21A1C920064
:1055E000D318DB18DAB23B1D5B88DBB20F210B400E
:1055F000DBB2D318DAB2424B1A70FFF703FE73E046
:105600003B1D5B881B11DBB203221340DBB21A1C6B
:105610009200D318DB18DAB23B1D5B88DBB20F2196
:105620000B40DBB2D318DAB2364B1A70FFF7EAFD43
:105630005AE03B1D5B881A004023134022D03B1DDB
:105640005B885B11DBB201221340DBB20C225343B7
:10565000DAB23B1D5B881B11DBB201210B40DBB2D0
:10566000191C8900CB18DB18DBB2D318DAB23B1D4A
:105670005B88DBB20F210B40DBB2D318DAB2224BCE
:105680001A7015E03B1D5B881B11DBB2032213402F
:10569000DBB21A1C9200D318DB18DAB23B1D5B8810
:1056A000DBB20F210B40DBB2D318DAB2164B1A7003
:1056B000FFF7A8FD18E03B1D5B881B11DBB203223E
:1056C0001340DBB21A1C9200D318DB18DAB23B1D70
:1056D0005B88DBB20F210B40DBB2D318DAB20B4B85
:1056E0001A70FFF78FFDC04601231800BD4602B0B7
:1056F00080BDC0467554041034210020352100209F
:1057000030210020312100203221002033210020CF
:1057100080B584B000AF204B1B78002B01D0012353
:1057200036E03B00180010231A00002122F01AFA7C
:105730001A4B1B4A1A60194B20225A60174B002241
:105740009A60164B174ADA60144B00221A61134B09
:1057500000229A61114B180007F00DFA031E01D0C8
:10576000FBF70CFF3B00802252011A603A000B4B02
:105770001100180007F078FB031E01D0FBF7FEFEB6
:10578000064B180007F03CFA034B01221A70012364
:105790001800BD4604B080BD7821002038210020CB
:1057A00000200040E703000080B500AF054B1B78E8
:1057B000002B01D1002301E0034B1B681800BD46FC
:1057C00080BDC046782100207421002080B500AF44
:1057D000054B1B685A1C044B1A60044B180007F059
:1057E00055FAC046BD4680BD7421002038210020F6
:1057F00080B582B000AF3A4B1B68DB6920221340B2
:1058000032D0384B24229B5C01225340DBB2002B68
:1058100020D0334B1B68596A324B1B8C1A00C9B21B
:10582000304B99542F4B1B8C01339AB22D4B1A8459
:105830002C4B1B8C1F2213409AB22A4B1A84294BE3
:105840005A8C284B1B8C9A420ED1264B24220121C4
:10585000995409E0224B1B685A6AFB1D1A70FB1D04
:105860001A78FB1D01321A701D4B1B68DB69402240
:1058700013402DD01C4B1A8C1B4B5B8C9A4204D1CD
:10588000194B24229B5C002B1ED0174B5B8C1A00FB
:10589000154B9A5C124B1B689A62134B5B8C01335D
:1058A0009AB2114B5A84104B5B8C1F2213409AB250
:1058B0000D4B5A840C4B24229B5C002B08D00A4BC6
:1058C00024220021995403E0054B1B6840221A62F0
:1058D000034B180007F0CAFDC046BD4602B080BDAC
:1058E0007C210020F0260020C826002080B582B050
:1058F00000AF4B4B1B68DB69202213403DD0494B66
:10590000494A9B5C01225340DBB2002B2BD0444B15
:105910001B68596A434B454A9B5A1A00C9B2414B0E
:105920009954404B414A9B5A013399B23D4B3F4AEF
:1059300099523C4B3D4A9B5A3D491800FAF706FDE7
:105940000B0099B2374B394A9952364A81239B0052
:10595000D25A344B35495B5A9A420ED1314B324AB6
:105960000121995409E02E4B1B685A6AFB1D1A70DD
:10597000FB1D1A78FB1D01321A70294B1B68DB696D
:105980004022134043D02B4B284A9A5A294981235D
:105990009B00CB5A9A4204D1264B234A9B5C002B96
:1059A0002ED00120FEF7B0FB224A81239B00D35A60
:1059B0001A00204B9A5C1A4B1B689A621D4A81237D
:1059C0009B00D35A013399B21A4A81239B00D152CA
:1059D000184A81239B00D35A15491800FAF7B6FCE0
:1059E0000B0099B2134A81239B00D152114B0E4AEE
:1059F0009B5C002B0BD00F4B0B4A0021995406E007
:105A00000120FEF745FB064B1B6840221A62044B3F
:105A1000180008F02FFEC046BD4602B080BDC0464B
:105A200048220020C02400200602000002020000DC
:105A300001020000B822002080B500AF504B1B7857
:105A4000012B01D1002397E0FFF762FE4C4B0122AE
:105A50001A704C4B4C4A1A604A4B962292015A607B
:105A6000484B00229A60474B0022DA60454B0022E7
:105A70001A61444B0C225A61424B00229A61414BFD
:105A800000221A623F4B00225A623E4B00229A6269
:105A90003C4B00225A663B4B180007F0CFFB031E1D
:105AA00001D0FBF76BFD374B0021180008F002FD19
:105AB000031E01D0FBF762FD324B0021180008F0F5
:105AC00039FD031E01D0FBF759FD012203210920F6
:105AD00001F0D8FB092001F0EAFB2A4B1B681A6889
