:020000041004E6
:1000000000600020290B0410D5070410DD07041040
:1000100000000000000000000000000000000000E0
:10002000000000000000000000000000E5070410D0
:100030000000000000000000EF070410F9070410A2
:100040008D0B04108D0B04108D0B04108D0B041000
:100050000000000000000000000000008D0B0410F4
:100060008D0B04108D0B04108D0B04108D0B0410E0
:100070008D0B04108D0B0410000000008D0B04107C
:100080008D0B04108D0B04108D0B0410000000006C
:100090008D0B041000000000000000008D0B041008
:1000A0008D0B04108D0B04108D0B04108D0B0410A0
:1000B0000000000000000000000000000000000040
:1000C000002243088B4274D303098B425FD3030A97
:1000D0008B4244D3030B8B4228D3030C8B420DD3AA
:1000E000FF22090212BA030C8B4202D31212090238
:1000F00065D0030B8B4219D300E0090AC30B8B4276
:1001000001D3CB03C01A5241830B8B4201D38B0323
:10011000C01A5241430B8B4201D34B03C01A5241C8
:10012000030B8B4201D30B03C01A5241C30A8B420B
:1001300001D3CB02C01A5241830A8B4201D38B02F6
:10014000C01A5241430A8B4201D34B02C01A52419A
:10015000030A8B4201D30B02C01A5241CDD2C3090C
:100160008B4201D3CB01C01A524183098B4201D388
:100170008B01C01A524143098B4201D34B01C01A73
:10018000524103098B4201D30B01C01A5241C308EB
:100190008B4201D3CB00C01A524183088B4201D35A
:1001A0008B00C01A524143088B4201D34B00C01A46
:1001B0005241411A00D20146524110467047FFE7B2
:1001C00001B5002000F0F0F802BDC0460029F7D0CC
:1001D00076E7704703460B437FD4002243088B42E7
:1001E00074D303098B425FD3030A8B4244D3030BBE
:1001F0008B4228D3030C8B420DD3FF22090212BA83
:10020000030C8B4202D31212090265D0030B8B42FE
:1002100019D300E0090AC30B8B4201D3CB03C01AE8
:100220005241830B8B4201D38B03C01A5241430BC3
:100230008B4201D34B03C01A5241030B8B4201D3B3
:100240000B03C01A5241C30A8B4201D3CB02C01A1E
:100250005241830A8B4201D38B02C01A5241430A96
:100260008B4201D34B02C01A5241030A8B4201D385
:100270000B02C01A5241CDD2C3098B4201D3CB012C
:10028000C01A524183098B4201D38B01C01A5241DB
:1002900043098B4201D34B01C01A524103098B42DF
:1002A00001D30B01C01A5241C3088B4201D3CB00CA
:1002B000C01A524183088B4201D38B00C01A5241AD
:1002C00043088B4201D34B00C01A5241411A00D25D
:1002D00001465241104670475DE0CA0F00D04942C6
:1002E000031000D34042534000229C4603098B4236
:1002F0002DD3030A8B4212D3FC22890112BA030ABE
:100300008B420CD3890192118B4208D3890192113F
:100310008B4204D389013AD0921100E08909C309C4
:100320008B4201D3CB01C01A524183098B4201D3C6
:100330008B01C01A524143098B4201D34B01C01AB1
:10034000524103098B4201D30B01C01A5241C30829
:100350008B4201D3CB00C01A524183088B4201D398
:100360008B00C01A5241D9D243088B4201D34B00B3
:10037000C01A5241411A00D20146634652415B10F5
:10038000104601D34042002B00D5494270476346D6
:100390005B1000D3404201B5002000F005F802BD1B
:1003A0000029F8D016E770477047C046002B11D1DE
:1003B000002A0FD1002900D1002802D00021C94312
:1003C000080007B4024802A14018029003BDC046CD
:1003D000D9FFFFFF03B4684601B5029800F006F8A4
:1003E000019B9E4602B00CBC7047C046F0B5574614
:1003F0004E464546DE46E0B504000D00924699465D
:1004000083B08B4230D82DD04946504600F0BAF820
:1004100029000600200000F0B5F8331A9846203B6A
:1004200034D49B4653465A46934042461F00534697
:1004300093401E00AF423BD8AF4200D179E05B460B
:10044000A41BBD41002B00DA76E0002200230092BD
:10045000019301235A46934001930123424693405E
:10046000009329E08242CFD9002200230092019319
:100470000C9B002B01D01C605D600098019903B0BB
:10048000F0BCBB46B246A946A046F0BD42469B46DC
:1004900020239B1A5246DA40414613004A468A40BE
:1004A000170042461F43534693401E00AF42C3D934
:1004B00000220023009201934346002BD8D0FB0773
:1004C00072081A4346467B080EE0AB4201D1A242B5
:1004D0000CD8A41A9D41012024196D410021013E30
:1004E00024184D41002E06D0AB42EED9013E24190E
:1004F0006D41002EF8D1009801995B4600196941C1
:10050000002B24DB2B005A464446D3402A00E2400D
:100510001C005B461500002B2ADB26009E403300A2
:1005200026004746BE403200801A99410090019152
:100530009EE7A342BCD882E74246202300219B1AB3
:100540000022009101920122DA40019285E74246A1
:1005500020239B1A2A0046469A402300F340444633
:1005600013432A00E2401C005B461500002BD4DA3E
:1005700042462F002023260097409B1ADE403B0076
:100580003343CDE710B5002903D100F007F8203040
:1005900002E0080000F002F810BDC0461C21012353
:1005A0001B04984201D3000C10391B0A984201D356
:1005B000000A08391B09984201D30009043902A234
:1005C000105C40187047C04604030202010101019B
:1005D000000000000000000080B582B000AF3B00CA
:1005E000180008231A00002101F0E4FB3B0002225E
:1005F0001A603B0000225A603B001021180000F0F6
:1006000091FC031E01D0002300E001231800BD4629
:1006100002B080BD80B586B000AF3B001800182343
:100620001A00002101F0C6FB3B0002221A603B00C9
:10063000802252015A613B00180000F009FE031E9F
:1006400001D0002300E001231800BD4606B080BDA4
:1006500080B582B000AF01237B60FFF7DBFF031E94
:1006600001D100237B60FFF7B7FF031E01D10023F8
:100670007B607B681800BD4602B080BD80B582B04B
:1006800000AF78607B68DB6920221340202B01D10A
:10069000012300E000231800BD4602B080BD80B5F4
:1006A00082B000AF78607B68DB6980221340802BCA
:1006B00001D1012300E000231800BD4602B080BD37
:1006C00080B500AF1E4B1F4A1A601D4B9622920147
:1006D0005A601B4B00229A60194B0022DA60184BBB
:1006E00000221A61164B0C225A61154B00229A61A6
:1006F000134B00221A62124B00225A62104B002246
:100700009A620F4B180000F07BFE031E01D00023FD
:1007100012E00B4B0021180001F06CFA031E01D00F
:10072000002309E0064B0021180001F0A3FA031E84
:1007300001D0002300E001231800BD4680BDC04663
:10074000C00000200050004180B500AFFFF7B8FFA7
:1007500003001800BD4680BD80B500AF064B1800F1
:10076000FFF78CFF031E03D0034B5B6ADBB200E094
:1007700000231800BD4680BD0050004180B582B006
:1007800000AF0200FB1D1A70064B1800FFF787FF31
:10079000031E03D0034BFA1D12785A62C046BD46B1
:1007A00002B080BD0050004190B583B000AFFFF7AC
:1007B0004FFFFFF7C9FFFC1DFFF7CEFF03002370BB
:1007C000FB1D1B78002BF6D0FB1D1B781800FFF7D4
:1007D000D5FFF0E780B500AFC046FDE780B500AFBC
:1007E000C046FDE780B500AFC046BD4680BD80B5C0
:1007F00000AFC046BD4680BD80B500AF00F010FA26
:10080000C046BD4680BD000090B583B000AF020079
:100810003960FB1D1A70FB1D1B787F2B28D82F4ACF
:10082000FB1D1B785BB29B08C0339B009B58FA1DD5
:100830001278110003220A40D200FF2191400A00E1
:10084000D2431A4011003B689B01FF221A40FB1D56
:100850001B78180003230340DB009A401F48FB1D50
:100860001B785BB29B080A43C0339B001A5031E0EF
:100870001B4AFB1D1B7819000F230B40083B9B08EC
:1008800006339B00D31804331B68FA1D127811003D
:1008900003220A40D200FF2191400A00D2431A40AD
:1008A00011003B689B01FF221A40FB1D1B781800BA
:1008B00003230340DB009A400948FB1D1B781C0002
:1008C0000F232340083B9B080A4306339B00C318B1
:1008D00004331A60C046BD4603B090BD00E100E09D
:1008E00000ED00E080B500AFBFF34F8FC046044B72
:1008F000044ADA60BFF34F8FC046C046FDE7C046EA
:1009000000ED00E00400FA0590B587B000AF5E4A44
:100910009423D358002B0ED15C4B1B69002B03D1C1
:100920005A4B9B6B002B06D0594B01229A6000F06A
:10093000F5F8FFF7D7FF574B574A9A60554B9A681F
:10094000534B1A61514B5A68504B20210A435A604D
:100950004E4B5A684D4B51490A405A60C0464B4B6A
:100960005B6904221340042BF9D1484BDB69302228
:1009700093431A00454B20210A43DA61434BDA695D
:10098000424B47490A40DA61404BDA693F4B8021CC
:1009900049000A43DA61434B1B68434A934255D0EE
:1009A0001F233B610823FB600A23BB6003237B609A
:1009B000354BDB681E2293431900FB685A00324B0B
:1009C0000A43DA60304BDA682F4B01210A43DA60C0
:1009D0002D4BDB68354A134019003B691A062A4B38
:1009E0000A43DA60284BDA68274B802109040A435E
:1009F000DA60264A9423D3582D4A1A40BB689901DD
:100A0000F0239B000B402149134394228B501F4A33
:100A10009423D3581D492022134394228B501B4A00
:100A20009423D358234A1A407B68D902E0239B01C0
:100A30000B401649134394228B50144A9423D358E5
:100A400012498022D200134394228B501723FB18A3
:100A500000221A700DE017243B191B785BB20321AA
:100A60001800FFF7D1FE21007B181A787B1801329D
:100A70001A701723FB181B781F2BECD962B6C046DF
:100A8000C046BD4607B090BD000040480000504839
:100A90000400002000ED00E000000410FFFEFFFF56
:100AA000FFFBFFFFF81E0010CCECBCFCFFFFFFC0FB
:100AB0003FFCFFFFFFC7FFFF80B582B000AF134BC5
:100AC0009B685B08DAB2FB1D01210A401A700F4BCC
:100AD0009B681B0ADAB2BB1D07210A401A70FB1D76
:100AE0001B78002B07D0BB1D1B78013B084ADA405E
:100AF000084B1A6005E0BB1D1B78074ADA40054B1E
:100B00001A60C046BD4602B080BDC04600004048E5
:100B10000048E801580100200090D00380B500AFE4
:100B2000C046BD4680BD000010488546FFF7ECFE7C
:100B3000002103E00E4B5B58435004310D480E4B2F
:100B400042189A42F6D30D4A02E0002313600432A1
:100B50000B4B9A42F9D30B4A02E000231360043294
:100B6000094B9A42F9D3FFF71FFEFEE70060002011
:100B7000801E04105801002064010020C0000020E5
:100B800058010020C0000020C0000020FEE7000047
:100B900090B585B000AF78600F23FB1800221A7063
:100BA0001D4B1B78002B2CD000F068FA04001A4B68
:100BB0001B781900FA239800FFF782FA0300190046
:100BC0002000FFF77DFA0300180000F0F6F8031E7E
:100BD00012D17B68032B0AD8796801235B4200227B
:100BE000180000F0D5F80D4B7A681A600DE00F235D
:100BF000FB1801221A7008E00F23FB1801221A705B
:100C000003E00F23FB1801221A700F23FB181B7837
:100C10001800BD4605B090BD600100205C010020B9
:100C200080B500AF054B1B781A00054B1B68D21826
:100C3000034B1A60C046BD4680BDC046600100201F
:100C40005401002080B500AF024B1B681800BD4660
:100C500080BDC0465401002080B500AF024B1B6828
:100C60001800BD4680BDC0465C01002090B583B031
:100C700000AF02003960FB1D1A70FB1D1B787F2B33
:100C800028D82F4AFB1D1B785BB29B08C0339B0002
:100C90009B58FA1D1278110003220A40D200FF214E
:100CA00091400A00D2431A4011003B689B01FF2289
:100CB0001A40FB1D1B78180003230340DB009A40F9
:100CC0001F48FB1D1B785BB29B080A43C0339B0087
:100CD0001A5031E01B4AFB1D1B7819000F230B40F3
:100CE000083B9B0806339B00D31804331B68FA1D8E
:100CF0001278110003220A40D200FF2191400A001D
:100D0000D2431A4011003B689B01FF221A40FB1D91
:100D10001B78180003230340DB009A400948FB1DA1
:100D20001B781C000F232340083B9B080A43063313
:100D30009B00C31804331A60C046BD4603B090BD83
:100D400000E100E000ED00E080B582B000AF786027
:100D50007B685A1E80235B049A4201D3012310E072
:100D60000A4B7A68013A5A6001235B42032118005A
:100D7000FFF77CFF054B00229A60044B07221A60A4
:100D800000231800BD4602B080BDC04610E000E060
:100D900080B584B000AFB9607A600F217B18021C67
:100DA0001A70BA687B181B785BB211001800FFF745
:100DB0005DFFC046BD4604B080BD80B582B000AFC7
:100DC00078607B681800FFF7BFFF03001800BD467E
:100DD00002B080BD80B500AF074B1A6880239B022C
:100DE0001A4080239B029A4201D1012300E0002394
:100DF0001800BD4680BDC0460000404880B500AF29
:100E0000074B9A68064B04218A439A60044B9A6800
:100E1000034B02218A439A60C046BD4680BDC0464E
:100E20000000404880B500AF074B1A688023DB0004
:100E30001A408023DB009A4201D1012300E0002305
:100E40001800BD4680BDC0460000404880B582B055
:100E500000AFC0460F4B1A6880239B021340F9D0A5
:100E60000C4B9A680B4B02210A439A6000237B606B
:100E700003E0C0467B6801337B607B68052BF8DDAF
:100E8000044B9A68034B04210A439A60C046BD464E
:100E900002B080BD0000404880B500AF044B1A6826
:100EA000034B802189010A431A60C046BD4680BDBC
:100EB0000000404880B500AF044B1A68034B04495A
:100EC0000A401A60C046BD4680BDC046000040488A
:100ED000FFDFFFFF80B500AF074B1A688023DB01FF
:100EE0001A408023DB019A4201D1012300E0002354
:100EF0001800BD4680BDC0460000404880B582B0A5
:100F000000AF7860064B9B68E02293431900044BC6
:100F10007A680A439A60C046BD4602B080BDC046AA
:100F20000000404880B584B000AF786039607B68CD
:100F3000002B01D1012398E04E4B5B683022934394
:100F400019004C4B3A680A435A607B681B68022BB5
:100F50000ED1FFF753FFFFF765FF031E01D10123F9
:100F600083E0FFF7A7FF7B685B681800FFF7C6FF09
:100F70007B681B68002B24D1FFF754FF031E01D1AF
:100F8000012372E0FFF726FF031E01D101236CE06D
:100F9000FFF782FFFFF756FE0300FB6008E0FFF754
:100FA00051FE0200FB68D31A022B01D903235CE037
:100FB000FFF790FF031EF2D07B685B681800FFF715
:100FC0009DFF7B681B68012B17D1FFF73FFFFFF7E1
:100FD00029FF031E01D0012347E0FFF7FBFE031E9C
:100FE00001D1012341E0244B9B68E0229343190087
:100FF0007B685A68204B0A439A601E4B5B6830221C
:1010000013403A689A421DD01A4B5B6830229343D2
:101010001900184B3A680A435A60FFF713FE0300A1
:10102000FB6008E0FFF70EFE0200FB68D31A022BFC
:1010300001D9032319E00F4B5B68302213403A6853
:101040009A42EFD10023BB6003E0C046BB68013386
:10105000BB60BB68052BF8DDFFF72EFDFFF7FCFD3D
:1010600003001800FFF794FD03001800BD4604B00C
:1010700080BDC046001000400000404880B500AF71
:10108000024B1B681800BD4680BDC04658010020B9
:1010900080B500AF074B1A6880239B021A4080235B
:1010A0009B029A4201D1012300E000231800BD46B3
:1010B00080BDC0460000404880B500AF054B9B682E
:1010C00008221340082B01D1012300E0002318005F
:1010D000BD4680BD0000404880B582B000AF78605A
:1010E000064B9B68064A13401900044B7A680A4372
:1010F0009A60C046BD4602B080BDC0460000404870
:10110000FF7FFEFF80B500AF034B9A68C0235B02F0
:1011100013401800BD4680BD0000404880B582B035
:1011200000AF7860064B1B6E042293431900044BFA
:101130007A680A431A66C046BD4602B080BDC04602
:101140000000404880B500AF034B1B6E04221340E3
:101150001800BD4680BDC0460000404880B582B042
:1011600000AF7860064B9B68064A13401900044B99
:101170007A680A439A60C046BD4602B080BDC04648
:1011800000004048FFEFFFFF80B500AF034B9A68B7
:1011900080235B0113401800BD4680BD000040481D
:1011A00080B582B000AF7860064B9B68064A13405A
:1011B0001900044B7A680A439A60C046BD4602B0E3
:1011C00080BDC04600004048FFDFFFFF80B500AF94
:1011D000034B9A6880239B0113401800BD4680BDD5
:1011E0000000404880B582B000AF7860064B9B6835
:1011F000064A13401900044B7A680A439A60C046B5
:10120000BD4602B080BDC04600004048FFFF3FFF22
:1012100080B500AF034B9A68C0231B04134018002D
:10122000BD4680BD0000404880B500AF074B1A683E
:101230008023DB011A408023DB019A4201D1012384
:1012400000E000231800BD4680BDC04600004048B5
:1012500080B582B000AF78607B681B6801221340C4
:1012600004D07B681B691800FFF758FF7B681B6878
:101270000222134004D07B685B691800FFF76EFF01
:101280007B681B680822134004D07B685B681800E9
:10129000FFF7A8FF7B681B681022134004D07B680F
:1012A000DB681800FFF77CFF7B689B6820221340F7
:1012B00004D07B689B681800FFF70EFF002318001E
:1012C000BD4602B080BD000080B584B000AF78603C
:1012D0000023FB607B68202B00D97BE07B689A00B1
:1012E000404BD3181B689F46FFF72CFF031E02D00C
:1012F000042B03D071E03C4BFB6002E03B4BFB60F6
:10130000C0466AE0FFF740FF031E04D0802252016E
:10131000934203D061E0364BFB6002E0354BFB604B
:10132000C0465AE0FFF7C8FE031E05D0FFF7B0FE27
:10133000031E07D1002351E0FFF776FF031E01D102
:1013400000234BE0FFF764FF0300BB60BB68002B8A
:1013500001D1264BFB60BA688023DB039A4201D19E
:10136000214BFB60BA6880231B049A4234D1224B84
:10137000FB6031E0FFF72AFF020080239B019A42C5
:1013800003D180231B02FB6002E0184BFB60C046C8
:1013900023E0FFF7B7FE0300C0225202934214D0AD
:1013A000C0225202934213D880221202934204D0E8
:1013B00080225202934204D00AE080231B02FB6089
:1013C00007E0FA23DB01FB6003E00C4BFB6000E06D
:1013D000C04602E0C04600E0C046FB681800BD46BB
:1013E00004B080BDCC1D04100048E8010024F400C6
:1013F00000127A0000093D000090D003127A00002C
:1014000080B582B000AF78607B68002B01D10123EA
:1014100046E07B6888229B58002B07D17B6884229A
:10142000002199547B68180000F040F87B688822FE
:10143000242199507B681B681A687B681B6801210E
:101440008A431A607B689B6A002B03D07B68180074
:1014500000F09CF97B68180000F030F80300012BC5
:1014600001D101231CE07B681B685A687B681B68FC
:101470000D490A405A607B681B689A687B681B6844
:101480002A218A439A607B681B681A687B681B68FC
:1014900001210A431A607B68180000F02BFA030050
:1014A0001800BD4602B080BDFFB7FFFF80B582B017
:1014B00000AF7860C046BD4602B080BDB0B590B008
:1014C00000AF78621B2320229B18DB1900221A70C0
:1014D0007B6A9A687B6A1B691A437B6A5B691A4359
:1014E0007B6ADB691343FB637B6A1B681B68A14A49
:1014F000134019007B6A1A68FB6B0B4313607B6A0D
:101500001B685B689C4A134018007B6AD9687B6A39
:101510001A6803000B4353607B6A9B69FB637B6A19
:101520001B68964A934204D07B6A1B6AFA6B13438A
:10153000FB637B6A1B689B68914A134019007B6AB6
:101540001A68FB6B0B4393607B6A1B68DB6A0F2294
:10155000934318007B6A596A7B6A1A6803000B433D
:10156000D3627B6A1B68854A93426DD11020FFF7D6
:10157000ABFE03007B637B6B002B00D1E3E07B6A57
:101580005A6A804B5200D35A1900786BFEF798FDC7
:101590000300BB627B6A5A6813005B009B18BA6A3F
:1015A0009A4205D37B6A5B681B03BA6A9A4206D9E2
:1015B0001B2320229B18DB1901221A70C3E07B6BCE
:1015C000BB610023FB617B6A5A6A6E4B5200D35A9F
:1015D0003B6100237B613A697B69B869F969FEF771
:1015E000E5FE02000B00110E1D020D4314027B6A82
:1015F0005B685B08BB600023FB60B868F968001992
:1016000069417B6A5B683B6000237B603A687B686A
:10161000FEF7CCFE02000B0013003B633A6BC023C5
:101620009B009A4209D33A6B80235B039A4204D20F
:101630007B6A1B683A6BDA6085E01B2320229B18CB
:10164000DB1901221A707EE07B6ADA6980231B02B3
:101650009A4248D14C4B7B637B6B002B00D172E0EC
:101660007B6A5A6A474B5200D35A1900786BFEF7CF
:1016700027FD03005A007B6A5B685B08D2187B6A0F
:101680005B6819001000FEF71BFD03003B633B6B1A
:101690000F2B21D93A6B80235B029A421CD23B6B01
:1016A0009AB20E2020240319DB190F218A431A80D5
:1016B0003B6B5B089BB20722134099B20319DB19FD
:1016C0000219D21912880A431A807B6A1B68021910
:1016D000D2191288DA6036E01B2320229B18DB190E
:1016E00001221A702FE0284B7B637B6B002B2AD0E2
:1016F0007B6A5A6A234B5200D35A1900786BFEF763
:10170000DFFC03001A007B6A5B685B08D2187B6A07
:101710005B6819001000FEF7D3FC03003B633B6BD2
:101720000F2B0AD93A6B80235B029A4205D23B6B9E
:101730009AB27B6A1B68DA6005E01B2320229B18A3
:10174000DB1901221A707B6A6A22012199527B6A95
:101750006822012199527B6A00225A677B6A002223
:101760009A671B2320229B18DB191B781800BD46A3
:1017700010B0B0BDF369FFCFFFCFFFFF00500041B5
:10178000FFF4FF11501E04100024F40080B582B055
:1017900000AF78607B689B6A082213400BD07B689F
:1017A0001B685B684A4A134019007B689A6B7B6828
:1017B0001B680A435A607B689B6A012213400BD066
:1017C0007B681B685B68434A134019007B68DA6AD0
:1017D0007B681B680A435A607B689B6A022213403D
:1017E0000BD07B681B685B683B4A134019007B6821
:1017F0001A6B7B681B680A435A607B689B6A0422E9
:1018000013400BD07B681B685B68344A1340190097
:101810007B685A6B7B681B680A435A607B689B6ACB
:10182000102213400BD07B681B689B682C4A134026
:1018300019007B68DA6B7B681B680A439A607B68D7
:101840009B6A202213400BD07B681B689B68254A4B
:10185000134019007B681A6C7B681B680A439A6006
:101860007B689B6A402213401DD07B681B685B68C5
:101870001D4A134019007B685A6C7B681B680A4339
:101880005A607B685A6C80235B039A420BD17B6859
:101890001B685B68154A134019007B689A6C7B686B
:1018A0001B680A435A607B689B6A802213400BD0F6
:1018B0007B681B685B680E4A134019007B68DA6C12
:1018C0007B681B680A435A60C046BD4602B080BDB3
:1018D000FF7FFFFFFFFFFDFFFFFFFEFFFFFFFBFF9F
:1018E000FFEFFFFFFFDFFFFFFFFFEFFFFFFF9FFFA8
:1018F000FFFFF7FF80B592B002AF78607B6890225F
:1019000000219950FFF79EF90300FB637B681B6879
:101910001B6808221340082B2DD1FB6B80229103FA
:101920007868474A0092002200F08EF8031E22D009
:10193000EFF310837B627B6ABB630123BB62BB6AEC
:1019400083F31088C0467B681B681A687B681B6835
:1019500080218A431A60BB6BFB62FB6A83F31088A9
:10196000C0467B688822202199507B688422002110
:101970009954032360E07B681B681B6804221340B2
:10198000042B46D1FB6B8022D10378682C4A00924D
:10199000002200F059F8031E3BD0EFF31083FB60E8
:1019A000FB687B6301233B613B6983F31088C0467E
:1019B0007B681B681A687B681B6822490A401A60AA
:1019C0007B6B7B617B6983F31088C046EFF31083E8
:1019D000BB61BB693B630123FB61FB6983F3108837
:1019E000C0467B681B689A687B681B6801218A4334
:1019F0009A603B6B3B623B6A83F31088C0467B680E
:101A00008C22202199507B68842200219954032341
:101A100012E07B688822202199507B688C2220214B
:101A200099507B680022DA667B6800221A677B681F
:101A300084220021995400231800BD4610B080BDB7
:101A4000FFFFFF01DFFEFFFF80B584B000AFF8604D
:101A5000B9603B60FB1D1A7051E0BB6901334ED089
:101A6000FFF7F0F802003B68D31ABA699A4202D332
:101A7000BB69002B01D1032351E0FB681B681B6885
:101A8000042213403BD0BB68802B38D0BB68402B6E
:101A900035D0FB681B68DB6908221340082B11D185
:101AA000FB681B6808221A62FB68180000F03CF80B
:101AB000FB68902208219950FB68842200219954E8
:101AC00001232CE0FB681B68DA6980231B011A40A4
:101AD00080231B019A4212D1FB681B6880221201ED
:101AE0001A62FB68180000F01FF8FB6890222021A2
:101AF0009950FB6884220021995403230FE0FB686E
:101B00001B68DB69BA681340BA68D31A5A4253415A
:101B1000DBB21A00FB1D1B789A429ED000231800EE
:101B2000BD4604B080BD000080B58EB000AF7860C7
:101B3000EFF310837B617B697B630123BB61BB692E
:101B400083F31088C0467B681B681A687B681B6833
:101B500026490A401A607B6BFB61FB6983F310889E
:101B6000C046EFF310833B623B6A3B6301237B6219
:101B70007B6A83F31088C0467B681B689A687B6821
:101B80001B681B490A409A603B6BBB62BB6A83F3CC
:101B90001088C0467B68DB6E012B18D1EFF31083F1
:101BA000BB60BB68FB620123FB60FB6883F31088AA
:101BB000C0467B681B681A687B681B6810218A43D3
:101BC0001A60FB6A3B613B6983F31088C0467B68FF
:101BD0008C22202199507B680022DA667B680022E3
:101BE0005A67C046BD460EB080BDC046DFFEFFFF4F
:101BF000FEFFFFEF80B584B000AF786039607B688E
:101C000084229B5C012B01D102232EE07B6884227D
:101C1000012199547B688822242199507B681B6894
:101C20001B68FB607B681B681A687B681B68012166
:101C30008A431A607B681B689B68DB00D9087B6855
:101C40001B683A680A439A607B68180000F054F8F1
:101C50007B681B68FA681A607B688822202199508B
:101C60007B6884220021995400231800BD4604B0EB
:101C700080BD000080B584B000AF786039607B68BB
:101C800084229B5C012B01D102232FE07B688422FC
:101C9000012199547B688822242199507B681B6814
:101CA0001B68FB607B681B681A687B681B680121E6
:101CB0008A431A607B681B689B680E4A13401900B0
:101CC0007B681B683A680A439A607B68180000F0DA
:101CD00013F87B681B68FA681A607B6888222021E9
:101CE00099507B6884220021995400231800BD4636
:101CF00004B080BDFFFFFFF1F0B585B000AF7860A4
:101D00007B685B6E002B08D17B686A2201219952A7
:101D10007B6868220121995243E00F26BB190822F3
:101D20001A700E203B1808221A707B681B689B688B
:101D30005B0EDAB20D243B1907210A401A707B684A
:101D40001B689B685B0FDAB20C257B1907210A40E0
:101D50001A703B181B787A19127814498A5C5A4316
:101D600010007B191B78124AD35C1900FEF732FA77
:101D7000030099B27B686A229952BB191B783A1901
:101D800012780A498A5C5A4310003B191B78084AAA
:101D9000D35C1900FEF71EFA030099B27B68682233
:101DA0009952C046BD4605B0F0BDC046681E04103D
:101DB000701E041003008218934200D170471970FE
:041DC0000133F9E70B
:041DC400F8B5C04668
:041DC800F8B5C04664
:101DCC00D4130410E812041004130410D4130410D8
:101DDC00D4130410D4130410D4130410D41304100B
:101DEC0024130410D4130410D4130410D4130410AB
:101DFC00D4130410D4130410D4130410D4130410EB
:101E0C0074130410D4130410D4130410D41304103A
:101E1C00D4130410D4130410D4130410D4130410CA
:101E2C00D4130410D4130410D4130410D4130410BA
:101E3C00D4130410D4130410D4130410D4130410AA
:101E4C0092130410010002000400060008000A00AE
:101E5C000C00100020004000800000010101010373
:0C1E6C0007010000080402040801010145
:081E780074E5FF7F010000008A
:0C1E80000024F400040000000100000039
:0400000510040B29AF
:00000001FF
