:020000041004E6
:1000000000600020110C041049070410510704106F
:1000100000000000000000000000000000000000E0
:10002000000000000000000000000000590704105C
:100030000000000000000000630704106D070410BA
:10004000750C0410750C0410750C0410750C04105C
:10005000000000000000000000000000750C04100B
:10006000750C0410750C0410750C0410750C04103C
:10007000750C0410750C0410000000007B070410C0
:1000800091070410750C0410750C0410000000009A
:10009000750C04100000000000000000750C041036
:1000A000750C0410750C0410750C0410750C0410FC
:1000B0000000000000000000000000000000000040
:1000C00003B47146490840004900095E49008E4466
:1000D00003BC7047002243088B4274D303098B4250
:1000E0005FD3030A8B4244D3030B8B4228D3030C08
:1000F0008B420DD3FF22090212BA030C8B4202D3AA
:100100001212090265D0030B8B4219D300E0090AD1
:10011000C30B8B4201D3CB03C01A5241830B8B42DA
:1001200001D38B03C01A5241430B8B4201D34B03C3
:10013000C01A5241030B8B4201D30B03C01A524128
:10014000C30A8B4201D3CB02C01A5241830A8B42AD
:1001500001D38B02C01A5241430A8B4201D34B0296
:10016000C01A5241030A8B4201D30B02C01A5241FA
:10017000CDD2C3098B4201D3CB01C01A52418309AE
:100180008B4201D38B01C01A524143098B4201D3E8
:100190004B01C01A524103098B4201D30B01C01A13
:1001A0005241C3088B4201D3CB00C01A524183088D
:1001B0008B4201D38B00C01A524143088B4201D3BA
:1001C0004B00C01A5241411A00D20146524110461A
:1001D0007047FFE701B5002000F006F802BDC046F9
:1001E0000029F7D076E770477047C046002B11D141
:1001F000002A0FD1002900D1002802D00021C943D4
:10020000080007B4024802A14018029003BDC0468E
:10021000D9FFFFFF03B4684601B5029800F006F865
:10022000019B9E4602B00CBC7047C046F0B55746D5
:100230004E464546DE46E0B504000D00924699461E
:1002400083B08B4230D82DD04946504600F0BAF8E2
:1002500029000600200000F0B5F8331A9846203B2C
:1002600034D49B4653465A46934042461F00534659
:1002700093401E00AF423BD8AF4200D179E05B46CD
:10028000A41BBD41002B00DA76E00022002300927F
:10029000019301235A469340019301234246934020
:1002A000009329E08242CFD90022002300920193DB
:1002B0000C9B002B01D01C605D600098019903B07D
:1002C000F0BCBB46B246A946A046F0BD42469B469E
:1002D00020239B1A5246DA40414613004A468A4080
:1002E000170042461F43534693401E00AF42C3D9F6
:1002F00000220023009201934346002BD8D0FB0735
:1003000072081A4346467B080EE0AB4201D1A24276
:100310000CD8A41A9D41012024196D410021013EF1
:1003200024184D41002E06D0AB42EED9013E2419CF
:100330006D41002EF8D1009801995B460019694182
:10034000002B24DB2B005A464446D3402A00E240CF
:100350001C005B461500002B2ADB26009E40330064
:1003600026004746BE403200801A99410090019114
:100370009EE7A342BCD882E74246202300219B1A75
:100380000022009101920122DA40019285E7424663
:1003900020239B1A2A0046469A402300F3404446F5
:1003A00013432A00E2401C005B461500002BD4DA00
:1003B00042462F002023260097409B1ADE403B0038
:1003C0003343CDE710B5002903D100F007F8203002
:1003D00002E0080000F002F810BDC0461C21012315
:1003E0001B04984201D3000C10391B0A984201D318
:1003F000000A08391B09984201D30009043902A2F6
:10040000105C40187047C04604030202010101015C
:10041000000000000000000080B582B000AF7860EE
:10042000084B1A6A7B68D943064B0A401A62054B8F
:100430005A6A7B68D943034B0A405A62C046BD469C
:1004400002B080BD0000504880B582B000AF786037
:10045000084B9A6A7B68D943064B0A409A62054B5F
:10046000DA6A7B68D943034B0A40DA62C046BD466C
:1004700002B080BD0000504880B584B000AF786005
:10048000074B196D064B7A680A431A65044B1B6DBE
:100490007A681340FB60FB68C046BD4604B080BD6F
:1004A0000000404880B500AF00F080FE00F060F82A
:1004B00000F07BF800F096F8002000F047FC0120E7
:1004C00000F044FC022000F041FC0121002000F07B
:1004D000EDFC0121012000F0E9FC0121022000F0E7
:1004E000E5FC204BE12252021A601E4B00225A60AA
:1004F0001C4B00221A811B4B00225A81194B0022EF
:100500009A81184B1900002000F07EFD031E01D0D7
:1005100000F0F4F8144B180002F068FA002000F024
:100520008BFC012000F088FC022000F085FC0020FC
:1005300000F0A0FC0D4B1B68180000F0BDFE012070
:1005400000F098FC094B1B68180000F0B5FE022073
:1005500000F090FC054B1B68180000F0ADFEC04693
:10056000E5E7C046C0000020E8360410BC020020C9
:1005700080B582B000AF3B00180008231A000021AC
:1005800002F090FA3B0002221A603B0000225A60FF
:100590003B001021180001F059FA031E01D000F0B1
:1005A000ADF8C046BD4602B080BD80B586B000AF94
:1005B0003B00180018231A00002102F073FA3B00D8
:1005C00002221A603B00802252015A613B0018004F
:1005D00001F0D2FB031E01D000F090F8C046BD46EA
:1005E00006B080BD80B586B000AF3B1D1800142357
:1005F0001A00002102F056FA0820FFF73DFF042000
:10060000FFF73AFF3B1D08221A603B1D02225A6089
:100610003B1D00229A603B1D0322DA603B1D042231
:100620001A613B1D1E4A1900100000F047FF3B1DD8
:10063000B02212011A603B1D02225A603B1D0022AB
:100640009A603B1D0322DA603B1D03221A613A1DAA
:100650009023DB051100180000F030FF3B1DC02285
:100660001A603B1D12225A603B1D00229A603B1DFE
:100670000322DA603B1D00221A613B1D084A190063
:10068000100000F01BFFC820FFF7DEFEB0231B01A7
:100690001800FFF7C1FEC046BD4606B080BDC0468B
:1006A0000000104880B582B000AF78600A00BB1C23
:1006B0001A80BB1C1B888022D201934211D0802259
:1006C000D201934212DC012B02D0202B04D00DE08A
:1006D000094B64221A600AE0074BFA2252001A60A2
:1006E00005E0054BFA2292001A6000E0C046C046C1
:1006F000BD4602B080BDC046BC02002080B500AF40
:1007000072B6C046C046FDE780B584B000AF7860E1
:10071000074B596D064B7A680A435A65044B5B6D6B
:100720007A681340FB60FB68C046BD4604B080BDDC
:100730000000404880B500AF80235B001800FFF741
:10074000E3FFC046BD4680BD80B500AFC046FDE7B3
:1007500080B500AFC046FDE780B500AFC046BD46DE
:1007600080BD80B500AFC046BD4680BD80B500AF3E
:1007700000F07CFDC046BD4680BD80B500AF902333
:10078000DB050121180000F02DFCC046BD4680BDF0
:1007900080B500AF8023DB01064A1900100000F08D
:1007A00021FC044B2021180000F01CFCC046BD4673
:1007B00080BDC0460000104880B586B000AFF8602C
:1007C000B9607A6000237B610AE000E000BF0100AD
:1007D000BB685A1CBA60CAB21A707B6901337B616C
:1007E0007A697B689A42F0DB7B681800BD4606B0E8
:1007F00080BD80B586B000AFF860B9607A60002334
:100800007B6109E0BB685A1CBA601B78180000F0D5
:100810003BFC7B6901337B617A697B689A42F1DB3F
:100820007B681800BD4606B080BD80B582B000AFC1
:10083000786001235B421800BD4602B080BD80B5E0
:1008400082B000AF786039603B68802292015A60C4
:1008500000231800BD4602B080BD80B582B000AF55
:10086000786001231800BD4602B080BD80B584B019
:1008700000AFF860B9607A6000231800BD4604B08C
:1008800080BD000080B586B000AF7860144A154B7B
:10089000D31A7B617B693B61134B1B68002B02D130
:1008A000114B124A1A60104B1A687B68D3183A69C8
:1008B0009A4207D202F04CF903000C221A6001237D
:1008C0005B4209E0084B1B68FB60074B1A687B68BA
:1008D000D218054B1A60FB681800BD4606B080BDF3
:1008E00000600020000C0000D00000205803002011
:1008F00090B583B000AF02003960FB1D1A70FB1D7C
:100900001B787F2B28D82F4AFB1D1B785BB29B08D6
:10091000C0339B009B58FA1D1278110003220A4035
:10092000D200FF2191400A00D2431A4011003B68D7
:100930009B01FF221A40FB1D1B7818000323034074
:10094000DB009A401F48FB1D1B785BB29B080A43E3
:10095000C0339B001A5031E01B4AFB1D1B78190065
:100960000F230B40083B9B0806339B00D31804332E
:100970001B68FA1D1278110003220A40D200FF21E1
:1009800091400A00D2431A4011003B689B01FF22AC
:100990001A40FB1D1B78180003230340DB009A401C
:1009A0000948FB1D1B781C000F232340083B9B08B4
:1009B0000A4306339B00C31804331A60C046BD4681
:1009C00003B090BD00E100E000ED00E080B500AFB5
:1009D000BFF34F8FC046044B044ADA60BFF34F8F1A
:1009E000C046C046FDE7C04600ED00E00400FA0541
:1009F00090B587B000AF5E4A9423D358002B0ED138
:100A00005C4B1B69002B03D15A4B9B6B002B06D010
:100A1000594B01229A6000F0F5F8FFF7D7FF574BCA
:100A2000574A9A60554B9A68534B1A61514B5A6812
:100A3000504B20210A435A604E4B5A684D4B514946
:100A40000A405A60C0464B4B5B6904221340042B9A
:100A5000F9D1484BDB69302293431A00454B2021E2
:100A60000A43DA61434BDA69424B47490A40DA618B
:100A7000404BDA693F4B802149000A43DA61434B1E
:100A80001B68434A934255D01F233B610823FB60F8
:100A90000A23BB6003237B60354BDB681E22934334
:100AA0001900FB685A00324B0A43DA60304BDA68AF
:100AB0002F4B01210A43DA602D4BDB68354A134086
:100AC00019003B691A062A4B0A43DA60284BDA6898
:100AD000274B802109040A43DA60264A9423D3581D
:100AE0002D4A1A40BB689901F0239B000B40214915
:100AF000134394228B501F4A9423D3581D4920221C
:100B0000134394228B501B4A9423D358234A1A40F0
:100B10007B68D902E0239B010B40164913439422C2
:100B20008B50144A9423D35812498022D200134385
:100B300094228B501723FB1800221A700DE0172403
:100B40003B191B785BB203211800FFF7D1FE21008F
:100B50007B181A787B1801321A701723FB181B7840
:100B60001F2BECD962B6C046C046BD4607B090BD4B
:100B700000004048000050480400002000ED00E064
:100B800000000410FFFEFFFFFFFBFFFFF81E001038
:100B9000CCECBCFCFFFFFFC03FFCFFFFFFC7FFFF2B
:100BA00080B582B000AF134B9B685B08DAB2FB1DC7
:100BB00001210A401A700F4B9B681B0ADAB2BB1D59
:100BC00007210A401A70FB1D1B78002B07D0BB1DA4
:100BD0001B78013B084ADA40084B1A6005E0BB1D50
:100BE0001B78074ADA40054B1A60C046BD4602B082
:100BF00080BDC046000040480048E801C002002017
:100C00000090D00380B500AFC046BD4680BD000057
:100C100010488546FFF7ECFE002103E00E4B5B58C1
:100C2000435004310D480E4B42189A42F6D30D4AF8
:100C300002E00023136004320B4B9A42F9D30B4AB3
:100C400002E0002313600432094B9A42F9D3FFF704
:100C500029FCFEE700600020DC370410BC02002005
:100C600058030020C0000020BC020020C00000206B
:100C7000C0000020FEE7000080B500AF054B1B68F8
:100C800010221340102B01D1012300E00023180093
:100C9000BD4680BD0000504880B582B000AF78608E
:100CA00039607B6804331A683B68D9437B68043336
:100CB0000A401A607B6819687B683A680A431A60C0
:100CC000C046BD4602B080BD80B584B000AF78603C
:100CD000074B196D064B7A680A431A65044B1B6D66
:100CE0007A681340FB60FB68C046BD4604B080BD17
:100CF0000000404880B584B000AF7860074B596D64
:100D0000064B7A680A435A65044B5B6D7A68134058
:100D1000FB60FB68C046BD4604B080BD0000404893
:100D200080B584B000AF7860074B996D064B7A6848
:100D30000A439A65044B9B6D7A681340FB60FB681D
:100D4000C046BD4604B080BD0000404890B589B0A3
:100D500000AF0200FB1D1A70FB1D1B78002B03D196
:100D60000820FFF7B1FF0AE0FB1D1B78012B03D120
:100D70000820FFF7A9FF02E00820FFF7A5FFFB1DF1
:100D80001A78284B5200D35A1A000C243B191A60C7
:100D90003B1901225A603B1901229A603B19022239
:100DA000DA60FB1D1A78204B9200D3583A191100D3
:100DB000180000F083FBFFF75FFF031E1FD0FB1D31
:100DC0001A78194B9200D2589023DB059A4206D12B
:100DD0003B191B68154A19001000FFF75DFFFB1D4A
:100DE0001A78114B9200D358114A934207D10C2321
:100DF000FB181B680F4A19001000FFF74DFFFB1D81
:100E00001A78094B9200D058FB1D1A78054B5200F6
:100E1000D35A0122190000F0FAFC00231800BD4645
:100E200009B090BDC4020020CC0200202000504830
:100E3000000010482800504880B582B000AF020082
:100E4000FB1D1A70FB1D1A78084B9200D058FB1D31
:100E50001A78074B5200D35A0022190000F0D7FC31
:100E600000231800BD4602B080BDC046CC02002061
:100E7000C402002080B582B000AF0200FB1D1A70D2
:100E8000FB1D1A78074B9200D058FB1D1A78064BB1
:100E90005200D35A190000F0D7FC00231800BD46B9
:100EA00002B080BDCC020020C402002080B588B012
:100EB00000AF0200FB1D1A70BB1D0A1C1A70002334
:100EC000FB61FB1D1B78002B03D10420FFF7FCFE08
:100ED0000AE0FB1D1B78012B03D10820FFF7F4FE6D
:100EE00002E00820FFF7F0FEFB1D1A78374B520096
:100EF000D35A1A0008217B181A607B1801229A60C5
:100F00007B180222DA60BB1D1B78002B0CD17B18EA
:100F100000225A60FB1D1A782D4B9200D3587A1884
:100F20001100180000F0CAFABB1D1B78012B23D159
:100F300080235B001800FFF7DDFE08217B1880226C
:100F400052025A60FB1D1A78214B9200D3587A182E
:100F50001100180000F0B2FAFB1D1B781D4AD35691
:100F600000220321180000F077FAFB1D1B78194AB4
:100F7000D356180000F085FAFFF77EFE031E20D03E
:100F8000FB1D1A78124B9200D2589023DB059A422F
:100F900007D10823FB181B680F4A19001000FFF740
:100FA0007BFEFB1D1A780A4B9200D3580B4A9342E2
:100FB00007D10823FB181B68094A19001000FFF726
:100FC0006BFEFB691800BD4608B080BDD80200204A
:100FD000E0020020EC0200202000504800001048F1
:100FE0002800504880B582B000AF78600A00BB1C72
:100FF0001A80BB1C1A887B681100180000F03FFCA7
:10100000C046BD4602B080BD80B584B000AF0200CE
:101010003960FB1D1A700023FB603B68002B03D175
:1010200002235B42FB6026E0FB1D1978FB1D1A784A
:10103000134B8900C958134B94204243D150FB1DD8
:101040001B7894225A430F4BD318180000F068F80D
:10105000FB68002B0FD1FB1D1B7894225A43094BD0
:10106000D3183A681100180000F028F8031E02D0C7
:1010700004235B42FB60FB681800BD4604B080BDE2
:10108000F0020020D400002080B582B000AF78606C
:10109000084B1B781A0094235A43074BD018FA23A5
:1010A0009B00391D012200F09DFF7B681800BD46A2
:1010B00002B080BD68010020D400002080B582B05D
:1010C00000AF786039603B681A687B685A603B689B
:1010D0005A687B689A603B681B891A007B68DA60F3
:1010E0003B685B891A007B681A617B680C225A6135
:1010F0003B689B891A007B689A617B688022120298
:10110000DA617B6800221A627B6800225A627B687F
:10111000180000F009FF03001800BD4602B080BDB2
:1011200090B589B000AF78600420FFF7CDFD0820AE
:10113000FFF7CAFD8023DB001800FFF7F1FD0C2448
:101140003B1902221A603B1902225A603B19022203
:10115000DA603B1901229A603B1902221A613A199E
:101160009023DB051100180000F0A8F9FFF784FDBB
:10117000031E06D03B191B680A4A19001000FFF72E
:101180008BFD0C217B1801221A607B1800221A614A
:101190007B18054A1900100000F090F9C046BD46C2
:1011A00009B090BD200050480000104880B582B0C2
:1011B00000AFFB1D00221A70032000F00FF8031E81
:1011C00003D0FB1D01221A7001E0FFF7B3FAFB1DEB
:1011D0001B781800BD4602B080BD000090B585B0F8
:1011E00000AF78600F23FB1800221A701D4B1B788C
:1011F000002B2CD000F0D6FC04001A4B1B781900F1
:10120000FA239800FEF766FF030019002000FEF79E
:1012100061FF0300180000F044F9031E12D17B683F
:10122000032B0AD8796801235B420022180000F0E2
:1012300013F90D4B7A681A600DE00F23FB18012299
:101240001A7008E00F23FB1801221A7003E00F2325
:10125000FB1801221A700F23FB181B781800BD46DB
:1012600005B090BDF8020020F402002080B500AF68
:10127000054B1B781A00054B1B68D218034B1A60EC
:10128000C046BD4680BDC046F80200206C0100206B
:1012900080B500AF024B1B681800BD4680BDC0463C
:1012A0006C01002080B500AF024B1B681800BD46E2
:1012B00080BDC046F402002080B584B000AF7860E5
:1012C000FFF7E6FF0300BB607B68FB60FB68013350
:1012D00005D00A4B1B781A00FB689B18FB60C046C0
:1012E000FFF7D6FF0200BB68D31AFA689A42F7D814
:1012F000C046C046BD4604B080BDC046F8020020CE
:1013000080B582B000AF0200FB1D1A70FB1D1B7878
:101310007F2B09D8FB1D1B781A001F231A40044B92
:10132000012191400A001A60C046BD4602B080BD4E
:1013300000E100E090B583B000AF02003960FB1D12
:101340001A70FB1D1B787F2B28D82F4AFB1D1B789A
:101350005BB29B08C0339B009B58FA1D12781100AA
:1013600003220A40D200FF2191400A00D2431A40D2
:1013700011003B689B01FF221A40FB1D1B781800DF
:1013800003230340DB009A401F48FB1D1B785BB220
:101390009B080A43C0339B001A5031E01B4AFB1DD7
:1013A0001B7819000F230B40083B9B0806339B005A
:1013B000D31804331B68FA1D1278110003220A4067
:1013C000D200FF2191400A00D2431A4011003B682D
:1013D0009B01FF221A40FB1D1B78180003230340CA
:1013E000DB009A400948FB1D1B781C000F2323409B
:1013F000083B9B080A4306339B00C31804331A605A
:10140000C046BD4603B090BD00E100E000ED00E045
:1014100080B582B000AF78607B685A1E80235B0481
:101420009A4201D3012310E00A4B7A68013A5A60CC
:1014300001235B4203211800FFF77CFF054B0022CC
:101440009A60044B07221A6000231800BD4602B0C0
:1014500080BDC04610E000E080B584B000AFB96048
:101460007A600F217B18021C1A70BA687B181B78EF
:101470005BB211001800FFF75DFFC046BD4604B027
:1014800080BD80B582B000AF0200FB1D1A70FB1D4D
:101490001B785BB21800FFF733FFC046BD4602B0B1
:1014A00080BD80B582B000AF78607B681800FFF720
:1014B000AFFF03001800BD4602B080BD80B586B006
:1014C00000AF7860396000237B6194E13B681B6862
:1014D00001217A6991400A001340FB60FB68002BF0
:1014E00000D185E13B685B6803221340012B05D0E6
:1014F0003B685B6803221340022B30D17B689B68FA
:101500003B617B695B0003229A401300DA433B692D
:1015100013403B613B68DA687B695B009A401300CB
:101520003A6913433B617B683A699A607B685B6800
:101530003B6101227B699A401300DA433B69134007
:101540003B613B685B681B0901221A407B699A403A
:1015500013003A6913433B617B683A695A603B6800
:101560005B6803221340032B17D07B68DB683B6169
:101570007B695B0003229A401300DA433B69134006
:101580003B613B689A687B695B009A4013003A694B
:1015900013433B617B683A69DA603B685B6803220E
:1015A0001340022B23D17B69DA087B680832920052
:1015B000D3583B617B69072213409B000F229A405E
:1015C0001300DA433B6913403B613B681A697B694E
:1015D00007210B409B009A4013003A6913433B617B
:1015E0007B69DA087B68083292003969D1507B68E0
:1015F0001B683B617B695B0003229A401300DA435E
:101600003B6913403B613B685B6803221A407B697E
:101610005B009A4013003A6913433B617B683A6967
:101620001A603B685A68C0239B02134000D1DFE078
:101630003B685A688023DB02134031D08023DB05EE
:10164000DB683B617A689023DB059A4211D1012265
:101650007B699A401300DB431A003B6913403B61EE
:1016600001227B699A4013001A003B6913433B61D6
:1016700012E001227B699A4013001B04DB431A002D
:101680003B6913403B6101227B699A4013001B04B4
:101690001A003B6913433B618023DB053A69DA603A
:1016A0003B685A6880235B03134031D08023DB05FD
:1016B0001B693B617A689023DB059A4211D10122B4
:1016C0007B699A401300DB431A003B6913403B617E
:1016D00001227B699A4013001A003B6913433B6166
:1016E00012E001227B699A4013001B04DB431A00BD
:1016F0003B6913403B6101227B699A4013001B0444
:101700001A003B6913433B618023DB053A691A6188
:101710003B685A688023DB03134031D08023DB050C
:101720005B693B617A689023DB059A4211D1012203
:101730007B699A401300DB431A003B6913403B610D
:1017400001227B699A4013001A003B6913433B61F5
:1017500012E001227B699A4013001B04DB431A004C
:101760003B6913403B6101227B699A4013001B04D3
:101770001A003B6913433B618023DB053A695A61D8
:101780003B685A6880235B02134031D08023DB051D
:101790009B693B617A689023DB059A4211D1012253
:1017A0007B699A401300DB431A003B6913403B619D
:1017B00001227B699A4013001A003B6913433B6185
:1017C00012E001227B699A4013001B04DB431A00DC
:1017D0003B6913403B6101227B699A4013001B0463
:1017E0001A003B6913433B618023DB053A699A6128
:1017F0007B6901337B613B681A687B69DA40131EA1
:1018000000D063E6C046C046BD4606B080BD80B588
:1018100082B000AF786008001100BB1C021C1A8067
:101820007B1C0A1C1A707B1C1B78002B04D0BB1C71
:101830001A887B689A6103E0BB1C1A887B689A62ED
:10184000C046BD4602B080BD80B584B000AF7860B0
:101850000A00BB1C1A807B685B69FB60BB1C1B8891
:10186000FA6813401A04FB68DB43B91C09880B4073
:101870001A437B689A61C046BD4604B080BD80B5FE
:1018800082B000AF78600A00BB1C1A807A6890238F
:10189000DB059A4209D18023DB05DB69BA1C12887B
:1018A00013405A1E9341DBB209E08023DB05DB695C
:1018B000BA1C1288120413405A1E9341DBB2002B4B
:1018C00017D07A689023DB059A4205D18023DB0587
:1018D000BA1C1288DA6105E0BB1C1A888023DB057C
:1018E0001204DA61BB1C1A887B6811001800FEF72D
:1018F000D9FEC046BD4602B080BD000080B500AF35
:10190000074B1A6880239B021A4080239B029A424D
:1019100001D1012300E000231800BD4680BDC04670
:101920000000404880B500AF074B9A68064B042181
:101930008A439A60044B9A68034B02218A439A6057
:10194000C046BD4680BDC0460000404880B500AFDF
:10195000074B1A688023DB001A408023DB009A4281
:1019600001D1012300E000231800BD4680BDC04620
:101970000000404880B582B000AFC0460F4B1A68E7
:1019800080239B021340F9D00C4B9A680B4B022129
:101990000A439A6000237B6003E0C0467B68013302
:1019A0007B607B68052BF8DD044B9A68034B0421B0
:1019B0000A439A60C046BD4602B080BD0000404860
:1019C00080B500AF044B1A68034B802189010A439C
:1019D0001A60C046BD4680BD0000404880B500AFDB
:1019E000044B1A68034B04490A401A60C046BD46BE
:1019F00080BDC04600004048FFDFFFFF80B500AF5C
:101A0000074B1A688023DB011A408023DB019A42CE
:101A100001D1012300E000231800BD4680BDC0466F
:101A20000000404880B582B000AF7860064B9B68EC
:101A3000E02293431900044B7A680A439A60C04637
:101A4000BD4602B080BDC0460000404880B584B0AD
:101A500000AF786039607B68002B01D1012398E0EA
:101A60004E4B5B683022934319004C4B3A680A4353
:101A70005A607B681B68022B0ED1FFF753FFFFF7FC
:101A800065FF031E01D1012383E0FFF7A7FF7B68F9
:101A90005B681800FFF7C6FF7B681B68002B24D12A
:101AA000FFF754FF031E01D1012372E0FFF726FF69
:101AB000031E01D101236CE0FFF782FFFFF7E8FB73
:101AC0000300FB6008E0FFF7E3FB0200FB68D31AAA
:101AD000022B01D903235CE0FFF790FF031EF2D035
:101AE0007B685B681800FFF79DFF7B681B68012B14
:101AF00017D1FFF73FFFFFF729FF031E01D0012396
:101B000047E0FFF7FBFE031E01D1012341E0244B18
:101B10009B68E022934319007B685A68204B0A4374
:101B20009A601E4B5B68302213403A689A421DD07F
:101B30001A4B5B68302293431900184B3A680A43EA
:101B40005A60FFF7A5FB0300FB6008E0FFF7A0FB6E
:101B50000200FB68D31A022B01D9032319E00F4BB3
:101B60005B68302213403A689A42EFD10023BB6091
:101B700003E0C046BB680133BB60BB68052BF8DDE2
:101B8000FFF70EF8FFF78EFB03001800FFF726FBA8
:101B900003001800BD4604B080BDC04600100040E0
:101BA0000000404880B500AF024B1B681800BD46DE
:101BB00080BDC046C002002080B500AF074B1A6848
:101BC00080239B021A4080239B029A4201D1012369
:101BD00000E000231800BD4680BDC046000040481C
:101BE00080B500AF054B9B6808221340082B01D13C
:101BF000012300E000231800BD4680BD00004048DE
:101C000080B582B000AF7860064B9B68064A1340EF
:101C10001900044B7A680A439A60C046BD4602B078
:101C200080BDC04600004048FF7FFEFF80B500AF8A
:101C3000034B9A68C0235B0213401800BD4680BD69
:101C40000000404880B582B000AF7860064B1B6E44
:101C5000042293431900044B7A680A431A66C0466B
:101C6000BD4602B080BDC0460000404880B500AF10
:101C7000034B1B6E042213401800BD4680BDC046B6
:101C80000000404880B582B000AF7860064B9B688A
:101C9000064A13401900044B7A680A439A60C0460A
:101CA000BD4602B080BDC04600004048FFEFFFFFC8
:101CB00080B500AF034B9A6880235B011340180086
:101CC000BD4680BD0000404880B582B000AF78605E
:101CD000064B9B68064A13401900044B7A680A4376
:101CE0009A60C046BD4602B080BDC0460000404874
:101CF000FFDFFFFF80B500AF034B9A6880239B0195
:101D000013401800BD4680BD0000404880B582B039
:101D100000AF7860064B9B68064A13401900044BDD
:101D20007A680A439A60C046BD4602B080BDC0468C
:101D300000004048FFFF3FFF80B500AF034B9A68AB
:101D4000C0231B0413401800BD4680BD000040485E
:101D500080B500AF074B1A688023DB011A4080234F
:101D6000DB019A4201D1012300E000231800BD46A7
:101D700080BDC0460000404880B582B000AF7860AA
:101D80007B681B680122134004D07B681B69180024
:101D9000FFF758FF7B681B680222134004D07B6862
:101DA0005B691800FFF76EFF7B681B680822134011
:101DB00004D07B685B681800FFF7A8FF7B681B688E
:101DC0001022134004D07B68DB681800FFF77CFF0B
:101DD0007B689B682022134004D07B689B681800B6
:101DE000FFF70EFF00231800BD4602B080BD0000C3
:101DF00080B584B000AF78600023FB607B68202B47
:101E000000D97BE07B689A00404BD3181B689F4643
:101E1000FFF72CFF031E02D0042B03D071E03C4BD4
:101E2000FB6002E03B4BFB60C0466AE0FFF740FF0F
:101E3000031E04D080225201934203D061E0364B4E
:101E4000FB6002E0354BFB60C0465AE0FFF7C8FE7E
:101E5000031E05D0FFF7B0FE031E07D1002351E09B
:101E6000FFF776FF031E01D100234BE0FFF764FF6D
:101E70000300BB60BB68002B01D1264BFB60BA6836
:101E80008023DB039A4201D1214BFB60BA68802397
:101E90001B049A4234D1224BFB6031E0FFF72AFF4A
:101EA000020080239B019A4203D180231B02FB6026
:101EB00002E0184BFB60C04623E0FFF7B7FE0300CB
:101EC000C0225202934214D0C0225202934213D82D
:101ED00080221202934204D080225202934204D004
:101EE0000AE080231B02FB6007E0FA23DB01FB60B2
:101EF00003E00C4BFB6000E0C04602E0C04600E09F
:101F0000C046FB681800BD4604B080BD043704100D
:101F10000048E8010024F40000127A0000093D00A6
:101F20000090D003127A000080B582B000AF7860D4
:101F30007B68002B01D1012346E07B6888229B58F7
:101F4000002B07D17B688422002199547B681800FC
:101F500000F040F87B688822242199507B681B6838
:101F60001A687B681B6801218A431A607B689B6A38
:101F7000002B03D07B68180000F040FA7B68180043
:101F800000F0D4F80300012B01D101231CE07B6891
:101F90001B685A687B681B680D490A405A607B6859
:101FA0001B689A687B681B682A218A439A607B6851
:101FB0001B681A687B681B6801210A431A607B68EA
:101FC000180000F0CFFA03001800BD4602B080BD33
:101FD000FFB7FFFF80B582B000AF7860C046BD4656
:101FE00002B080BD80B58AB002AFF860B9603B60D6
:101FF000BB1D1A80FB6888229B58202B00D090E0E4
:10200000BB68002B03D0BB1D1B88002B01D1012313
:1020100088E0FB689A6880235B019A4209D1FB68DB
:102020001B69002B05D1BB680122134001D001239D
:1020300078E0FB68902200219950FB6888222121DA
:102040009950FFF725F903007B61FB68BA1D542105
:1020500012885A52FB68BA1D562112885A52FB68E0
:102060009A6880235B019A4208D1FB681B69002BA8
:1020700004D10023FB61BB68BB6103E0BB68FB616B
:102080000023BB6130E07A69F8683B680093130075
:102090000022802100F010FB031E05D0FB6888227F
:1020A0002021995003233DE0FB69002B0BD1BB6934
:1020B0001B881A00FB681B68D205D20D9A62BB69A7
:1020C0000233BB6107E0FB691A78FB681B689A6200
:1020D000FB690133FB61FB6856229B5A9BB2013BB3
:1020E00099B2FB6856229952FB6856229B5A9BB2C2
:1020F000002BC8D17A69F8683B680093130000226E
:10210000402100F0D9FA031E05D0FB688822202167
:102110009950032306E0FB68882220219950002370
:1021200000E002231800BD4608B080BDB0B590B0F5
:1021300000AF78621B2320229B18DB1900221A7043
:102140007B6A9A687B6A1B691A437B6A5B691A43DC
:102150007B6ADB691343FB637B6A1B681B68A14ACC
:10216000134019007B6A1A68FB6B0B4313607B6A90
:102170001B685B689C4A134018007B6AD9687B6ABD
:102180001A6803000B4353607B6A9B69FB637B6A9D
:102190001B68964A934204D07B6A1B6AFA6B13430E
:1021A000FB637B6A1B689B68914A134019007B6A3A
:1021B0001A68FB6B0B4393607B6A1B68DB6A0F2218
:1021C000934318007B6A596A7B6A1A6803000B43C1
:1021D000D3627B6A1B68854A93426DD11020FFF75A
:1021E00007FE03007B637B6B002B00D1E3E07B6A7F
:1021F0005A6A804B5200D35A1900786BFDF76AFF78
:102200000300BB627B6A5A6813005B009B18BA6AC2
:102210009A4205D37B6A5B681B03BA6A9A4206D965
:102220001B2320229B18DB1901221A70C3E07B6B51
:10223000BB610023FB617B6A5A6A6E4B5200D35A22
:102240003B6100237B613A697B69B869F969FDF7F5
:10225000CDFF02000B00110E1D020D4314027B6A1C
:102260005B685B08BB600023FB60B868F968001915
:1022700069417B6A5B683B6000237B603A687B68EE
:10228000FDF7B4FF02000B0013003B633A6BC02361
:102290009B009A4209D33A6B80235B039A4204D293
:1022A0007B6A1B683A6BDA6085E01B2320229B184F
:1022B000DB1901221A707EE07B6ADA6980231B0237
:1022C0009A4248D14C4B7B637B6B002B00D172E070
:1022D0007B6A5A6A474B5200D35A1900786BFDF754
:1022E000F9FE03005A007B6A5B685B08D2187B6AC0
:1022F0005B6819001000FDF7EDFE03003B633B6BCC
:102300000F2B21D93A6B80235B029A421CD23B6B84
:102310009AB20E2020240319DB190F218A431A8058
:102320003B6B5B089BB20722134099B20319DB1980
:102330000219D21912880A431A807B6A1B68021993
:10234000D2191288DA6036E01B2320229B18DB1991
:1023500001221A702FE0284B7B637B6B002B2AD065
:102360007B6A5A6A234B5200D35A1900786BFDF7E7
:10237000B1FE03001A007B6A5B685B08D2187B6AB7
:102380005B6819001000FDF7A5FE03003B633B6B83
:102390000F2B0AD93A6B80235B029A4205D23B6B22
:1023A0009AB27B6A1B68DA6005E01B2320229B1827
:1023B000DB1901221A707B6A6A22012199527B6A19
:1023C0006822012199527B6A00225A677B6A0022A7
:1023D0009A671B2320229B18DB191B781800BD4627
:1023E00010B0B0BDF369FFCFFFCFFFFF0050004139
:1023F000FFF4FF11883704100024F40080B582B088
:1024000000AF78607B689B6A082213400BD07B6822
:102410001B685B684A4A134019007B689A6B7B68AB
:102420001B680A435A607B689B6A012213400BD0E9
:102430007B681B685B68434A134019007B68DA6A53
:102440007B681B680A435A607B689B6A02221340C0
:102450000BD07B681B685B683B4A134019007B68A4
:102460001A6B7B681B680A435A607B689B6A04226C
:1024700013400BD07B681B685B68344A134019001B
:102480007B685A6B7B681B680A435A607B689B6A4F
:10249000102213400BD07B681B689B682C4A1340AA
:1024A00019007B68DA6B7B681B680A439A607B685B
:1024B0009B6A202213400BD07B681B689B68254ACF
:1024C000134019007B681A6C7B681B680A439A608A
:1024D0007B689B6A402213401DD07B681B685B6849
:1024E0001D4A134019007B685A6C7B681B680A43BD
:1024F0005A607B685A6C80235B039A420BD17B68DD
:102500001B685B68154A134019007B689A6C7B68EE
:102510001B680A435A607B689B6A802213400BD079
:102520007B681B685B680E4A134019007B68DA6C95
:102530007B681B680A435A60C046BD4602B080BD36
:10254000FF7FFFFFFFFFFDFFFFFFFEFFFFFFFBFF22
:10255000FFEFFFFFFFDFFFFFFFFFEFFFFFFF9FFF2B
:10256000FFFFF7FF80B592B002AF78607B689022E2
:1025700000219950FEF78CFE0300FB637B681B680B
:102580001B6808221340082B2DD1FB6B802291037E
:102590007868474A0092002200F08EF8031E22D08D
:1025A000EFF310837B627B6ABB630123BB62BB6A70
:1025B00083F31088C0467B681B681A687B681B68B9
:1025C00080218A431A60BB6BFB62FB6A83F310882D
:1025D000C0467B688822202199507B688422002194
:1025E0009954032360E07B681B681B680422134036
:1025F000042B46D1FB6B8022D10378682C4A0092D1
:10260000002200F059F8031E3BD0EFF31083FB606B
:10261000FB687B6301233B613B6983F31088C04601
:102620007B681B681A687B681B6822490A401A602D
:102630007B6B7B617B6983F31088C046EFF310836B
:10264000BB61BB693B630123FB61FB6983F31088BA
:10265000C0467B681B689A687B681B6801218A43B7
:102660009A603B6B3B623B6A83F31088C0467B6891
:102670008C22202199507B688422002199540323C5
:1026800012E07B688822202199507B688C222021CF
:1026900099507B680022DA667B6800221A677B68A3
:1026A00084220021995400231800BD4610B080BD3B
:1026B000FFFFFF01DFFEFFFF80B584B000AFF860D1
:1026C000B9603B60FB1D1A7051E0BB6901334ED00D
:1026D000FEF7DEFD02003B68D31ABA699A4202D3C4
:1026E000BB69002B01D1032351E0FB681B681B6809
:1026F000042213403BD0BB68802B38D0BB68402BF2
:1027000035D0FB681B68DB6908221340082B11D108
:10271000FB681B6808221A62FB68180000F03CF88E
:10272000FB68902208219950FB688422002199546B
:1027300001232CE0FB681B68DA6980231B011A4027
:1027400080231B019A4212D1FB681B688022120170
:102750001A62FB68180000F01FF8FB689022202125
:102760009950FB6884220021995403230FE0FB68F1
:102770001B68DB69BA681340BA68D31A5A425341DE
:10278000DBB21A00FB1D1B789A429ED00023180072
:10279000BD4604B080BD000080B58EB000AF78604B
:1027A000EFF310837B617B697B630123BB61BB69B2
:1027B00083F31088C0467B681B681A687B681B68B7
:1027C00026490A401A607B6BFB61FB6983F3108822
:1027D000C046EFF310833B623B6A3B6301237B629D
:1027E0007B6A83F31088C0467B681B689A687B68A5
:1027F0001B681B490A409A603B6BBB62BB6A83F350
:102800001088C0467B68DB6E012B18D1EFF3108374
:10281000BB60BB68FB620123FB60FB6883F310882D
:10282000C0467B681B681A687B681B6810218A4356
:102830001A60FB6A3B613B6983F31088C0467B6882
:102840008C22202199507B680022DA667B68002266
:102850005A67C046BD460EB080BDC046DFFEFFFFD2
:10286000FEFFFFEF002310B50400036043608360A8
:1028700081814366C281036143618361190008223B
:102880005C3000F00FF90B4B246263620A4BA362C9
:102890000A4BE3620A4B23630A4B9C4205D00A4B66
:1028A0009C4202D0094B9C4203D12000583000F0DA
:1028B00055F910BD0D2A0410352A04106D2A041094
:1028C000992A041070010020D80100204002002045
:1028D00010B5034A0349044800F06CF810BDC04627
:1028E000FC020020ED3304100C03002041680B4B68
:1028F00010B50400994201D000F078FDA168084BA2
:10290000994202D0200000F071FDE168054B994228
:1029100002D0200000F06AFD10BDC046700100200A
:10292000D80100204002002010B5094B094A0421BB
:102930001A6009480022FFF795FF01220921074884
:10294000FFF790FF022212210548FFF78BFF10BD11
:10295000A8020020D128041070010020D801002016
:102960004002002010B5024800F0F9F810BDC04642
:10297000B102002010B5024800F0F2F810BDC046C8
:10298000B102002010B50400FFF7ECFF236A002B12
:1029900002D0FFF7EFFF10BD044B2362044B1B680E
:1029A000002BF6D1FFF7C0FFF3E7C046ED28041077
:1029B000A8020020F7B51400002600900191A56838
:1029C0006768013F04D52468002CF8D13000FEBDB3
:1029D000AB89012B08D90E22AB5E013304D029004C
:1029E0000098019B984706436835EAE70FB407B59E
:1029F000054904AB086804CB8168019300F0D6F95F
:102A000003B008BC04B018470803002070B50C00E0
:102A10000E25495F00F074F8002803DB636D1B1876
:102A2000636570BDA389024A1340A381F9E7C046DC
:102A3000FFEFFFFFF8B51F008B8905000C001600A3
:102A4000DB0505D50E23C95E0022022300F044F801
:102A5000A389054A28001340A38132000E23E15EBA
:102A60003B0000F061F8F8BDFFEFFFFF70B50C0010
:102A70000E25495F00F030F8A389421C03D1054AB6
:102A80001340A38170BD802252011343A38160656E
:102A9000F8E7C046FFEFFFFF10B50E23C95E00F058
:102AA00009F810BD03008218934200D170471970D5
:102AB0000133F9E7002370B5064D040008002B60D0
:102AC000FDF7B3FE431C03D12B68002B00D023601D
:102AD00070BDC046AC02002070B5040008001100B3
:102AE0001A000023054D2B60FDF7C0FE431C03D1E7
:102AF0002B68002B00D0236070BDC046AC020020C4
:102B000070B50400080011001A000023054D2B6069
:102B1000FDF752FE431C03D12B68002B00D023602D
:102B200070BDC046AC02002070B504000800110062
:102B30001A000023054D2B60FDF75BFE431C03D1FB
:102B40002B68002B00D0236070BDC046AC02002073
:102B5000014B18687047C046080300207047704753
:102B60007047000070B505000C1E10D0043C2368AF
:102B7000002B00DAE418280000F0E0F81D4A136882
:102B8000002B05D163601460280000F0DFF870BDF1
:102B9000A34208D9206821188B42F3D119685B68D9
:102BA00009182160EEE71A005B68002B01D0A342F0
:102BB000F9D911685018A0420BD120680918501893
:102BC00011608342E0D118685B684118116053605E
:102BD000DAE7A04202D90C232B60D5E72068211840
:102BE0008B4203D119685B680918216063605460E7
:102BF000CAE7C046B802002070B50F4E0D0031681C
:102C00000400002902D100F0BDFC30602900200042
:102C100000F0B8FC431C03D101256D42280070BDB3
:102C20000323C51C9D43A842F8D0291A200000F0B8
:102C3000A9FC0130F2D1EFE7B4020020F7B503227E
:102C4000CB1C9343083305001F000C2B34D20C27F8
:102C5000B94233D8280000F071F8374E33681C00B1
:102C6000002C2FD139002800FFF7C6FF0400431CB9
:102C70005FD134680094009B002B4AD1002C52D0C5
:102C800023682800E3180099019300F07BFC019B66
:102C9000834248D123682800FF1A3900FFF7ACFFB0
:102CA000013040D02368DB19236033685A68002A5A
:102CB00033D1009B336019E0002BC9DA0C232B6061
:102CC0000020FEBD2168C91B20D40B290AD9E219B6
:102CD0002760A34204D1326063681160536005E04D
:102CE0005A60F9E76268A3420ED13260280000F012
:102CF0002DF8200007220B30231D9043C21A984262
:102D0000DFD01B1AA350DCE75A60EFE723006468AA
:102D1000A6E7009C63680093ADE71A005B68A342D6
:102D2000FBD10023DAE70C2328002B6000F00EF81B
:102D3000C6E70760DAE7C046B802002010B50248CF
:102D4000FFF70DFF10BDC046B002002010B50248CD
:102D5000FFF706FF10BDC046B0020020936810B513
:102D6000013B9360002B04DA9469A34207DB0A2934
:102D700005D01368581C10601970080010BD00F0D1
:102D800060FB0100F9E7F8B506000F001400D51844
:102D9000AC4201D1002007E021783A003000FFF773
:102DA000DDFF0134431CF3D1F8BD0000F0B5A1B044
:102DB0000F0015001E000390002804D0036A002BAA
:102DC00001D1FFF7DFFD7B6EDB0705D4BB899B05D7
:102DD00002D4B86DFFF7C3FEBB891B0702D53B6960
:102DE000002B13D13900039800F06EFB00280DD0A2
:102DF0007B6EDB0703D50120404221B0F0BDBB89CB
:102E00009B05F8D4B86DFFF7ABFEF4E7002308ACE0
:102E10006361203363761033A37607962E003378F0
:102E2000002B01D0252B48D1731B0593AE420BD04C
:102E30002A0039000398FFF7A6FF013000D1AEE069
:102E40006369059A9B1863613378002B00D1A6E073
:102E5000012200235242626004A954325218751CA8
:102E60002360E360A3601370A365594B052218002B
:102E70002978059300F098FB6E1C00281FD122686A
:102E8000D30604D5532304A95B1820211970130716
:102E900004D5532304A95B182B2119702B782A2BF6
:102EA00016D02E0000210A20E3683278751C303AD3
:102EB000092A50D9002911D117E00136AFE7059B47
:102EC0002268C01A01238340134335002360CCE7F6
:102ED000079B191D1B680791002B01DB0B9304E076
:102EE0005B42E36002231343236033782E2B0CD123
:102EF00073782A2B34D1079B02361A1D1B68079260
:102F0000002B01DA01235B420993324D0322280092
:102F1000317800F049FB002806D04023401B834055
:102F20002268013613432360317806222A48751C33
:102F3000217600F039FB002840D0284B002B22D10D
:102F40000722079B07339343083307936369049A67
:102F50009B18636162E743432E0001219B18A4E79D
:102F600000230A201900013663603278751C303A5C
:102F7000092A03D9002BC8D00991C6E741432E0086
:102F800001238918F1E707AA009221003A00144BA7
:102F9000039800E000BF0490049B0133D6D17B6E00
:102FA000DB0705D4BB899B0502D4B86DFFF7D8FDBC
:102FB000BB895B0600D51EE70D981EE707AA0092A5
:102FC00021003A00064B039800F07CF8E3E7C04686
:102FD000A0370410A6370410AA3704100000000020
:102FE000872D0410F7B5160001938A680B690C0051
:102FF0000090934200DA13002200336043321278CB
:10300000002A01D00133336023689B0602D5336860
:10301000023333602268062315001D401A4227D070
:10302000230043331B785A1E93412268920630D402
:10303000220001990098089D4332A847013025D00D
:103040000622236800251340042B05D13368E56868
:10305000ED1AEB43DB171D40A3682269934201DDA3
:103060009B1AED180026B54220D1002010E0013552
:10307000E36832689B1AAB42D2DD2200012301993A
:103080000098089F1932B8470130F0D10120404222
:10309000FEBD3020E1184331087021005A1C453133
:1030A0000978A218433202331170C1E722000123CC
:1030B00001990098089F1A32B8470130E6D00136CE
:1030C000D1E70000F0B58BB006920A0043320793B7
:1030D000059003920A7E0C00109B782A09D8622A78
:1030E0000BD8002A00D1BCE07B490491582A00D1BA
:1030F00090E0250042352A7022E010006338152840
:10310000F7D8FCF7DDFF16001F00F6FFF6FFF6FF0D
:10311000F6FF1F00F6FFF6FFF6FFF6FFA1003600F0
:103120008000F6FFF6FFB200F6FF3600F6FFF6FF6E
:10313000840025001A684235111D196013682B7030
:103140000123A0E018680968021D0D060BD506686A
:103150001A60002E03DA2D23039A764213705E4B19
:103160000A27049318E006681A604906F1D536B2BA
:10317000EFE70868196840C9050602D4400600D583
:10318000B6B21960544B0A2704936F2A00D1023F4C
:103190002300002243331A706368A360002B03DB13
:1031A000042122688A432260002E02D1039D002B55
:1031B0000CD0039D30003900FDF712F8049B013D4F
:1031C0005B5C2B70330006009F42F3D9082F09D1B6
:1031D0002368DB0706D5626823699A4202DC302344
:1031E000013D2B70039B5B1B2361079B2100009318
:1031F0000598069B09AAFFF7F5FE013048D101208A
:1032000040420BB0F0BD202209680A4322607822B8
:1032100032490491210045310A701968226840C979
:10322000100602D4500600D5B6B21960D30702D5F5
:10323000202313432360002E01D01027A8E720226B
:10324000236893432360F8E71A680D68101D4969E5
:10325000186013682E0601D5196002E06D06FBD5D3
:1032600019800023039D2361BFE71A68111D1960AF
:10327000156800212800626800F096F9002801D046
:10328000401B6060636823610023039A1370ACE7FE
:103290002A00236906990598079DA8470130AED0FA
:1032A00023689B0715D4099BE0689842A9DA1800A7
:1032B000A7E72200012306990598079E1932B04717
:1032C00001309CD00135E368099A9B1AAB42F0DCCF
:1032D000E9E70025F7E7C046B1370410C23704100C
:1032E000F7B50C228B5E05000C001A0756D44A680D
:1032F000002A02DC0A6C002A4EDDE76A002F4BD060
:10330000002280202E682A601A004001216A0240B3
:10331000034233D0626DA3895B0706D56368D21A76
:10332000636B002B01D0236CD21A00232800E76ABC
:10333000216AB847A289431C06D129681D2946D8AD
:10334000294B0B41DB0742D40023636023692360D0
:10335000D20405D5431C02D12B68002B00D1606537
:10336000616B2E60002917D023004433994202D0AC
:103370002800FFF7F7FB002363630DE0012328001B
:10338000B8470200431CC6D12B68002BC3D01D2BAD
:1033900001D0162B1AD12E6000201EE00E69002EDF
:1033A000FAD00F680E60BA1B019200229B0700D171
:1033B0004A69A260019B002BEEDDA36A32001F0068
:1033C0002800019B216AB847002807DCA289402316
:1033D000012013431BB2A3814042FEBD019B36185E
:1033E0001B1A0193E6E7C046FEFFBFDF0B6970B50D
:1033F00005000C00002B02D10025280070BD00281C
:1034000004D0036A002B01D1FFF7BCFA0C22A35EA3
:10341000002BF1D0626ED20704D49B0502D4A06DBC
:10342000FFF79DFB28002100FFF75AFF636E0500A0
:10343000DB07E2D4A3899B05DFD4A06DFFF790FBE7
:10344000DBE7F8B506000D001400002804D0036A7D
:10345000002B01D1FFF796FAA369A360A3891B078C
:1034600002D52369002B09D12100300000F02CF88F
:10347000002803D001256D422800F8BD236920688B
:10348000EFB2C01A6369EDB2834205DC210030005F
:10349000FFF7ACFF0028EDD1A3680130013BA3602A
:1034A00023685A1C22601F706369834204D0A38979
:1034B000DB07E1D50A2DDFD121003000FFF796FFB1
:1034C0000028D9D0D6E700002D4B70B5050018684C
:1034D0000C00002804D0036A002B01D1FFF752FA38
:1034E0000C23E25E130723D4D30607D409232B60F1
:1034F000402301201343A38140423AE0520713D5F1
:10350000616B002908D023004433994202D028007F
:10351000FFF728FB002363632422A3899343A3813D
:1035200000236360236923600823A2891343A381D6
:103530002369002B0BD1A0218022A389890092004E
:103540000B40934203D02100280000F063F80C23C5
:10355000E25E012113000B400A420BD00023A3605E
:1035600063695B42A36100202369834201D1130692
:10357000BED470BD910700D46369A360F3E7C04671
:1035800008030020002370B5064D040008002B60DE
:10359000FDF778F9431C03D12B68002B00D0236082
:1035A00070BDC046AC020020C9B28218904201D161
:1035B0000020704703788B42FBD00130F6E7000013
:1035C00070B50E001D000E23C95E140096B00029D0
:1035D0000CDAB2898023110019401A4214D18023D9
:1035E000DB0000202960236016B070BD6A4600F041
:1035F00053F80028EDDBF02301991B021940044B1E
:10360000C9184B425941EAE700214023E9E7C04687
:1036100000E0FFFFF0B502268B8905000C0085B0A5
:10362000334207D0230047332360236101236361C2
:1036300005B0F0BD03AB02AAFFF7C2FF029F0190E5
:1036400039002800FFF7FAFA002808D10C22A35EFF
:103650009A05EDD4032293431E43A681E2E780231B
:10366000A28920601343A381039B20616761002B23
:103670000CD028000E23E15E00F020F8002805D0D1
:103680000323A2899A43023B1343A381A389019A8E
:103690001343A381CCE70000002370B5064D04005E
:1036A000080011002B60FDF7CAF8431C03D12B68FA
:1036B000002B00D0236070BDAC020020002370B549
:1036C000064D040008002B60FDF7C7F8431C03D12A
:1036D0002B68002B00D0236070BDC046AC020020D8
:0436E000F8B5C04633
:0436E400F8B5C0462F
:1036E80057656C636F6D6520746F2053544D33328A
:1036F80020776F726C6420210A0D0000FC1E0410F4
:10370800101E04102C1E0410FC1E0410FC1E0410B5
:10371800FC1E0410FC1E0410FC1E04104C1E041099
:10372800FC1E0410FC1E0410FC1E0410FC1E0410D9
:10373800FC1E0410FC1E0410FC1E04109C1E041029
:10374800FC1E0410FC1E0410FC1E0410FC1E0410B9
:10375800FC1E0410FC1E0410FC1E0410FC1E0410A9
:10376800FC1E0410FC1E0410FC1E0410FC1E041099
:10377800FC1E0410FC1E0410FC1E0410BA1E0410CB
:10378800010002000400060008000A000C001000F6
:103798002000400080000001232D302B2000686CA1
:1037A8004C0065666745464700303132333435365C
:1037B8003738394142434445460030313233343595
:0C37C800363738396162636465660000C2
:0837D40058CAFF7F010000004C
:1037DC00FA0000000024F4000200100004000000B5
:1037EC0000001048000010480000104801002000A4
:1037FC000040000000000048000010480000104885
:10380C000F101000004000410400000001000000F7
:10381C000000000003000000700100200C030020D9
:10382C000000000070010020D801002040020020A0
:10383C00000000000000000000000000000000007C
:10384C00000000000000000000000000000000006C
:10385C00000000000000000000000000000000005C
:0C386C0000000000000000000000000050
:0400000510040C11C6
:00000001FF
