:020000041004E6
:1000000000600020FD440410094004101140041059
:1000100000000000000000000000000000000000E0
:100020000000000000000000000000001940041063
:100030000000000000000000234004102D400410C8
:10004000614504106145041061450410B92604108F
:1000500000000000000000000000000061450410E6
:100060006D340410553404100D340410614504102F
:100070006145041061450410000000003B4004107D
:100080005140041061450410954004100000000028
:1000900087400410000000000000000079400410B8
:1000A00061450410A340041061450410614504102B
:1000B0000000000000000000000000000000000040
:1000C00010B5904216D98AB2030C090C0C4659435C
:1000D00080B25343444350431B191A041B0C10189D
:1000E000594180225203002312184B41520DD8026D
:1000F000104310BD4843802252031218520D10467F
:1001000010BDC0468B0707D0013A22D30B780131CE
:10011000037001308B07F7D1830730D0DB4219D051
:100120000138043A08D308C943701B0A43801B0CEA
:1001300003710430043AF6D2D20707D30B88437018
:1001400001D08A78C2701B0A8370704701D00B7887
:1001500043707047043A06D308C903801B0C4380E0
:100160000430043AF8D2D20705D30B88038005D0B7
:100170008B788370704701D00B780370704770B430
:10018000103A03D378C978C0103AFBD2530701D391
:1001900018C918C001D508C908C0D20704D30B88F4
:1001A000038002300231002A01D50B78037070BC45
:1001B0007047C046EFF31482EFF30981154880F3CE
:1001C0001488BFF36F8FF0B543464C4655465E46E4
:1001D0006746F8B4104CEFF30883636006B4BFF3CE
:1001E0004F8F30BFC046C0460B4C646884F308880C
:1001F00082B003BCF8BC9846A146AA46B346BC46AA
:10020000F0BC04BC80F3098881F31488BFF36F8FBE
:100210001047C04600000000040000200023C25C1C
:100220000133002AFBD1581E7047000003B4714609
:10023000490840004900095E49008E4403BC7047EC
:10024000002243088B4274D303098B425FD3030A15
:100250008B4244D3030B8B4228D3030C8B420DD328
:10026000FF22090212BA030C8B4202D312120902B6
:1002700065D0030B8B4219D300E0090AC30B8B42F4
:1002800001D3CB03C01A5241830B8B4201D38B03A2
:10029000C01A5241430B8B4201D34B03C01A524147
:1002A000030B8B4201D30B03C01A5241C30A8B428A
:1002B00001D3CB02C01A5241830A8B4201D38B0275
:1002C000C01A5241430A8B4201D34B02C01A524119
:1002D000030A8B4201D30B02C01A5241CDD2C3098B
:1002E0008B4201D3CB01C01A524183098B4201D307
:1002F0008B01C01A524143098B4201D34B01C01AF2
:10030000524103098B4201D30B01C01A5241C30869
:100310008B4201D3CB00C01A524183088B4201D3D8
:100320008B00C01A524143088B4201D34B00C01AC4
:100330005241411A00D20146524110467047FFE730
:1003400001B5002000F0F0F802BDC0460029F7D04A
:1003500076E7704703460B437FD4002243088B4265
:1003600074D303098B425FD3030A8B4244D3030B3C
:100370008B4228D3030C8B420DD3FF22090212BA01
:10038000030C8B4202D31212090265D0030B8B427D
:1003900019D300E0090AC30B8B4201D3CB03C01A67
:1003A0005241830B8B4201D38B03C01A5241430B42
:1003B0008B4201D34B03C01A5241030B8B4201D332
:1003C0000B03C01A5241C30A8B4201D3CB02C01A9D
:1003D0005241830A8B4201D38B02C01A5241430A15
:1003E0008B4201D34B02C01A5241030A8B4201D304
:1003F0000B02C01A5241CDD2C3098B4201D3CB01AB
:10040000C01A524183098B4201D38B01C01A524159
:1004100043098B4201D34B01C01A524103098B425D
:1004200001D30B01C01A5241C3088B4201D3CB0048
:10043000C01A524183088B4201D38B00C01A52412B
:1004400043088B4201D34B00C01A5241411A00D2DB
:1004500001465241104670475DE0CA0F00D0494244
:10046000031000D34042534000229C4603098B42B4
:100470002DD3030A8B4212D3FC22890112BA030A3C
:100480008B420CD3890192118B4208D389019211BE
:100490008B4204D389013AD0921100E08909C30943
:1004A0008B4201D3CB01C01A524183098B4201D345
:1004B0008B01C01A524143098B4201D34B01C01A30
:1004C000524103098B4201D30B01C01A5241C308A8
:1004D0008B4201D3CB00C01A524183088B4201D317
:1004E0008B00C01A5241D9D243088B4201D34B0032
:1004F000C01A5241411A00D20146634652415B1074
:10050000104601D34042002B00D549427047634654
:100510005B1000D3404201B5002000F005F802BD99
:100520000029F8D016E770477047C0469140030095
:1005300090409C46203A9340194352426346D34030
:1005400019437047844608006146FFE71FB500F075
:10055000F3F9002801D40021C8421FBD10B500F0F6
:100560007BF94042013010BD10B500F0E5F90028DC
:1005700001DB002010BD012010BDC04610B500F009
:10058000DBF9002801DD002010BD012010BDC046B0
:1005900010B500F089F9002801DC002010BD012011
:1005A00010BDC04610B500F07FF9002801DA002028
:1005B00010BD012010BDC0461C2101231B04984220
:1005C00001D3000C10391B0A984201D3000A0839E4
:1005D0001B09984201D30009043902A2105C40189B
:1005E0007047C0460403020201010101000000003F
:1005F00000000000002B11D1002A0FD1002900D1EA
:10060000002802D00021C943080007B4024802A113
:100610004018029003BDC04611FFFFFF03B46846B7
:1006200001B5029800F04CF8019B9E4602B00CBC4C
:100630007047C046F0B5CE469946030C9C4613045D
:1006400047461B0C1D000E0061460404240C80B5B7
:100650000700100C4B436543414360432C0CC0180A
:1006600024188C46A34203D980235B029846C444D5
:10067000494679435643230C2D042D0C89196344B4
:1006800024046019C918C0BCB946B046F0BDC046C4
:100690009E2110B5C905041CFFF784FF002803D173
:1006A000201C00F04FFD10BD9E21201CC90500F04C
:1006B000E5FA00F047FD80231B069C466044F2E704
:1006C000F0B557464E464546DE46E0B504000D00FF
:1006D0009246994683B08B4230D82DD04946504639
:1006E00000F0E6FD29000600200000F0E1FD331ACD
:1006F0009846203B34D49B4653465A469340424644
:100700001F00534693401E00AF423BD8AF4200D17A
:1007100079E05B46A41BBD41002B00DA76E00022A5
:1007200000230092019301235A4693400193012331
:1007300042469340009329E08242CFD90022002311
:10074000009201930C9B002B01D01C605D6000980F
:10075000019903B0F0BCBB46B246A946A046F0BD25
:1007600042469B4620239B1A5246DA4041461300DC
:100770004A468A40170042461F43534693401E0094
:10078000AF42C3D900220023009201934346002BBD
:10079000D8D0FB0772081A4346467B080EE0AB42EE
:1007A00001D1A2420CD8A41A9D41012024196D4107
:1007B0000021013E24184D41002E06D0AB42EED957
:1007C000013E24196D41002EF8D1009801995B4635
:1007D00000196941002B24DB2B005A464446D340C4
:1007E0002A00E2401C005B461500002B2ADB260095
:1007F0009E40330026004746BE403200801A994191
:10080000009001919EE7A342BCD882E74246202394
:1008100000219B1A0022009101920122DA400192EC
:1008200085E7424620239B1A2A0046469A40230029
:10083000F340444613432A00E2401C005B46150087
:10084000002BD4DA42462F002023260097409B1A23
:10085000DE403B003343CDE770B542004E024C0012
:1008600045026D0A120EC30F760A240EC90FFF2A25
:1008700010D0FF2C0CD00120A2420AD1B54208D1E1
:100880008B420FD0002A04D12800431E984100E07B
:10089000012070BD0120FF2CFBD13543F9D14B4025
:1008A0001800F6E70020F4E730B5420044024D029C
:1008B000C30F4800640A120E6D0A000EC90FFF2A0A
:1008C00018D0FF280AD0002A1ED100280AD1002DF6
:1008D00029D0002C2DD14800013830BD002D25D164
:1008E000002A01D1002CF6D08B4219D001205B42A6
:1008F0001843F2E7002C19D1FF28F7D1002D15D1AC
:1009000000208B42F2D1E8E70028EFD08B42EDD1F6
:100910008242EBDC04DBAC42E8D80020AC42DCD203
:1009200058000138D9E7002CD7D0DFE70220404239
:10093000D3E78B42DAD1EEE730B5420044024D02F4
:10094000C30F4800640A120E6D0A000EC90FFF2A79
:1009500017D0FF280AD0002A1BD100280AD1002D69
:100960001DD0002C2DD14800013811E0002D0ED1F2
:10097000002A01D1002CF6D08B420CD1580001384E
:1009800006E0002C03D1FF2805D1002D15D0022050
:1009900030BD002806D101205B421843F8E7002C47
:1009A000F6D0F8E78B42F6D18242F4DCE6DBAC42CB
:1009B000F1D80020AC42EBD2E0E700208B42EAD134
:1009C000E6E78B42E7D1F2E7F0B54F464646D6461A
:1009D0004400C0B546020F1C760A240EC50F002C39
:1009E00000D1DAE0FF2C74D08023F600DB041E4334
:1009F000002399469A467F3C7B025B0A98467B001F
:100A00001B0EFF0F002B74D0FF2B00D18EE042464F
:100A10008021D200C90411437F3B2A00E4184B46D1
:100A20007A408846D2B20A2B75DC4B460020022B56
:100A30000FDD494601238B40A621C9000B4269D135
:100A4000902189000B4200D000E18821194200D09A
:100A5000F5E041460904090C43460800350C36040C
:100A60001B0C360C704369435E435D437618030CE0
:100A70009B19994203D9802149028C4665440004A0
:100A80001904000C09188E01701E86411B0C890E7A
:100A90005B190E439B011E431B016CD423007F3363
:100AA000002B00DCB1E0150071070BD00F202100F6
:100AB0003040042806D00436320103D56E4B1E4068
:100AC0000B008033FE2B00DDBDE0B201520ADBB229
:100AD00048E0002E00D092E008239946063B9A4653
:100AE0007B025B0A98467B00FF241B0EFF0F002B46
:100AF0008AD14246002A64D14946013211438946CF
:100B00000A2908DC7D400120EAB2022991DC1500A7
:100B1000002227E015005346022B00D193E0032B5F
:100B20001AD0012B2CD1002300221BE04346FF34B6
:100B3000002B55D003214B460B4319000A2B00DC38
:100B400092E00F2B00D08CE08022D203164203D01B
:100B50004346134200D17DE08022D2033243520249
:100B6000520AFF23D805ED0710432843E0BCBA46DC
:100B7000B146A846F0BD0123150071081E400E4382
:100B800023008033611C002B41DD720794D00F22BB
:100B90003240042A00D08EE78EE7002E05D10423D0
:100BA0009946033B00249A4626E73000FFF704FDF0
:100BB0007624431F9E400023644299469A46241A95
:100BC0001AE74046FFF7F8FC4B46241A763C0A2BFE
:100BD000A1DC4346053883407D409846EAB224E7CD
:100BE0004A46023313432A007A40D2B20A2B92DCDF
:100BF00049461500002926D09946022019E70C2302
:100C00009946093BFF249A46F6E615002100012289
:100C1000D31A1B2B00DD86E79E3132008E40DA406E
:100C2000731E9E413243530704D00F231340042BFD
:100C300000D00432530110D50123002292E73D0079
:100C40004646824667E7FF2300228BE78022002585
:100C5000D20386E73D001A4383E792010023520A3C
:100C600080E73D00464677E72A0001237A408B4023
:100C70000320D2B2E9E6C046FFFFFFF7F8B54746CA
:100C8000CE46430280B55F0A9B0945004A009C4658
:100C90004B02C40FCE0F2D0E580A120E9909FF2ACF
:100CA0006BD001235E40AB1AB4424BD0002B00DC6A
:100CB000FFE0002A00D188E0FF2D00D1EFE0802284
:100CC000D204114301201B2B08DC08002022D8404D
:100CD000D31A99400B005A1E9341184363461B1ABE
:100CE0009C4663465B0100D4CDE063469F01BF098B
:100CF0003800FFF761FC3B0005388340854200DC8B
:100D0000A2E0B74A2D1A1A4094465A0700D1C3E010
:100D10000F221340042B00D1BEE004239846C444A4
:100D200063465B0100D4B7E0681CFE2D00D0A5E04F
:100D3000FF200022C0051043E4072043C0BCB94691
:100D4000B046F8BD002B00DCEBE1002A46D0FF2DB9
:100D500000D1A4E08022D20411431B2B00DCFBE075
:100D6000052398462B00C4446246D708FF2B00D1C8
:100D700095E07A02520AD8B2DCE72B00FF3B994695
:100D8000002918D101235E40B44200D1CAE04B468D
:100D9000002B2DD0002D00D03CE1FF236446002C19
:100DA00000D15FE15D1E012B00D174E13400FF2B07
:100DB00074D02B0003E1B44200D19CE0002B17D08B
:100DC000002DEAD0070034006CE00029CCD05A1E78
:100DD000012B2BD0FF2B62D0130073E70029C3D067
:100DE0005A1E012B00D11EE1FF2B58D01300B4E78F
:100DF000FE226B1C1A420DD1002D60D06346002BE1
:100E000000D020E1002900D028E180220024FF202A
:100E1000D2038FE763465F1A7B0100D5FEE0002F07
:100E200000D065E700240020002283E76346591ABA
:100E30004B0100D419E18F01BF093800FFF7BCFB5B
:100E40003B000538834001252022401B0130121A47
:100E500019009340C1405A1E934119438C460B1E02
:100E6000E1D05B0700D152E10F2300250B40042B9A
:100E700000D052E701204A0100D492E0C0B263469C
:100E80009A01520A56E763465B0705D00F23624674
:100E90001340042B00D040E72B0065E70700002F2C
:100EA00000D145E78022D2033A435202FF20520A82
:100EB00040E7002B79D1FE226B1C1A42AAD163466F
:100EC000002B00D1F5E0002900D1D1E05F1A80238A
:100ED000DB041F4200D10EE1624601248A1A9446C7
:100EE00000203440002A00D124E701201A42C6D154
:100EF0000023D7083DE7002B17D0002D00D0AFE02E
:100F0000FF236546002D00D1ADE05E1E012B00D110
:100F100089E0FF2BC2D01B2E00DCABE04B1D9C46B2
:100F2000130021E74B46002B70D1FE226B1C1A42A6
:100F30005ED1002D00D0C3E06346002B00D1D0E08D
:100F4000002900D194E00A006244530100D4D8E0A3
:100F500092010120520AEDE608002022D840D31A5F
:100F600099400B005A1E934103439C4463465B0126
:100F700089D50135FF2D00D1DAE6624601231949F2
:100F8000134052080A401A43130094465B0704D0EA
:100F90000F231340042B00D0BFE663465B0100D54E
:100FA000C2E66346DF082B00E3E6531B002D00D1A9
:100FB000F4E680206446C0040443A44634000120C3
:100FC0001B2B09DC20256046D840EB1A65469D4066
:100FD0002B005D1EAB4118430B1A9C46150080E6A2
:100FE000FFFFFFFBFFFFFF7DFE226B1C1342A3D020
:100FF000FF2B00D19CE6614449084A0749D00F22E3
:101000000A40042A45D00A1D9446ADE6002D00D1C1
:1010100076E78DE63400FF2000228BE6634601244C
:10102000CF1A344064E661444B016DD54808444909
:10103000014043072CD00F230340042B28D00B1D65
:101040009C46022390E6002900D12BE78023DB0396
:101050009F4200D226E7984200D323E70124344080
:1010600007001FE734008C467EE60123CF0880E6A8
:1010700000237EE620206546801B854063462800CD
:10108000F340451EA84103439C4615008C446DE780
:101090000223CF086DE60F1B7B0128D5BF01BF09D6
:1010A0003800FFF789FA3B000538834034000125FA
:1010B000CAE6002900D1B5E601240700344058E60D
:1010C0006346002B00D1E9E6002900D1EAE680233F
:1010D000DB039F4200D2E5E6984200D3E2E6070038
:1010E000E0E6002900D19EE60023CF0841E6340067
:1010F0000123FF083DE6002F00D193E60023FF08FF
:1011000037E60023D70834E60123CF0831E68022F2
:101110000B00D20401201340114200D0AEE6CF08EC
:1011200027E6002B00D15FE7561B002D01D13300CD
:10113000E7E680236046DB0418438446EBE6C046BE
:10114000FFFFFF7D41024200C30F490A0020120E3B
:101150007E2A03DD9D2A02DD094A98187047802007
:1011600000040143952A07DC9620821AD1404842A8
:10117000002BF3D10800F1E7963A9140F7E7C0461B
:10118000FFFFFF7F70B5002812D0C317C5185D4060
:10119000C40F2800FFF710FA9E231B1A962B0FDCB2
:1011A000082838D0083885406D026D0AD8B202E0B0
:1011B000002400200025C0052843E407204370BD1B
:1011C000992B14DC421F95402A0015491140550700
:1011D0001CD00F252A40042A18D00431CA0849011E
:1011E00015D59F235202181A550AC0B2E3E705220B
:1011F0002900121AD14002001B3295402A00551EC8
:10120000AA410A43064911405507E2D1CA085202D1
:10121000550AD8B2CFE76D026D0A8E30CBE7C046D3
:10122000FFFFFFFB10B5041E0DD0FFF7C5F99E238D
:101230001B1A962B0CDC082834D008388440640232
:10124000640AD8B201E000200024C005204310BD8C
:10125000992B13DC421F9440144A224061071CD092
:101260000F212140042918D00432D408520115D589
:101270009F236402181A640AC0B2E6E70200210044
:101280001B3291400A00511E8A410521091ACC40A7
:101290001443064A22406107E2D1D4086402640A7A
:1012A000D8B2D2E76402640A8E30CEE7FFFFFFFBBC
:1012B00010B5002903D1FFF77FF9203002E00800C4
:1012C000FFF77AF910BDC04680B500AF084A802309
:1012D0005B000021D154064A0223FF330021D15480
:1012E000034A81235B000021D154C046BD4680BD26
:1012F0009401002080B582B000AF0200FB1D1A707F
:10130000204A81235B00D35C002B36D11D4A802309
:101310005B00D35C19001B4BFA1D12785A54194A12
:1013200080235B00D35C0133D9B2164A80235B0073
:10133000D154144A80235B00D15C124A80235B00A5
:10134000D154104A80235B00D35C01330E4A134012
:1013500003D5013B0D4A134301331900094A022307
:10136000FF33D35CCB1A5A425341DBB21900054A12
:1013700081235B00D154012300E000231800BD4607
:1013800002B080BD94010020FF00008000FFFFFF3D
:1013900080B582B000AFFB1D00221A70254A802361
:1013A0005B00D25C23490223FF33CB5C9A4205D118
:1013B000204A81235B00D35C002B34D01D4A0223DA
:1013C000FF33D35C1900FB1D1A4A525C1A70194A8C
:1013D0000223FF33D35C0133D9B2164A0223FF3311
:1013E000D154144A0223FF33D15C124A0223FF3343
:1013F000D154104A80235B00D35C01330E4A134062
:1014000003D5013B0D4A134301331900094A022356
:10141000FF33D35CCB1A5A425341DBB21900054A61
:1014200081235B00D154FB1D1B781800BD4602B020
:1014300080BDC04694010020FF00008000FFFFFF38
:1014400090B589B000AF08243B19180018231A0082
:10145000002123F0FBFB3B00180008231A000021A9
:1014600023F0F4FB3B1905221A603B19802252023B
:101470005A603B1904221A613B19180008F0F6FA69
:10148000031E01D000230FE03B0000221A603B0046
:1014900000225A603B001021180008F031FC031EA6
:1014A00001D0002300E001231800BD4609B090BD23
:1014B00080B586B000AF3B00180018231A00002149
:1014C00023F0C4FB3B0002221A603B008022520141
:1014D0005A613B00180008F0A9FD031E01D000234B
:1014E00000E001231800BD4606B080BD80B582B083
:1014F00000AF0F4B1B78002B01D0012313E003F04A
:10150000C5F901237B60FFF7D3FF031E01D1002340
:101510007B60FFF795FF031E01D100237B60044B26
:1015200001221A707B681800BD4602B080BDC0461B
:101530009702002080B500AF72B6C046C046FDE7F6
:1015400080B500AF72B6C046C046FDE780B584B036
:1015500000AF78600B4B00221A700B4B7A681A6050
:1015600002F026F80C217B1801221A707B18002249
:101570005A807B18186800F009F801231800BD464E
:1015800004B080BD980200209C02002080B582B08B
:1015900000AF3B1D1860054B1A683B1D1968100011
:1015A00000F0FFFBC046BD4602B080BD9C0200209B
:1015B000F0B587B000AF1723FB1800221A700C2576
:1015C0007B1900221A707B1900225A801626BC193A
:1015D00002F0D8F80300237031007B181B78252B0C
:1015E0000BD01723FB1801221A707B1906221A70E0
:1015F0007B181B789AB27B195A801C4B1B78012BE5
:1016000010D102F05BF9031E0CD0194B1A683B1D78
:10161000072119703B1D002159803B1D19681000DE
:1016200000F0BFFB1723FB181B78002B07D0104BD3
:101630001A680C23FB181968100000F0B2FB102187
:101640007B180C22BA1812681A607A1800231188C5
:101650000904090C1B0C1B040B43528812041B04C5
:101660001B0C13431800BD4607B0F0BDA0020020BC
:101670009C020020B0B59EB000AF3B1D18607723E0
:10168000FB1800221A707623FB18DB4A12781A70B6
:10169000D94B1B780F2B00D9EEE29A00D74BD31809
:1016A0001B689F463B1D1B785BB2012B00D0E5E217
:1016B0007623FB1801221A707723FB1801221A7077
:1016C000DCE23B1D1B785BB2022B05D1CC4B002228
:1016D0001A70002003F010F83B1D1B785BB2062B3C
:1016E00000D0CDE23B1D5B88052B45D89A00C54B49
:1016F000D3181B689F46C44B180000F017FB7623D5
:10170000FB1802221A707723FB1801221A7034E0AA
:10171000BE4B180000F00AFB7623FB1803221A7058
:101720007723FB1801221A7027E0B94B180000F04C
:10173000FDFA7623FB1805221A707723FB18012285
:101740001A701AE0B34B180000F0F0FA7623FB1879
:1017500007221A707723FB1801221A700DE0AE4B96
:10176000180000F0E3FA7623FB1808221A7077239A
:10177000FB1801221A7000E0C04681E23B1D1B7875
:101780005BB2062B00D07DE2A44B180000F0CEFA2D
:101790007623FB1801221A707723FB1801221A7096
:1017A00070E23B1D1B785BB2062B00D06CE23B1D48
:1017B0005B88DAB29A4B1A709A4B180000F0B6FAAE
:1017C0007623FB1804221A707723FB1801221A7063
:1017D0005AE23B1D1B785BB2062B00D056E230214B
:1017E0007B180B221A708E4B1B781B029AB23B1D82
:1017F0005B88D3189AB27B185A807B18186801F05E
:1018000067F9894B180000F091FA7623FB18012242
:101810001A707723FB1801221A7037E23B1D1B78E0
:101820005BB2022B00D033E2754B01221A707F4B62
:1018300000221A6068243B1920221A803B191B8859
:101840001B0A9BB2DBB2180001F0DEFF3B191B88BC
:10185000DBB2180001F0D8FF7623FB1806221A70BD
:101860007723FB1801221A7012E23B1D1B785BB232
:10187000072B00D00EE26A217B1820221A807B18E9
:101880001A886A4B1B68D31A552B34D900233B673F
:101890002DE024203B18664A1168196092889A80CE
:1018A00004003B191B78180001F0AEFF3B195B7870
:1018B000180001F0A9FF3B199B78180001F0A4FF64
:1018C0003B19DB78180001F09FFF3B191B791800CA
:1018D00001F09AFF3B195B79180001F095FF534B1B
:1018E0001B685A1C514B1A603B6F01333B673B6FBF
:1018F000542BCEDDCEE10023FB662DE01C203B18EF
:101900004B4A1168196092889A8004003B191B7831
:10191000180001F079FF3B195B78180001F074FFA3
:101920003B199B78180001F06FFF3B19DB7818001A
:1019300001F06AFF3B191B79180001F065FF3B19A4
:101940005B79180001F060FF384B1B685A1C374B5D
:101950001A60FB6E0133FB666A23FB181A88334B4F
:101960001B68D21AFB6E9A42C8D8032001F04CFFC4
:101970002E4B00221A60224B00221A707623FB188D
:1019800001221A707723FB1801221A70294B1800C4
:1019900000F0CCF97EE13B1D1B785BB2062B00D03A
:1019A0007AE1254B180000F0C1F97623FB180122DB
:1019B0001A707723FB1801221A706DE13B1D1B780A
:1019C0005BB2022B00D069E11C4B180000F0AEF9AD
:1019D0001B4B180006231A00002123F037F9762349
:1019E000FB1809221A707723FB1801221A70154B75
:1019F00000221A7052E1C04698020020505C061086
:101A0000A0020020905C0610845A06109C5A061012
:101A1000B45A0610CC5A0610E05A0610FC5A0610AA
:101A2000A10200200C5B0610285B0610A402002017
:101A3000F05B0610405B06104C5B0610605B061006
:101A4000A8020020AE0200203B1D1B785BB2062BD3
:101A500000D025E13B1D5B880D2B0CD1A94B180054
:101A600000F064F97623FB1801221A707723FB1823
:101A700001221A7014E1A44B1B78B42B0FD9A34B8D
:101A8000180000F053F97623FB180F221A70772301
:101A9000FB1801221A700D2001F0B6FE00E13B1D7B
:101AA0005B88DAB29A4B1A703B1D5B881A00994921
:101AB00034243B19180022F0ADFF3B19180000F048
:101AC00035F97623FB180A221A707723FB180122B6
:101AD0001A70E5E03B1D1B785BB2062B00D0E1E0FD
:101AE0003B1D5B88DAB28A4B5A703B1D5B881A003B
:101AF000894934243B19180022F08CFF3B19180047
:101B000000F014F97623FB180B221A707723FB18C8
:101B100001221A70C6E03B1D1B785BB2062B00D079
:101B2000C2E03B1D5B88DAB2794B9A703B1D5B8843
:101B3000DB101F2213401C003B1D5B881A0003238F
:101B40001A4013001B019B1A74493425781922008E
:101B500022F060FF7B19180000F0E8F87623FB18EC
:101B60000C221A707723FB1801221A709CE03B1D8F
:101B70001B785BB2062B00D098E03B1D5B88DAB285
:101B8000634BDA703B1D5B88DB101F2213401C0087
:101B90003B1D5B881A0003231A4013001B019B1A8C
:101BA0005E4934257819220022F034FF7B19180091
:101BB00000F0BCF87623FB180D221A707723FB186F
:101BC00001221A7072E03B1D1B785BB2062B00D01D
:101BD0006EE03B1D5B88DAB24D4B1A713B1D5B8892
:101BE0001A004F4934243B19180022F013FF3B1907
:101BF000180000F09BF87623FB180E221A7077234A
:101C0000FB1801221A7053E03B1D1B785BB2062BB8
:101C100050D13B1D5B88DAB23D4B5A713B1D5B884E
:101C20001A00404934243B19180022F0F3FE3B19F6
:101C3000180000F07BF87623FB1809221A7077232E
:101C4000FB1801221A70304B1B780133DAB22E4B8D
:101C50001A702FE03B1D1B785BB2062B2CD13B1D6D
:101C60005B880D2B28D17623FB1801221A7077236D
:101C7000FB1801221A701FE0C0461EE0C0461CE09F
:101C8000C0461AE0C04618E0C04616E0C04614E060
:101C9000C04612E0C04610E0C0460EE0C0460CE070
:101CA000C0460AE0C04608E0C04606E0C04604E080
:101CB000C04602E0C04600E0C0467723FB181B7810
:101CC000002B1AD010217B1800221A607B180322E7
:101CD0001A707B181868FFF7CDFC134B7622BA18E0
:101CE00012781A700C217B1800221A607B180222CD
:101CF0001A707B181868FFF7BDFC01231800BD4659
:101D00001EB0B0BD745B0610AE020020885B0610EA
:101D1000A8020020A85B0610B45B0610C05B06108A
:101D2000D45B0610E45B06109802002080B584B0F6
:101D300000AF78607B681800FEF770FA0300BB60A4
:101D40000023FB6009E0FB687A68D3181B78180051
:101D500001F05AFDFB680133FB60FA68BB689A42E8
:101D6000F1DB01231800BD4604B080BD80B582B010
:101D700000AF0C2022F064FC03007B607B68002B2A
:101D800001D1002309E07B6800221A607B680022F1
:101D90005A607B6800221A817B681800BD4602B039
:101DA00080BD80B584B000AF78603B0019607B686F
:101DB000002B01D1002326E0082022F041FC030083
:101DC000FB60FB68002B01D100231CE0FB683A009C
:101DD00012681A60FB6800225A607B685B68002BFF
:101DE00004D07B685B68FA685A6002E07B68FA6836
:101DF0001A607B68FA685A607B681B8901339AB263
:101E00007B681A8101231800BD4604B080BD90B5DF
:101E100089B000AF78607B68002B07D118217B1850
:101E2000FF221A707B1800225A8030E07B681B6802
:101E3000002B0AD17B6800225A6018217B180022EF
:101E40001A707B1800225A8021E07B681B68FB61B6
:101E5000FB695A687B681A607B681B68002B02D19B
:101E60007B6800225A6014243B19FA6912681A60D0
:101E7000FB69180022F0EEFB7B681B89013B9AB2DC
:101E80007B681A811823FB183A1912681A60182304
:101E9000FA18002311880904090C1B0C1B040B43BE
:101EA000528812041B041B0C13431800BD4609B0D2
:101EB00090BD80B582B000AF78607B681B895A1EE8
:101EC0009341DBB21800BD4602B080BD80B500AFC3
:101ED000054B1B78002B01D1002301E0034B1B783D
:101EE0001800BD4680BDC046B402002000F80610B0
:101EF00080B500AF054B1B78002B01D1002301E01A
:101F0000034B1B781800BD4680BDC046B4020020BC
:101F100001F8061080B584B000AF3B00186059602E
:101F2000244B1B78002B01D100233EE0224B1B8861
:101F300001339AB2204B1A803B001B781A003B00F9
:101F40005B781B0213403A009278120413403A0067
:101F5000D27812061340FB603B001B791A003B004D
:101F60005B791B021340BB60134B1B88134A9446DA
:101F70006344DB001900FB681A00002002F07CFEBD
:101F8000031E01D0002310E00B4B1B880B4A944624
:101F90006344DB001900BB681A00002002F06CFEED
:101FA000031E01D0002300E001231800BD4604B049
:101FB00080BDC046B4020020B202002000DD000255
:101FC00080B500AF054B1B78002B01D1002301E049
:101FD000034B1B881800BD4680BDC046B4020020DC
:101FE000B202002090B587B000AF78600A00BB1C39
:101FF0001A8010243B19180006231A00002122F031
:1020000025FE2E4B1B78002B08D17A683B19100057
:10201000190006231A0022F08EFE4AE0284B1B8886
:10202000BA1C12889A423BD8BB1C1B88254A94468E
:102030006344DB001A7810217B181A70BB1C1B88C4
:10204000204A94466344DB0001331A787B185A70A7
:10205000BB1C1B881B4A94466344DB0002331A787E
:102060007B189A70BB1C1B88164A94466344DB009D
:1020700003331A787B18DA70BB1C1B88114A94460C
:102080006344DB0004331A787B181A71BB1C1B886D
:102090000C4A94466344DB0005331A787B185A7166
:1020A0007A681023FB181000190006231A0022F08A
:1020B00042FE7868BD4607B090BDC046B40200201D
:1020C000B202002000DD000280B500AF054B1B7896
:1020D000002B01D1002301E0034B1B881800BD46F3
:1020E00080BDC046B4020020B002002090B587B089
:1020F00000AF78600A00BB1C1A8010243B1918003E
:1021000006231A00002122F0A1FD2E4B1B78002B84
:1021100008D17A683B191000190006231A0022F032
:102120000AFE4AE0284B1B88BA1C12889A423BD808
:10213000BB1C1B88254A94466344DB001A78102197
:102140007B181A70BB1C1B88204A94466344DB0032
:1021500001331A787B185A70BB1C1B881B4A9446A3
:102160006344DB0002331A787B189A70BB1C1B880F
:10217000164A94466344DB0003331A787B18DA70FE
:10218000BB1C1B88114A94466344DB0004331A7855
:102190007B181A71BB1C1B880C4A94466344DB00F5
:1021A00005331A787B185A717A681023FB181000CF
:1021B000190006231A0022F0BEFD7868BD4607B05C
:1021C00090BDC046B4020020B202002000DE000232
:1021D000B0B500AF174B1B78002B01D1002325E0D1
:1021E0009023DB050121180003F045F8031E01D1FF
:1021F000042400E00024104B2021180003F03BF8D9
:10220000031E01D1022300E0002323435CB280239C
:10221000DB01094A1900100003F02DF803005A42AF
:102220005341DBB25BB223435BB2DBB21800BD4665
:10223000B0BDC046B60200200000104880B582B094
:1022400000AF78600F4B00221A70002002F0DEF918
:10225000012002F0DBF9022002F0D8F90021002071
:1022600002F066FA0021012002F062FA0021022049
:1022700002F05EFA044B7A681A6000231800BD462B
:1022800002B080BDB5020020B8020020F0B585B0D4
:1022900000AF0F26BB1900221A703B1D00221A70D6
:1022A0003B1D00225A800E257C19FFF791FF030089
:1022B0002370224B1B7829007A1812789A421AD080
:1022C0001E4B1A787B181B785340DBB21AB27B186E
:1022D0001B781BB21B021BB213431BB29AB23B1DED
:1022E0005A803B1D04221A70144B7A1812781A7007
:1022F000BB1901221A700F23FB181B78002B06D084
:102300000F4B1A683B1D19681000FFF74AFD0821A2
:102310007B183A1D12681A607A1800231188090484
:10232000090C1B0C1B040B43528812041B041B0CCE
:1023300013431800BD4605B0F0BDC046B5020020ED
:10234000B802002080B582B000AF3B1D18603B1D75
:102350001B785BB2042B1ED13B1D5B881A00012346
:10236000134002D0002002F0C7F93B1D5B885B08D8
:102370009BB21A000123134002D0012002F0BCF9E5
:102380003B1D5B889B089BB21A000123134002D0BF
:10239000022002F0B1F901231800BD4602B080BD51
:1023A000F0B585B002AF78603E4A8223FF33D25C3D
:1023B0003C49C0235B00CB5C9A4204D1394AC1231B
:1023C0005B000021D154374AC0235B00D35C01334A
:1023D000D9B2344AC0235B00D154324AC0235B00D7
:1023E000D35C1F221340D9B22E4AC0235B00D154C4
:1023F0002D4AC0235B00D25C2B498223FF33CB5C88
:102400009A424AD0274AC0235B00D35C1900254A70
:102410000B005B005B189B009B5CDB189CB2214AA5
:10242000C0235B00D35C19001E4A0B005B005B18E5
:102430009B00D31801331B781D001A4AC0235B0090
:10244000D35C1900174A0B005B005B189B00D31884
:1024500002331B781E00134AC0235B00D35C1A00B2
:1024600013005B009B189B0008331A000D4BD21819
:102470000C49C0235B00CB5C18000A4903005B00D9
:102480001B189B00CB1802331B780848019300925D
:1024900033002A00210003F033F8C046BD4603B0E4
:1024A000F0BDC0469404002010030020BC020020B0
:1024B000F0B587B002AF78607D4AC0235B00D35C83
:1024C00019007B4A0B005B005B189B00D31802339A
:1024D0001B78022B21D1764AC0235B00D35C190004
:1024E000734A0B005B005B189B00D31808331B7802
:1024F0001B029AB26E49C0235B00CB5C18006C498A
:1025000003005B001B189B00CB1809331B781900D4
:102510000E23FB1852181A8034E0654AC0235B0072
:10252000D35C1900624A0B005B005B189B00D31858
:1025300002331B78012B21D15D4AC0235B00D35CA1
:1025400019005B4A0B005B005B189B00D318083333
:102550001B781800564AC0235B00D35C1900544A0C
:102560000B005B005B189B00D31801331B781B0228
:102570009AB20E23FB1882181A8003E00E23FB1870
:1025800000221A8008203B1805221A703B180E22E0
:10259000BA1812885A80464AC0235B00D35C1900DF
:1025A000434A0B005B005B189B00D31804331A6886
:1025B0003B18186890473E4A8223FF33D25C3C495F
:1025C000C0235B00CB5C9A4204D1394AC1235B0033
:1025D0000021D154364AC0235B00D35C0133D9B209
:1025E000334AC0235B00D154314AC0235B00D35C23
:1025F0001F221340D9B22E4AC0235B00D1542C4A6B
:10260000C0235B00D25C2A498223FF33CB5C9A4211
:102610004AD0274AC0235B00D35C1900244A0B0030
:102620005B005B189B009B5CDB189CB2204AC023BC
:102630005B00D35C19001E4A0B005B005B189B001B
:10264000D31801331B781D00194AC0235B00D35CEB
:102650001900174A0B005B005B189B00D31802336C
:102660001B781E00124AC0235B00D35C1A001300C3
:102670005B009B189B0008331A000D4BD2180C49C5
:10268000C0235B00CB5C1800094903005B001B18EA
:102690009B00CB1802331B7806480193009233004D
:1026A0002A00210002F0CEFFC046BD4605B0F0BDB5
:1026B00010030020BC02002080B500AF094B1B684E
:1026C0009A69E023DB00134004D0064B180003F0A6
:1026D00071F803E0034B180003F052F8C046BD4602
:1026E00080BDC046BC02002080B500AF384B1B78CF
:1026F000002B01D0012367E0364B8222D2051A60FD
:10270000344B354A5A60334B00229A60314B0122D8
:10271000DA60304B00221A612E4B00225A612D4B99
:1027200000229A612B4B0022DA612A4B00221A62A6
:10273000284B180002F03EFE031E01D0002343E0A8
:10274000244B0021180004F00DFD031E01D00023CE
:102750003AE0204B0021180004F050FD031E01D088
:10276000002331E01D4AC1235B000021D1541B4AE4
:102770008223FF330021D154184AC0235B0000217B
:10278000D154174AC1235B000021D154144A82233B
:10279000FF330021D154124AC0235B000021D154E1
:1027A0000B4B01221A700B4B1B681A68094B1B68F4
:1027B00004210A431A60074B1B681A68054B1B6803
:1027C00002210A431A6001231800BD4680BDC0469D
:1027D00018060020BC0200205B3D300010030020E2
:1027E00094040020F0B589B002AF3A60FB1D021CD2
:1027F0001A70BB1D0A1C1A706B4B1B78002B01D181
:102800000123CDE01723FB1800221A70674AC12369
:102810005B00D35C002B01D00123C1E008203B18F2
:10282000FA1D12781A703B18BA1D12785A703B18AC
:1028300001229A703B183A685A605C4A8223FF333F
:10284000D35C1900594A0B005B005B189B003918D8
:10285000D3180A0013CA13C3544A8223FF33D35C2C
:102860000133D9B2514A8223FF33D1544F4A8223D4
:10287000FF33D35C1F221340D9B24C4A8223FF336B
:10288000D1544A4A8223FF33D25C4849C0235B00BB
:10289000CB5C9A4204D1454AC1235B000121D1544B
:1028A000424AC0235B00D35C0133414A134004D544
:1028B000013B202252421343013319003B4A822339
:1028C000FF33D35C994268D1384AC0235B00D35CA4
:1028D0001900364A0B005B005B189B009B5CDB1801
:1028E0009DB2324AC0235B00D35C19002F4A0B0013
:1028F0005B005B189B00D31801331B781E002B4A2A
:10290000C0235B00D35C1900284A0B005B005B18F6
:102910009B00D31802331B789C46244AC0235B00DB
:10292000D35C1A0013005B009B189B0008331A004D
:102930001E4BD2181D49C0235B00CB5C18001B49FD
:1029400003005B001B189B00CB1802331B78172178
:102950007C1818480193009263463200290002F067
:1029600071FE0300237017217B181B78002B14D0F5
:102970000E4A8223FF33D35C013BD9B20B4A822338
:10298000FF33D154094A8223FF33D35C1F22134003
:10299000D9B2064A8223FF33D1541723FB181B7880
:1029A0001800BD4607B0F0BD180600201003002037
:1029B0001F000080BC02002090B585B000AF786099
:1029C0000F243B1900221A707E2000F0C1FE3B1933
:1029D0003A191278013A1A70FF2000F0B9FE3B193B
:1029E0003A19127806321A70062000F0B1FE002360
:1029F000BB6013E0BB687A68D31819780F22BB1844
:102A0000BA1812788A181A70BB687A68D3181B78BB
:102A1000180000F09DFEBB680133BB60BB68032B50
:102A2000E8DD0F23FB181B78180000F091FEEF2063
:102A300000F08EFEC046BD4605B090BD80B582B0A8
:102A400000AF78601B4B7A681A6000F081FC1A4B6B
:102A500001221A70FFF74CFA030064211800FDF7F9
:102A6000EFFB0300DBB21800FEF78CFB021C134BDC
:102A70001A60FFF72BFA030064211800FDF7E0FB52
:102A80000300DBB21800FEF77DFB021C0C4B1A6042
:102A900000F0AAFC02000B4B1A6000F0A5FC02003B
:102AA000094B1A60094B00221A7001231800BD4619
:102AB00002B080BD1C060020200600202406002055
:102AC000280600202C0600203006002034060020B6
:102AD00080B582B000AF3B1D1860054B1A683B1DE6
:102AE00019681000FFF75DF9C046BD4602B080BD11
:102AF0001C06002090B585B000AF3B1D00221A7067
:102B00003B1D00225A8000F06FFC0300FB60684B05
:102B10001B78002B22D0674B1B68FA68D31A180069
:102B2000FEF780FB041C644B1B686449181CFDF70E
:102B30004BFF031C191C201CFDF734FD031E3DD068
:102B40003B1D09221A703B1D00225A80594BFA681E
:102B50001A603B1D1868FFF7BBFF2FE0564B1B6840
:102B60000021181CFDF7FAFC031E27D1514B1B68EE
:102B7000FA68D31A1800FEF755FB041C4E4B1B686D
:102B8000191CFE208005FEF779F8031C4B49181C20
:102B9000FDF71AFF031C191C201CFDF703FD031E83
:102BA0000CD03B1D09221A703B1D01225A80414B5B
:102BB000FA681A603B1D1868FFF78AFF404B1B68D4
:102BC000FA68D31A3F4A93420DD93F4B1B78002B2A
:102BD00009D13B1D01221A703B1D00225A803B1D6A
:102BE0001868FFF775FFFFF771F9030064211800FB
:102BF000FDF726FB0300DBB21800FEF7C3FA021C48
:102C0000324B1B68191C101CFDF7A8FC031E14D0C6
:102C1000FFF76EF9030064211800FDF711FB0300B4
:102C2000DBB21800FEF7AEFA021C234B1B68191C1E
:102C3000101CFDF793FC031E23D13B1D0A221A70C2
:102C4000FFF744F9030064211800FDF7F9FA0300C7
:102C5000DBB21800FEF796FA021C1C4B1B68012120
:102C60000C1C191C101CFDF779FC031E01D100235C
:102C70001C1CE3B21A003B1D5A803B1D1868FFF76D
:102C800027FF08217B183A1D12681A607A18002362
:102C900011880904090C1B0C1B040B4352881204F5
:102CA0001B041B0C13431800BD4605B090BDC04665
:102CB000200600202C06002024060020007C12495B
:102CC00030060020B70B0000340600202806002044
:102CD00090B58BB000AF3B1D18603B1D1B785BB2FD
:102CE000012B0AD124217B18534A1A607B18180043
:102CF000FFF762FE514B01221A703B1D1B785BB23D
:102D0000092B19D13B1D5B88DAB24D4B1A704C4B25
:102D10001B78002B08D020217B180D221A607B180D
:102D20001800FFF749FE07E01C217B180E221A60ED
:102D30007B181800FFF740FE3B1D1B785BB20B2B86
:102D400032D13B1D186800F0B5F93B1D5B88002BA4
:102D50000BD13C4B00221A6018217B180A221A6002
:102D60007B181800FFF728FE1EE014217B180B22A9
:102D70001A607B181800FFF71FFE10217B180F2226
:102D80001A707B1800225A703B1D5B881B0A9BB28D
:102D9000DAB27B189A703B1D5B88DAB27B18DA7066
:102DA0007B181800FFF708FE3B1D1B785BB20A2B4F
:102DB0003DD1FFF79DF8030064211800FDF740FAAC
:102DC0000300DBB21800FEF7DDF9021C1D4B1A6090
:102DD000FFF77CF8030064211800FDF731FA0300C7
:102DE000DBB21800FEF7CEF9021C174B1A603B1D30
:102DF0005B88002B1BD10C243B1906221A703B194F
:102E000000225A703B1900229A700F4B1B680F4921
:102E1000181CFDF7D9FD031C181CFDF739FC030035
:102E2000DAB23B19DA703B191800FFF7C5FD012330
:102E30001800BD460BB090BD08000001340600200C
:102E40002006002024060020280600200000F04173
:102E5000F0B58DB000AF844B1B78FF2B00D1FFE0A5
:102E6000824B1B78FF2B00D1FAE0814B1B78FF2BA4
:102E700000D1F5E07F4B1B78FF2B00D1F0E07E4BBB
:102E80001B78002B67D0784B1A7824257B191A7091
:102E9000764B1A787B195A70784B1B78002B1DD013
:102EA000734B1B785BB2DB005CB2724B1B780F215B
:102EB0001800FDF7C5F90300DBB25BB223405BB23B
:102EC000DAB27B199A707B190022DA707B19002222
:102ED0001A716A4B1A787B195A7129E0FFF770F85A
:102EE0000300013B9AB21C26BB1911001800FFF722
:102EF00079F824257B1900229A705D4B1B785BB210
:102F0000DB005CB25B4B1B780F211800FDF798F9D2
:102F10000300DBB25BB223405BB2DAB27B19DA703A
:102F2000BB191A797B191A71BB195A797B195A7115
:102F30002423FB1818685968FEF7ECFF4A4BFF2260
:102F40001A704A4BFF221A70494BFF221A70494BE4
:102F5000FF221A7085E00023FB6278E0FB6A9AB2D8
:102F600014243B1911001800FFF7C0F821007B184A
:102F70001A783D4B1B789A4266D17B185A783B4BA6
:102F80001B789A4260D17B189B78DB08DAB2384B09
:102F90001B789A4229D17B189B781A0003231A4088
:102FA00013001B019B1A334A127893421DD1102043
:102FB0003B180B221A707B181B791B029BB27A18E4
:102FC00052799B189AB23B185A803B181868FFF741
:102FD0007FFD254BFF221A70244BFF221A70244BD1
:102FE000FF221A70234BFF221A7014217B18DB7802
:102FF000DB08DAB21E4B1B789A4225D17B18DB78AE
:103000001A0003231A4013001B019B1A194A127855
:10301000934219D108203B180B221A703B1800224A
:103020005A807B1800229A703B181868FFF750FDF1
:103030000D4BFF221A700D4BFF221A700C4BFF2212
:103040001A700C4BFF221A70FB6A0133FB62FFF708
:103050003BF803001A00FB6A934200DA7EE700E0C7
:10306000C046BD460DB0F0BD400600204106002020
:1030700042060020430600204406002045060020AA
:1030800080B582B000AF7860084B7A681A60FFF7AD
:103090002BFB00F05DF900F0A7F90200044B1A6069
:1030A00001231800BD4602B080BDC046380600208E
:1030B0003C06002080B582B000AF3B1D1860054B78
:1030C0001A683B1D19681000FEF76BFEC046BD462E
:1030D00002B080BD3806002080B584B000AF3B1D33
:1030E00000221A703B1D00225A8000F07DF9030077
:1030F000FB60154B1B68FA68D31A144A93420CD92B
:103100003B1D09221A703B1D00225A800E4BFA68A3
:103110001A603B1D1868FFF7CDFF08217B183A1D88
:1031200012681A607A18002311880904090C1B0C14
:103130001B040B43528812041B041B0C134318007E
:10314000BD4604B080BDC0463C0600205FEA0000DA
:1031500080B582B000AF3B1D18603B1D1B785BB291
:103160000B2B1FD1734B1A0004216F20FFF73AFB82
:10317000704B1A0003216F20FFF734FB6D4B1A00D0
:1031800002216F20FFF72EFB6A4B1A0001216F20EE
:10319000FFF728FB684B01221A703B1D5B88DAB2EF
:1031A000664B1A703B1D1B785BB2092B17D1614B24
:1031B0001A0004216F20FFF715FB5E4B1A00032154
:1031C0006F20FFF70FFB5B4B1A0002216F20FFF708
:1031D00009FB584B1A0001216F20FFF703FB3B1D31
:1031E0001B785BB2052B00D09EE03B1D5B881B0A61
:1031F0009BB2042B0BD000DD96E0032B20D000DD2A
:1032000092E0012B00D176E0022B32D08CE03B1D06
:103210005B881B11DBB201221340DBB21A1C920047
:10322000D318DB18DAB23B1D5B88DBB20F210B40F1
:10323000DBB2D318DAB2424B1A70FFF709FE73E023
:103240003B1D5B881B11DBB203221340DBB21A1C4F
:103250009200D318DB18DAB23B1D5B88DBB20F217A
:103260000B40DBB2D318DAB2364B1A70FFF7F0FD21
:103270005AE03B1D5B881A004023134022D03B1DBF
:103280005B885B11DBB201221340DBB20C2253439B
:10329000DAB23B1D5B881B11DBB201210B40DBB2B4
:1032A000191C8900CB18DB18DBB2D318DAB23B1D2E
:1032B0005B88DBB20F210B40DBB2D318DAB2224BB2
:1032C0001A7015E03B1D5B881B11DBB20322134013
:1032D000DBB21A1C9200D318DB18DAB23B1D5B88F4
:1032E000DBB20F210B40DBB2D318DAB2164B1A70E7
:1032F000FFF7AEFD18E03B1D5B881B11DBB203221C
:103300001340DBB21A1C9200D318DB18DAB23B1D53
:103310005B88DBB20F210B40DBB2D318DAB20B4B68
:103320001A70FFF795FDC04601231800BD4602B094
:1033300080BDC046B530041044060020450600207C
:1033400040060020410600204206002043060020DF
:1033500080B584B000AF204B1B78002B01D0012337
:1033600036E03B00180010231A00002121F06EFC0B
:103370001A4B1B4A1A60194B20225A60174B002225
:103380009A60164B174ADA60144B00221A61134BED
:1033900000229A61114B180006F05BFF031E01D05A
:1033A000FEF7CEF83B00802252011A603A000B4B28
:1033B0001100180007F0C6F8031E01D0FEF7C0F890
:1033C000064B180006F08AFF034B01221A700123F6
:1033D0001800BD4604B080BD8806002048060020C5
:1033E00000200040E703000080B500AF054B1B78CC
:1033F000002B01D1002301E0034B1B681800BD46E0
:1034000080BDC046880600208406002080B500AF3D
:10341000054B1B685A1C044B1A60044B180006F03D
:10342000A3FFC046BD4680BD84060020480600209C
:1034300080B582B000AF78607B68DB698022134082
:10344000802B01D1012300E000231800BD4602B00B
:1034500080BD000080B500AF034B180007F0C4FA30
:10346000C046BD4680BDC0468C06002080B582B0F7
:1034700000AF494B1B68DB69202213403DD0474B0E
:10348000474A9B5C01225340DBB2002B2BD0424BBE
:103490001B68596A414B434A9B5A1A00C9B23F4BB9
:1034A00099543E4B3F4A9B5A013399B23B4B3D4A9C
:1034B00099523A4B3B4A9B5A3B491800FCF746FF4E
:1034C0000B0099B2354B374A9952344A81239B00FD
:1034D000D25A324B33495B5A9A420ED12F4B304A63
:1034E0000121995409E02C4B1B685A6AFB1D1A7084
:1034F000FB1D1A78FB1D01321A70274B1B68DB6914
:10350000402213403DD0294B264A9A5A274981230D
:103510009B00CB5A9A4204D1244B214A9B5C002B3E
:103520002BD0224A81239B00D35A1A001F4B9A5C4E
:10353000194B1B689A621D4A81239B00D35A0133A1
:1035400099B21A4A81239B00D152184A81239B00C9
:10355000D35A15491800FCF7F9FE0B0099B2134A2B
:1035600081239B00D152114B0D4A9B5C002B08D04C
:103570000A4B0B4A0021995403E0074B1B68402279
:103580001A62022001F0B8F8034B180007F02CFA79
:10359000C046BD4602B080BD580700202C0A00205E
:1035A00006020000020200000102000024080020C0
:1035B00080B500AF5D4B1B78012B01D10023B1E03A
:1035C0005A4B01221A705A4B5A4A1A60584B96228B
:1035D00092015A60564B00229A60554B0022DA60E5
:1035E000534B00221A61524B0C225A61504B00225D
:1035F0009A614F4B00221A624D4B00225A624C4B8B
:1036000000229A624A4B802292055A66484B180063
:1036100007F082F9031E01D0FDF792FF444B002111
:10362000180008F003FA031E01D0FDF789FF404B94
:103630000021180008F03AFA031E01D0FDF780FFC0
:103640003D4B3E4A1A603C4B3C4A1A603A4B96222C
:1036500092015A60384B00229A60374B0022DA60A0
:10366000354B00221A61344B0C225A61324B002236
:103670009A61314B0022DA612F4B00221A622E4BE5
:1036800000225A622C4B00229A622B4B180007F042
:1036900043F9031E01D0FDF753FF274B002118000B
:1036A00008F0C4F9031E01D0FDF74AFF224B0021A8
:1036B000180008F0FBF9031E01D0FDF741FF1E4B77
:1036C000180008F079F9031E01D0FDF739FF012237
:1036D0000121082001F00CFA082001F01EFA164B17
:1036E0001B681A68144B1B6860210A431A60144A4D
:1036F00081239B000021D152114B124A0021995283
:103700000F4B114A00219954104A81239B0000213C
:10371000D1520E4B0B4A002199520C4B0A4A002100
:10372000995400231800BD4680BDC046340C0020CB
:103730008C06002000500041580700200040004146
:103740002408002002020000060200002C0A0020CB
:1037500080B582B000AF0200FB1D1A70084B180044
:10376000FFF766FE031E05D0054BFA1D12789A621C
:10377000002300E025231800BD4602B080BDC046EE
:103780000050004180B582B000AF1B4B1B4A9A5AD3
:10379000194981239B00CB5A9A4204D1164B184AEF
:1037A0009B5C002B23D0144A81239B00D35A190021
:1037B000FB1D114A525C1A700F4A81239B00D35A99
:1037C000013399B20C4A81239B00D1520A4A8123CA
:1037D0009B00D35A0B491800FCF7B8FD0B0099B2B7
:1037E000054A81239B00D152FB1D1B7800E0252355
:1037F0001800BD4602B080BD2C0A00200202000065
:10380000060200000102000080B582B000AF020095
:10381000FB1D1A700BF022FC0300022B04D1FB1DD0
:103820001B781800FDF766FD1F4B204A9B5C0122A8
:103830005340DBB2002B32D01B4B1D4A9A5A1A4917
:1038400081239B00CB5A9A420BD11A4B1B68DB6930
:103850008022134005D0174B1B68FA1D12789A621C
:103860001BE0114B124A9B5A19000F4BFA1D12789C
:103870005A540D4B0E4A9B5A013399B20A4B0C4ACB
:103880009952094B0A4A9B5A0B491800FCF75EFDF6
:103890000B0099B2044B064A9952002300E02523FD
:1038A0001800BD4602B080BD2408002006020000BA
:1038B00002020000580700200102000080B500AF9E
:1038C0000B4B0C4A9A5A0A4981239B00CB5A9A42C5
:1038D00009D1074B084A9B5C01225340DBB2002B05
:1038E00001D0012300E00023DBB21800BD4680BDFB
:1038F00024080020020200000602000080B582B009
:1039000000AF786000200DF091FD08F0CDFF031EA0
:1039100001D0FDF715FE08F06BFE08F05DFF0BF01F
:10392000D7F900200DF08CFD00231800BD4602B031
:1039300080BD80B500AF01235B4218000DF090FD03
:10394000C046BD4680BD80B500AFC046BD4680BD07
:1039500080B500AFC046BD4680BD80B582B000AF27
:1039600078607B681B691800BD4602B080BD00000E
:1039700080B584B000AF7860074B196E064B7A684B
:103980000A431A66044B1B6E7A681340FB60FB689F
:10399000C046BD4604B080BD0000404880B582B03E
:1039A00000AF7860064B1B6E7A6813407A689A42C3
:1039B00001D1012300E000231800BD4602B080BD04
:1039C0000000404880B582B000AF7860044B196CAD
:1039D000034B7A680A431A64C046BD4602B080BDF4
:1039E0000000404880B582B000AF7860054B1A6C8B
:1039F0007B68D943034B0A401A64C046BD4602B0F7
:103A000080BDC0460000404880B586B000AFFDF7DD
:103A10006DFD0300012B01D0FDF78CFD00F09AF83D
:103A200000F0B6F800F0EAF800F080F80020FFF7A8
:103A300065FFFDF749FCFFF7BBFD00237B6113E049
:103A4000FEF794F90100354B7A699200D150344B5E
:103A50007A699200D358314A796989008A581000EE
:103A600098477B6901337B617B69032BE8DD002389
:103A70003B6112E02B4B3A699200D3589847030000
:103A80001A003B1D1A603B1D1B785BB2013301D14C
:103A9000FDF750FD3B6901333B613B69032BE9DDD9
:103AA0000F23FB1800221A7030E00F23FB180122AD
:103AB0001A700023BB6026E0184BBA689200D358F6
:103AC0001800FEF7A4F903001A003B001A60134B1C
:103AD000BA689200D3581800FEF7EBF9031E03D022
:103AE0000F23FB1800221A703B001B785BB2002BDF
:103AF00006D00D4BBA689200D2583B001868904728
:103B0000BB680133BB60BB68032BD5DD0F23FB18FB
:103B10001B78002BC9D0FFF70CFFA8E7380C00205A
:103B2000C4100020D4100020E410002080B500AFA5
:103B3000064B074A1A60054B180003F0ABFB031E47
:103B400001D0FDF7FDFCC046BD4680BD480C0020FD
:103B50000000304880B582B000AF00237B600120B8
:103B6000FFF71CFF031E08D10120FFF72BFF0120E8
:103B7000FFF738FF0120FFF7FBFEC023DB057B606A
:103B80003B1D180003F0E4FDC046BD4602B080BDF9
:103B900080B582B000AF3B00180008231A00002156
:103BA00021F054F80120FFF7F9FE031E08D101208F
:103BB000FFF708FF0120FFF715FF0120FFF7D8FEF0
:103BC000C0460C4B1800FFF7C8FE03000F2BF8D9B6
:103BD0003B00A02252001A803B0001229A703B0059
:103BE000054A5A603B00180004F0D8FAC046BD46AA
:103BF00002B080BD001800601027000080B500AF43
:103C0000064B074A1A60054B180006F0E7FA031E38
:103C100001D0FDF795FCC046BD4680BD540C002088
:103C20000000604880B584B000AF7860074B196D24
:103C3000064B7A680A431A65044B1B6D7A68134079
:103C4000FB60FB68C046BD4604B080BD0000404834
:103C500080B584B000AF7860074B596D064B7A6829
:103C60000A435A65044B5B6D7A681340FB60FB683E
:103C7000C046BD4604B080BD0000404880B584B059
:103C800000AF7860074B996D064B7A680A439A65D6
:103C9000044B9B6D7A681340FB60FB68C046BD46D1
:103CA00004B080BD0000404880B584B000AF7860AB
:103CB000074B196E064B7A680A431A66044B1B6E53
:103CC0007A681340FB60FB68C046BD4604B080BD07
:103CD0000000404880B582B000AF7860064B1B6E94
:103CE0007A6813407A689A4201D1012300E00023E8
:103CF0001800BD4602B080BD0000404880B582B0CB
:103D000000AF7860044B196C034B7A680A431A645D
:103D1000C046BD4602B080BD0000404880B582B0BC
:103D200000AF7860054B1A6C7B68D943034B0A409F
:103D30001A64C046BD4602B080BDC046000040487F
:103D400080B500AF80235B001800FFF781FFC046FD
:103D5000BD4680BD90B589B000AF78600C243B199A
:103D6000180014231A00002120F070FF7B681A68E5
:103D70008223DB059A4246D10420FFF753FF082037
:103D8000FFF750FF3B1902221A603B1912225A60BA
:103D90003B1900229A603B190022DA603B1900228D
:103DA0001A613A199023DB051100180001F0BEF8E2
:103DB00021007B1840221A607B1812225A607B185F
:103DC00000229A607B180022DA607B1800221A61B8
:103DD0007B180F4A1900100001F0A8F802210020FA
:103DE00003F0B4FA4021012003F0B0FA02210020D0
:103DF00003F0DAFA4021012003F0D6FA80239B0376
:103E00001800FFF73BFFC046BD4609B090BDC04655
:103E10000000104890B58FB000AF78602423FB18E5
:103E2000180014231A00002120F010FF0C243B1965
:103E3000180018231A00002120F008FF7B681B6877
:103E40002C4A934251D13B1910221A603B1900228F
:103E5000DA603B19180006F0E9F8031E01D0FDF7FF
:103E60006FFB80235B001800FFF708FF0820FFF7B7
:103E7000D9FE24243B1908221A603B1902225A60F9
:103E80003B1900229A603B190022DA603B1901229B
:103E90001A613B19184A1900100001F047F8210077
:103EA0007B1880221A607B1802225A607B1800223D
:103EB0009A607B180022DA607B1803221A617B1853
:103EC0000D4A1900100001F031F88821012003F09B
:103ED0003DFA8821012003F067FA00220121092020
:103EE00000F006FE092000F018FEC046BD460FB0E7
:103EF00090BDC046005000410000104880B582B01F
:103F000000AF78607B681B68054A934204D1802328
:103F10005B021800FFF786FEC046BD4602B080BDBA
:103F20000000304890B589B000AF786008243B1994
:103F3000180018231A00002120F088FE7B681A68F8
:103F4000C023DB059A422DD13B1901221A603B198F
:103F500004221A613B19180006F068F8031E01D00C
:103F6000FDF7EEFA0120FFF7B5FE031E08D1012090
:103F7000FFF7C4FE0120FFF7D1FE0120FFF794FEFA
:103F80000DF068FA00220021122000F0B1FD12208D
:103F900000F0C3FD00220021192000F0A9FD192026
:103FA00000F0BBFDC046BD4609B090BD80B582B0F3
:103FB00000AF78607B681B68054A934204D1802378
:103FC000DB021800FFF72EFEC046BD4602B080BDE2
:103FD0000000604880B582B000AF78607B681B68E5
:103FE000084A93420AD10120FFF732FE0022012144
:103FF0000A2000F07DFD0A2000F08FFDC046BD467E
:1040000002B080BD0020004080B500AFC046FDE793
:1040100080B500AFC046FDE780B500AFC046BD46E5
:1040200080BD80B500AFC046BD4680BD80B500AF45
:1040300000F08CFCC046BD4680BD80B500AF90232B
:10404000DB050121180000F00FFCC046BD4680BD15
:1040500080B500AF8023DB01064A1900100000F094
:1040600003FC044B2021180000F0FEFBC046BD46B7
:1040700080BDC0460000104880B500AF05F000FBD1
:10408000C046BD4680BD80B500AF05F002FBC0460E
:10409000BD4680BD80B500AF03F0F2FEC046BD4610
:1040A00080BD80B500AF03F00CFFC046BD4680BDAB
:1040B00080B586B000AFF860B9607A6000237B619C
:1040C0000AE000E000BF0100BB685A1CBA60CAB237
:1040D0001A707B6901337B617A697B689A42F0DBF5
:1040E0007B681800BD4606B080BD80B586B000AFC5
:1040F000F860B9607A6000237B6109E0BB685A1CF4
:10410000BA601B78180000E000BF7B6901337B6157
:104110007A697B689A42F1DB7B681800BD4606B07D
:1041200080BD80B582B000AF786001235B4218008B
:10413000BD4602B080BD80B582B000AF7860396006
:104140003B68802292015A6000231800BD4602B0ED
:1041500080BD80B582B000AF786001231800BD46F5
:1041600002B080BD80B584B000AFF860B9607A60FD
:1041700000231800BD4604B080BD000080B586B0A5
:1041800000AF7860144A154BD31A7B617B693B61A1
:10419000134B1B68002B02D1114B124A1A60104BB3
:1041A0001A687B68D3183A699A4207D220F0B6FDA4
:1041B00003000C221A6001235B4209E0084B1B68D4
:1041C000FB60074B1A687B68D218054B1A60FB68C6
:1041D0001800BD4606B080BD00600020000C000045
:1041E000680C00203835002090B583B000AF020085
:1041F0003960FB1D1A70FB1D1B787F2B28D82F4AB6
:10420000FB1D1B785BB29B08C0339B009B58FA1DBB
:104210001278110003220A40D200FF2191400A00C7
:10422000D2431A4011003B689B01FF221A40FB1D3C
:104230001B78180003230340DB009A401F48FB1D36
:104240001B785BB29B080A43C0339B001A5031E0D5
:104250001B4AFB1D1B7819000F230B40083B9B08D2
:1042600006339B00D31804331B68FA1D1278110023
:1042700003220A40D200FF2191400A00D2431A4093
:1042800011003B689B01FF221A40FB1D1B781800A0
:1042900003230340DB009A400948FB1D1B781C00E8
:1042A0000F232340083B9B080A4306339B00C31897
:1042B00004331A60C046BD4603B090BD00E100E083
:1042C00000ED00E080B500AFBFF34F8FC046044B58
:1042D000044ADA60BFF34F8FC046C046FDE7C046D0
:1042E00000ED00E00400FA0590B587B000AF5E4A2B
:1042F0009423D358002B0ED15C4B1B69002B03D1A8
:104300005A4B9B6B002B06D0594B01229A60FBF74E
:104310006BFFFFF7D7FF574B574A9A60554B9A6888
:10432000534B1A61514B5A68504B20210A435A6033
:104330004E4B5A684D4B51490A405A60C0464B4B50
:104340005B6904221340042BF9D1484BDB6930220E
:1043500093431A00454B20210A43DA61434BDA6943
:10436000424B47490A40DA61404BDA693F4B8021B2
:1043700049000A43DA61434B1B68434A934255D0D4
:104380001F233B610823FB600A23BB6003237B6080
:10439000354BDB681E2293431900FB685A00324BF1
:1043A0000A43DA60304BDA682F4B01210A43DA60A6
:1043B0002D4BDB68354A134019003B691A062A4B1E
:1043C0000A43DA60284BDA68274B802109040A4344
:1043D000DA60264A9423D3582D4A1A40BB689901C3
:1043E000F0239B000B402149134394228B501F4A1A
:1043F0009423D3581D492022134394228B501B4AE7
:104400009423D358234A1A407B68D902E0239B01A6
:104410000B401649134394228B50144A9423D358CB
:1044200012498022D200134394228B501723FB1889
:1044300000221A700DE017243B191B785BB2032190
:104440001800FFF7D1FE21007B181A787B18013283
:104450001A701723FB181B781F2BECD962B6C046C5
:10446000C046BD4607B090BD00004048000050481F
:104470000400002000ED00E000000410FFFEFFFF3C
:10448000FFFBFFFFF81E0010CCECBCFCFFFFFFC0E1
:104490003FFCFFFFFFC7FFFF80B582B000AF134BAB
:1044A0009B685B08DAB2FB1D01210A401A700F4BB2
:1044B0009B681B0ADAB2BB1D07210A401A70FB1D5C
:1044C0001B78002B07D0BB1D1B78013B084ADA4044
:1044D000084B1A6005E0BB1D1B78074ADA40054B04
:1044E0001A60C046BD4602B080BDC04600004048CC
:1044F0000048E801F41000200090D00310488546E1
:10450000FFF7F2FE002103E00E4B5B5843500431ED
:104510000D480E4B42189A42F6D30D4A02E0002392
:10452000136004320B4B9A42F9D30B4A02E000238A
:1045300013600432094B9A42F9D3FFF765FAFEE79C
:10454000006000201C620610C4100020FC12002035
:1045500094010020C4100020C0000020940100201D
:10456000FEE7000080B500AF054B1B68102213402A
:10457000102B01D1012300E000231800BD4680BDAF
:104580000000504880B582B000AF786039607B6829
:1045900004331A683B68D9437B6804330A401A60C5
:1045A0007B6819687B683A680A431A60C046BD4652
:1045B00002B080BD80B584B000AF7860074B196D44
:1045C000064B7A680A431A65044B1B6D7A681340E0
:1045D000FB60FB68C046BD4604B080BD000040489B
:1045E00080B584B000AF7860074B596D064B7A6890
:1045F0000A435A65044B5B6D7A681340FB60FB68A5
:10460000C046BD4604B080BD0000404890B589B0AA
:1046100000AF0200FB1D1A70FB1D1B78002B03D19D
:104620000820FFF7C7FF0AE0FB1D1B78012B03D111
:104630000820FFF7BFFF02E00820FFF7BBFFFB1DCC
:104640001A78284B5200D35A1A000C243B191A60CE
:104650003B1901225A603B1901229A603B19022240
:10466000DA60FB1D1A78204B9200D3583A191100DA
:10467000180000F05BFCFFF775FF031E1FD0FB1D49
:104680001A78194B9200D2589023DB059A4206D132
:104690003B191B68154A19001000FFF773FFFB1D3B
:1046A0001A78114B9200D358114A934207D10C2328
:1046B000FB181B680F4A19001000FFF763FFFB1D72
:1046C0001A78094B9200D058FB1D1A78054B5200FE
:1046D000D35A0122190000F0EBFD00231800BD465B
:1046E00009B090BDF81000200011002020005048B3
:1046F000000010482800504880B582B000AF02008A
:10470000FB1D1A70FB1D1A78074B9200D058FB1D39
:104710001A78064B5200D35A190000F0E6FD002328
:104720001800BD4602B080BD00110020F810002026
:1047300080B588B000AF0200FB1D1A70BB1D0A1CBB
:104740001A700023FB61FB1D1B78002B03D1042092
:10475000FFF730FF0AE0FB1D1B78012B03D1082077
:10476000FFF728FF02E00820FFF724FFFB1D1A785F
:10477000374B5200D35A1A0008217B181A607B1855
:1047800001229A607B180222DA60BB1D1B78002B85
:104790000CD17B1800225A60FB1D1A782D4B920019
:1047A000D3587A181100180000F0C0FBBB1D1B780D
:1047B000012B23D180235B001800FFF711FF082194
:1047C0007B18802252025A60FB1D1A78214B9200FE
:1047D000D3587A181100180000F0A8FBFB1D1B78B5
:1047E0001D4AD35600220321180000F081F9FB1D59
:1047F0001B78194AD356180000F08FF9FFF7B2FE64
:10480000031E20D0FB1D1A78124B9200D258902321
:10481000DB059A4207D10823FB181B680F4A1900D1
:104820001000FFF7AFFEFB1D1A780A4B9200D35819
:104830000B4A934207D10823FB181B68094A190049
:104840001000FFF79FFEFB691800BD4608B080BD51
:104850000C110020141100202011002020005048CD
:10486000000010482800504880B582B000AF786042
:104870000A00BB1C1A80BB1C1A887B681100180038
:1048800000F04EFDC046BD4602B080BD80B582B08E
:1048900000AFFB1D00221A70032000F00FF8031E6A
:1048A00003D0FB1D01221A7001E0FFF749FAFB1D3E
:1048B0001B781800BD4602B080BD000090B585B0E1
:1048C00000AF78600F23FB1800221A701D4B1B7875
:1048D000002B2CD005F0C0FA04001A4B1B781900ED
:1048E000FA239800FBF7ACFC030019002000FBF74B
:1048F000A7FC0300180000F020F9031E12D17B680A
:10490000032B0AD8796801235B420022180000F0CB
:10491000EFF80D4B7A681A600DE00F23FB180122A7
:104920001A7008E00F23FB1801221A7003E00F230E
:10493000FB1801221A700F23FB181B781800BD46C4
:1049400005B090BD281100202411002080B500AFD3
:10495000054B1B781A00054B1B68D218034B1A60D5
:10496000C046BD4680BDC046281100206C0C00200A
:1049700080B500AF024B1B681800BD4680BDC04625
:104980006C0C002080B500AF024B1B681800BD46C0
:1049900080BDC0462411002080B582B000AF020067
:1049A000FB1D1A70FB1D1B787F2B09D8FB1D1B7884
:1049B0001A001F231A40044B012191400A001A607B
:1049C000C046BD4602B080BD00E100E090B583B0B6
:1049D00000AF02003960FB1D1A70FB1D1B787F2B96
:1049E00028D82F4AFB1D1B785BB29B08C0339B0065
:1049F0009B58FA1D1278110003220A40D200FF21B1
:104A000091400A00D2431A4011003B689B01FF22EB
:104A10001A40FB1D1B78180003230340DB009A405B
:104A20001F48FB1D1B785BB29B080A43C0339B00E9
:104A30001A5031E01B4AFB1D1B7819000F230B4055
:104A4000083B9B0806339B00D31804331B68FA1DF0
:104A50001278110003220A40D200FF2191400A007F
:104A6000D2431A4011003B689B01FF221A40FB1DF4
:104A70001B78180003230340DB009A400948FB1D04
:104A80001B781C000F232340083B9B080A43063376
:104A90009B00C31804331A60C046BD4603B090BDE6
:104AA00000E100E000ED00E080B582B000AF78608A
:104AB0007B685A1E80235B049A4201D3012310E0D5
:104AC0000A4B7A68013A5A6001235B4203211800BD
:104AD000FFF77CFF054B00229A60044B07221A6007
:104AE00000231800BD4602B080BDC04610E000E0C3
:104AF00080B584B000AFB9607A600F217B18021CCA
:104B00001A70BA687B181B785BB211001800FFF7A7
:104B10005DFFC046BD4604B080BD80B582B000AF29
:104B20000200FB1D1A70FB1D1B785BB21800FFF71B
:104B300033FFC046BD4602B080BD80B582B000AF35
:104B400078607B681800FFF7AFFF03001800BD46D0
:104B500002B080BD80B582B000AF78607B68002B6A
:104B600001D1012331E07B6825229B5CDBB2022B63
:104B700008D07B680422DA637B68242200219954E0
:104B8000012322E07B681B681A687B681B680E2182
:104B90008A431A607B681B681A687B681B6801215E
:104BA0008A431A607B685B6C3C221A407B681B6CF2
:104BB000012191400A005A607B6825220121995405
:104BC0007B6824220021995400231800BD4602B0BE
:104BD00080BD80B584B000AF78600F217B180022C3
:104BE0001A707B6825229B5CDBB2022B06D07B68A7
:104BF0000422DA637B1801221A702AE07B681B68A2
:104C00001A687B681B680E218A431A607B681B68E0
:104C10001A687B681B6801218A431A607B685B6C99
:104C20003C221A407B681B6C012191400A005A60AB
:104C30007B682522012199547B6824220021995404
:104C40007B689B6B002B04D07B689B6B7A681000A1
:104C500098470F23FB181B781800BD4604B080BD91
:104C600080B582B000AF78607B6825229B5CDBB2A8
:104C70001800BD4602B080BDB0B586B000AFF86088
:104C8000B9607A601D4B1B78012B01D1022331E002
:104C90001A4B01221A70194B00225A6017257C19F1
:104CA000FA239B00180000F02BF8030023707B19F7
:104CB0001B78002B18D1FB68002B06D17A68BB68E3
:104CC0001100180000F056F805E07A68BB68110082
:104CD000180000F071F81723FC18FA239B00180045
:104CE00000F00EF803002370044B00221A70172303
:104CF000FB181B781800BD4606B0B0BD700C002034
:104D000080B584B000AF7860FFF732FE0300FB602F
:104D10000CE07B68013309D0FFF72AFE0200FB6834
:104D2000D31A7A689A4201D803231BE00F4B1B6900
:104D300001221340012BECD10C4B1B690C221340B8
:104D40000C2B0ED1094B9A68094B5B681A43084B30
:104D50005A60064B1A69054B0C210A431A6101235C
:104D600000E000231800BD4604B080BD00100040E4
:104D7000700C002080B582B000AF786039600C4BB9
:104D80001A690B4B0F210A431A617B68094A944642
:104D900063449A08064B1204120C9A61044B3A6859
:104DA0001A64034B33221A60C046BD4602B080BD70
:104DB000001000400000FCEF80B584B000AF7860C8
:104DC00039603B68FB60174B1A69164B0F210A4389
:104DD0001A617B68144A944663449A08114B120482
:104DE000120C9A610F4AFB681B681364FB6804335A
:104DF000FB600C4AFB681B685364FB680433FB6070
:104E0000084AFB681B689364FB680433FB60054A2F
:104E1000FB681B68D364034BCC221A60C046BD46B6
:104E200004B080BD001000400000FCEFB0B584B0BD
:104E300000AF78603960274B1B78012B01D102232A
:104E400043E0244B01221A70224B00225A607B68F7
:104E50001B68FF2B0BD100F03FF80F23FC18FA233F
:104E60009B001800FFF74CFF0300237027E03B680E
:104E7000012252421A607B685B68BB6017E0BB6826
:104E8000180000F039F80F257C19FA239B00180050
:104E9000FFF736FF030023707B191B78002B03D02C
:104EA0003B68BA681A600AE0BB680133BB607B6884
:104EB0005A687B689B68D318BA689A42DFD3054B5F
:104EC00000221A700F23FB181B781800BD4604B08F
:104ED000B0BDC046700C002080B500AF054B1A690C
:104EE000044B0F210A431A61024B22221A60C0466A
:104EF000BD4680BD0010004080B582B000AF786034
:104F0000094B1A69084B0F210A431A617B68DB02BF
:104F10009A08054B1204120C9A61034B11221A6075
:104F2000C046BD4602B080BD0010004080B586B0CE
:104F300000AF7860396000237B6190E13B681B68BB
:104F400001217A6991400A001340FB60FB68002B45
:104F500000D181E13B685B6803221340012B05D03F
:104F60003B685B6803221340022B30D17B689B684F
:104F70003B617B695B0003229A401300DA433B6983
:104F800013403B613B68DA687B695B009A40130021
:104F90003A6913433B617B683A699A607B685B6856
:104FA0003B6101227B699A401300DA433B6913405D
:104FB0003B613B685B681B0901221A407B699A4090
:104FC00013003A6913433B617B683A695A603B6856
:104FD0005B6803221340032B17D07B68DB683B61BF
:104FE0007B695B0003229A401300DA433B6913405C
:104FF0003B613B689A687B695B009A4013003A69A1
:1050000013433B617B683A69DA603B685B68032263
:105010001340022B23D17B69DA087B6808329200A7
:10502000D3583B617B69072213409B000F229A40B3
:105030001300DA433B6913403B613B681A697B69A3
:1050400007210B409B009A4013003A6913433B61D0
:105050007B69DA087B68083292003969D1507B6835
:105060001B683B617B695B0003229A401300DA43B3
:105070003B6913403B613B685B6803221A407B69D4
:105080005B009A4013003A6913433B617B683A69BD
:105090001A603B685A68C0239B02134000D1DBE0D2
:1050A0003B685A688023DB02134030D08023DB0545
:1050B000DB683B617A689023DB059A4211D10122BB
:1050C0007B699A401300DB431A003B6913403B6144
:1050D00001227B699A4013001A003B6913433B612C
:1050E00011E001227B699A4013001B04DB431A0084
:1050F0003B6913403B6101227B699A4013001B040A
:105100003A6913433B618023DB053A69DA603B6807
:105110005A6880235B03134030D08023DB051B6972
:105120003B617A689023DB059A4211D101227B69A9
:105130009A401300DB431A003B6913403B61012294
:105140007B699A4013001A003B6913433B6111E0ED
:1051500001227B699A4013001B04DB431A003B6960
:1051600013403B6101227B699A4013001B043A699A
:1051700013433B618023DB053A691A613B685A6837
:105180008023DB03134030D08023DB055B693B6168
:105190007A689023DB059A4211D101227B699A40FB
:1051A0001300DB431A003B6913403B6101227B691A
:1051B0009A4013001A003B6913433B6111E001223E
:1051C0007B699A4013001B04DB431A003B691340C0
:1051D0003B6101227B699A4013001B043A69134327
:1051E0003B618023DB053A695A613B685A6880233A
:1051F0005B02134030D08023DB059B693B617A68FA
:105200009023DB059A4211D101227B699A40130059
:10521000DB431A003B6913403B6101227B699A40E2
:1052200013001A003B6913433B6111E001227B69C3
:105230009A4013001B04DB431A003B6913403B6197
:1052400001227B699A4013001B043A6913433B61B6
:105250008023DB053A699A617B6901337B613B6896
:105260001A687B69DA40131E00D067E6C046C04664
:10527000BD4606B080BD80B584B000AF78600A003E
:10528000BB1C1A807B681B69BA1C1288134004D0AF
:105290000F23FB1801221A7003E00F23FB180022D2
:1052A0001A700F23FB181B781800BD4604B080BD90
:1052B00080B582B000AF786008001100BB1C021CF2
:1052C0001A807B1C0A1C1A707B1C1B78002B04D0D4
:1052D000BB1C1A887B689A6103E0BB1C1A887B6838
:1052E0009A62C046BD4602B080BD80B584B000AFB2
:1052F00078600A00BB1C1A807B685B69FB60BB1C82
:105300001B88FA6813401A04FB68DB43B91C098840
:105310000B401A437B689A61C046BD4604B080BD0D
:1053200080B582B000AF78600A00BB1C1A807A6832
:105330009023DB059A4209D18023DB05DB69BA1C87
:10534000128813405A1E9341DBB209E08023DB052B
:10535000DB69BA1C1288120413405A1E9341DBB257
:10536000002B17D07A689023DB059A4205D1802361
:10537000DB05BA1C1288DA6105E0BB1C1A888023A1
:10538000DB051204DA61BB1C1A887B681100180067
:1053900000F004F8C046BD4602B080BD80B582B0C2
:1053A00000AF78600A00BB1C1A80C046BD4602B040
:1053B00080BD000080B582B000AF78607B68002BB4
:1053C00001D101238FE07B6841229B5CDBB2002B83
:1053D00007D17B684022002199547B681800FEF7B2
:1053E000B9FC7B684122242199547B681B681A68A8
:1053F0007B681B6801218A431A607B685A687B6856
:105400001B683B490A401A617B681B689A687B6885
:105410001B6838490A409A607B68DB68012B08D119
:105420007B689A687B681B68802109020A439A603E
:1054300007E07B689A687B681B68842109020A433D
:105440009A607B68DB68022B09D17B681B685A680D
:105450007B681B68802109010A435A6007E07B686A
:105460001B685A687B681B6823490A405A607B683E
:105470001B685A687B681B6820490A435A607B682E
:105480001B68DA687B681B681A490A40DA607B6827
:105490001A697B685B691A4311007B689B691A0271
:1054A0007B681B680A43DA607B68D9697B681A6A83
:1054B0007B681B680A431A607B681B681A687B68F4
:1054C0001B6801210A431A607B6800225A647B68CA
:1054D0004122202199547B6800221A637B68422272
:1054E0000021995400231800BD4602B080BDC0467B
:1054F000FFFFFFF0FF7FFFFFFFF7FFFF00800002CD
:1055000090B587B002AFF8600C00100019000A23B4
:10551000FB18221C1A800823FB18021C1A80BB1DD2
:105520000A1C1A80FB6841229B5CDBB2202B00D056
:105530007DE03B6A002B04D02423FB181B88002B42
:1055400005D1FB68802292005A64012370E0FB6859
:105550001B689A6980231B021A4080231B029A420F
:1055600001D1022364E0FB6840229B5C012B01D146
:1055700002235DE0FB68402201219954FB6841222F
:1055800021219954FB68422240219954FB68002252
:105590005A64FB6800221A85FB683A6A5A62FB6803
:1055A0002422BA1812885A85FB68234ADA62FB68FB
:1055B000224A5A630A23FB181A88FB68DA64BB1D67
:1055C0001B88012B0BD10823FB181B88DAB2FB6860
:1055D0001B689A62FB68012252421A650EE008219C
:1055E0007B181B881B0A9BB2DAB2FB681B689A62A5
:1055F0007B181B88DBB21A00FB681A65BB1D1B8871
:10560000DAB280235C040A23FB181988F8680C4B73
:105610000093230001F07EFCFB6840220021995496
:10562000FB680121180001F0AFFC002300E0022319
:105630001800BD4605B090BD0000FFFF09590410D9
:105640000020008090B587B002AFF8600C00100019
:1056500019000A23FB18221C1A800823FB18021CBD
:105660001A80BB1D0A1C1A80FB6841229B5CDBB2BE
:10567000202B00D078E03B6A002B04D02423FB18B9
:105680001B88002B05D1FB68802292005A640123FD
:105690006BE0FB681B689A6980231B021A40802319
:1056A0001B029A4201D102235FE0FB6840229B5C0F
:1056B000012B01D1022358E0FB68402201219954BB
:1056C000FB68412222219954FB68422240219954CF
:1056D000FB6800225A64FB683A6A5A62FB6824221B
:1056E000BA1812885A85FB68224ADA62FB68224A95
:1056F0005A630A23FB181A88FB68DA64BB1D1B88EF
:10570000012B0BD10823FB181B88DAB2FB681B683E
:105710009A62FB68012252421A650EE008217B184A
:105720001B881B0A9BB2DAB2FB681B689A627B1863
:105730001B88DBB21A00FB681A65BB1D1B88DAB236
:105740000A23FB181988F8680C4B0093002301F01A
:10575000E1FBFB68402200219954FB6801211800FD
:1057600001F012FC002300E002231800BD4605B042
:1057700090BDC0460000FFFF0959041000200080C2
:1057800080B584B000AF78607B681B689B69FB6064
:105790007B681B681B68BB607B685B6B002B05D05C
:1057A0007B685B6BBA68F96878689847C046BD4605
:1057B00004B080BD80B586B000AF78607B681B68A0
:1057C0009B697B617B681B681B683B617B691B0A6B
:1057D0001A000123134010D03B69DB091A00012392
:1057E00013400AD07B685B6C01221A437B685A64C1
:1057F0007B681B6880225200DA617B699B0A1A0071
:105800000123134010D03B69DB091A000123134028
:105810000AD07B685B6C08221A437B685A647B68F9
:105820001B688022D200DA617B695B0A1A000123BF
:10583000134010D03B69DB091A00012313400AD042
:105840007B685B6C02221A437B685A647B681B6826
:1058500080229200DA617B685B6CFB60FB680B2244
:10586000134005D0FA687B681100180001F0E6F9D2
:10587000C046BD4606B080BD80B582B000AF78603E
:10588000C046BD4602B080BD80B582B000AF786032
:10589000C046BD4602B080BD80B582B000AF786022
:1058A000C046BD4602B080BD80B582B000AF786012
:1058B000C046BD4602B080BD80B582B000AF786002
:1058C00008001100FB1C021C1A703B000A1C1A8005
:1058D000C046BD4602B080BD80B582B000AF7860E2
:1058E000C046BD4602B080BD80B582B000AF7860D2
:1058F000C046BD4602B080BD80B582B000AF7860C2
:10590000C046BD4602B080BD90B589B002AFF86018
:10591000B9607A60974B7B61BB683B61FB68402252
:105920009B5C012B01D102231FE1FB684022012176
:1059300099543B691B091A000123134014D07B685A
:105940001B091A00012313400ED0FB681B681022AC
:10595000DA61FB685B6C04221A43FB685A64FB68DB
:10596000180001F096FAE9E03B699B081A00012350
:10597000134023D07B689B081A00012313401DD0DD
:105980003B69042293433B61FB681B685A6AFB68CE
:105990005B6AD2B21A70FB685B6A5A1CFB685A6277
:1059A000FB681B8D013B9AB2FB681A85FB685B8D17
:1059B0009BB2013B9AB2FB685A85BFE03B695B082A
:1059C0001A00012313402CD07B685B081A000123C6
:1059D000134026D0FB681B6D013318D1FB685B6A4E
:1059E0001A78FB681B689A62FB685B6A5A1CFB6842
:1059F0005A62FB681B8D013B9AB2FB681A85FB68F3
:105A00005B8D9BB2013B9AB2FB685A8596E0FB68BE
:105A10001B68FA68126D9A62FB68012252421A658D
:105A20008CE03B69DB091A00012313403ED07B6800
:105A30009B091A000123134038D0FB685B8D9BB291
:105A4000002B2CD0FB681B8D002B28D1FB685B8DB5
:105A50009BB2FF2B10D9FB68FF221A85FB68DB6C19
:105A600099B2FB681B8DDAB280235B04F8680024CE
:105A7000009401F04FFA18E0FB685B8D9AB2FB6866
:105A80001A85FB68DB6C99B2FB681B8DDAB2802348
:105A90009B04F8680024009401F03CFA05E0FB68E0
:105AA0004021180001F0CAF848E047E03B699B0933
:105AB0001A000123134041D07B689B091A0001237F
:105AC00013403BD0FB680121180001F0E7FAFB68A6
:105AD0000221180001F058FAFB6841229B5CDBB2FE
