:020000041004E6
:1000000000600020D13A0410D9360410E136041003
:1000100000000000000000000000000000000000E0
:10002000000000000000000000000000E93604109D
:100030000000000000000000F3360410FD3604103C
:10004000353B0410353B0410353B0410512104109E
:10005000000000000000000000000000353B04101C
:10006000012F0410E92E0410A12E0410353B0410BA
:10007000353B0410353B041000000000353B0410F4
:10008000353B0410353B04102737041000000000F6
:100090001937041000000000000000000B370410A6
:1000A000353B041035370410353B0410353B041044
:1000B0000000000000000000000000000000000040
:1000C00010B5904216D98AB2030C090C0C4659435C
:1000D00080B25343444350431B191A041B0C10189D
:1000E000594180225203002312184B41520DD8026D
:1000F000104310BD4843802252031218520D10467F
:1001000010BDC0460023C25C0133002AFBD1581E3B
:100110007047000003B47146490840004900095E79
:1001200049008E4403BC7047002243088B4274D3BD
:1001300003098B425FD3030A8B4244D3030B8B42E8
:1001400028D3030C8B420DD3FF22090212BA030CF1
:100150008B4202D31212090265D0030B8B4219D3D2
:1001600000E0090AC30B8B4201D3CB03C01A5241F2
:10017000830B8B4201D38B03C01A5241430B8B423A
:1001800001D34B03C01A5241030B8B4201D30B0323
:10019000C01A5241C30A8B4201D3CB02C01A52414A
:1001A000830A8B4201D38B02C01A5241430A8B420D
:1001B00001D34B02C01A5241030A8B4201D30B02F6
:1001C000C01A5241CDD2C3098B4201D3CB01C01A10
:1001D000524183098B4201D38B01C01A524143091A
:1001E0008B4201D34B01C01A524103098B4201D308
:1001F0000B01C01A5241C3088B4201D3CB00C01A75
:10020000524183088B4201D38B00C01A52414308EC
:100210008B4201D34B00C01A5241411A00D2014611
:10022000524110467047FFE701B5002000F0F0F89A
:1002300002BDC0460029F7D076E7704703460B435E
:100240007FD4002243088B4274D303098B425FD3CF
:10025000030A8B4244D3030B8B4228D3030C8B42FB
:100260000DD3FF22090212BA030C8B4202D31212E1
:10027000090265D0030B8B4219D300E0090AC30BB6
:100280008B4201D3CB03C01A5241830B8B4201D363
:100290008B03C01A5241430B8B4201D34B03C01A4C
:1002A0005241030B8B4201D30B03C01A5241C30AC4
:1002B0008B4201D3CB02C01A5241830A8B4201D335
:1002C0008B02C01A5241430A8B4201D34B02C01A1F
:1002D0005241030A8B4201D30B02C01A5241CDD2C4
:1002E000C3098B4201D3CB01C01A524183098B420F
:1002F00001D38B01C01A524143098B4201D34B01F8
:10030000C01A524103098B4201D30B01C01A52415A
:10031000C3088B4201D3CB00C01A524183088B42E1
:1003200001D38B00C01A524143088B4201D34B00CA
:10033000C01A5241411A00D201465241104670473C
:100340005DE0CA0F00D04942031000D34042534041
:1003500000229C4603098B422DD3030A8B4212D301
:10036000FC22890112BA030A8B420CD38901921133
:100370008B4208D3890192118B4204D389013AD070
:10038000921100E08909C3098B4201D3CB01C01A45
:10039000524183098B4201D38B01C01A5241430958
:1003A0008B4201D34B01C01A524103098B4201D346
:1003B0000B01C01A5241C3088B4201D3CB00C01AB3
:1003C000524183088B4201D38B00C01A5241D9D2CB
:1003D00043088B4201D34B00C01A5241411A00D24C
:1003E0000146634652415B10104601D34042002B48
:1003F00000D54942704763465B1000D3404201B5C7
:10040000002000F005F802BD0029F8D016E770477B
:100410007047C046844608006146FFE71FB500F0FC
:10042000AFF9002801D40021C8421FBD10B500F06B
:100430002FF94042013010BD10B500F0A1F900289D
:1004400001DB002010BD012010BDC04610B500F03A
:1004500097F9002801DD002010BD012010BDC04625
:1004600010B500F03DF9002801DC002010BD01208E
:1004700010BDC04610B500F033F9002801DA0020A5
:1004800010BD012010BDC046002B11D1002A0FD194
:10049000002900D1002802D00021C943080007B478
:1004A000024802A14018029003BDC04665FFFFFF4D
:1004B00003B4684601B5029800F01EF8019B9E4601
:1004C00002B00CBC7047C0469E2110B5C905041C83
:1004D000FFF7D0FF002803D1201C00F081FC10BDE5
:1004E0009E21201CC90500F0D7FA00F079FC80237A
:1004F0001B069C466044F2E7F0B557464E4645461B
:10050000DE46E0B504000D009246994683B08B426A
:1005100030D82DD04946504600F02EFD2900060067
:10052000200000F029FD331A9846203B34D49B4626
:1005300053465A46934042461F00534693401E007E
:10054000AF423BD8AF4200D179E05B46A41BBD412E
:10055000002B00DA76E000220023009201930123B1
:100560005A4693400193012342469340009329E069
:100570008242CFD900220023009201930C9B002BD2
:1005800001D01C605D600098019903B0F0BCBB46CF
:10059000B246A946A046F0BD42469B4620239B1A80
:1005A0005246DA40414613004A468A401700424606
:1005B0001F43534693401E00AF42C3D9002200237D
:1005C000009201934346002BD8D0FB0772081A43D0
:1005D00046467B080EE0AB4201D1A2420CD8A41AD9
:1005E0009D41012024196D410021013E24184D41F7
:1005F000002E06D0AB42EED9013E24196D41002EEB
:10060000F8D1009801995B4600196941002B24DB61
:100610002B005A464446D3402A00E2401C005B4669
:100620001500002B2ADB26009E403300260047469B
:10063000BE403200801A9941009001919EE7A3428A
:10064000BCD882E74246202300219B1A0022009159
:1006500001920122DA40019285E7424620239B1A4B
:100660002A0046469A402300F340444613432A009A
:10067000E2401C005B461500002BD4DA42462F00F6
:100680002023260097409B1ADE403B003343CDE7F2
:1006900070B542004E024C0045026D0A120EC30FA7
:1006A000760A240EC90FFF2A10D0FF2C0CD001208F
:1006B000A2420AD1B54208D18B420FD0002A04D100
:1006C0002800431E984100E0012070BD0120FF2C4E
:1006D000FBD13543F9D14B401800F6E70020F4E791
:1006E00030B5420044024D02C30F4800640A120EA6
:1006F0006D0A000EC90FFF2A19D0FF280BD0002A5F
:100700001ED100280BD1002D27D0002C34D1002978
:100710002FD0080030BD002D28D1002A01D1002C97
:10072000F5D08B4207D1002B23D01800F2E7002C24
:100730001CD1FF2814D0581E022318400138E9E7C5
:100740000028F8D08B42F6D18242F4DCEBDBAC42DD
:10075000F1D80020AC42DDD2E5E7002CDAD0EAE7A0
:10076000002D03D18B42E6D10020D3E70220404286
:10077000D0E701204042CDE78B42E8D0DBE7C0461E
:1007800030B5420044024D02C30F4800640A120E05
:100790006D0A000EC90FFF2A1AD0FF280ED0002ABA
:1007A0001ED100280ED1002D2AD0002C0CD08B4257
:1007B0001DD0581E02231840013810E0002D0DD125
:1007C000002A20D1002C1ED1002923D0080006E0E9
:1007D000002C03D1FF28ECD1002D17D0022030BD12
:1007E0000028E6D08B42E4D18242E2DC04DBAC425A
:1007F000DFD80020AC42F2D2002B0BD01800EEE77D
:10080000002CECD0D5E78B42D3D1F5E700208B420A
:10081000E5D0CEE701204042E1E7C046F0B54F46C3
:100820004646D64643025B0A4500C0B599460F1CB2
:100830002D0EC60F002D00D188E0FF2D00D18DE0D8
:100840008022DB00D2041A430023914698469A4640
:100850007F3D7C027B00640A1B0EFF0F002B68D0DB
:10086000FF2B21D08022E400D204144342467F3B78
:100870005B1900215D1C0A2A2EDC7E404246022ABA
:1008800023DC013A012A00D9BDE002296ED00129FA
:100890002CD100200022C005F60710433043E0BCF5
:1008A000BA46B146A846F0BD2B00FF33002C65D0F8
:1008B0000322414611433200013588467A40FF3514
:1008C0000A2900DDD8E016000321404601228240BB
:1008D000A620C000024220D05346022B46D0032B54
:1008E00000D1BBE051464C460129D2D02B007F33CA
:1008F000002B70DD620704D00F222240042A00D0B2
:100900000434220103D5634B1C402B008033FE2BA3
:100910002CDCA201520AD8B2BDE79020800002422E
:1009200027D1B938FF3810426DD03E00A1468A4623
:10093000D2E7002C41D1012342461A4390462B00B6
:10094000424601215D1C0A2A97DDC5E7002B26D10E
:1009500004239846033B00259A467AE7002B18D1DA
:1009600008239846063BFF259A4672E7FF2000229F
:1009700091E780220026FF20D2038CE74146022225
:10098000013511438846FF350A29A5DC02217E4046
:1009900074E70C239846093BFF259A4659E718004F
:1009A00000F0CCFA4A46431F76259A4000236D4258
:1009B000914698469A462D1A4BE7200000F0BEFA61
:1009C0004246431F9C402B1A763B00215D1C0A2A9D
:1009D00000DC52E780E70122D31A1B2B00DD58E729
:1009E0009E352200AC40DA40631E9C4122435307EF
:1009F00004D00F231340042B00D00432530137D509
:100A00000120002247E7210C4A462404240C270039
:100A1000100C1204120C44435743484351433A0C00
:100A200009195218944203D9802149028C46604426
:100A30003F0411043F0CC9198C01671EBC41120C04
:100A4000890E12180C439201144312010ED5012392
:100A500062081C40144349E73E00A14680224B46F1
:100A6000D2031A435202FF20520A14E71D003DE749
:100A700092010020520A0EE70F29EDD180224B4649
:100A8000D2031342EAD01442E8D13E00FF202243B1
:100A900001E7C046FFFFFFF7F8B54746CE464E02D6
:100AA00043024500720AC40F480080B594465F0AAD
:100AB0002D0E9B09000EC90FB609FF2824D0012274
:100AC00051402A1A8C420FD0002A00DC6AE100282B
:100AD00035D1002E00D1A2E0511E012A00D124E11F
:100AE000FF2A21D00A002FE0002A00DC67E100285D
:100AF0005ED0FF2D18D08021C9040E431B2A00DCD4
:100B000076E02A00013332E02A00FF3A9146002EB7
:100B100042D08C4255D04A46002A00D19CE0002D9C
:100B200000D177E00C003300DB08002B00D16EE031
:100B30008022D20313435B02FF205B0A24E0FF2DD7
:100B4000F2D08021C9040E4301211B2A08DC3100A8
:100B50002020D140821A96403200501E824111431B
:100B60005B1A5A0160D407212A00194057D00F217F
:100B70001940042900D00433590150D5501CFE2AD5
:100B800045D09B01C0B25B0AC0051843E40720436F
:100B9000C0BCB946B046F8BD012251408C42BAD122
:100BA0004A46002A10D0002D00D198E00023BBE770
:100BB000002E34D0511E012A6ED0FF2AB4D00A0074
:100BC0009CE7002A00D088E0FE206A1C104200D07A
:100BD00092E0002D00D0A4E0002B00D1CBE0002E4D
:100BE00000D0CAE00022DB085B025B0AD0B2CBE790
:100BF00031002020D140821A96403200501E82419E
:100C00000A439B185A01AED56A1CFE2D4AD1FF201B
:100C10000023B9E7FF22002B4BD10C003300DB0887
:100C2000FF2A00D181E7DFE79F01BF09380000F00C
:100C300085F905388740854221DC3B002021421B95
:100C40000132D3408A1A97407A1E974100223B43D3
:100C5000590700D08BE78FE7FE206A1C104212D1A3
:100C6000002D52D1002B7CD0002EBBD09A1B5001FE
:100C700000D48BE001240022F31A0C40E8E7564B25
:100C80002A1A3B40E4E79F1B7A0146D4002FCDD1BE
:100C900000240020002377E79B1901250132590128
:100CA00000D460E701214D4819405B0803400B4325
:100CB000CEE7571E012A5AD00C00FF2A33D001225A
:100CC0001B2F07DC2021C91B1A008B40FA40591E3C
:100CD0008B411A430500B31A43E7002D23D1FF22AD
:100CE000002B9BD0511E012AD6D0FF2A1BD01B29D6
:100CF0002CDD0200731C3AE7FF2A88D09B195B08A1
:100D0000590700D033E7DB086EE7002B10D1002E27
:100D100043D0012433000C4006E70124F71A0C40AD
:100D200084E7002B04D13300FEE601259B1B18E766
:100D3000002E00D1F8E68022D203974204D39445D6
:100D400002D2012433000C40DB08F1E61A00202512
:100D5000CA40691A8B40591E8B41134305009B19E9
:100D600050E7002E94D0012433000C403AE70C00E9
:100D70000125F31AF5E6330034E79B1900225901E7
:100D8000C1D5154A1340DB0801222DE7002A00D106
:100D90007EE713000022DB0826E780230024FF20E3
:100DA000DB03F1E6002A00D156E7471B3A00002D8D
:100DB00000D130E78022D2040C0013437FE7002AE1
:100DC00000D101E7411B002D01D10A0088E78022F4
:100DD000D20413438BE7C046FFFFFFFBFFFFFF7DFD
:100DE00041024200C30F490A0020120E7E2A03DD91
:100DF0009D2A02DD094A98187047802000040143AB
:100E0000952A07DC9620821AD1404842002BF3D164
:100E10000800F1E7963A9140F7E7C046FFFFFF7FF1
:100E200070B5002813D0C317C5185D40C40F280043
:100E300000F084F89E2301001B1A962B0FDC082873
:100E400034D008398D406D026D0AD8B202E000241A
:100E500000200025C0052843E407204370BD992BDE
:100E600016DC421F052800D095402A001148024098
:100E70006E0709D00F263540042D05D004325501E8
:100E800002D59F2302405B1A9201550AD8B2E1E7CE
:100E90000522121A2800D040020008001B308540AD
:100EA0002800451EA84102431500DEE76D0296208A
:100EB0006D0ACFE7FFFFFFFB70B5041E0ED000F0F8
:100EC0003DF89E2301001B1A962B0CDC08282FD01E
:100ED00008398C406402640AD8B201E00020002482
:100EE000C005204370BD992B16DC421F052800D099
:100EF0009440220010480240650709D00F252C407D
:100F0000042C05D00432540102D59F2302405B1A01
:100F10009201540AD8B2E3E7020020001B3290404D
:100F20000200501E82410520401AC4401443E0E7ED
:100F300064029620640AD3E7FFFFFFFB1C21012314
:100F40001B04984201D3000C10391B0A984201D3AC
:100F5000000A08391B09984201D30009043902A28A
:100F6000105C40187047C0460403020201010101F1
:100F7000000000000000000010B5002903D1FFF7B9
:100F8000DDFF203002E00800FFF7D8FF10BDC046AB
:100F900090B589B000AF08243B19180018231A0037
:100FA000002108F0B7FE3B00180008231A000021BA
:100FB00008F0B0FE3B1905221A603B19802252024C
:100FC0005A603B1904221A613B19180006F0F6FB1F
:100FD000031E01D000230FE03B0000221A603B00FB
:100FE00000225A603B001021180006F031FD031E5C
:100FF00001D0002300E001231800BD4609B090BDD8
:1010000080B586B000AF3B00180018231A000021FD
:1010100008F080FE3B0002221A603B008022520151
:101020005A613B00180006F0A9FE031E01D0002300
:1010300000E001231800BD4606B080BD80B582B037
:1010400000AF0D4B1B78002B01D0012310E002F004
:10105000C3FF01237B60FFF7D3FF031E01D10023F1
:101060007B60FFF795FF031E01D100237B607B6847
:101070001800BD4602B080BD9401002080B500AFCD
:1010800072B6C046C046FDE780B500AF72B6C04636
:10109000C046FDE780B584B000AF78600B4B0022FE
:1010A0001A700B4B7A681A6001F0CCFF0C217B1888
:1010B00001221A707B1800225A807B18186800F0F1
:1010C00009F801231800BD4604B080BD9501002039
:1010D0009801002080B582B000AF3B1D1860054B21
:1010E0001A683B1D1968100000F0FFFBC046BD46A2
:1010F00002B080BD98010020F0B587B000AF172383
:10110000FB1800221A700C257B1900221A707B191B
:1011100000225A801626BC1902F04AF803002370F8
:1011200031007B181B78252B0BD01723FB180122CD
:101130001A707B1906221A707B181B789AB27B19D9
:101140005A801C4B1B78012B10D102F0C3F8031EF0
:101150000CD0194B1A683B1D072119703B1D00214B
:1011600059803B1D1968100000F0BFFB1723FB18C6
:101170001B78002B07D0104B1A680C23FB1819683A
:10118000100000F0B2FB10217B180C22BA18126874
:101190001A607A18002311880904090C1B0C1B041F
:1011A0000B43528812041B041B0C13431800BD464A
:1011B00007B0F0BD9C01002098010020B0B59EB0A2
:1011C00000AF3B1D18607723FB1800221A707623AE
:1011D000FB18DB4A12781A70D94B1B780F2B00D9F9
:1011E000EEE29A00D74BD3181B689F463B1D1B7835
:1011F0005BB2012B00D0E5E27623FB1801221A70C6
:101200007723FB1801221A70DCE23B1D1B785BB2CE
:10121000022B05D1CC4B00221A70002002F06CFD8D
:101220003B1D1B785BB2062B00D0CDE23B1D5B88DB
:10123000052B45D89A00C54BD3181B689F46C44B55
:10124000180000F017FB7623FB1802221A70772390
:10125000FB1801221A7034E0BE4B180000F00AFBA4
:101260007623FB1803221A707723FB1801221A70C9
:1012700027E0B94B180000F0FDFA7623FB18052291
:101280001A707723FB1801221A701AE0B34B18006A
:1012900000F0F0FA7623FB1807221A707723FB1868
:1012A00001221A700DE0AE4B180000F0E3FA76232D
:1012B000FB1808221A707723FB1801221A7000E02D
:1012C000C04681E23B1D1B785BB2062B00D07DE25D
:1012D000A44B180000F0CEFA7623FB1801221A70F6
:1012E0007723FB1801221A7070E23B1D1B785BB25A
:1012F000062B00D06CE23B1D5B88DAB29A4B1A7069
:101300009A4B180000F0B6FA7623FB1804221A70E4
:101310007723FB1801221A705AE23B1D1B785BB23F
:10132000062B00D056E230217B180B221A708E4B10
:101330001B781B029AB23B1D5B88D3189AB27B18AC
:101340005A807B18186801F00FF9894B180000F0DB
:1013500091FA7623FB1801221A707723FB180122D9
:101360001A7037E23B1D1B785BB2022B00D033E2D0
:10137000754B01221A707F4B00221A6068243B19BA
:1013800020221A803B191B881B0A9BB2DBB2180073
:1013900001F050FF3B191B88DBB2180001F04AFF37
:1013A0007623FB1806221A707723FB1801221A7085
:1013B00012E23B1D1B785BB2072B00D00EE26A21C4
:1013C0007B1820221A807B181A886A4B1B68D31A54
:1013D000552B34D900233B672DE024203B18664A67
:1013E0001168196092889A8004003B191B781800D4
:1013F00001F020FF3B195B78180001F01BFF3B193F
:101400009B78180001F016FF3B19DB78180001F0FB
:1014100011FF3B191B79180001F00CFF3B195B7998
:10142000180001F007FF534B1B685A1C514B1A6000
:101430003B6F01333B673B6F542BCEDDCEE1002386
:10144000FB662DE01C203B184B4A116819609288FE
:101450009A8004003B191B78180001F0EBFE3B1941
:101460005B78180001F0E6FE3B199B78180001F04C
:10147000E1FE3B19DB78180001F0DCFE3B191B791B
:10148000180001F0D7FE3B195B79180001F0D2FE7D
:10149000384B1B685A1C374B1A60FB6E0133FB66D6
:1014A0006A23FB181A88334B1B68D21AFB6E9A42C8
:1014B000C8D8032001F0BEFE2E4B00221A60224B3A
:1014C00000221A707623FB1801221A707723FB186A
:1014D00001221A70294B180000F0CCF97EE13B1D67
:1014E0001B785BB2062B00D07AE1254B180000F088
:1014F000C1F97623FB1801221A707723FB18012209
:101500001A706DE13B1D1B785BB2022B00D069E1C4
:101510001C4B180000F0AEF91B4B180006231A00F4
:10152000002108F0F7FB7623FB1809221A707723B5
:10153000FB1801221A70154B00221A7052E1C046A6
:1015400095010020E0A504109C01002020A60410B5
:101550006CA4041084A404109CA40410B4A404106B
:10156000C8A40410E4A404109D010020F4A40410F5
:1015700010A50410A0010020D8A5041028A504106F
:1015800034A5041048A50410A4010020AA010020DD
:101590003B1D1B785BB2062B00D025E13B1D5B8811
:1015A0000D2B0CD1A94B180000F064F97623FB1821
:1015B00001221A707723FB1801221A7014E1A44B40
:1015C0001B78B42B0FD9A34B180000F053F97623E6
:1015D000FB180F221A707723FB1801221A700D20B6
:1015E00001F028FE00E13B1D5B88DAB29A4B1A70CD
:1015F0003B1D5B881A00994934243B19180008F0F8
:1016000069FB3B19180000F035F97623FB180A2214
:101610001A707723FB1801221A70E5E03B1D1B7836
:101620005BB2062B00D0E1E03B1D5B88DAB28A4B4F
:101630005A703B1D5B881A00894934243B191800F5
:1016400008F048FB3B19180000F014F97623FB184A
:101650000B221A707723FB1801221A70C6E03B1D7B
:101660001B785BB2062B00D0C2E03B1D5B88DAB270
:10167000794B9A703B1D5B88DB101F2213401C00C6
:101680003B1D5B881A0003231A4013001B019B1AA1
:10169000744934257819220008F01CFB7B191800C6
:1016A00000F0E8F87623FB180C221A707723FB1859
:1016B00001221A709CE03B1D1B785BB2062B00D008
:1016C00098E03B1D5B88DAB2634BDA703B1D5B88A8
:1016D000DB101F2213401C003B1D5B881A000323F4
:1016E0001A4013001B019B1A5E4934257819220009
:1016F00008F0F0FA7B19180000F0BCF87623FB180C
:101700000D221A707723FB1801221A7072E03B1D1C
:101710001B785BB2062B00D06EE03B1D5B88DAB213
:101720004D4B1A713B1D5B881A004F4934243B19FD
:10173000180008F0CFFA3B19180000F09BF8762348
:10174000FB180E221A707723FB1801221A7053E03F
:101750003B1D1B785BB2062B50D13B1D5B88DAB278
:101760003D4B5A713B1D5B881A00404934243B199C
:10177000180008F0AFFA3B19180000F07BF8762348
:10178000FB1809221A707723FB1801221A70304BBC
:101790001B780133DAB22E4B1A702FE03B1D1B78F9
:1017A0005BB2062B2CD13B1D5B880D2B28D17623F9
:1017B000FB1801221A707723FB1801221A701FE010
:1017C000C0461EE0C0461CE0C0461AE0C04618E015
:1017D000C04616E0C04614E0C04612E0C04610E025
:1017E000C0460EE0C0460CE0C0460AE0C04608E035
:1017F000C04606E0C04604E0C04602E0C04600E045
:10180000C0467723FB181B78002B1AD010217B18B9
:1018100000221A607B1803221A707B181868FFF7E1
:10182000CDFC134B7622BA1812781A700C217B1853
:1018300000221A607B1802221A707B181868FFF7C2
:10184000BDFC01231800BD461EB0B0BD5CA5041050
:10185000AA01002070A50410A401002090A5041086
:101860009CA50410A8A50410BCA50410CCA50410C8
:101870009501002080B584B000AF78607B681800C7
:10188000FEF740FC0300BB600023FB6009E0FB683F
:101890007A68D3181B78180001F0CCFCFB68013380
:1018A000FB60FA68BB689A42F1DB01231800BD4671
:1018B00004B080BD80B582B000AF0C2008F044F9C0
:1018C00003007B607B68002B01D1002309E07B686B
:1018D00000221A607B6800225A607B6800221A810D
:1018E0007B681800BD4602B080BD80B584B000AFF3
:1018F00078603B0019607B68002B01D1002326E053
:10190000082008F021F90300FB60FB68002B01D1DF
:1019100000231CE0FB683A0012681A60FB68002292
:101920005A607B685B68002B04D07B685B68FA6850
:101930005A6002E07B68FA681A607B68FA685A604D
:101940007B681B8901339AB27B681A8101231800D6
:10195000BD4604B080BD90B589B000AF78607B68AB
:10196000002B07D118217B18FF221A707B18002248
:101970005A8030E07B681B68002B0AD17B6800220C
:101980005A6018217B1800221A707B1800225A8096
:1019900021E07B681B68FB61FB695A687B681A6001
:1019A0007B681B68002B02D17B6800225A601424DC
:1019B0003B19FA6912681A60FB69180008F0CEF842
:1019C0007B681B89013B9AB27B681A811823FB183C
:1019D0003A1912681A601823FA18002311880904AA
:1019E000090C1B0C1B040B43528812041B041B0C18
:1019F00013431800BD4609B090BD80B582B000AF5A
:101A000078607B681B895A1E9341DBB21800BD4683
:101A100002B080BD80B500AF054B1B78002B01D113
:101A2000002301E0034B1B781800BD4680BDC04673
:101A3000B001002000F8061080B500AF054B1B7800
:101A4000002B01D1002301E0034B1B781800BD4699
:101A500080BDC046B001002001F8061080B500AF7F
:101A6000054B1B78002B01D1002301E0034B1B88A1
:101A70001800BD4680BDC046B0010020AE01002068
:101A800090B587B000AF78600A00BB1C1A801024A4
:101A90003B19180006231A00002108F03BF92E4BD1
:101AA0001B78002B08D17A683B1910001900062317
:101AB0001A0008F051F94AE0284B1B88BA1C12881A
:101AC0009A423BD8BB1C1B88254A94466344DB00E2
:101AD0001A7810217B181A70BB1C1B88204A944668
:101AE0006344DB0001331A787B185A70BB1C1B88D7
:101AF0001B4A94466344DB0002331A787B189A70C1
:101B0000BB1C1B88164A94466344DB0003331A78D7
:101B10007B18DA70BB1C1B88114A94466344DB00B7
:101B200004331A787B181A71BB1C1B880C4A944624
:101B30006344DB0005331A787B185A717A681023E6
:101B4000FB181000190006231A0008F005F9786840
:101B5000BD4607B090BDC046B0010020AE010020D8
:101B600000DD000280B500AF054B1B78002B01D1D2
:101B7000002301E0034B1B881800BD4680BDC04612
:101B8000B0010020AC01002090B587B000AF7860B4
:101B90000A00BB1C1A8010243B19180006231A00E7
:101BA000002108F0B7F82E4B1B78002B08D17A687B
:101BB0003B191000190006231A0008F0CDF84AE07E
:101BC000284B1B88BA1C12889A423BD8BB1C1B8826
:101BD000254A94466344DB001A7810217B181A705A
:101BE000BB1C1B88204A94466344DB0001331A78EF
:101BF0007B185A70BB1C1B881B4A94466344DB004D
:101C000002331A787B189A70BB1C1B88164A9446BC
:101C10006344DB0003331A787B18DA70BB1C1B8823
:101C2000114A94466344DB0004331A787B181A7116
:101C3000BB1C1B880C4A94466344DB0005331A78AE
:101C40007B185A717A681023FB18100019000623BC
:101C50001A0008F081F87868BD4607B090BDC0460C
:101C6000B0010020AE01002000DE0002B0B500AFE0
:101C7000174B1B78002B01D1002325E09023DB05B7
:101C80000121180002F047FD031E01D1042400E0E9
:101C90000024104B2021180002F03DFD031E01D14D
:101CA000022300E0002323435CB28023DB01094AC6
:101CB0001900100002F02FFD03005A425341DBB21D
:101CC0005BB223435BB2DBB21800BD46B0BDC04679
:101CD000B20100200000104880B582B000AF7860EB
:101CE0000F4B00221A70002001F090FF012001F03C
:101CF0008DFF022001F08AFF0021002002F018F879
:101D00000021012002F014F80021022002F010F856
:101D1000044B7A681A6000231800BD4602B080BDEB
:101D2000B1010020B4010020F0B585B000AF0F264E
:101D3000BB1900221A703B1D00221A703B1D0022A5
:101D40005A800E257C19FFF791FF03002370214B69
:101D50001B7829007A1812789A4219D01D4B1A78EC
:101D60007B181B785340DBB21AB27B181B781B021E
:101D70001BB213431BB29AB23B1D5A803B1D042277
:101D80001A70144B7A1812781A70BB1901221A7043
:101D90000F23FB181B78002B06D00F4B1A683B1D36
:101DA00019681000FFF7A1FD08217B183A1D126881
:101DB0001A607A18002311880904090C1B0C1B04F3
:101DC0000B43528812041B041B0C13431800BD461E
:101DD00005B0F0BDB1010020B401002080B582B093
:101DE00000AF3B1D18603B1D1B785BB2042B1ED15E
:101DF0003B1D5B881A000123134002D0002001F034
:101E00007BFF3B1D5B885B089BB21A0001231340DC
:101E100002D0012001F070FF3B1D5B889B089BB244
:101E20001A000123134002D0022001F065FF0123B4
:101E30001800BD4602B080BDF0B585B002AF786035
:101E40003E4A8223FF33D25C3C49C0235B00CB5C1B
:101E50009A4204D1394AC1235B000021D154374A48
:101E6000C0235B00D35C0133D9B2344AC0235B008A
:101E7000D154324AC0235B00D35C1F221340D9B235
:101E80002E4AC0235B00D1542D4AC0235B00D25C94
:101E90002B498223FF33CB5C9A424AD0274AC02386
:101EA0005B00D35C1900254A0B005B005B189B00AC
:101EB0009B5CDB189CB2214AC0235B00D35C1900F9
:101EC0001E4A0B005B005B189B00D31801331B7884
:101ED0001D001A4AC0235B00D35C1900174A0B008F
:101EE0005B005B189B00D31802331B781E00134A5B
:101EF000C0235B00D35C1A0013005B009B189B009F
:101F000008331A000D4BD2180C49C0235B00CB5C80
:101F100018000A4903005B001B189B00CB18023312
:101F20001B7808480193009233002A00210002F038
:101F3000EDFCC046BD4603B0F0BDC0469003002096
:101F40000C020020B8010020F0B587B002AF786025
:101F50007D4AC0235B00D35C19007B4A0B005B0009
:101F60005B189B00D31802331B78022B21D1764AD1
:101F7000C0235B00D35C1900734A0B005B005B1845
:101F80009B00D31808331B781B029AB26E49C023FA
:101F90005B00CB5C18006C4903005B001B189B00C6
:101FA000CB1809331B7819000E23FB1852181A801E
:101FB00034E0654AC0235B00D35C1900624A0B0021
:101FC0005B005B189B00D31802331B78012B21D1D7
:101FD0005D4AC0235B00D35C19005B4A0B005B00C9
:101FE0005B189B00D31808331B781800564AC0238F
:101FF0005B00D35C1900544A0B005B005B189B002C
:10200000D31801331B781B029AB20E23FB188218D7
:102010001A8003E00E23FB1800221A8008203B18C8
:1020200005221A703B180E22BA1812885A80464AA6
:10203000C0235B00D35C1900434A0B005B005B18B4
:102040009B00D31804331A683B18186890473E4A1F
:102050008223FF33D25C3C49C0235B00CB5C9A42B5
:1020600004D1394AC1235B000021D154364AC02330
:102070005B00D35C0133D9B2334AC0235B00D15437
:10208000314AC0235B00D35C1F221340D9B22E4AD1
:10209000C0235B00D1542C4AC0235B00D25C2A4988
:1020A0008223FF33CB5C9A424AD0274AC0235B008D
:1020B000D35C1900244A0B005B005B189B009B5CFF
:1020C000DB189CB2204AC0235B00D35C19001E4A77
:1020D0000B005B005B189B00D31801331B781D00BD
:1020E000194AC0235B00D35C1900174A0B005B0040
:1020F0005B189B00D31802331B781E00124AC023C2
:102100005B00D35C1A0013005B009B189B00083334
:102110001A000D4BD2180C49C0235B00CB5C180091
:10212000094903005B001B189B00CB1802331B7886
:1021300006480193009233002A00210002F088FC37
:10214000C046BD4605B0F0BD0C020020B80100201D
:1021500080B500AF094B1B689A69E023DB00134090
:1021600004D0064B180002F02BFD03E0034B1800CF
:1021700002F00CFDC046BD4680BDC046B80100203F
:1021800080B500AF384B1B78002B01D0012367E0EE
:10219000364B8222D2051A60344B354A5A60334B93
:1021A00000229A60314B0122DA60304B00221A6122
:1021B0002E4B00225A612D4B00229A612B4B00229C
:1021C000DA612A4B00221A62284B180002F0F8FA52
:1021D000031E01D0002343E0244B0021180004F02B
:1021E0004FF9031E01D000233AE0204B00211800D4
:1021F00004F092F9031E01D0002331E01D4AC123EF
:102200005B000021D1541B4A8223FF330021D154AB
:10221000184AC0235B000021D154174AC1235B0038
:102220000021D154144A8223FF330021D154124A91
:10223000C0235B000021D1540B4B01221A700B4BC1
:102240001B681A68094B1B6804210A431A60074B74
:102250001B681A68054B1B6802210A431A60012398
:102260001800BD4680BDC04614050020B8010020FE
:102270005B3D30000C02002090030020F0B589B0D7
:1022800002AF3A60FB1D021C1A70BB1D0A1C1A70BB
:102290006B4B1B78002B01D10123CDE01723FB18DA
:1022A00000221A70674AC1235B00D35C002B01D067
:1022B0000123C1E008203B18FA1D12781A703B1860
:1022C000BA1D12785A703B1801229A703B183A686E
:1022D0005A605C4A8223FF33D35C1900594A0B00D1
:1022E0005B005B189B003918D3180A0013CA13C38C
:1022F000544A8223FF33D35C0133D9B2514A82233B
:10230000FF33D1544F4A8223FF33D35C1F22134043
:10231000D9B24C4A8223FF33D1544A4A8223FF3335
:10232000D25C4849C0235B00CB5C9A4204D1454A49
:10233000C1235B000121D154424AC0235B00D35C1E
:102340000133414A134004D5013B2022524213433A
:10235000013319003B4A8223FF33D35C994268D191
:10236000384AC0235B00D35C1900364A0B005B007F
:102370005B189B009B5CDB189DB2324AC0235B005C
:10238000D35C19002F4A0B005B005B189B00D3182D
:1023900001331B781E002B4AC0235B00D35C19005D
:1023A000284A0B005B005B189B00D31802331B7894
:1023B0009C46244AC0235B00D35C1A0013005B00D8
:1023C0009B189B0008331A001E4BD2181D49C023CE
:1023D0005B00CB5C18001B4903005B001B189B00D3
:1023E000CB1802331B7817217C18184801930092F0
:1023F00063463200290002F02BFB030023701721F3
:102400007B181B78002B14D00E4A8223FF33D35C39
:10241000013BD9B20B4A8223FF33D154094A8223AC
:10242000FF33D35C1F221340D9B2064A8223FF3305
:10243000D1541723FB181B781800BD4607B0F0BD18
:10244000140500200C0200201F000080B8010020AD
:1024500090B585B000AF78600F243B1900221A7048
:102460007E2000F08BFE3B193A191278013A1A705F
:10247000FF2000F083FE3B193A19127866321A7079
:10248000062000F07BFE0023BB6013E0BB687A6887
:10249000D31819780F22BB18BA1812788A181A7034
:1024A000BB687A68D3181B78180000F067FEBB6819
:1024B0000133BB60BB68032BE8DD0F23FB181B78DF
:1024C000180000F05BFEEF2000F058FEC046BD464D
:1024D00005B090BD80B582B000AF78601B4B7A68C4
:1024E0001A6000F07FFC1A4B01221A70FFF7A4FA61
:1024F000030064211800FDF717FE0300DBB218008B
:10250000FEF78EFC021C134B1A60FFF783FA0300E0
:1025100064211800FDF708FE0300DBB21800FEF787
:102520007FFC021C0C4B1A6000F0A8FC02000B4B55
:102530001A6000F0A3FC0200094B1A60094B00224C
:102540001A7001231800BD4602B080BD1805002096
:102550001C0500202005002024050020280500205F
:102560002C0500203005002080B582B000AF3B1D57
:1025700018603B1D1B785BB20B2B03D13B1D186809
:1025800000F0E2FA054B1A683B1D19681000FFF7CE
:10259000ACF9C046BD4602B080BDC046180500205B
:1025A00090B585B000AF3B1D00221A703B1D002284
:1025B0005A8000F063FC0300FB60684B1B78002B23
:1025C00022D0674B1B68FA68D31A1800FEF774FC18
:1025D000041C644B1B686449181CFEF71FF9031C9C
:1025E000191C201CFDF746FF031E3DD03B1D092290
:1025F0001A703B1D00225A80594BFA681A603B1D25
:102600001868FFF7B1FF2FE0564B1B680021181C1C
:10261000FDF70CFF031E27D1514B1B68FA68D31A34
:102620001800FEF749FC041C4E4B1B68191CFE20C9
:102630008005FEF731FA031C4B49181CFEF7EEF833
:10264000031C191C201CFDF715FF031E0CD03B1D9D
:1026500009221A703B1D01225A80414BFA681A6008
:102660003B1D1868FFF780FF404B1B68FA68D31AC0
:102670003F4A93420DD93F4B1B78002B09D13B1D9C
:1026800001221A703B1D00225A803B1D1868FFF77B
:102690006BFFFFF7BFF9030064211800FDF744FD4D
:1026A0000300DBB21800FEF7BBFB021C324B1B68B9
:1026B000191C101CFDF7BAFE031E14D0FFF7BCF95D
:1026C000030064211800FDF72FFD0300DBB21800A2
:1026D000FEF7A6FB021C234B1B68191C101CFDF700
:1026E000A5FE031E23D13B1D0A221A70FFF792F9A3
:1026F000030064211800FDF717FD0300DBB218008A
:10270000FEF78EFB021C1C4B1B6801210C1C191CC4
:10271000101CFDF78BFE031E01D100231C1CE3B22D
:102720001A003B1D5A803B1D1868FFF71DFF08214A
:102730007B183A1D12681A607A1800231188090460
:10274000090C1B0C1B040B43528812041B041B0CAA
:1027500013431800BD4605B090BDC0461C050020BF
:102760002805002020050020007C12492C050020AF
:10277000B70B0000300500202405002090B58BB079
:1027800000AF3B1D18603B1D1B785BB2012B0AD1CB
:1027900024217B18514A1A607B181800FFF758FE55
:1027A0004F4B01221A703B1D1B785BB2092B19D1CC
:1027B0003B1D5B88DAB24B4B1A704A4B1B78002BDF
:1027C00008D020217B180D221A607B181800FFF713
:1027D0003FFE07E01C217B180E221A607B181800B0
:1027E000FFF736FE3B1D1B785BB20B2B2ED13B1D3A
:1027F0005B88002B0BD13C4B00221A6018217B1800
:102800000A221A607B181800FFF722FE1EE014212E
:102810007B180B221A607B181800FFF719FE102195
:102820007B180F221A707B1800225A703B1D5B88A0
:102830001B0A9BB2DAB27B189A703B1D5B88DAB236
:102840007B18DA707B181800FFF702FE3B1D1B781F
:102850005BB20A2B3DD1FFF7EFF8030064211800AB
:10286000FDF762FC0300DBB21800FEF7D9FA021C88
:102870001D4B1A60FFF7CEF8030064211800FDF726
:1028800053FC0300DBB21800FEF7CAFA021C174B18
:102890001A603B1D5B88002B1BD10C243B190622C0
:1028A0001A703B1900225A703B1900229A700F4B84
:1028B0001B680F49181CFDF7B1FF031C181CFDF71E
:1028C00003FE0300DAB23B19DA703B191800FFF778
:1028D000BFFD01231800BD460BB090BD08000001EC
:1028E000300500201C0500202005002024050020C4
:1028F0000000F041F0B58DB000AF804B1B78FF2B8E
:1029000000D1F7E07E4B1B78FF2B00D1F2E07D4B2E
:102910001B78FF2B00D1EDE07B4B1B78FF2B00D108
:10292000E8E07A4B1B78002B5FD0744B1A78242593
:102930007B191A70724B1A787B195A70744B1B787A
:10294000002B1CD06F4B1B78DB005CB26E4B1B78EE
:102950000F211800FDF7E8FB0300DBB25BB2234058
:102960005BB2DAB27B199A707B190022DA707B199C
:1029700000221A71664B1A787B195A7128E0FFF70A
:102980006DF80300013B9AB21C26BB191100180018
:10299000FFF776F824257B1900229A70594B1B7893
:1029A000DB005CB2584B1B780F211800FDF7BCFB15
:1029B0000300DBB25BB223405BB2DAB27B19DA70A0
:1029C000BB191A797B191A71BB195A797B195A717B
:1029D0004A4BFF221A704A4BFF221A70494BFF22C2
:1029E0001A70494BFF221A7085E00023FB6278E0E1
:1029F000FB6A9AB214243B1911001800FFF7C4F8BF
:102A000021007B181A783D4B1B789A4266D17B18BF
:102A10005A783B4B1B789A4260D17B189B78DB0835
:102A2000DAB2384B1B789A4229D17B189B781A006E
:102A300003231A4013001B019B1A334A1278934256
:102A40001DD110203B180B221A707B181B791B021A
:102A50009BB27A1852799B189AB23B185A803B184D
:102A60001868FFF781FD254BFF221A70244BFF22C7
:102A70001A70244BFF221A70234BFF221A70142164
:102A80007B18DB78DB08DAB21E4B1B789A4225D123
:102A90007B18DB781A0003231A4013001B019B1AD2
:102AA000194A1278934219D108203B180B221A7048
:102AB0003B1800225A807B1800229A703B18186835
:102AC000FFF752FD0D4BFF221A700D4BFF221A70BB
:102AD0000C4BFF221A700C4BFF221A70FB6A013359
:102AE000FB62FFF73FF803001A00FB6A934200DA2B
:102AF0007EE700E0C046BD460DB0F0BD3C050020BD
:102B00003D0500203E0500203F0500204005002037
:102B10004105002080B582B000AF7860084B7A682C
:102B20001A60FFF72DFB00F05DF900F0A7F9020035
:102B3000044B1A6001231800BD4602B080BDC04698
:102B4000340500203805002080B582B000AF3B1D61
:102B50001860054B1A683B1D19681000FEF7C5FE8A
:102B6000C046BD4602B080BD3405002080B584B0AB
:102B700000AF3B1D00221A703B1D00225A8000F05E
:102B80007DF90300FB60154B1B68FA68D31A144AE1
:102B900093420CD93B1D09221A703B1D00225A801A
:102BA0000E4BFA681A603B1D1868FFF7CDFF08212D
:102BB0007B183A1D12681A607A18002311880904DC
:102BC000090C1B0C1B040B43528812041B041B0C26
:102BD00013431800BD4604B080BDC0463805002030
:102BE0005FEA000080B582B000AF3B1D18603B1D5E
:102BF0001B785BB20B2B1FD1734B1A0004216F2083
:102C0000FFF73CFB704B1A0003216F20FFF736FBE8
:102C10006D4B1A0002216F20FFF730FB6A4B1A0040
:102C200001216F20FFF72AFB684B01221A703B1D20
:102C30005B88DAB2664B1A703B1D1B785BB2092BBE
:102C400017D1614B1A0004216F20FFF717FB5E4B71
:102C50001A0003216F20FFF711FB5B4B1A000221C2
:102C60006F20FFF70BFB584B1A0001216F20FFF775
:102C700005FB3B1D1B785BB2052B00D09EE03B1D86
:102C80005B881B0A9BB2042B0BD000DD96E0032B64
:102C900020D000DD92E0012B00D176E0022B32D073
:102CA0008CE03B1D5B881B11DBB201221340DBB2C1
:102CB0001A1C9200D318DB18DAB23B1D5B88DBB21A
:102CC0000F210B40DBB2D318DAB2424B1A70FFF778
:102CD00011FE73E03B1D5B881B11DBB20322134026
:102CE000DBB21A1C9200D318DB18DAB23B1D5B88EA
:102CF000DBB20F210B40DBB2D318DAB2364B1A70BD
:102D0000FFF7F8FD5AE03B1D5B881A004023134093
:102D100022D03B1D5B885B11DBB201221340DBB28A
:102D20000C225343DAB23B1D5B881B11DBB201213D
:102D30000B40DBB2191C8900CB18DB18DBB2D318AF
:102D4000DAB23B1D5B88DBB20F210B40DBB2D3183C
:102D5000DAB2224B1A7015E03B1D5B881B11DBB207
:102D600003221340DBB21A1C9200D318DB18DAB22C
:102D70003B1D5B88DBB20F210B40DBB2D318DAB20C
:102D8000164B1A70FFF7B6FD18E03B1D5B881B1150
:102D9000DBB203221340DBB21A1C9200D318DB18FB
:102DA000DAB23B1D5B88DBB20F210B40DBB2D318DC
:102DB000DAB20B4B1A70FFF79DFDC04601231800D5
:102DC000BD4602B080BDC046492B0410400500201E
:102DD000410500203C0500203D0500203E05002067
:102DE0003F05002080B584B000AF204B1B78002B3E
:102DF00001D0012336E03B00180010231A00002107
:102E000006F088FF1A4B1B4A1A60194B20225A60A1
:102E1000174B00229A60164B174ADA60144B0022B7
:102E20001A61134B00229A61114B180005F07EF8CD
:102E3000031E01D0FEF728F93B00802252011A60E0
:102E40003A000B4B1100180005F0E8F9031E01D001
:102E5000FEF71AF9064B180005F0ACF8034B0122F7
:102E60001A7001231800BD4604B080BD84050020FF
:102E70004405002000200040E703000080B500AFBB
:102E8000054B1B78002B01D1002301E0034B1B688D
:102E90001800BD4680BDC046840500208005002086
:102EA00080B500AF054B1B685A1C044B1A60044BDD
:102EB000180005F0C5F8C046BD4680BD800500205D
:102EC0004405002080B582B000AF78607B68DB6984
:102ED00080221340802B01D1012300E00023180041
:102EE000BD4602B080BD000080B500AF034B1800A6
:102EF00005F0D4FBC046BD4680BDC0468805002015
:102F000080B582B000AF494B1B68DB6920221340BB
:102F10003DD0474B474A9B5C01225340DBB2002B1C
:102F20002BD0424B1B68596A414B434A9B5A1A00AB
:102F3000C9B23F4B99543E4B3F4A9B5A013399B219
:102F40003B4B3D4A99523A4B3B4A9B5A3B491800EE
:102F5000FDF770F90B0099B2354B374A9952344A54
:102F600081239B00D25A324B33495B5A9A420ED18D
:102F70002F4B304A0121995409E02C4B1B685A6AA7
:102F8000FB1D1A70FB1D1A78FB1D01321A70274BAE
:102F90001B68DB69402213403DD0294B264A9A5AD0
:102FA000274981239B00CB5A9A4204D1244B214AC2
:102FB0009B5C002B2BD0224A81239B00D35A1A0002
:102FC0001F4B9A5C194B1B689A621D4A81239B0018
:102FD000D35A013399B21A4A81239B00D152184A1D
:102FE00081239B00D35A15491800FDF723F90B00E4
:102FF00099B2134A81239B00D152114B0D4A9B5C1D
:10300000002B08D00A4B0B4A0021995403E0074BD0
:103010001B6840221A62022000F06EFE034B18006B
:1030200006F070FBC046BD4602B080BD1C06002005
:1030300094080020060200000202000001020000C5
:103040008C06002080B500AF434B444A1A60424BC7
:10305000962292015A60404B00229A603E4B002219
:10306000DA603D4B00221A613B4B0C225A613A4B0D
:1030700000229A61384B00221A62374B00225A62B2
:10308000354B00229A62344B802292055A66324BAD
:10309000180005F0ADFA031E01D0002358E02E4BB6
:1030A0000021180006F04FFA031E01D000234FE064
:1030B000294B0021180006F085FA031E01D00023D9
:1030C00046E0274B274A1A60274B962292011A6046
:1030D000254B00225A60244B00221A81224B0022E9
:1030E0005A81214B00229A811F4B1900002000F0C9
:1030F000BBFE031E01D0FDF7C7FF012201210820FE
:1031000001F09CF8082001F0AEF8154B1B681A6816
:10311000134B1B6860210A431A60144A81239B00E9
:103120000021D152114B124A002199520F4B114AE2
:1031300000219954104A81239B000021D1520E4B4B
:103140000B4A002199520C4B0A4A00219954012341
:103150001800BD4680BDC0468805002000500041D3
:103160001C060020004000417C0600208C06002048
:1031700002020000060200009408002080B582B020
:1031800000AF0200FB1D1A70084B1800FFF79AFEF3
:10319000031E05D0054BFA1D12789A62002300E049
:1031A00025231800BD4602B080BDC0460050004136
:1031B00080B582B000AF1B4B1B4A9A5A1949812334
:1031C0009B00CB5A9A4204D1164B184A9B5C002BA9
:1031D00023D0144A81239B00D35A1900FB1D114AA6
:1031E000525C1A700F4A81239B00D35A013399B263
:1031F0000C4A81239B00D1520A4A81239B00D35A57
:103200000B491800FDF716F80B0099B2054A812307
:103210009B00D152FB1D1B7800E025231800BD4602
:1032200002B080BD940800200202000006020000E7
:103230000102000080B582B000AF0200FB1D1A70D1
:103240001F4B204A9B5C01225340DBB2002B32D043
:103250001B4B1D4A9A5A1A4981239B00CB5A9A420A
:103260000BD11A4B1B68DB698022134005D0174B2A
:103270001B68FA1D12789A621BE0114B124A9B5A86
:1032800019000F4BFA1D12785A540D4B0E4A9B5AD7
:10329000013399B20A4B0C4A9952094B0A4A9B5A7C
:1032A0000B491800FCF7C6FF0B0099B2044B064A05
:1032B0009952002300E025231800BD4602B080BDCE
:1032C0008C06002006020000020200001C060020FE
:1032D0000102000080B500AF0B4B0C4A9A5A0A4914
:1032E00081239B00CB5A9A4209D1074B084A9B5C29
:1032F00001225340DBB2002B01D0012300E0002368
:10330000DBB21800BD4680BD8C0600200202000022
:103310000602000080B586B000AFFDF78FFE030007
:10332000012B01D0FDF7AAFEFFF78CFE0300012B55
:1033300001D0FDF7A3FE00237B6113E0FEF7BAFA8C
:103340000100344B7A699200D150334B7A69920074
:10335000D358304A796989008A58100098477B69A8
:1033600001337B617B69032BE8DD00233B6112E0C5
:103370002A4B3A699200D358984703001A003B1D24
:103380001A603B1D1B785BB2013301D1FDF776FE5D
:103390003B6901333B613B69032BE9DD0F23FB18DC
:1033A00000221A7030E00F23FB1801221A7000234C
:1033B000BB6026E0174BBA689200D3581800FEF79E
:1033C000CAFA03001A003B001A60124BBA68920056
:1033D000D3581800FEF711FB031E03D00F23FB1870
:1033E00000221A703B001B785BB2002B06D00C4BFE
:1033F000BA689200D2583B0018689047BB68013306
:10340000BB60BB68032BD5DD0F23FB181B78002B9B
:10341000C9D0AAE79C0A0020380D0020480D0020E2
:10342000580D002080B582B000AF7860084B1A6A52
:103430007B68D943064B0A401A62054B5A6A7B687F
:10344000D943034B0A405A62C046BD4602B080BD14
:103450000000504880B582B000AF7860084B9A6A8F
:103460007B68D943064B0A409A62054BDA6A7B684F
:10347000D943034B0A40DA62C046BD4602B080BD64
:103480000000504880B584B000AF7860074B196DDC
:10349000064B7A680A431A65044B1B6D7A68134021
:1034A000FB60FB68C046BD4604B080BD00004048DC
:1034B00080B584B000AF7860074B596D064B7A68D1
:1034C0000A435A65044B5B6D7A681340FB60FB68E6
:1034D000C046BD4604B080BD0000404880B584B001
:1034E00000AF7860074B996D064B7A680A439A657E
:1034F000044B9B6D7A681340FB60FB68C046BD4679
:1035000004B080BD0000404880B500AF80235B0060
:103510001800FFF7CDFFC046BD4680BD90B589B00D
:1035200000AF78600C243B19180014231A00002106
:1035300006F0F0FB7B681A688223DB059A423CD1D7
:103540000420FFF79FFF0820FFF79CFF3B19022292
:103550001A603B1912225A603B1900229A603B19EB
:103560000022DA603B1900221A613A199023DB0528
:103570001100180000F026FF21007B1840221A607D
:103580007B1812225A607B1800229A607B18002256
:10359000DA607B1800221A617B180A4A19001000B1
:1035A00000F010FF0220FFF73DFF4020FFF752FF21
:1035B00080239B031800FFF791FFC046BD4609B06A
:1035C00090BDC0460000104890B58FB000AF786045
:1035D0002423FB18180014231A00002106F09AFB7C
:1035E0000C243B19180018231A00002106F092FB46
:1035F0007B681B68294A93424CD13B1910221A6000
:103600003B190022DA603B19180004F0B7FB031ED7
:1036100001D0FDF739FD80235B001800FFF75EFF46
:103620000820FFF72FFF24243B1908221A603B19BA
:1036300002225A603B1900229A603B190022DA608C
:103640003B1901221A613B19154A1900100000F0BC
:10365000B9FE21007B1880221A607B1802225A6072
:103660007B1800229A607B180022DA607B18032204
:103670001A617B180A4A1900100000F0A3FE882086
:10368000FFF7E8FE00220121092000F0D7FD092004
:1036900000F0E9FDC046BD460FB090BD00500041AE
:1036A0000000104880B582B000AF78607B681B686E
:1036B000084A93420AD10120FFF7FAFE00220121B5
:1036C0000A2000F0BBFD0A2000F0CDFDC046BD463B
:1036D00002B080BD0020004080B500AFC046FDE7CD
:1036E00080B500AFC046FDE780B500AFC046BD461F
:1036F00080BD80B500AFC046BD4680BD80B500AF7F
:1037000000F0CAFCC046BD4680BD80B500AF03F0E6
:1037100060FEC046BD4680BD80B500AF03F062FECE
:10372000C046BD4680BD80B500AF03F0DEF8C046A0
:10373000BD4680BD80B500AF03F0FEF8C046BD4673
:1037400080BD000080B586B000AF7860144A154B8C
:10375000D31A7B617B693B61134B1B68002B02D141
:10376000114B124A1A60104B1A687B68D3183A69D9
:103770009A4207D206F0E8FA03000C221A600123ED
:103780005B4209E0084B1B68FB60074B1A687B68CB
:10379000D218054B1A60FB681800BD4606B080BD04
:1037A00000600020000C0000AC0A0020F40D002096
:1037B00090B583B000AF02003960FB1D1A70FB1D8D
:1037C0001B787F2B28D82F4AFB1D1B785BB29B08E8
:1037D000C0339B009B58FA1D1278110003220A4047
:1037E000D200FF2191400A00D2431A4011003B68E9
:1037F0009B01FF221A40FB1D1B7818000323034086
:10380000DB009A401F48FB1D1B785BB29B080A43F4
:10381000C0339B001A5031E01B4AFB1D1B78190076
:103820000F230B40083B9B0806339B00D31804333F
:103830001B68FA1D1278110003220A40D200FF21F2
:1038400091400A00D2431A4011003B689B01FF22BD
:103850001A40FB1D1B78180003230340DB009A402D
:103860000948FB1D1B781C000F232340083B9B08C5
:103870000A4306339B00C31804331A60C046BD4692
:1038800003B090BD00E100E000ED00E080B500AFC6
:10389000BFF34F8FC046044B044ADA60BFF34F8F2B
:1038A000C046C046FDE7C04600ED00E00400FA0552
:1038B00090B587B000AF5E4A9423D358002B0ED149
:1038C0005C4B1B69002B03D15A4B9B6B002B06D022
:1038D000594B01229A6000F0F5F8FFF7D7FF574BDC
:1038E000574A9A60554B9A68534B1A61514B5A6824
:1038F000504B20210A435A604E4B5A684D4B514958
:103900000A405A60C0464B4B5B6904221340042BAB
:10391000F9D1484BDB69302293431A00454B2021F3
:103920000A43DA61434BDA69424B47490A40DA619C
:10393000404BDA693F4B802149000A43DA61434B2F
:103940001B68434A934255D01F233B610823FB6009
:103950000A23BB6003237B60354BDB681E22934345
:103960001900FB685A00324B0A43DA60304BDA68C0
:103970002F4B01210A43DA602D4BDB68354A134097
:1039800019003B691A062A4B0A43DA60284BDA68A9
:10399000274B802109040A43DA60264A9423D3582E
:1039A0002D4A1A40BB689901F0239B000B40214926
:1039B000134394228B501F4A9423D3581D4920222D
:1039C000134394228B501B4A9423D358234A1A4002
:1039D0007B68D902E0239B010B40164913439422D4
:1039E0008B50144A9423D35812498022D200134397
:1039F00094228B501723FB1800221A700DE0172415
:103A00003B191B785BB203211800FFF7D1FE2100A0
:103A10007B181A787B1801321A701723FB181B7851
:103A20001F2BECD962B6C046C046BD4607B090BD5C
:103A300000004048000050480400002000ED00E075
:103A400000000410FFFEFFFFFFFBFFFFF81E001049
:103A5000CCECBCFCFFFFFFC03FFCFFFFFFC7FFFF3C
:103A600080B582B000AF134B9B685B08DAB2FB1DD8
:103A700001210A401A700F4B9B681B0ADAB2BB1D6A
:103A800007210A401A70FB1D1B78002B07D0BB1DB5
:103A90001B78013B084ADA40084B1A6005E0BB1D61
:103AA0001B78074ADA40054B1A60C046BD4602B093
:103AB00080BDC046000040480048E801680D002075
:103AC0000090D00380B500AFC046BD4680BD000069
:103AD00010488546FFF7ECFE002103E00E4B5B58D3
:103AE000435004310D480E4B42189A42F6D30D4A0A
:103AF00002E00023136004320B4B9A42F9D30B4AC5
:103B000002E0002313600432094B9A42F9D3FFF715
:103B100001FCFEE70060002020A70410380D002003
:103B2000F40D002094010020380D0020C00000207A
:103B300094010020FEE7000080B500AF054B1B6834
:103B400010221340102B01D1012300E000231800A4
:103B5000BD4680BD0000504880B582B000AF78609F
:103B600039607B6804331A683B68D9437B68043347
:103B70000A401A607B6819687B683A680A431A60D1
:103B8000C046BD4602B080BD80B584B000AF78604D
:103B9000074B196D064B7A680A431A65044B1B6D77
:103BA0007A681340FB60FB68C046BD4604B080BD28
:103BB0000000404880B584B000AF7860074B596D75
:103BC000064B7A680A435A65044B5B6D7A6813406A
:103BD000FB60FB68C046BD4604B080BD00004048A5
:103BE00080B584B000AF7860074B996D064B7A685A
:103BF0000A439A65044B9B6D7A681340FB60FB682F
:103C0000C046BD4604B080BD0000404890B589B0B4
:103C100000AF0200FB1D1A70FB1D1B78002B03D1A7
:103C20000820FFF7B1FF0AE0FB1D1B78012B03D131
:103C30000820FFF7A9FF02E00820FFF7A5FFFB1D02
:103C40001A78284B5200D35A1A000C243B191A60D8
:103C50003B1901225A603B1901229A603B1902224A
:103C6000DA60FB1D1A78204B9200D3583A191100E4
:103C7000180000F0A7FBFFF75FFF031E1FD0FB1D1E
:103C80001A78194B9200D2589023DB059A4206D13C
:103C90003B191B68154A19001000FFF75DFFFB1D5B
:103CA0001A78114B9200D358114A934207D10C2332
:103CB000FB181B680F4A19001000FFF74DFFFB1D92
:103CC0001A78094B9200D058FB1D1A78054B520008
:103CD000D35A0122190000F03BFD00231800BD4615
:103CE00009B090BD6C0D0020740D002020005048DC
:103CF000000010482800504880B582B000AF020094
:103D0000FB1D1A70FB1D1A78074B9200D058FB1D43
:103D10001A78064B5200D35A190000F036FD0023E2
:103D20001800BD4602B080BD740D00206C0D00204F
:103D300080B588B000AF0200FB1D1A70BB1D0A1CC5
:103D40001A700023FB61FB1D1B78002B03D104209C
:103D5000FFF71AFF0AE0FB1D1B78012B03D1082097
:103D6000FFF712FF02E00820FFF70EFFFB1D1A7895
:103D7000374B5200D35A1A0008217B181A607B185F
:103D800001229A607B180222DA60BB1D1B78002B8F
:103D90000CD17B1800225A60FB1D1A782D4B920023
:103DA000D3587A181100180000F00CFBBB1D1B78CB
:103DB000012B23D180235B001800FFF7FBFE0821B5
:103DC0007B18802252025A60FB1D1A78214B920008
:103DD000D3587A181100180000F0F4FAFB1D1B7874
:103DE0001D4AD35600220321180000F027FAFB1DBC
:103DF0001B78194AD356180000F035FAFFF79CFEDD
:103E0000031E20D0FB1D1A78124B9200D25890232B
:103E1000DB059A4207D10823FB181B680F4A1900DB
:103E20001000FFF799FEFB1D1A780A4B9200D35839
:103E30000B4A934207D10823FB181B68094A190053
:103E40001000FFF789FEFB691800BD4608B080BD71
:103E5000800D0020880D0020940D00202000504887
:103E6000000010482800504880B584B000AF020020
:103E70003960FB1D1A700023FB603B68002B03D1E7
:103E800002235B42FB6026E0FB1D1978FB1D1A78BC
:103E9000134B8900C958134B94204243D150FB1D4A
:103EA0001B7894225A430F4BD318180000F04EF899
:103EB000FB68002B0FD1FB1D1B7894225A43094B42
:103EC000D3183A681100180000F00EF8031E02D053
:103ED00004235B42FB60FB681800BD4604B080BD54
:103EE000980D0020B00A002080B582B000AF786045
:103EF00039603B681A687B685A603B685A687B681F
:103F00009A603B681B891A007B68DA603B685B89B2
:103F10001A007B681A617B680C225A613B689B8996
:103F20001A007B689A617B6880221202DA617B68E2
:103F300000221A627B6800225A627B68180004F033
:103F400057FB03001800BD4602B080BD90B589B094
:103F500000AF78600420FFF717FE0820FFF714FE7B
:103F60008023DB001800FFF73BFE0C243B190222E4
:103F70001A603B1902225A603B190222DA603B198F
:103F800001229A603B1902221A613A199023DB053B
:103F90001100180000F016FAFFF7CEFD031E06D040
:103FA0003B191B680A4A19001000FFF7D5FD0C21C8
:103FB0007B1801221A607B1800221A617B18054ABF
:103FC0001900100000F0FEF9C046BD4609B090BDD2
:103FD000200050480000104880B582B000AFFB1DA3
:103FE00000221A70032000F00FF8031E03D0FB1DFF
:103FF00001221A7001E0FFF787FAFB1D1B781800F9
:10400000BD4602B080BD000090B585B000AF7860BD
:104010000F23FB1800221A701D4B1B78002B2CD08D
:1040200003F0C2FD04001A4B1B781900FA23980014
:10403000FCF77AF8030019002000FCF775F803007C
:10404000180000F020F9031E12D17B68032B0AD858
:10405000796801235B420022180000F0EFF80D4B55
:104060007A681A600DE00F23FB1801221A7008E02D
:104070000F23FB1801221A7003E00F23FB18012203
:104080001A700F23FB181B781800BD4605B090BDB1
:10409000A00D00209C0D002080B500AF054B1B78C3
:1040A0001A00054B1B68D218034B1A60C046BD4668
:1040B00080BDC046A00D0020440B002080B500AF9D
:1040C000024B1B681800BD4680BDC046440B002053
:1040D00080B500AF024B1B681800BD4680BDC046CE
:1040E0009C0D002080B582B000AF0200FB1D1A704D
:1040F000FB1D1B787F2B09D8FB1D1B781A001F2383
:104100001A40044B012191400A001A60C046BD4686
:1041100002B080BD00E100E090B583B000AF0200C6
:104120003960FB1D1A70FB1D1B787F2B28D82F4A86
:10413000FB1D1B785BB29B08C0339B009B58FA1D8C
:104140001278110003220A40D200FF2191400A0098
:10415000D2431A4011003B689B01FF221A40FB1D0D
:104160001B78180003230340DB009A401F48FB1D07
:104170001B785BB29B080A43C0339B001A5031E0A6
:104180001B4AFB1D1B7819000F230B40083B9B08A3
:1041900006339B00D31804331B68FA1D12781100F4
:1041A00003220A40D200FF2191400A00D2431A4064
:1041B00011003B689B01FF221A40FB1D1B78180071
:1041C00003230340DB009A400948FB1D1B781C00B9
:1041D0000F232340083B9B080A4306339B00C31868
:1041E00004331A60C046BD4603B090BD00E100E054
:1041F00000ED00E080B582B000AF78607B685A1EA9
:1042000080235B049A4201D3012310E00A4B7A68B1
:10421000013A5A6001235B4203211800FFF77CFF3B
:10422000054B00229A60044B07221A6000231800F5
:10423000BD4602B080BDC04610E000E080B584B04D
:1042400000AFB9607A600F217B18021C1A70BA683F
:104250007B181B785BB211001800FFF75DFFC046AA
:10426000BD4604B080BD80B582B000AF0200FB1D2A
:104270001A70FB1D1B785BB21800FFF733FFC046B6
:10428000BD4602B080BD80B582B000AF78607B686B
:104290001800FFF7AFFF03001800BD4602B080BD55
:1042A00080B582B000AF78607B68002B01D101231C
:1042B00031E07B6825229B5CDBB2022B08D07B6857
:1042C0000422DA637B68242200219954012322E02E
:1042D0007B681B681A687B681B680E218A431A601A
:1042E0007B681B681A687B681B6801218A431A6017
:1042F0007B685B6C3C221A407B681B6C01219140FF
:104300000A005A607B682522012199547B68242287
:104310000021995400231800BD4602B080BD80B52D
:1043200084B000AF78600F217B1800221A707B6880
:1043300025229B5CDBB2022B06D07B680422DA6369
:104340007B1801221A702AE07B681B681A687B6858
:104350001B680E218A431A607B681B681A687B6899
:104360001B6801218A431A607B685B6C3C221A40FF
:104370007B681B6C012191400A005A607B682522F2
:10438000012199547B682422002199547B689B6BFE
:10439000002B04D07B689B6B7A68100098470F2332
:1043A000FB181B781800BD4604B080BD80B582B0F4
:1043B00000AF78607B6825229B5CDBB21800BD46AD
:1043C00002B080BD80B586B000AF78603960002350
:1043D0007B6194E13B681B6801217A6991400A0086
:1043E0001340FB60FB68002B00D185E13B685B68F4
:1043F00003221340012B05D03B685B680322134066
:10440000022B30D17B689B683B617B695B00032298
:104410009A401300DA433B6913403B613B68DA681A
:104420007B695B009A4013003A6913433B617B68E8
:104430003A699A607B685B683B6101227B699A40BC
:104440001300DA433B6913403B613B685B681B091F
:1044500001221A407B699A4013003A6913433B6179
:104460007B683A695A603B685B6803221340032B00
:1044700017D07B68DB683B617B695B0003229A4055
:104480001300DA433B6913403B613B689A687B69E0
:104490005B009A4013003A6913433B617B683A69B9
:1044A000DA603B685B6803221340022B23D17B69EF
:1044B000DA087B6808329200D3583B617B69072297
:1044C00013409B000F229A401300DA433B691340CC
:1044D0003B613B681A697B6907210B409B009A404E
:1044E00013003A6913433B617B69DA087B68083241
:1044F00092003969D1507B681B683B617B695B0026
:1045000003229A401300DA433B6913403B613B6846
:104510005B6803221A407B695B009A4013003A698A
:1045200013433B617B683A691A603B685A68C02351
:104530009B02134000D1DFE03B685A688023DB0216
:10454000134031D08023DB05DB683B617A68902320
:10455000DB059A4211D101227B699A401300DB43AB
:104560001A003B6913403B6101227B699A401300AA
:104570001A003B6913433B6112E001227B699A40B8
:1045800013001B04DB431A003B6913403B6101220B
:104590007B699A4013001B041A003B6913433B617B
:1045A0008023DB053A69DA603B685A6880235B0345
:1045B000134031D08023DB051B693B617A6890236F
:1045C000DB059A4211D101227B699A401300DB433B
:1045D0001A003B6913403B6101227B699A4013003A
:1045E0001A003B6913433B6112E001227B699A4048
:1045F00013001B04DB431A003B6913403B6101229B
:104600007B699A4013001B041A003B6913433B610A
:104610008023DB053A691A613B685A688023DB0313
:10462000134031D08023DB055B693B617A689023BE
:10463000DB059A4211D101227B699A401300DB43CA
:104640001A003B6913403B6101227B699A401300C9
:104650001A003B6913433B6112E001227B699A40D7
:1046600013001B04DB431A003B6913403B6101222A
:104670007B699A4013001B041A003B6913433B619A
:104680008023DB053A695A613B685A6880235B02E4
:10469000134031D08023DB059B693B617A6890230E
:1046A000DB059A4211D101227B699A401300DB435A
:1046B0001A003B6913403B6101227B699A40130059
:1046C0001A003B6913433B6112E001227B699A4067
:1046D00013001B04DB431A003B6913403B610122BA
:1046E0007B699A4013001B041A003B6913433B612A
:1046F0008023DB053A699A617B6901337B613B6802
:104700001A687B69DA40131E00D063E6C046C046D3
:10471000BD4606B080BD80B584B000AF78600A00A9
:10472000BB1C1A807B681B69BA1C1288134004D01A
:104730000F23FB1801221A7003E00F23FB1800223D
:104740001A700F23FB181B781800BD4604B080BDFB
:1047500080B582B000AF786008001100BB1C021C5D
:104760001A807B1C0A1C1A707B1C1B78002B04D03F
:10477000BB1C1A887B689A6103E0BB1C1A887B68A3
:104780009A62C046BD4602B080BD80B584B000AF1D
:1047900078600A00BB1C1A807B685B69FB60BB1CED
:1047A0001B88FA6813401A04FB68DB43B91C0988AC
:1047B0000B401A437B689A61C046BD4604B080BD79
:1047C00080B582B000AF78607B68002B01D10123F7
:1047D0008FE07B6841229B5CDBB2002B07D17B68BA
:1047E0004022002199547B681800FEF797FE7B68F1
:1047F0004122242199547B681B681A687B681B68D6
:1048000001218A431A607B685A687B681B683B49B0
:104810000A401A617B681B689A687B681B68384984
:104820000A409A607B68DB68012B08D17B689A6834
:104830007B681B68802109020A439A6007E07B6855
:104840009A687B681B68842109020A439A607B6826
:10485000DB68022B09D17B681B685A687B681B6880
:10486000802109010A435A6007E07B681B685A6887
:104870007B681B6823490A405A607B681B685A683A
:104880007B681B6820490A435A607B681B68DA68AA
:104890007B681B681A490A40DA607B681A697B6882
:1048A0005B691A4311007B689B691A027B681B686D
:1048B0000A43DA607B68D9697B681A6A7B681B687F
:1048C0000A431A607B681B681A687B681B680121B1
:1048D0000A431A607B6800225A647B6841222021C7
:1048E00099547B6800221A637B6842220021995404
:1048F00000231800BD4602B080BDC046FFFFFFF098
:10490000FF7FFFFFFFF7FFFF0080000290B587B039
:1049100002AFF8600C00100019000A23FB18221CDB
:104920001A800823FB18021C1A80BB1D0A1C1A805F
:10493000FB6841229B5CDBB2202B00D07DE03B6A10
:10494000002B04D02423FB181B88002B05D1FB6807
:10495000802292005A64012370E0FB681B689A6908
:1049600080231B021A4080231B029A4201D102239A
:1049700064E0FB6840229B5C012B01D102235DE0D7
:10498000FB68402201219954FB684122212199545E
:10499000FB68422240219954FB6800225A64FB685C
:1049A00000221A85FB683A6A5A62FB682422BA1808
:1049B00012885A85FB68234ADA62FB68224A5A63E6
:1049C0000A23FB181A88FB68DA64BB1D1B88012BBD
:1049D0000BD10823FB181B88DAB2FB681B689A62AC
:1049E000FB68012252421A650EE008217B181B88E1
:1049F0001B0A9BB2DAB2FB681B689A627B181B88A1
:104A0000DBB21A00FB681A65BB1D1B88DAB2802373
:104A10005C040A23FB181988F8680C4B00932300E8
:104A200001F006FCFB68402200219954FB6801213B
:104A3000180001F037FC002300E002231800BD46F7
:104A400005B090BD0000FFFF054D04100020008060
:104A500090B587B002AFF8600C00100019000A236F
:104A6000FB18221C1A800823FB18021C1A80BB1D8D
:104A70000A1C1A80FB6841229B5CDBB2202B00D011
:104A800078E03B6A002B04D02423FB181B88002B02
:104A900005D1FB68802292005A6401236BE0FB6819
:104AA0001B689A6980231B021A4080231B029A42CA
:104AB00001D102235FE0FB6840229B5C012B01D106
:104AC000022358E0FB68402201219954FB684122EF
:104AD00022219954FB68422240219954FB6800220C
:104AE0005A64FB683A6A5A62FB682422BA18128830
:104AF0005A85FB68224ADA62FB68224A5A630A2313
:104B0000FB181A88FB68DA64BB1D1B88012B0BD1CC
:104B10000823FB181B88DAB2FB681B689A62FB68E3
:104B2000012252421A650EE008217B181B881B0ADD
:104B30009BB2DAB2FB681B689A627B181B88DBB2F7
:104B40001A00FB681A65BB1D1B88DAB20A23FB1822
:104B50001988F8680C4B0093002301F069FBFB688F
:104B6000402200219954FB680121180001F09AFBB2
:104B7000002300E002231800BD4605B090BDC046EA
:104B80000000FFFF054D04100020008080B584B0B8
:104B900000AF78607B681B689B69FB607B681B6863
:104BA0001B68BB607B685B6B002B05D07B685B6B15
:104BB000BA68F96878689847C046BD4604B080BDB9
:104BC00080B586B000AF78607B681B689B697B61AD
:104BD0007B681B681B683B617A6980235B0013401C
:104BE0000ED03B69802213400AD07B685B6C0122A7
:104BF0001A437B685A647B681B6880225200DA6122
:104C00007A698023DB0013400ED03B698022134079
:104C10000AD07B685B6C08221A437B685A647B6805
:104C20001B688022D200DA617A6980239B001340DE
:104C30000ED03B69802213400AD07B685B6C022255
:104C40001A437B685A647B681B6880229200DA6191
:104C50007B685B6CFB60FB680B22134005D0FA6835
:104C60007B681100180001F077F9C046BD4606B018
:104C700080BD80B582B000AF7860C046BD4602B04E
:104C800080BD80B582B000AF7860C046BD4602B03E
:104C900080BD80B582B000AF7860C046BD4602B02E
:104CA00080BD80B582B000AF7860C046BD4602B01E
:104CB00080BD80B582B000AF786008001100FB1C99
:104CC000021C1A703B000A1C1A80C046BD4602B086
:104CD00080BD80B582B000AF7860C046BD4602B0EE
:104CE00080BD80B582B000AF7860C046BD4602B0DE
:104CF00080BD80B582B000AF7860C046BD4602B0CE
:104D000080BD000090B589B002AFF860B9607A60EC
:104D10008B4B7B61BB683B61FB6840229B5C012B3A
:104D200001D1022307E1FB684022012199543B692C
:104D30001022134012D07B68102213400ED0FB6863
:104D40001B681022DA61FB685B6C04221A43FB6863
:104D50005A64FB68180001F02AFAD9E03B69042282
:104D6000134021D07B68042213401DD03B690422EC
:104D700093433B61FB681B685A6AFB685B6AD2B26B
:104D80001A70FB685B6A5A1CFB685A62FB681B8DD1
:104D9000013B9AB2FB681A85FB685B8D9BB2013BB5
:104DA0009AB2FB685A85B3E03B69022213402AD0CD
:104DB0007B680222134026D0FB681B6D013318D19B
:104DC000FB685B6A1A78FB681B689A62FB685B6A1F
:104DD0005A1CFB685A62FB681B8D013B9AB2FB6848
:104DE0001A85FB685B8D9BB2013B9AB2FB685A85C2
:104DF0008EE0FB681B68FA68126D9A62FB680122FC
:104E000052421A6584E03B69802213403CD07B68A3
:104E10004022134038D0FB685B8D9BB2002B2CD016
:104E2000FB681B8D002B28D1FB685B8D9BB2FF2B91
:104E300010D9FB68FF221A85FB68DB6C99B2FB680E
:104E40001B8DDAB280235B04F8680024009401F023
:104E5000EFF918E0FB685B8D9AB2FB681A85FB6876
:104E6000DB6C99B2FB681B8DDAB280239B04F86877
:104E70000024009401F0DCF905E0FB6840211800F3
:104E800001F06AF844E043E03B69402213403FD020
:104E90007B68402213403BD0FB680121180001F0E1
:104EA0008BFAFB680221180001F0FCF9FB68412233
:104EB0009B5CDBB2222B01D1224B7B61FB685B8DBB
:104EC0009BB2FF2B11D9FB68FF221A85FB68DB6CB4
:104ED00099B2FB681B8DDAB280235C04F8687B69A9
:104EE0000093230001F0A4F912E0FB685B8D9AB2F5
:104EF000FB681A85FB68DB6C99B2FB681B8DDAB224
:104F000080239C04F8687B690093230001F090F9EA
:104F10003B692022134009D07B682022134005D032
:104F20003A69FB681100180000F068FDFB68402238
:104F30000021995400231800BD4607B090BDC0461B
:104F4000002000800024008080B586B000AFF860AB
:104F5000B9607A60FB68DB6A7B61BB683B61FB68B8
:104F600040229B5C012B01D10223E7E0FB68402239
:104F7000012199543B69202213400AD07B682022EA
:104F8000134006D03A69FB681100180000F004FED7
:104F9000CFE03B691022134052D07B6810221340AF
:104FA0004ED0FB685B8D9BB2002B2DD1FB6841225C
:104FB0009B5CDBB2282B0BD17A6980239B049A423D
:104FC00006D13A69FB681100180000F06DFF36E069
:104FD000FB6841229B5CDBB2292B10D17B69594ACB
:104FE00093420CD0FB681B681022DA61FB68180042
:104FF00001F0DDF8FB68180000F09CFC1FE0FB6886
:105000001B681022DA6191E0FB681B681022DA61EC
:10501000FB685B6C04221A43FB685A647B69002BB3
:1050200005D07A6980235B049A4200D07EE0FB6859
:105030005A6CFB681100180000F08EFF76E075E0F6
:105040003B69042213402FD07B68042213402BD0ED
:10505000FB685B8D9BB2002B18D0FB681B685A6AFB
:10506000FB685B6AD2B21A70FB685B6A5A1CFB6809
:105070005A62FB681B8D013B9AB2FB681A85FB687C
:105080005B8D9BB2013B9AB2FB685A85FB685B8DD6
:105090009BB2002B4CD17B692A4A934248D0FB68D3
:1050A000180000F047FC43E03B69082213400AD097
:1050B0007B680822134006D03A69FB68110018008B
:1050C00000F052FB35E03B690222134031D07B688F
:1050D000022213402DD0FB685B8D9BB2002B18D0B1
:1050E000FB685B6A1A78FB681B689A62FB685B6AFC
:1050F0005A1CFB685A62FB685B8D9BB2013B9AB2FB
:10510000FB685A85FB681B8D013B9AB2FB681A85C8
:105110000FE07A6980235B049A4202D07B69002BFE
:1051200007D1FB68180000F005FC02E0C04600E073
:10513000C046FB6840220021995400231800BD4658
:1051400006B080BD0000FFFF90B589B002AFF860E7
:10515000B9607A60FB6840229B5C012B01D102237D
:10516000E7E0FB68402201219954BB6810221340FC
:1051700017D07B681022134013D0FB681B681022E5
:10518000DA61FB685B6C04221A43FB685A64FB68B3
:105190002021180001F086F8FB68180001F007F8DC
:1051A000C2E0BB688022134000D17CE07B684022D3
:1051B000134000D177E0FB681B681A68FB681B6826
:1051C00040218A431A60FB685B8D9BB2002B55D04F
:1051D000FB681B685B689AB21223FB189205920D5C
:1051E0001A80FB685B8D9BB2FF2B06D9FB68FF2200
:1051F0001A8580235B047B6110E0FB685B8D9AB2AB
:10520000FB681A85FB68DB6A4C4A934203D0FB6853
:10521000DB6A7B6102E080239B047B61FB681B8D62
:10522000DAB27C691223FB181988F868002300930E
:10523000230000F0FDFFFB685B8D9AB2FB681B8DBD
:10524000D31A9AB2FB685A85FB6841229B5CDBB299
:10525000222B09D1FB681B681A68FB681B68802138
:1052600009020A431A605FE0FB681B681A68FB6862
:105270001B688021C9010A431A6055E0FB681B685E
:105280005A6880239B041A4080239B049A4204D0CE
:10529000FB68180000F00CFB46E0FB68402118009A
:1052A00000F05AFE40E0BB68402213402CD07B68DF
:1052B0004022134028D0FB685B8D9BB2002B1DD190
:1052C000FB681B685A6880239B041A4080239B0458
:1052D0009A4228D0FB68DB6A184A934209D1FB68DE
:1052E0001B685A68FB681B688021C9010A435A6021
:1052F00019E0FB68180000F0DBFA14E0FB684021BD
:10530000180000F029FE0EE0BB68202213400BD0ED
:105310007B682022134007D0BA68FB681100180090
:1053200000F06CFB00E0C046FB684022002199546D
:1053300000231800BD4607B090BDC0460000FFFF27
:1053400090B589B002AFF860B9607A60904B7B612C
:10535000FB6840229B5C012B01D1022313E1FB6817
:10536000402201219954BB681022134017D07B685A
:105370001022134013D0FB681B681022DA61FB680F
:105380005B6C04221A43FB685A64FB6820211800F6
:1053900000F088FFFB68180000F009FFEEE0BB6832
:1053A000022213400DD07B680222134009D0FB6813
:1053B0001B68FA68126D9A62FB68012252421A65F4
:1053C000DCE0BB688022134063D07B68402213403E
:1053D0005FD0FB680121180000F0EEFFFB68102190
:1053E000180000F05FFFFB685B8D9BB2002B4AD07A
:1053F000FB685B8D9BB2FF2B10D9FB68FF221A85DF
:10540000FB68DB6C99B2FB681B8DDAB280235B040E
:10541000F8680024009400F00BFF11E0FB685B8D3E
:105420009AB2FB681A85FB68DB6C99B2FB681B8D2E
:10543000DAB280239B04F8680024009400F0F8FEA0
:10544000FB685B8D9AB2FB681B8DD31A9AB2FB681E
:105450005A85FB6841229B5CDBB2222B09D1FB6899
:105460001B681A68FB681B68802109020A431A60DE
:1054700084E0FB681B681A68FB681B688021C9010F
:105480000A431A607AE0FB684021180000F064FDCE
:1054900074E0BB684022134062D07B684022134016
:1054A0005ED0FB680121180000F086FFFB68102128
:1054B000180000F0F7FEFB6841229B5CDBB2222B58
:1054C00001D1344B7B61FB685B8D9BB2FF2B11D903
:1054D000FB68FF221A85FB68DB6C99B2FB681B8DA9
:1054E000DAB280235C04F8687B690093230000F043
:1054F0009FFE12E0FB685B8D9AB2FB681A85FB6821
:10550000DB6C99B2FB681B8DDAB280239C04F868CF
:105510007B690093230000F08BFEFB685B8D9AB2E1
:10552000FB681B8DD31A9AB2FB685A85FB6841222F
:105530009B5CDBB2222B09D1FB681B681A68FB68F5
:105540001B68802109020A431A6017E0FB681B6888
:105550001A68FB681B688021C9010A431A600DE0C4
:10556000BB682022134009D07B682022134005D05D
:10557000BA68FB681100180000F040FAFB6840228E
:105580000021995400231800BD4607B090BDC046C5
:10559000002000800024008080B588B000AFF86053
:1055A000B9607A60FB68DB6ABB610023FB61FB6862
:1055B00040229B5C012B01D10223CEE0FB684022FC
:1055C00001219954BB68202213400AD07B68202215
:1055D000134006D0BA68FB681100180000F0DCFA2E
:1055E000B6E0BB681022134000D1A3E07B68102214
:1055F000134000D19EE07A688023DB01134005D17F
:105600007A6880231B02134000D18CE0FB68DB6BBF
:10561000002B0CD07A6880231B02134007D0FB6854
:10562000DB6B1B685B68002B01D10123FB61FB680E
:105630009B6B002B0CD07A688023DB01134007D0D2
:10564000FB689B6B1B685B68002B01D10123FB612E
:10565000FB69012B2DD1FB6841229B5CDBB2282B1F
:105660000BD1BA6980239B049A4206D1BA68FB68C1
:105670001100180000F018FC54E0FB6841229B5C0C
:10568000DBB2292B10D1BB69364A93420CD0FB68A0
:105690001B681022DA61FB68180000F088FDFB68C7
:1056A000180000F047F93DE0FB681B681022DA6142
:1056B0003EE0FB681B681022DA61FB685B6C042229
:1056C0001A43FB685A641723FB18FA684121525C9D
:1056D0001A70BB69002B04D0BA6980235B049A421C
:1056E00026D11722BB181B78212B03D0BB181B789F
:1056F000292B03D1FB6821221A630BE01722BB1868
:105700001B78222B03D0BB181B782A2B02D1FB68F5
:1057100022221A63FB685A6CFB681100180000F023
:105720001BFC05E004E0FB681B681022DA610FE057
:10573000C0460DE0BB680822134009D07B680822F0
:10574000134005D0BA68FB681100180000F00CF88F
:10575000FB6840220021995400231800BD4608B080
:1057600080BDC0460000FFFFB0B584B000AF7860D8
:1057700039607B6841229B5CDBB21A00282313400E
:10578000282B00D088E07B681B689B691B0CDAB271
:105790000F257B1901210A401A707B681B689B69E1
:1057A0001B0C9AB20C203B18FE210A401A807B6821
:1057B0001B689B689AB20A243B199205920D1A80C5
:1057C0007B681B68DB689AB20823FB18FE210A403D
:1057D0001A807B68DB68022B48D121007B181B886C
:1057E000DB099AB23B181B8853409BB21A00062370
:1057F000134020D13B187A1812881A807B689B6C62
:105800005A1C7B689A647B689B6C022B4CD17B682A
:1058100000229A647B681B680822DA617B68402258
:10582000002199543B181A887B1919787B68180055
:10583000FFF73FFA38E00C243B190822BA18128807
:105840001A8080231A027B681100180000F0B4FD52
:105850007B684022002199543B191A880F23FB18BA
:1058600019787B681800FFF724FA1DE080231A02DC
:105870007B681100180000F09FFD7B68402200212A
:1058800099540C23FB181A880F23FB1819787B688E
:105890001800FFF70EFA07E07B681B680822DA6140
:1058A0007B68402200219954C046BD4604B0B0BD7B
:1058B00080B582B000AF78607B68422200219954A5
:1058C0007B6841229B5CDBB2212B17D17B68412294
:1058D000202199547B6811221A637B6800225A6345
:1058E0007B680121180000F067FD7B6840220021E1
:1058F00099547B681800FFF7BCF916E07B684122D9
:10590000202199547B6812221A637B6800225A6313
:105910007B680221180000F04FFD7B6840220021C7
:1059200099547B681800FFF7ACF9C046BD4602B039
:1059300080BD000080B584B000AF78607B681B68D4
:105940001B68FB607B68422200219954FA6880231F
:10595000DB01134008D07B681B681A687B681B68F2
:1059600024490A401A600CE0FA6880231B021340A5
:1059700007D07B681B681A687B681B681E490A4051
:105980001A607B6841229B5CDBB2292B14D17B68B7
:105990004122282199547B6821221A637B680121C6
:1059A000180000F009FD7B684022002199547B68B3
:1059B0001800FFF76EF919E07B6841229B5CDBB2AF
:1059C0002A2B13D17B684122282199547B682222FB
:1059D0001A637B680221180000F0EEFC7B6840220D
:1059E000002199547B681800FFF75BF9C046BD465B
:1059F00004B080BDFFBFFFFFFF7FFFFF80B586B013
:105A000000AF786039603B687B617B681B6820224F
:105A1000DA617B6841229B5CDBB2212B08D17B6879
:105A20000121180000F0C8FC7B6811221A630DE008
:105A30007B6841229B5CDBB2222B07D17B68022171
:105A4000180000F0B9FC7B6812221A637B681B689F
:105A50005A687B681B684E490A405A607B6800227E
:105A60005A637B684B4ADA627B691022134009D083
:105A70007B681B681022DA617B685B6C04221A4326
:105A80007B685A647B6841229B5CDBB2602B09D146
:105A90007B690422134005D07B681B685B6ADBB21C
:105AA000FB60FB687B68180000F081FB7B685B6C27
:105AB0003B617B6841229B5CDBB2602B02D03B697F
:105AC000002B07D07B685A6C7B681100180000F02F
:105AD00043FA58E07B6841229B5CDBB2212B26D144
